:020000040000FA
:060000000200FC02215584
:03001300021E4585
:03002B00021E4270
:03003300021E2882
:03003B00021EB1F1
:030053000221CBBC
:03006B00021E0E64
:1000830002209774F855C74401F5C779012200008F
:100093000080FB120086B900030200E6E4791278BF
:1000A30002B800028004F709D8FCE49003C1783851
:1000B300790F8002F0A3D8FCD9FA9011F8AA82AB89
:1000C3008390012C78C579018015E493A3AC82ADAC
:1000D300838A828B83F0A3AA82AB838C828D83D89D
:1000E300E9D9E775828D7583FF740112010E75825C
:1000F30091758300740012010E75D00075813F75F0
:1001030010C1751103759F00020096C09FF59FE40F
:1001130073D09F22D083D082C09FE493C0E0740148
:1001230093C0E0740293F59F22FF544920424C454B
:10013300204D61737465720000000000000000111F
:1001430000FF00FF00000078002800280028307519
:10015300A000A000A000A00000080008E001F0003B
:10016300100010001000100010001000500050008C
:10017300500010001000D0070000000000000F0026
:1001830030750700100030750000FFFF0202023EC9
:1001930090010000C59002D2900100005B1202D0D2
:1001A300900100002A0702D2900100005C1202CEE7
:1001B300900100003F07FFFF010020023E90010075
:1001C30000C29002D290010000891202CC9000007C
:1001D300000000C412C412C412C412C412C412C454
:1001E30012C412C412C412C412C412C412120117CC
:1001F300F2FF011201177DCA0312011792CA0312FB
:100203000117F0CA031201175DCB03120117A1CB2B
:100213000312011711CC031201173ECC031201176D
:100223004CCC03120117BCCC0312011700CD0312EF
:1002330001171BCD0312011736CD03120117D1CDC0
:100243000312011791CE0312011717CF03120117DF
:100253004FCF03120117DDCF0312011737D003125B
:10026300011799D003120117BFD003120117C8D089
:10027300031201171AD2031201179BD2031201179B
:10028300049D04120117E29D0412011753A00412E6
:1002930001171F9004120117649004120117A9900B
:1002A300041201178892041201177F7F00120117AD
:1002B3009A7F00120117637A001201177D7A0012E8
:1002C30001179C7B00120117EC7B00120117107CB5
:1002D300001201175A7C00120117C47C0012011787
:1002E300157D00120117687D00120117657F00124A
:1002F3000117CFFF02120117E6FE02120117F7FEE4
:1003030002120117CF92041201176A950412011702
:10031300E5FF03120117749F04120117849F04124F
:100323000117A49F0412011745A004120117398D68
:1003330004120117F18D041201170490041201171E
:10034300CE9904120117FB9904120117699A04123A
:100353000117C79A04120117429B041201179283D3
:1003630004120117AA83041201172385041201172B
:100373003E85041201175E8504120117AC85041231
:100383000117C88504120117E48504120117FA85C1
:100393000412011719860412011738860412011773
:1003A300638604120117B88604120117DBE80312EF
:1003B3000117F3E80312011788E903120117A3EAEF
:1003C300031201175BED0312011763FA03120117FE
:1003D30081FA0312011703FB0312011766FB0312D1
:1003E300011750FC0312011740FD031201178EFD84
:1003F300031201179CFD03120117B9FD0312011724
:10040300E2FD031201170BFE0312011719FE03127B
:1004130001178023001201173224001201177325DC
:10042300001201172C27001201176429001201176B
:100433009329001201179E2A001201174038001257
:100443000117373A00120117F34700120117264923
:1004530000120117E95D00120117D35E00120117A4
:10046300EC6200120117A7FD0112011708FE011229
:100473000117B1FE011201172EFF011201177DF6BC
:1004830003120117AEF603120117C2F70312011785
:10049300F1F803120117A1F903120117B1AD031209
:1004A3000117ABAE03120117F2AE031201172FAF00
:1004B30003120117A4AF0312011705B003120117AA
:1004C30082B0031201175FB1031201176AB203125C
:1004D3000117F6B203120117AAB4031201173FB5AD
:1004E30003120117CBB50312011760B603120117EC
:1004F3006EB603120117B8B703120117F09704126F
:1005030001172998041201173F98041201176C98D8
:10051300041201179C9804120117B39804120117CF
:10052300CA98041201170599041201173699041287
:1005330001178799041201179E9904120117B5999F
:10054300041201172FFE0312011746FE03120117AF
:1005530075FE03120117AEFE03120117D6FE031236
:10056300011704FF031201171BFF0312011732FFC8
:100573000312011749FF0312011770FF031201173A
:1005830084FF031201179AFF03120117AEFF031230
:100593000117D3FF03120117008003120117FC8018
:1005A3000312011726810312011771810312011728
:1005B3007E8103120117A08103120117A281031286
:1005C3000117CA8103120117CD8103120117EF81AD
:1005D30003120117E682031201172E840312011777
:1005E300EA8403120117AE85031201170F86031263
:1005F3000117F18603120117F48603120117768798
:1006030003120117798703120117CB87031201170E
:10061300CE8703120117058803120117748803128A
:100623000117AB8803120117388903120117828956
:1006330003120117918903120117948903120117F9
:10064300F58903120117F88903120117228A03128D
:1006530001177C8A03120117F48A03120117F78A20
:1006630003120117328B03120117358B0312011783
:10067300A78B03120117AA8B03120117568C0312BF
:100683000117598C03120117E38C031201171A8DFA
:1006930003120117488D03120117578D0312011717
:1006A3005A8D03120117C88D03120117D78D031238
:1006B3000117B38E031201176E8F03120117EEE1B8
:1006C30003120117C5E20312011745E403120117D0
:1006D3006DE403120117A1E403120117ECE4031202
:1006E300011743E50312011781E503120117C0E562
:1006F30003120117F0E50312011777E6031201173E
:1007030081E60312011796E603120117CDE60312E1
:100713000117B9E703120117C5E703120117DDE754
:1007230003120117E7E70312011768E80312011721
:1007330085C40112011779C501120117B3C501124E
:1007430001178AC6011201173CC7011201177CC7A2
:100753000112011786C70112011742C801120117BE
:100763005DC80112011773C80112011757C901129D
:100773000117ACC901120117CDC901120117B1CA82
:1007830001120117E5CA0112011790CB01120117DB
:10079300D7CB0112011734CC011201174DCC011232
:1007A30001176ACC0112011780CC0112011796CCF4
:1007B3000112011705CD0112011776CD01120117A0
:1007C300ADCD011201171FCE0112011737CE011251
:1007D3000117E9CF01120117CDD0011201177DD105
:1007E30001120117E8D4011201177BD60112011778
:1007F300CDD601120117EBD70112011709D8011247
:10080300011766D80112011709DA0112011789DAF3
:100813000112011717DB01120117B1DC01120117D5
:10082300D4DC011201178ADD0112011738DE01122F
:100833000117BADE01120117A3DF01120117E4E069
:1008430001120117AEE1011201172CE20112011787
:100853003AE2011201179BE20112011778E3011238
:100863000117C8E301120117EBE301120117E9E5D0
:100873000112011734E60112011759E6011201179B
:10088300D4E601120117E4E701120117CAE80112C5
:1008930001174CF2031201175CF20312011782F2E3
:1008A3000312011738F40312011734F50312011769
:1008B3001E8A04120117868A04120117C68A0412BB
:1008C3000117828C04120117316300120117B263FE
:1008D30000120117C2630012011708640012011706
:1008E30090640012011769650012011795650012E3
:1008F3000117D26500120117E9650012011770662E
:10090300001201177A66001201178C660012011794
:10091300C466001201172F67001201178E670012B9
:100923000117D16700120117DC6700120117E7678F
:10093300001201179368001201176C690012011766
:10094300B36900120117036A001201178D6A0012BE
:100953000117A36B001201176E6D00120117F76EDA
:1009630000120117746F001201175570001201175E
:10097300E873001201178F7400120117CB75001270
:1009830001171D7700120117C377001201171078A2
:1009930000120117447800120117E47800120117BE
:1009A300727900120117E58F031201173B900312AE
:1009B30001178E91031201179E9103120117C19122
:1009C300031201171192031201172993031201173E
:1009D3001194031201176D9503120117AA950312BF
:1009E30001174B9603120117989603120117C0962D
:1009F30003120117AB9803120117B09803120117E2
:100A03009B9A03120117E49A03120117559B0312D1
:100A13000117819B03120117169C03120117E69C11
:100A2300031201171B9D031201171E9D03120117C9
:100A3300749D03120117B69D03120117289E03121A
:100A430001177895041201178B95041201179495D9
:100A530004120117AD9504120117FA950412011738
:100A6300D69604120117779704120117C49704123C
:100A73000117FCAD011201173AAE0112011781AE45
:100A83000112011795AF0112011767B00112011787
:100A93009DB001120117D3B001120117F1B2011277
:100AA3000117E6B40112011798B601120117D0B766
:100AB3000112011732BA011201179EBB011201176D
:100AC300EABC011201173BBE0112011781BE0112DC
:100AD300011761C3011201170DC4011201178AEB3B
:100AE3000112011794EB0112011753EC01120117C4
:100AF30084EC0112011790EC01120117D5EC0112DD
:100B0300011702ED0112011757ED0112011791EDC3
:100B130001120117B8ED01120117F1ED01120117CE
:100B2300AEEE01120117C0EE01120117F8EE011229
:100B330001171CEF011201175EEF011201179DEF60
:100B430001120117DEEF01120117FDEF0112011768
:100B530028F00112011765F10112011798F1011232
:100B63000117D8F10112011707F20112011737F229
:100B730001120117B8F201120117F6F2011201175F
:100B83008BF401120117A0F401120117BFF4011233
:100B93000117E7F4011201171CF50112011751F5B2
:100BA300011201171FF6011201174AF6011201176C
:100BB3008CF6011201179BF60112011709F70112B6
:100BC300011743F70112011788F701120117D0F734
:100BD30001120117FBF7011201172FF80112011778
:100BE3006BF801120117C7F801120117F9F8011286
:100BF300011742F901120117B4F90112011700FAA2
:100C03000112011741FA0112011784FA01120117A7
:100C1300C7FA0112011736FB011201177DFB0112FE
:100C23000117BEFB0112011709FC0112011733FC66
:100C33000112011772FC011201179CFC011201172A
:100C4300C6FC0112011707FD0112011750FD011225
:100C530001177BFD011201170080041201173C806C
:100C630004120117A18004120117608104120117F5
:100C7300418204120117938204120117A482041201
:100C830001171083041201175FC1031201177BC1FF
:100C9300031201177EC10312011739C20312011790
:100CA30058C203120117E0C20312011780C40312D2
:100CB3000117F2C40312011711C60312011718C753
:100CC3000312011745C703120117E2C703120117E5
:100CD300AFC803120117B0C9031201170ECA0312DA
:100CE30001173FCA03120117F6F20212011724F388
:100CF300021201178AF30212011795F30212011768
:100D0300A0F302120117ABF302120117B6F302129A
:100D13000117E9F3021201175DF40212011735F707
:100D230002120117FDF70212011776F802120117DA
:100D330002F90212011710F9021201171EF9021229
:100D4300011728F90212011732F90212011758F993
:100D53000212011768F9021201179DF90212011715
:100D6300D6F902120117E0F902120117EAF9021289
:100D73000117F4F90212011702FA021201170CFA11
:100D83000212011716FA0212011720FA02120117B2
:100D93002AFA0212011774FA021201177EFA0212DA
:100DA30001179BFA02120117B8FA02120117C8FAC7
:100DB300021201171DFB021201173CFB021201175D
:100DC30000FC0212011709FC0212011712FC0212A5
:100DD30001171BFC021201173FFC021201175BFCF7
:100DE3000212011706FD0212011710FD021201176C
:100DF3001EFD021201173AFD0212011747FD0212EE
:100E0300011751FD021201178EFD021201179CFDFD
:100E130002120117AAFD02120117B4FD02120117F3
:100E2300C4FD02120117DDFD02120117E7FD0212D4
:100E33000117F7FD0212011707FE0212011717FE31
:100E43000212011727FE0212011737FE02120117C1
:100E530047FE0212011779FE0212011783FE0212E6
:100E6300011793FE02120117A1FE02120117ABFE36
:100E730002120117B8FE02120117C2FE0212011775
:100E8300D2FE02120117DCFE021201173E9E04126B
:100E93000117A79E04120117FB9E041201171F9F3F
:100EA30004120117439F04120117BBED031201172C
:100EB30025EE031201176FEE0312011768EF0312F9
:100EC300011783F00312011778F10312011714B805
:100ED3000312011757B80312011742B9031201177E
:100EE30025BA031201172EBB0312011709BC031203
:100EF300011772BC0312011705BD0312011707BDC9
:100F0300031201173EBD03120117E9BD03120117B6
:100F130052BE03120117BABE03120117BDBE03125C
:100F23000117E8BE0312011753BF03120117FFBFD6
:100F3300031201175DC00312011776C003120117D4
:100F4300BBC003120117D5C00312011737C1031227
:100F530001173AC103120117F386041201173087F0
:100F63000412011769870412011717880412011765
:100F73008A8804120117C78804120117EE88041225
:100F83000117208904120117458904120117D48916
:100F930004120117008002120117FC8002120117CC
:100FA3005C82021201174383021201176F8302123C
:100FB3000117A48302120117EF83021201175E8443
:100FC30002120117CE8402120117DD8402120117E7
:100FD300F384021201173E8502120117768502126D
:100FE3000117A48502120117C78502120117F8859C
:100FF30002120117868602120117B4860212011724
:101003003D87021201179E870212011719880212E7
:101013000117EA8902120117088B021201176C8B60
:1010230002120117E88B02120117908D02120117A9
:10103300DE8D02120117318F02120117568F021231
:101043000117F58F021201173D9002120117B69195
:1010530002120117D59502120117F4950212011716
:10106300299602120117039802120117E998021236
:1010730001175F9A02120117A29A02120117539BDA
:10108300021201175B9C021201177D9C02120117C9
:10109300829C02120117AA9C02120117C69C02121B
:1010A3000117E09C02120117669D02120117E79DCA
:1010B30002120117769E02120117989E021201175F
:1010C300AD9F021201174DA00212011772A0021266
:1010D3000117E2A00212011737A10212011783A11F
:1010E30002120117A3A102120117F0A102120117A4
:1010F30047A20212011791A202120117EAA20212D9
:101103000117A2A30212011790A40212011736A518
:10111300021201176BA502120117A0A502120117F3
:10112300D7A502120117E7A502120117F3A50212B0
:10113300011707A602120117B9A602120117FAA690
:101143000212011731A702120117F2A802120117A6
:10115300B1A90212011706AA021201177EAA0212EE
:1011630001170EAB021201173BAC0212011777AC49
:1011730002120117E2AD021201170FAF021201179B
:1011830036AF0212011758AF0212011767AF0212EE
:1011930001176AAF021201172AB002120117E9B050
:1011A300021201179EB102120117FCB102120117BC
:1011B30044B2021201175AB20212011703B3021208
:1011C3000117C3B30212011763B402120117E2B489
:1011D3000212011740B502120117A0B5021201173E
:1011E300BFB50212011760B602120117ACB60212A4
:1011F300011786B802120117C6B80212011747B9C0
:1012030002120117BFB9021201173ABA02120117EB
:101213008CBA02120117DFBA0212011705BB0212C0
:1012230001173EBB02120117A3BB02120117F3BB46
:101233000212011736BD02120117B2BD02120117C5
:101243009EBE02120117D4BE02120117FBBE021288
:10125300011748BF021201172AC0021201175DC00D
:101263000212011786C002120117D1C00212011720
:10127300F0C0021201171DC10212011760C1021250
:1012830001177FC102120117DAC102120117F5C15A
:101293000212011742C20212011755C202120117AC
:1012A30072C20212011787C2021201178EC3021201
:1012B3000117C0C402120117EDC502120117BCC603
:1012C300021201176EC8021201178CC8021201170D
:1012D3009FCB0212011716CC0212011746CC021241
:1012E3000117A4D002120117AAD002120117CDD2FE
:1012F3000212011744D70212011760D70212011715
:101303000AD80212011759D80212011777D802120C
:10131300011796D8021201178CDA02120117BADBF1
:1013230002120117E8DB0212011719DC021201177E
:1013330047E80212011787E902120117C2EA0212F3
:10134300011775EB02120117A3EB02120117BCEB95
:1013530002120117FEEB021201173CEC02120117F5
:10136300E6EC02120117B9ED0212011701EE0212A7
:1013730001175FEE021201179EEE02120117D9EE5A
:10138300021201171CEF0212011716F002120117C5
:101393008CF002120117A0F002120117CBF0021217
:1013A3000117FEF0021201173DF10212011774F149
:1013B30002120117BCF1021201171DF202120117EA
:1013C3005FF20212011773F20212011786F2021280
:1013D30001179DF202120117C6F202120117D8D2A9
:1013E30003120117EBD203120117FCD203120117E8
:1013F30025D30312011768D303120117AED30312C7
:101403000117EBD30312011751D4031201176AD446
:101413000312011775D40312011782D403120117A3
:1014230099D403120117A7D403120117B9D40312D5
:101433000117CED403120117E3D403120117EED41C
:1014430003120117FAD40312011707D50312011768
:1014530028D50312011733D5031201175AD50312E6
:1014630001175FD503120117FFD50312011765D6C4
:101473000312011775D6031201178AD60312011737
:101483009FD603120117B9D603120117D4D603123C
:101493000117F2D603120117FDD6031201177ED7E7
:1014A3000312011738D80312011746D80312011784
:1014B30051D80312011766D80312011771D803120A
:1014C3000117D1D803120117D7D803120117DDD89A
:1014D30003120117E3D803120117E9D80312011706
:1014E30001D90312011721D9031201177CD9031261
:1014F300011793D903120117DED9031201170BDA6F
:1015030003120117269F03120117AB9F0312011742
:101513006AA003120117FFA10312011758A40312B3
:10152300011734A5031201175DA5031201179BA52B
:10153300031201170BA603120117C2A70312011707
:10154300EBA70312011777A803120117A9A8031227
:101553000117B6A80312011701A9031201172AA93B
:101563000312011708AC0312011701AD031201178F
:1015730059AD03120117D89001120117E891011216
:101583000117839201120117AC9201120117B8924D
:1015930001120117F293011201173E940112011770
:1015A3002A96011201171197011201173F97011291
:1015B30001175299011201179F9C011201176C9D8B
:1015C30001120117B69E01120117CA9F01120117DA
:1015D30092A00112011767A101120117CFA10112F5
:1015E30001178CA201120117C8A201120117FAA256
:1015F3000112011792A50112011776A60112011714
:10160300E0A60112011730A701120117AFA70112BB
:10161300011715A801120117AAAA01120117A1ADFA
:1016230001120117779B041201179C9B04120117E7
:10163300119C0412011780DA0312011790DA0312C6
:10164300011798DA0312011780DB031201170CDD6F
:101653000312011740DD0312011773DD0312011793
:10166300A7DD03120117DADD031201170ADE0312E5
:1016730001173CDE0312011783DE03120117B6DEE6
:1016830003120117FDDE0312011757DF03120117BF
:101693008ADF03120117DEDF0312011711E00312C1
:1016A300011764E003120117A7E003120117DAE040
:1016B3000312011713E1031201174DE1031201177E
:1016C300EAA00412011719A104E066701008A3E050
:1016D30066700A08A3E066700408A3E06622C3E705
:1016E300960809E7960809E7960809E79622C3E0F2
:1016F3009608A3E09608A3E09608A3E096220808BC
:1017030008EAC0E0EBC0E086F0E7A4FA180986F027
:10171300E7A42AFA180986F0E7A42AFA180986F03A
:10172300E7A42AFA1986F0E7A4FBE5F02AFA1908D8
:1017330086F0E7A42BFBE5F03AFA190886F0E7A454
:101743002BFBE5F03AFA18180986F0E7A4C5F02B4D
:10175300FBE43AFA1908E7C5F0C6A426F6E5F03B20
:10176300FBE43AFA1886F0E7A4F6E5F00826F6E477
:101773003B08F6E43A08F6D0E0FBD0E0FA22E4CFE7
:10178300C0E0E4CEC0E0E4CDC0E0E4CCC0E075F05E
:1017930020C3E633F608E633F608E633F608E63305
:1017A300F6181818EC33FCED33FDEE33FEEF33FF80
:1017B300C3EC9709ED9709EE9709EF9719191940AB
:1017C3000FFFEC97FC09ED97FD09EE97FE1919063B
:1017D300D5F0BEECF709EDF709EEF709EFF71919A4
:1017E30019D0E0FCD0E0FDD0E0FED0E0FF2260168F
:1017F300080808C6C313C618C613C618C613C618E6
:10180300C613C6D5E0EA2270090808082260161834
:101813001818C6C333C608C633C608C633C608C6B7
:1018230033C6D5E0EA22E627F60809E637F60809C3
:10183300E637F60809E637F622E026F608A3E0368F
:10184300F608A3E036F608A3E036F622E026F00811
:10185300A3E036F008A3E036F008A3E036F022C395
:10186300E697F60809E697F60809E697F60809E603
:1018730097F622E657F60809E657F60809E657F6FB
:101883000809E657F622E056F608A3E056F608A341
:10189300E056F608A3E056F622E056F008A3E05619
:1018A300F008A3E056F008A3E056F022E046F6085D
:1018B300A3E046F608A3E046F608A3E046F622E0D6
:1018C30066F608A3E066F608A3E066F608A3E066FA
:1018D300F622E0F608A3E0F608A3E0F608A3E0F694
:1018E30022E6F008A3E6F008A3E6F008A3E6F02258
:1018F300CAC0E0E6F0A308DAFAD0E0FA22CAC0E0F0
:10190300E0A3C582CCC582C583CDC583F0A3C582C0
:10191300CCC582C583CDC583DAE6D0E0CA22C3E451
:1019230098F8E499F91219628026C3E49AFAE49BC1
:10193300FBE920E7E9121962E498F8E499F922C374
:10194300E498F8E499F9121962E498F8E499F9C370
:10195300E49AFAE49BFB22EB20E7CFE920E7E0B926
:101963000010BB0008E88AF084F8AAF022E4FBC860
:10197300FA22EB70227B10C833C8C933C93350072E
:10198300C39AC3DBF280069A50012ADBEAC833F418
:10199300C8C933F4C9FA2275F008E4C833C8C93397
:1019A300C933C99AC99B5004C92AC93BD5F0ECFB7A
:1019B300C833F4C8E4C9FA22600D08C6A2E713C607
:1019C30018C613C6D5E0F322600C08C6C313C618A5
:1019D300C613C6D5E0F422700422600D18C6C333C3
:1019E300C608C633C6D5E0F41822251010AF08F593
:1019F30010400215118008F51040021511D2AF22D4
:101A0300C0D0251010AF08F510500205118008F55D
:101A13001050020511D2AFD0D0222510F58210AF9D
:101A230008F510400215118008F51040021511D277
:101A3300AF851183222510F582E43511F58322E465
:101A4300732510C582C0E0E51134FFC583C0E0E50E
:101A530010C3958224F8F8E4C5A885831185821004
:101A6300C5A8E8CEF0A3E520F0A37808E608F0A324
:101A7300DEFAEFF0A3E58124FAF8E608F0A3E6081E
:101A8300F0A3E608F0A30808E608F0A3E608F0A32D
:101A930015811581D0E0FED0E0F8158115811581FF
:101AA300E8C0E0EEC0E0222510C582C0E0E51134B5
:101AB300FFC583C0E0E510C3958224F9F8E4C5A807
:101AC300858311858210C5A8E8CEF0A3E520F0A395
:101AD3007808E608F0A3DEFAEFF0A3E58124FBF82B
:101AE300E608F0A3E608F0A30808E608F0A3E60872
:101AF300F0A315811581D0E0FED0E0F815811581A2
:101B0300E8C0E0EEC0E022851183851082E0A3FEE9
:101B1300E0A3F5207808E0A3F608DFFAE0A3FFE0EE
:101B2300A3C0E0E0A3C0E0E0A3C0E0E0A3C0E0E026
:101B3300A3C0E0E4C5A8858210858311C5A8D0831E
:101B4300D082020114851183851082E0A3FEE0A3F5
:101B5300F5207808E0A3F608DFFAE0A3FFE0A3C0CE
:101B6300E0E0A3C0E0E0A3C0E0E0A3C0E0E4C5A8D8
:101B7300858210858311C5A8D083D08222C0D02549
:101B830010C582C0E0E51134FFC583C0E0E510C392
:101B9300958224F310AF0885831185821080088510
:101BA3008311858210D2AFC8F0A3E9F0A3EAF0A3B2
:101BB300EBF0A37908E709F0A3D8FAECF0A3EDF072
:101BC300A3EEF0A3EFF0A3D0E0F0A3D0E0F0A3D016
:101BD300E0F0A3E520F0A3E5F0F0A32285118385CF
:101BE3001082E0C0E0A3E0F9A3E0FAA3E0FBA3784E
:101BF30008E0F608A3DFFAE0FCA3E0FDA3E0FEA300
:101C0300E0FFA3E0C0E0A3E0C0E0A3E0F5D0A3E0E1
:101C1300F520A3E0A3F5F0E4C5A885831185821020
:101C2300C5A8D082D083D0E0F8D0E0327404800617
:101C3300740280027401C0E0F404121A1DD0E01291
:101C430018F3227404800474028000CCC0E0EDC059
:101C5300E0E510C39CCCAD1150011D10AF068C10F4
:101C63008D1180068C108D11D2AF121900D0E0FDBA
:101C7300D0E0FC22D083D082C5F0E493A3C5F0C3A7
:101C830095F0F5F0E493A3C395F04005E5F00480E7
:101C930001E475F002A42582F582E5F03583F5832E
:101CA300E493A3C0E0E493C0E022D083D082E9C0F0
:101CB300E0E493A3C386F0C5F095F0F908E493A399
:101CC30086F0C5F095F0700BE493A3C3994005E942
:101CD300048002A3E475F002A42582F582E5F035C1
:101CE30083F583D0E0F9E493A3C0E0E493C0E0225A
:101CF300D083D082CCC0E0E493A36006121D1D14F0
:101D030070FAE493A36006121D3C1470FAD0E0FC51
:101D1300E493A3C0E0E493C0E022C0E0E493A3D340
:101D23009C5010E493A3C39C400AD0E0D0E0D0E0E1
:101D3300021D10A3A3A3D0E022C0E0E493A36C7020
:101D430009D0E0D0E0D0E0021D10A3A3D0E022D060
:101D530083D082ECC0E0EDC0E0E493A3FCE493A362
:101D6300FDED4C600D121D9EEC24FFFCED34FFFDD8
:101D730080EFE493A3FCE493A3FDED4C600D121DEF
:101D8300DDEC24FFFCED34FFFD80EFD0E0FDD0E07F
:101D9300FCE493A3C0E0E493C0E022C0E0C3E49377
:101DA30096087401939618400FE4936670080874BC
:101DB3000193661870007019A3A3C3E49396087483
:101DC30001939618A3A3400DD0E0D0E0D0E0021D0C
:101DD3008EA3A3A3A3A3A3D0E022C0E0C0F088F006
:101DE300E4936670080874019366187000A8F0A362
:101DF300A3700BD0F0D0E0D0E0D0E0021D8EA3A3FF
:101E0300D0F0D0E022C2AF02000022C0E074F21290
:101E13001B80E589A2E15003120358758900C2C5EE
:101E23007F01021BDFC0E074F2121B80E58BA2E08E
:101E33005003120358758B00C2E87F01021BDFC2F7
:101E4300C732C0E0C0D0E8C0E0E9C0E0EAC0E0EBE0
:101E5300C0E0C082C083E5C1C0E0900530E07900F6
:101E63002435F582E93404F583D0E0F090052FE0C2
:101E7300FA900530E06A7006E595900532F090051A
:101E830030E02401900530F0C394FA4006740090CA
:101E93000530F074C6900531F0D083D082D0E0FBDA
:101EA300D0E0FAD0E0F9D0E0F8D0D0D0E032C0E012
:101EB300C0D0EAC0E0C008C009C082C08390062D2C
:101EC300E0FA90062EE06A700B539AFB74019006B9
:101ED3002FF08031C2E990062DE0F5087401250842
:101EE30090062DF0750900E5082433F582E50934E1
:101EF30005F583E0F5C190062DE0C394FA4006741E
:101F03000090062DF0D083D082D009D008D0E0FA1B
:101F1300D0D0D0E03274F5121AAAEAFEEBFFEE2419
:101F230034F8EF3400F988088909EE2435121FBA12
:101F3300F8EE2437121FBAF50AEC850AF0A4FCAABE
:101F4300F0850AF0EDA42AFDEC28F8ED3400F97AC7
:101F5300257B00121962EA850882850983F05407FC
:101F6300F87401B800028004C333D8FCC0E0E01366
:101F73001313541FF8EE28F8EF3400F9745D28F5B5
:101F830082E439F583D0E0FAE05A85088285098333
:101F93007020E0C0E0EE2436121FBAF5F0D0E084E2
:101FA300A8F0EE28F8EF3400F9743828F582E43904
:101FB300F583E0F902236DF582EF3400F583E02227
:101FC30074F4121AAA8A088B09EA2434F582EB12F4
:101FD3001FBDC0E0EA2435F582EB3400F583D0E081
:101FE300F08A828B83A3A3A3A3A3E0FAA3E0FB85D8
:101FF3000882850983A3A3A3A3A3A3A3E0FCA3E06F
:10200300FDECC39AFEED9BFFE5082480F50AE50984
:102013003400F50B850A82F583E06401702DE50831
:102023002481F582E5093400F583121C4A122061EC
:102033007402121A03E960137C0D7D0CAA08AB0924
:102043001211E0E4850A82850B83F0EEFCEFFDAA12
:1020530008AB09121F181223727F05021B48C082A6
:10206300C083851082851183E0F8A3E0F9C3EA9C5D
:10207300EB9D500BC3EC98ED99401279018010C38E
:10208300EA98EB9940F5C3EC98ED9950EE7900D0BE
:1020930083D08222C0E074EF121B80759B00906195
:1020A30082E0A2E65059E591A2E650537591BF1222
:1020B30013C0751200121438E990090AF07900125E
:1020C300141A12113290090FE0548164817024E0D4
:1020D300D2E6F01213CC8A088B098C0A8D0B9090F0
:1020E300B6780812183CAA08AB09AC0AAD0B121358
:1020F300A2800C7A017B00900908E0F91202569045
:102103006182E0A2E55024E591A2E5501E7591DFBE
:10211300900909E0640D7013900C93E004F06428B7
:102123007002E4F07A00E0F91214F8906181E0A201
:10213300E35009E5E9A2E3500375E9F7906182E012
:10214300A2E75009E591A2E7500375917F7F04024E
:102153001BDFC0E0C0D0C082C083906183E0A2E0F7
:102163005009E5BFA2E0500375BFFEE0A2E15009AC
:10217300E5BFA2E1500375BFFDE0A2E25009E5BF50
:10218300A2E2500375BFFBE0A2E35009E5BFA2E35F
:10219300500375BFF7E0A2E45009E5BFA2E4500382
:1021A30075BFEFE0A2E55009E5BFA2E5500375BF97
:1021B300DFE0A2E65009E5BFA2E6500375BFBFD03A
:1021C30083D082D0D0D0E032C0E074F2121B80E51D
:1021D300A7A2E4500FE5A1A2E4500953A7EF75A10C
:1021E300EF122236E5A7A2E55023E5A1A2E5501D93
:1021F30053A7DF75A1DF90090FE0A2E6500FC2E6F7
:10220300F07A017B00900908E0F9120256E5A7A2D3
:10221300E15009E5A1A2E1500375A1FDE5A7A2E202
:10222300500CE5A1A2E2500653A7FB75A1FB7F0169
:10223300021BDF74F8121AAA7512017A007B0012CE
:1022430013A8E5A8FED2AF7A207B00900908E0F935
:102253001202DA7A207B00900908E0F912025C90FE
:102263006182E0D2E6F0EEA2E792AF7F01021B4863
:1022730074F1121AAA8A0C8B0D8C0E8D0F740F1227
:102283001A3878081218D590909E780C12188990F5
:10229300909E7808121889780C79081216E1501C60
:1022A300780C790812186290908678081218D578FD
:1022B30008790C1216E1501C7901801A7808790C00
:1022C300121862909086780C1218D5780C7908123F
:1022D30016E150E479007F08021B4874F1121AAA30
:1022E30074FC1219ED851082851183EAF0A3EBF0DB
:1022F300A3ECF0A3EDF07413121A3878081218D572
:1023030090909E780C1218D5851082851183780CD5
:1023130012189C90909E7808121889851082851156
:102323008378081216F14014851082851183780C86
:102333001218D5780C7908121862801E750C007576
:102343000D00750E00750F01780C7908121862855F
:102353001082851183780C12183CAA0CAB0DAC0EBD
:10236300AD0F7404121A030222D97F04021B48C062
:1023730082C083E9906000F0D083D0822274F0128F
:102383001A448908E508900632F0900632E0F91203
:102393000D06900632E0F91208921208C890063230
:1023A300E0F91208CE90906E780C1218D5AA0CABF7
:1023B3000DAC0EAD0F1208B690906E780C1218D5B6
:1023C300AA0CAB0DAC0EAD0F120A8A7CF97D11EC91
:1023D300FEEDFF7AF97B111201F6EEFCEFFD7900B9
:1023E3001208B07C0E7D127A0279011208B07901CD
:1023F3007AED7B8F12036479027AFB7B8F1203647D
:1024030079037A097B901203647C977D067A1079AD
:10241300021204F67CA77D067A1079031204F67C77
:10242300337D067A0479041204F67F08021B0A74CA
:10243300F0121A4474FF1219EDE985108285118395
:10244300F0EAFEEBFF74005EF874805FF9740068D5
:102453007003740069700302251B900632E0F912C1
:10246300023E8A088B09A808A909880A890BE8642F
:10247300007003E964007003022511750801850AE1
:1024830082850B83E0121C779102FC24A124FC2497
:102493009524AA0AAB0B12041EE9F5088065850A88
:1024A30082850B83A3E0640E7059850A0E850B0F9A
:1024B300850A0C850B0DE50C24FBF50CE50D34FFAB
:1024C300F50D850C82850D83A3A3E024F9F5098519
:1024D3000E82850F83A3A3A3A3A3121C4AAC098571
:1024E3000E82850F83A3A3A3E0FAA3E0FB790E1268
:1024F3000CA67402121A03800AAA0AAB0B12044830
:10250300E9F508E5086007AA0AAB0B120226740076
:102513006EFA74806FFB804E74005EF874405FF94E
:10252300740068700374006960157C337D067A0457
:1025330079041204F074006EFA74406FFB8027EE86
:10254300A2E0500CC2AFC2AF75C9AB75C95B80FEC8
:10255300EE5402600D121E0874026EFA74006FFBD3
:1025630080047A007B007401121A037F08021B0A9D
:1025730074F2121A4474F91219ED8A0C8B0D74005B
:10258300851082851183F0850C82850D83A3A3E0DA
:10259300F8A3E0F988088909850882850983E0C0E2
:1025A300E07401121A38D0E0F0850882850983A30C
:1025B300858208858309850882850983E0FA7B0083
:1025C300850882850983A3E0F8E4C8F9E82AF8E9D5
:1025D3003BF97402121A38E8F0A3E9F0E508240283
:1025E300F508E5093400F509850882850983E0C00B
:1025F300E07404121A38D0E0F0850882850983A3B9
:102603008582088583097405121A38E508F0A3E565
:1026130009F07402121A38E0F50AA3E0F50B740707
:10262300780A1219CB780A121CAD010004CD263C9E
:102633002655266E268726AA267401121A38AA82E0
:10264300AB837402121A38E0547FF9120430E9FEA6
:10265300807A7401121A38AA82AB837402121A3870
:10266300E0547FF9120436E9FE80617401121A38CE
:10267300AA82AB837402121A38E0547FF912043C25
:10268300E9FE8048851082851183AC82AD83740195
:10269300121A38AA82AB837402121A38E0547FF9F3
:1026A300120442E9FE8025851082851183AC82AD38
:1026B300837401121A38AA82AB837402121A38E0A7
:1026C300547FF9120424E9FE80027E01AA0CAB0DAB
:1026D3001202267F00747F90065FF07406900660F6
:1026E300F0EE900661F07402121A38E0900662F080
:1026F3007402121A38A3E044FCF9E9900663F085EA
:102703001082851183E0900664F07C5F7D0685105E
:1027130082851183E02406FA79FF120CACEFF97479
:1027230007121A037F06021B0A74F0121A4474F884
:102733001219EDE9C0E07403121A38D0E0F0740600
:10274300121A38EAF0A3EBF07404121A38ECF0A36F
:10275300EDF07406121A38E0F8A3E0F5838882A33B
:10276300A3A3A3E0F8A3E0F9851082851183E8F021
:10277300A3E9F07E007400C0E07404121A38E0F894
:10278300A3E0F5838882D0E0F07403121A38E012D4
:102793001C77000256299F27D62745288510828556
:1027A3001183E0F8A3E0F5838882E070137C647DF5
:1027B300007A017B00900632E0F91202CE0229581A
:1027C3007C647D007A027B00900632E0F91202CE2F
:1027D300022958851082851183E0F8A3E0F58388E8
:1027E30082E0F508851082851183E0F8A3E0F58384
:1027F3008882A3E0FFEFC394325042EFFAA9081294
:10280300042AE970387C657D06EFFAA9081204F6FC
:10281300E9FEEE6003022958851082851183E0F8F2
:10282300A3E0F5838882A3E0C0E07404121A38E0C1
:10283300F8A3E0F5838882D0E0F00229587E0202F3
:102843002958851082851183E0F8A3E0F5838882F7
:10285300E0FF851082851183E0F8A3E0F583888289
:10286300A3E0C0E07402121A38D0E0F07402121A26
:1028730038E0FAEFF912042AE960030229528510BD
:1028830082851183E02402FCA3E03400FD7402126C
:102893001A38E0FAEFF91204F0E9FE74046F6003EA
:1028A300022958851082851183E0F8A3E0F5838817
:1028B30082A3A3E0F508E4F509F50AF50B85108278
:1028C300851183E0F8A3E0F5838882A3A3A3E0F551
:1028D3000CE4F50DF50EF50F7408780C12180A7850
:1028E30008790C121829851082851183E0F8A3E07A
:1028F300F5838882A3A3A3A3E0F50CE4F50DF50EFD
:10290300F50F7410780C12180A7808790C1218292C
:10291300851082851183E0F8A3E0F5838882A3A361
:10292300A3A3A3E0F50CE4F50DF50EF50F741878E9
:102933000C12180A7808790C121829900633E50846
:10294300F0A3E509F0A3E50AF0A3E50BF080067E0A
:102953000280027E01EEF97408121A037F08021B3B
:102963000AC082C083E97900121C7702028A29789F
:10297300297829812974106A600F7902800B740405
:102983006A6006790280027902D083D08202011440
:1029930074F0121A4474F41219EDE9FF8A0C8B0DCA
:1029A300850C82850D83A3A3A3A3E0F8A3E0F98894
:1029B300088909850882850983E0FA7B00850882F6
:1029C300850983A3E0F8E4C8F9E82AF8E93BF98824
:1029D3000E890FEF121CF300020A3A2A12E429901F
:1029E3002A850C82850D83A3A3A3E0F8790074FEE6
:1029F30028F50A74FF39F50B780A121C33E508240D
:102A030002FCE5093400FD7402121A38AA82AB8372
:102A1300120F107402121A03E9FEEE70729006325E
:102A2300E0F9851082851183AC82AD83AA0EAB0FCA
:102A3300120E9EE9FE8058850C82850D83A3A3A305
:102A4300E0F8790074FE28F50A74FF39F50B780A6B
:102A5300121C33E5082402FCE5093400FD7402125C
:102A63001A38AA82AB83120EFE7402121A03E9FE0D
:102A7300EE701C900632E0F9851082851183AC82DA
:102A8300AD83AA0EAB0F120E98E9FE80027E01EE13
:102A9300F9740C121A037F08021B0A74F0121A4409
:102AA30074E51219ED851082851183EAF0A3EBF02A
:102AB300E9FF851082851183E0F8A3E0F58388821E
:102AC300A3A3A3A3E0F8A3E0F9880E890F850E82E0
:102AD300850F83E0FA7B00850E82850F83A3E0F8E0
:102AE300E4C8F9E82AF8E93BF988088909EF121CD8
:102AF30077011D1038342B8F2BFA2B552CCE2C2914
:102B03002D1C2E772EB22F0D307830D3303E3199D5
:102B13003104325F322E3389334E3410381038A0EB
:102B2300347135CC3584361038D63610384637C232
:102B3300377402121A3885820A85830B780A121CAD
:102B4300337402121A38E0F8A3E0F5838882A3A352
:102B5300A3E0F8790074FE28FC74FF39FDE50E2428
:102B630002FAE50F3400FB1205A47402121A03E9FA
:102B7300FEEE60030238127402121A38AC82AD837F
:102B8300AA08AB09120544E9FE0238127402121AAC
:102B93003885820A85830B780A121C337402121A51
:102BA30038E0F8A3E0F5838882A3A3A3E0F87900D3
:102BB30074FE28F50A74FF39F50B780A121C33E505
:102BC3000E2402FCE50F3400FD7A0079001205B0F3
:102BD3007404121A03E9FEEE6003023812900632FF
:102BE300E0F97402121A38AC82AD83AA08AB091259
:102BF30008D4E9FE0238127402121A3885820A8553
:102C0300830B780A121C337402121A38E0F8A3E01B
:102C1300F5838882A3A3A3E0F8790074FE28FC74EB
:102C2300FF39FDE50E2402FAE50F3400FB1205BC63
:102C33007402121A03E9FEEE6003023812740212E0
:102C43001A38AC82AD83AA08AB0912054AE9FE0221
:102C530038127402121A3885820A85830B780A1295
:102C63001C337402121A38E0F8A3E0F5838882A3B8
:102C7300A3A3E0F8790074FE28F50A74FF39F50B75
:102C8300780A121C33E50E2402FCE50F3400FD7AAA
:102C93000079001205C87404121A03E9FEEE6003FA
:102CA3000238127404121A38121C4A900632E0F9E0
:102CB3007404121A38E0FCA3E0FDAA08AB09120859
:102CC300F87402121A03E9FE0238127402121A3857
:102CD30085820A85830B780A121C337402121A3810
:102CE300E0F8A3E0F5838882A3A3A3E0F879007456
:102CF300FE28FC74FF39FDE50E2402FAE50F3400CB
:102D0300FB1205D47402121A03E9FEEE60030238C3
:102D1300127402121A38AC82AD83AA08AB091205E9
:102D230050E9FE0238127402121A3885820A85832A
:102D33000B780A121C337402121A38E0F8A3E0F578
:102D4300838882A3A3A3E0F8790074FE28F50A74AC
:102D5300FF39F50B780A121C33E50E2402FCE50F4C
:102D63003400FD7A0079001205E07404121A03E9B5
:102D7300FEEE60030238127402121A3885820A8545
:102D8300830B850A82850B83A3A3A3A3E0F50C75AC
:102D93000D00780C121C33E50A2405F50CE50B3401
:102DA30000F50D780C121C337C027D007A3E7B907B
:102DB3001206B27404121A03E96059850A82850B5C
:102DC30083E064017004A3E064007048850A82858F
:102DD3000B83A3A3E064FF7004A3E064FF7035904A
:102DE3000632E0F50C780C121C37850A82850B83BA
:102DF300A3A3A3A3A3A3A3E0F9E50A2408FCE50B7B
:102E03003400FDAA08AB091208E07401121A03E9A1
:102E1300FE0238127E020238127402121A388582B8
:102E23000A85830B780A121C337402121A38E0F8ED
:102E3300A3E0F5838882A3A3A3E0F8790074FE28B6
:102E4300FC74FF39FDE50E2402FAE50F3400FB1292
:102E530005EC7402121A03E9FEEE600302381274E1
:102E630002121A38AC82AD83AA08AB09120556E9DF
:102E7300FE0238127402121A3885820A85830B788F
:102E83000A121C337402121A38E0F8A3E0F583889F
:102E930082A3A3A3E0F8790074FE28F50A74FF392E
:102EA300F50B780A121C33E50E2402FCE50F3400FF
:102EB300FD7A0079001205F87404121A03E9FEEE94
:102EC30060030238127402121A3885820A85830B52
:102ED300850A82850B83A3A3A3A3E0F50C750D00DC
:102EE300780C121C33E50A2405F50CE50B3400F5C8
:102EF3000D780C121C337C027D007AD47B90120671
:102F0300B27404121A03E9602C850A82850B83A329
:102F1300A3121C4A900632E0F9850A82850B83E0EE
:102F2300FCA3E0FDAA08AB091208E67402121A0317
:102F3300E9FE023812850A82850B83A3A3A3A3E0CB
:102F4300F50C750D00780C121C33E50A2405F50CFD
:102F5300E50B3400F50D780C121C337C027D007AEE
:102F6300D27B901206B27404121A03E9602C850A0C
:102F730082850B83A3A3121C4A900632E0F9850ACB
:102F830082850B83E0FCA3E0FDAA08AB091208ECE1
:102F93007402121A03E9FE023812900632E0F9AC09
:102FA3000AAD0BAA08AB09120904E9FE0238127430
:102FB30002121A3885820A85830B780A121C33742D
:102FC30002121A38E0F8A3E0F5838882A3A3A3E0F2
:102FD300F8790074FE28FC74FF39FDE50E2402FA2B
:102FE300E50F3400FB1206047402121A03E9FEEE25
:102FF30060030238127402121A38AC82AD83AA0835
:10300300AB0912055CE9FE0238127402121A388504
:10301300820A85830B780A121C337402121A38E071
:10302300F8A3E0F5838882A3A3A3E0F8790074FEF4
:1030330028F50A74FF39F50B780A121C33E50E24C0
:1030430002FCE50F3400FD7A0079001206107404C7
:10305300121A03E9FEEE6003023812900632E0F919
:103063007402121A38AC82AD83AA08AB091208FEA7
:10307300E9FE0238127402121A3885820A85830B1C
:10308300780A121C337402121A38E0F8A3E0F583AD
:103093008882A3A3A3E0F8790074FE28FC74FF39A7
:1030A300FDE50E2402FAE50F3400FB12061C740240
:1030B300121A03E9FEEE60030238127402121A3880
:1030C300AC82AD83AA08AB09120562E9FE0238128D
:1030D3007402121A3885820A85830B780A121C330C
:1030E3007402121A38E0F8A3E0F5838882A3A3A33D
:1030F300E0F8790074FE28F50A74FF39F50B780AB5
:10310300121C33E50E2402FCE50F3400FD7A00792E
:103113000012063A7404121A03E9FEEE6003023841
:1031230012900632E0F97402121A38AC82AD83AA07
:1031330008AB0912090AE9FE0238127402121A389E
:1031430085820A85830B780A121C337402121A389B
:10315300E0F8A3E0F5838882A3A3A3E0F8790074E1
:10316300FE28FC74FF39FDE50E2402FAE50F340056
:10317300FB1206467402121A03E9FEEE60030238DC
:10318300127402121A38AC82AD83AA08AB09120575
:1031930068E9FE0238127402121A3885820A85839E
:1031A3000B780A121C337402121A38E0F8A3E0F504
:1031B300838882A3A3A3E0F8790074FE28F50A7438
:1031C300FF39F50B780A121C33E50E2402FCE50FD8
:1031D3003400FD7A0079001206527404121A03E9CE
:1031E300FEEE6003023812900632E0F97402121AFE
:1031F30038AC82AD83AA08AB09120910E9FE023884
:10320300127402121A3885820A85830B780A121CFB
:10321300337402121A38E0F8A3E0F5838882A3A37B
:10322300A3E0F8790074FE28FC74FF39FDE50E2451
:1032330002FAE50F3400FB12065E7402121A03E968
:10324300FEEE60030238127402121A38AC82AD83A8
:10325300AA08AB0912056EE9FE0238127402121AAB
:103263003885820A85830B780A121C337402121A7A
:1032730038E0F8A3E0F5838882A3A3A3E0F87900FC
:1032830074FE28F50A74FF39F50B780A121C33E52E
:103293000E2402FCE50F3400FD7A0079001205F8D4
:1032A3007404121A03E9FEEE600302381274021268
:1032B3001A3885820A85830B850A82850B83A3A32B
:1032C300A3A3E0F50C750D00780C121C33E50A245A
:1032D30005F50CE50B3400F50D780C121C337C025C
:1032E3007D007A3E7B901206B27404121A03E960E1
:1032F30035850A82850B83E064017004A3E06400D2
:103303007024850A82850B83A3A3E064FF7004A362
:10331300E064FF7011900632E0F9AA08AB091208C5
:10332300DAE9FE0238127E020238127402121A38E7
:1033330085820A85830B780A121C337402121A38A9
:10334300E0F8A3E0F5838882A3A3A3E0F8790074EF
:10335300FE28FC74FF39FDE50E2402FAE50F340064
:10336300FB12066A7402121A03E9FEEE60030238C6
:10337300127402121A38AC82AD83AA08AB09120583
:1033830074E9FE0238127402121A3885820A8583A0
:103393000B780A121C337402121A38E0F8A3E0F512
:1033A300838882A3A3A3E0F8790074FC28F50A7448
:1033B300FF39F50B780A121C33E50E2404FCE50FE4
:1033C3003400FD850E82850F83A3A3A3E0FA850E47
:1033D30082850F83A3A3E0F91206227404121A0351
:1033E300E9FEEE60030238127402121A3885820A6B
:1033F30085830BE50A2418F582E50B3400F583E099
:10340300701A900632E0F97402121A38AC82AD8356
:10341300AA08AB09120922E9FE023812E50A2417A9
:10342300F582E50B3400F583E07010AC0AAD0BAA0E
:1034330008AB09120916E9FE023812AC0AAD0BAA51
:1034430008AB0912091CE9FE0238127402121A3879
:1034530085820A85830B780A121C337402121A3888
:10346300E0F8A3E0F5838882A3A3A3E0F8790074CE
:10347300FE28FC74FF39FDE50E2402FAE50F340043
:10348300FB12062E7402121A03E9FEEE60030238E1
:1034930012AA08AB0912057AE9FE02381274021265
:1034A3001A3885820A85830B780A121C3374021238
:1034B3001A38E0F8A3E0F5838882A3A3A3E0F879A0
:1034C3000074FE28F50A74FF39F50B780A121C33D1
:1034D300E50E2402FCE50F3400FD7A0079001206A4
:1034E300767404121A03E9FEEE60030238129006A2
:1034F300B8E064007004A3E06400700F7A737B008B
:1035030012029E9006B8EAF0A3EBF09006B8E064CE
:10351300007004A3E0640060509006B7E0C3940514
:1035230050427402121A38C082C0839006B7E0F882
:103533007900E875F017A4C8AAF075F000A42AFA78
:1035430075F017E9A42AF99006B8E028FCA3E0393E
:10355300FDD083D08274171219009006B7E02401BE
:10356300F00238127E020238127E130238127402FD
:10357300121A3885820A85830B780A121C33740267
:10358300121A38E0F8A3E0F5838882A3A3A3E0F836
:10359300790074FE28FC74FF39FDE50E2402FAE578
:1035A3000F3400FB1206827402121A03E9FEEE6066
:1035B300030238127402121A38AC82AD83AA08AB24
:1035C30009120580E9FE0238127402121A38858244
:1035D3000A85830B780A121C337402121A38E0F836
:1035E300A3E0F5838882A3A3A3E0F8790074FE28FF
:1035F300F50A74FF39F50B780A121C33E50E240221
:10360300FCE50F3400FD7A01790012068E74041272
:103613001A03E9FEEE60030238129006B8E0640074
:103623007004A3E064006054900632E0F50A780A5F
:10363300121C377403121A38E0F50A780A121C3781
:103643009006B7E0F99006B8E0FCA3E0FDAA08AB4A
:103653000912092E7402121A03E9FEEE600B90069A
:10366300B8E0FAA3E0FB1202A49006B87400F0A33A
:103673007400F074009006B7F00238127E0202382C
:10368300127402121A3885820A85830B780A121C77
:10369300337402121A38E0F8A3E0F5838882A3A3F7
:1036A300A3E0F8790074FE28FC74FF39FDE50E24CD
:1036B30002FAE50F3400FB1206947402121A03E9AE
:1036C300FEEE6003023812AA08AB09120586E9FE72
:1036D3000238127402121A3885820A85830B780A1B
:1036E300121C337402121A38E0F8A3E0F5838882BF
:1036F300A3A3A3E0F8790074FD28F50A74FF39F554
:103703000B780A121C33E50E2403FCE50F3400FD8D
:103713007A0079001206A07404121A03E9FEEE601F
:1037230003023812850E82850F83A3A3E0F9740286
:10373300121A38AC82AD83AA08AB091209E2E9FE7A
:103743000238127402121A3885820A85830B780AAA
:10375300121C337402121A38E0F8A3E0F58388824E
:10376300A3A3A3E0F8790074FD28F50A74FF39F5E3
:103773000B780A121C33E50E2403FCE50F3400FD1D
:103783007A0079001206A07404121A03E9FEEE709F
:103793007E900632E0F50A780A121C37850E828580
:1037A3000F83A3A3E0F97403121A38AC82AD83AA82
:1037B30008AB091209DC7401121A03E9FE80507484
:1037C30002121A3885820A85830B780A121C337415
:1037D30002121A38E0F8A3E0F5838882A3A3A3E0DA
:1037E300F8790074FE28FC74FF39FDE50E2402FA13
:1037F300E50F3400FB1206A67402121A03E9FEEE6B
:10380300700DAA08AB0912053EE9FE80027E017421
:10381300046E70047E40801974056E70047E4180CE
:1038230010740C6E70047E438007740F6E70027EFA
:1038330042EEF9741B121A037F08021B0A74F0127A
:103843001A4474E01219EDE9FF8A0A8B0B850A8288
:10385300850B83A3A3A3A3E0F8A3E0F98808890950
:10386300EF121CF3000208713816F538223A850866
:1038730082850983E0FA7B00850882850983A3E0BA
:10388300F8E4C8F9E82AF8E93BF9880E890F7407C8
:10389300121A3885820C85830D780C121C33850A25
:1038A30082850B83A3A3A3E0F8790074FE28F50CAB
:1038B30074FF39F50D780C121C33E5082402FCE57E
:1038C300093400FD7A0079001205F87404121A0312
:1038D300E9FEEE6003023A24900632E0F97407121F
:1038E3001A38AC82AD83AA0EAB0F1208F2E9FE02BE
:1038F3003A24850A82850B83A3A3A3E0C3940750CC
:1039030003023A1E850A82850B83A3A3A3E024FA4C
:10391300C0E07404121A38D0E0F07404121A38E0CC
:10392300F50CAA0C7B0012029E8A0C8B0DA80CA925
:103933000D7405121A38E8F0A3E9F0E86400700387
:10394300E964007003023A1A850882850983E0FA64
:103953007B00850882850983A3E0F8E4C8F9E82A97
:10396300F8E93BF9880E890F850882850983A3A3AB
:10397300E0FA7B00850882850983A3A3A3E0F8E42A
:10398300C8F9E82AF8E93BF9851082851183E8F044
:10399300A3E9F0850882850983A3A3A3A3E0FA7BA7
:1039A30000850882850983A3A3A3A3A3E0F8E4C841
:1039B300F9E82AF8E93BF97402121A38E8F0A3E9A6
:1039C300F07404121A38E0F50C750D00780C121C13
:1039D30033E5082406FCE5093400FD7407121A38A0
:1039E300E0FAA3E0FB1201FC7402121A0390063200
:1039F300E0F9851082851183AC82AD83AA0EAB0FEB
:103A0300120928E9FEEE60197405121A38E0FAA3C8
:103A1300E0FB1202A4800A7E1380067E0480027EED
:103A23000174046E70027E40EEF97420121A037F53
:103A330008021B0A74F0121A4474881219EDE9C0C3
:103A4300E07408121A38D0E0F07415121A38EAF04C
:103A5300A3EBF0740F121A38ECF0A3EDF074151207
:103A63001A38E0F8A3E0F5838882A3A3A3A3E0F8C0
:103A7300A3E0F9E8FEE9FF7400851082851183F065
:103A83007408121A38E0121CF3001800D83A034CD9
:103A93003C04B83C051C3D062F3D07CA3D08F23DDA
:103AA30009053E0A923E0BBD3E0C55450D83450E5E
:103AB30051440F774310494330B1453108463288AA
:103AC3004633A24634594735954736A24737AD4763
:103AD30038CD47D8478E828F83E0C0E07401121A35
:103AE30038D0E0F07C107900EE2402FAEF3400FBCA
:103AF30012027AE9701F7508107509007808121C04
:103B030033EE2402FCEF3400FD7A977B061201FCAE
:103B13007402121A037C107900EE2412FAEF3400B7
:103B2300FB12027AE9701F750810750900780812F4
:103B33001C33EE2412FCEF3400FD7AA77B0612013E
:103B4300FC7402121A03EE2422F582EF3400F5838B
:103B5300E0F508E4F509F50AF50BEE2423F582EF09
:103B63003400F583E0F50CE4F50DF50EF50F74085C
:103B7300780C12180A7808790C121829EE2424F507
:103B830082EF3400F583E0F50CE4F50DF50EF50F47
:103B93007410780C12180A7808790C121829EE247C
:103BA30025F582EF3400F583E0F50CE4F50DF50E11
:103BB300F50F7418780C12180A7808790C12182962
:103BC3007411121A3878081218E47411121A38C0D2
:103BD30082C08390907E78081218D5D083D08278E3
:103BE300081216CC60127411121A3878081218D5FC
:103BF30090063378081218E47508337509067808B7
:103C0300121C337508A77509067808121C337C97B4
:103C13007D068E828F83A3E0FB7405121A38E0FAC7
:103C2300900632E0F91206BE7404121A03E98510F5
:103C330082851183F0900632E0F508AC087D007AA6
:103C4300217B001206CA0247E1750800750900903E
:103C53009038C082C0837443121A38AC82AD83D0CB
:103C630083D0827406121900750A06750B00780A50
:103C7300121C337445121A38AC82AD838E828F8343
:103C8300A3AA82AB8312020E7402121A03E964011F
:103C9300600B8E828F83A3858208858309AA08AB74
:103CA300098E828F83E0F91206C4E985108285119B
:103CB30083F00247E1900632E0C0E0740B121A3839
:103CC300D0E0F08E828F83E0C0E0740C121A38D0FB
:103CD300E0F08E828F83A3AE82AF838E828F83E0E8
:103CE300C0E0740D121A38D0E0F08E828F83A3AE39
:103CF30082AF838E828F83E0C0E0740E121A38D0B5
:103D0300E0F0740B121A38AA82AB83120730E985EC
:103D13001082851183F00247E1900632E0F9120721
:103D230036E9851082851183F00247E18E828F8305
:103D3300E0C0E07439121A38D0E0F08E828F83A38A
:103D4300AE82AF838E828F83E0C0E0743A121A385A
:103D5300D0E0F08E828F83A3AE82AF8375080675A1
:103D630009007808121C33EEFCEFFD743D121A387B
:103D7300AA82AB831201FC7402121A03EE2406FE1C
:103D8300EF3400FF8E828F83E0C0E07441121A3853
:103D9300D0E0F08E828F83A3AE82AF838E828F8337
:103DA300E0C0E07442121A38D0E0F07439121A38C5
:103DB300AA82AB83900632E0F912073CE9851082B0
:103DC300851183F00247E1EE2402FCEF3400FD8EFF
:103DD300828F83A3E0FB8E828F83E0FA900632E02A
:103DE300F9120742E9851082851183F00247E190B9
:103DF3000632E0F9120748E9851082851183F00243
:103E030047E1900632E0C0E0742F121A38D0E0F098
:103E13008E828F83E0C0E07430121A38D0E0F08EC7
:103E2300828F83A3AE82AF838E828F83E0C0E074E0
:103E330031121A38D0E0F08E828F83A3AE82AF8323
:103E43008E828F83E0C0E07432121A38D0E0F08E95
:103E5300828F83A3AE82AF83750806750900780845
:103E6300121C33EEFCEFFD7435121A38AA82AB83B1
:103E73001201FC7402121A03742F121A38AA82ABAD
:103E830083120802E9851082851183F00247E18ECF
:103E9300828F83E0FA7B008E828F83A3E0F8E4C8ED
:103EA300F9E82AFAE93BFB900632E0F9120808E93F
:103EB300851082851183F00247E1750A00750B00B6
:103EC3007C187D0079007417121A38AA82AB83120A
:103ED30002148E828F83E0FA7B008E828F83A3E0AD
:103EE300F8E4C8F9E82AF8E93BF97417121A38E834
:103EF300F0A3E9F0EE2402FEEF3400FF8E828F83FD
:103F0300E0C0E07419121A38D0E0F08E828F83A3D8
:103F1300AE82AF838E828F83E0C0E0741A121A38A8
:103F2300D0E0F08E828F83A3AE82AF83750C1075C1
:103F33000D00780C121C33EEFCEFFD741D121A38C1
:103F4300AA82AB831201FC7402121A03EE2410FE40
:103F5300EF3400FF8E828F83E0C0E0742B121A3897
:103F6300D0E0F08E828F83A3AE82AF838E828F8365
:103F7300E0C0E0742E121A38D0E0F08E828F83A353
:103F8300AE82AF838E828F83E0F5088E828F83A308
:103F9300AE82AF83742C121A38E054FEF8A3E054B7
:103FA300FFF9E508A2E0E492E07B0048F8EB49F969
:103FB300742C121A38E8F0A3E9F0E508A2E15004E2
:103FC300D2F08002C2F0742C121A38E054FDFAA326
:103FD300E054FFFBA2F0E492E07900C333F8E93345
:103FE300F9740258F8740059F9E84AF8E94BF9747E
:103FF3002C121A38E8F0A3E9F0E508A2E25004D243
:10400300F08002C2F0742C121A38E054FBFAA3E0D9
:1040130054FFFBA2F0E492E0F50C750D00740278F6
:104023000C1219DA7404550CF87400550DF9E84AAA
:10403300F8E94BF9742C121A38E8F0A3E9F0E50813
:10404300A2E35004D2F08002C2F0742C121A38E0BA
:1040530054F7FAA3E054FFFBA2F0E492E0F50C75E9
:104063000D007403780C1219DA7408550CF87400F7
:10407300550DF9E84AF8E94BF9742C121A38E8F0AF
:10408300A3E9F0E508A2E45004D2F08002C2F07480
:104093002C121A38E054EFFAA3E054FFFBA2F0E429
:1040A30092E0F50C750D007404780C1219DA741093
:1040B300550CF87400550DF9E84AF8E94BF9742CDE
:1040C300121A38E8F0A3E9F0E508A2E55004D2F0AB
:1040D3008002C2F0742C121A38E054DFFAA3E054C1
:1040E300FFFBA2F0E492E0F50C750D007405780C6B
:1040F3001219DA7420550CF87400550DF9E84AF8D2
:10410300E94BF9742C121A38E8F0A3E9F0742C1275
:104113001A38E0543FF0A3E054FFF08E828F83E01F
:10412300F5088E828F83A3AE82AF83E50870030206
:10413300432E8E828F83E0C0E07402121A38D0E0DF
:10414300F08E828F83A3AE82AF838E828F83E0C093
:10415300E07403121A38D0E0F08E828F83A3AE820C
:10416300AF838E828F83E0C0E07404121A38D0E0EC
:10417300F08E828F83A3AE82AF838E828F83E0C063
:10418300E07405121A38D0E0F08E828F83A3AE82DA
:10419300AF838E828F83E0F5087406121A38E054D9
:1041A300FEF8A3E054FFF9E508A2E0E492E07B0007
:1041B30048F8EB49F97406121A38E8F0A3E9F0E578
:1041C30008A2E15004D2F08002C2F07406121A3839
:1041D300E054FDFAA3E054FFFBA2F0E492E079007F
:1041E300C333F8E933F9740258F8740059F9E84A0B
:1041F300F8E94BF97406121A38E8F0A3E9F0E50878
:10420300A2E25004D2F08002C2F07406121A38E01F
:1042130054FBFAA3E054FFFBA2F0E492E0F50C7523
:104223000D007402780C1219DA7404550CF874003A
:10423300550DF9E84AF8E94BF97406121A38E8F013
:10424300A3E9F0E508A2E35004D2F08002C2F074BF
:1042530006121A38E054F7FAA3E054FFFBA2F0E485
:1042630092E0F50C750D007403780C1219DA7408DA
:10427300550CF87400550DF9E84AF8E94BF9740642
:10428300121A38E8F0A3E9F0E508A2E45004D2F0EA
:104293008002C2F07406121A38E054EFFAA3E05415
:1042A300FFFBA2F0E492E0F50C750D007404780CAA
:1042B3001219DA7410550CF87400550DF9E84AF820
:1042C300E94BF97406121A38E8F0A3E9F0E508A2FD
:1042D300E55004D2F08002C2F07406121A38E0549A
:1042E300DFFAA3E054FFFBA2F0E492E0F50C750DB6
:1042F300007405780C1219DA7420550CF874005503
:104303000DF9E84AF8E94BF97406121A38E8F0A3F4
:10431300E9F07406121A38E0543FF0A3E054FFF0BA
:104323007402121A3885820A85830BAC0AAD0B74AA
:1043330017121A38AA82AB83120814E985108285F2
:104343001183F00247E18E828F83A3A3E0F98E826B
:104353008F83E0FC7D008E828F83A3E0FAE4CAFBA7
:10436300EA2CFAEB3DFB12081AE9851082851183CA
:10437300F00247E18E828F83E0FA7B008E828F8387
:10438300A3E0F8E4C8F9E82AF8E93BF9880A890BBD
:10439300EE2402FEEF3400FF8E828F83E0F5088E59
:1043A300828F83A3AE82AF83750C10750D00780CDA
:1043B300121C33EEFCEFFD745F121A38AA82AB8332
:1043C3001201FC7402121A03EE2410FEEF3400FFF4
:1043D3008E828F83E0FA7B008E828F83A3E0F8E4E2
:1043E300C8F9E82AF8E93BF9746D121A38E8F0A322
:1043F300E9F0EE2402FEEF3400FF750C08750D00A2
:10440300780C121C33EEFCEFFD7471121A38AA8279
:10441300AB831201FC7402121A03EE2408FEEF347C
:1044230000FF8E828F83E0C0E07477121A38D0E0E9
:10443300F0745D121A38AC82AD83A908AA0AAB0BDB
:10444300120832E9851082851183F00247E18E82DA
:104453008F83E0FA7B008E828F83A3E0F8E4C8F9B0
:10446300E82AF8E93BF97409121A38E8F0A3E9F0ED
:10447300EE2402FEEF3400FF8E828F83E0C0E074EF
:1044830001121A38D0E0F08E828F83A3AE82AF83FD
:104493007508107509007808121C33EEFCEFFD74E3
:1044A3004B121A38AA82AB831201FC7402121A034C
:1044B300EE2410FEEF3400FF8E828F83E0F508E4D4
:1044C300F509F50AF50B8E828F83A3E0F50CE4F56D
:1044D3000DF50EF50F7408780C12180A7808790C8C
:1044E3001218298E828F83A3A3E0F50CE4F50DF552
:1044F3000EF50F7410780C12180A7808790C12183C
:10450300298E828F83A3A3A3E0F50CE4F50DF50EAA
:10451300F50F7418780C12180A7808790C121829F8
:104523007459121A3878081218E47449121A38ACFC
:1045330082AD837401121A38E0F97409121A38E053
:10454300FAA3E0FB12080EE9851082851183F002BD
:1045530047E18E828F83E0FA7B008E828F83A3E014
:10456300F8E4C8F9E82AFCE93BFDEE2402FAEF344B
:1045730000FB120820E9851082851183F00247E1D0
:104583008E828F83A3A3E0F98E828F83E0FC7D006C
:104593008E828F83A3E0FAE4CAFBEA2CFAEB3DFB9D
:1045A30012082CE9851082851183F00247E18E827F
:1045B3008F83E0F87900880889098E828F83A3E0CE
:1045C300FA7B008E828F83A3A3E0F8E4C8F9E82A7C
:1045D300F8E93BF9880A890BC3E5089422E50994B5
:1045E300005016AC0AAD0BAA08AB091206CAE9853E
:1045F3001082851183F00247E174028510828511D0
:1046030083F00247E17508FF7509FF8E828F83E00F
:10461300F87900880A890BC3E50A94FFE50B940037
:10462300501CC3E50A9422E50B94005011AA0AAB6F
:104633000B1206D08A0C8B0D850C08850D0974FFAF
:104643006508700474FF6509600B7400851082852A
:104653001183F080097402851082851183F074023E
:10466300C0E0740F121A38E0F8A3E0F5838882D013
:10467300E0F0E508900665F0E509F508E508900621
:1046830066F00247E1EE2410FCEF3400FDEEFAEF92
:10469300FB12074EE9851082851183F00247E18EF4
:1046A300828F83A3E0F50A850A0C750D0074042537
:1046B3000CFA7400350DFB12029E8A0C8B0D850CCF
:1046C30008850D09E50864007004E5096400607A53
:1046D3008E828F83E0850882850983F08508828531
:1046E3000983A3E50AF0E5082404F8E5093400F991
:1046F300850882850983A3A3E8F0A3E9F0850A0C62
:10470300750D00780C121C33EE2402FCEF3400FD0F
:10471300850882850983A3A3E0FAA3E0FB1201FCC9
:104723007402121A03AA08AB09120754E98510820E
:10473300851183F0851082851183E070030247E1C0
:10474300AA08AB091202A40247E1741385108285FB
:104753001183F00247E18E828F83E0F912075A8AB0
:104763000A8B0B850A08850B09E50864007004E5CC
:104773000964006012AA08AB091202A47400851030
:1047830082851183F080577402851082851183F02E
:10479300804C120760E9851082851183F0803F7495
:1047A30002851082851183F080347A0074028510AB
:1047B30082851183F0EAC0E0740F121A38E0F8A37F
:1047C300E0F5838882D0E0F080147402851082853E
:1047D3001183F080097401851082851183F085109F
:1047E30082851183E0F97478121A037F08021B0A89
:1047F30074F2121A4474FE1219ED8A088B097400BC
:10480300851082851183F07E007F007400C0E07400
:1048130001121A38D0E0F07C287D0079007A377BCA
:1048230006120214850882850983E0121CF3000333
:10483300A27848B0A348D03E48DB487401121A3826
:1048430085820C85830D780C121C337402121A387E
:1048530085820C85830D780C121C337C377D06AA68
:1048630008AB0912044E7404121A038A0C8B0DAEA2
:104873000CAF0D806385108285118385820C85833F
:104883000D780C121C337C377D06AA08AB09120481
:10489300547402121A038A0C8B0DAE0CAF0D8038C0
:1048A3007401121A3885820C85830D780C121C331F
:1048B3007402121A3885820C85830D780C121C330E
:1048C3007C377D06AA08AB0912045A7404121A0332
:1048D3008A0C8B0DAE0CAF0DAA08AB09120226751C
:1048E3000A00851082851183E06011EEFCEFFD85DF
:1048F3001082851183E0FA79FF120CACEE6400702C
:1049030003EF640060117401121A38E06401700748
:10491300EEFAEFFB1202A4A90A7402121A037F062D
:10492300021B0A74F0121A4474FA1219ED7403127A
:104933001A38EAF0A3EBF0ECFEEDFF740085108269
:10494300851183F0750E00750F007403121A38E099
:10495300F8A3E0F5838882A3A3E0121C77000FC2BB
:104963005D8449AA4AF24C3C4D9A4DCF4D524FC4F7
:104973004FC650395123534A52825B275CB95917AA
:104983005A7403121A38E0F8A3E0F9880889097405
:10499300008E828F83F074068E828F83A3F0850846
:1049A30082850983A3E08E828F83A3A3F0750A0611
:1049B300750B00780A121C33E5082403FCE509345F
:1049C30000FDEE2403FAEF3400FB1201FC74021223
:1049D3001A03850882850983A3A3A3A3A3A3A3A37F
:1049E300A3E08E828F83A3A3A3A3A3A3A3A3A3F074
:1049F300850882850983A3A3A3A3A3A3A3A3A3A336
:104A0300E0F9E98E828F83A3A3A3A3A3A3A3A3A304
:104A1300A3F0E508240BF582E5093400F583E0C033
:104A2300E0EE240BF582EF3400F583D0E0F0750A55
:104A330010750B00780A121C337C977D06EE240C4C
:104A4300FAEF3400FB1201FC7402121A03750A1008
:104A5300750B00780A121C337CA77D06EE241CFA22
:104A6300EF3400FB1201FC7402121A0385088285DD
:104A73000983A3E070217C977D067A1079021204E2
:104A8300F07CA77D067A1079031204F07C337D064F
:104A93007A0479041204F08E0E8F0F742C85108221
:104AA300851183F0025DC27403121A38E0F8A3E0A3
:104AB300F9880C890D850C82850D83A3E0600302C0
:104AC3004CA1850C82850D83A3A3A3E0C39401505D
:104AD30003024CA1850C82850D83A3A3A3A3E0F855
:104AE300A3E0F97401121A38E8F0A3E9F07404851D
:104AF3001082851183F075F008850C82850D83A3E0
:104B0300A3A3E0A4FA851082851183E02AF085101F
:104B130082851183E0F508AA087B0012029E8A08A9
:104B23008B0985080E85090FE50E64007004E50FF7
:104B330064007003024C97850E08850F0974018584
:104B43000882850983F0850882850983A385820805
:104B53008583097406850882850983F08508828523
:104B63000983A3858208858309850C82850D83A328
:104B7300E0850882850983F0850882850983A385FA
:104B83008208858309850C82850D83A3A3A3E08511
:104B93000882850983F0850882850983A3858208B5
:104BA300858309850C82850D83A3A3A3A3E0F8A3C2
:104BB300E0F97401121A38E8F0A3E9F07400C0E0D8
:104BC3007405121A38D0E0F07405121A38E0C0E008
:104BD300850C82850D83A3A3A3E0FAD0E0C39A409A
:104BE30003024C817401121A38E0F8A3E0F58388BC
:104BF30082E0850882850983F0850882850983A37D
:104C03008582088583097401121A38E0F8A3E0F558
:104C1300838882A3E0850882850983F085088285DD
:104C23000983A3858208858309750A06750B0078B5
:104C33000A121C337403121A38E02402FCA3E03472
:104C430000FDAA08AB091201FC7402121A03E5085D
:104C53002406F508E5093400F5097405121A38E04D
:104C63002401F07401121A38E02408F8A3E0340098
:104C7300F97401121A38E8F0A3E9F0024BCB74017E
:104C8300C0E07418121A38E0F8A3E0F5838882D0E4
:104C9300E0F0800A7413850C82850D83A3F0850CE4
:104CA30082850D83A3E0700F850C82850D83A3A3FA
:104CB300A3E06003025DC274018E828F83F07406E9
:104CC3008E828F83A3F0850C82850D83A3E08E8271
:104CD3008F83A3A3F074008E828F83A3A3A3F08E8C
:104CE3000E8F0F7404851082851183F0025DC274E8
:104CF30003121A38E0F8A3E0F9E8FAE9FB74028E2C
:104D0300828F83F074068E828F83A3F08A828B83D3
:104D1300A3E08E828F83A3A3F08A828B83A3A3A3B2
:104D2300E08E828F83A3A3A3F08E0E8F0F7404856E
:104D33001082851183F0025DC27403121A38E0F801
:104D4300A3E0F9E8FAE9FB74038E828F83F074061B
:104D53008E828F83A3F08A828B83A3E08E828F83DC
:104D6300A3A3F08A828B83A3A3A3E08E828F83A362
:104D7300A3A3F08A828B83A3A3A3A3E0F9E98E8282
:104D83008F83A3A3A3A3F08E0E8F0F7405851082C8
:104D9300851183F0025DC274048E828F83F07406E2
:104DA3008E828F83A3F07403121A38E0F8A3E0F520
:104DB300838882A3E08E828F83A3A3F08E0E8F0F4E
:104DC3007403851082851183F0025DC27403121A85
:104DD30038E0F8A3E0F98808890974058E828F8387
:104DE300F074068E828F83A3F0850882850983A3DE
:104DF300E08E828F83A3A3F0850882850983A3A312
:104E0300A3E08E828F83A3A3A3F0750A06750B001C
:104E1300780A121C33E5082404FCE5093400FDEE8E
:104E23002404FAEF3400FB1201FC7402121A038506
:104E33000882850983A3A3A3A3A3A3A3A3A3A3E096
:104E43008E828F83A3A3A3A3A3A3A3A3A3A3F0856A
:104E53000882850983A3A3A3A3A3A3A3A3A3A3A3B3
:104E6300E0F9E9C0E0EE240BF582EF3400F583D0DE
:104E7300E0F0E508240CF582E5093400F583E0C091
:104E8300E0EE240CF582EF3400F583D0E0F0E50882
:104E9300240CF582E5093400F583A3E0F9E9C0E0C9
:104EA300EE240DF582EF3400F583D0E0F0E508241D
:104EB3000EF582E5093400F583E0C0E0EE240EF53B
:104EC30082EF3400F583D0E0F0E508240EF582E5A7
:104ED300093400F583A3E0F9E9C0E0EE240FF5827D
:104EE300EF3400F583D0E0F0E5082410F582E509FE
:104EF3003400F583E0C0E0EE2410F582EF3400F5D2
:104F030083D0E0F0E5082410F582E5093400F58349
:104F1300A3E0F9E9C0E0EE2411F582EF3400F58354
:104F2300D0E0F0E5082412F582E5093400F583E0CA
:104F3300C0E0EE2412F582EF3400F583D0E0F08E6A
:104F43000E8F0F7413851082851183F0025DC27476
:104F530003121A38E0F8A3E0F9E8FAE9FB74068EC5
:104F6300828F83F074068E828F83A3F08A828B8371
:104F7300A3E08E828F83A3A3F08A828B83A3A3A350
:104F8300E08E828F83A3A3A3F08A828B83A3A3A340
:104F9300A3E0F9E98E828F83A3A3A3A3F08A828B74
:104FA30083A3A3A3A3A3E08E828F83A3A3A3A3A31B
:104FB300F08E0E8F0F7406851082851183F0025DCB
:104FC300C27403121A38E0F8A3E0F9E8FAE9FB74B3
:104FD300078E828F83F074068E828F83A3F08A827A
:104FE3008B83A3E08E828F83A3A3F08A828B83A318
:104FF300A3A3A3E08E828F83A3A3A3F08A828B83D0
:10500300A3A3A3A3A3E0F9E98E828F83A3A3A3A3FE
:10501300F08A828B83A3A3A3A3A3A3E08E828F83AF
:10502300A3A3A3A3A3F08A828B83A3A3A3A3A3A372
:10503300A3E0F9E98E828F83A3A3A3A3A3A3F08A9A
:10504300828B83A3A3A3A3A3A3A3A3E08E828F83B3
:10505300A3A3A3A3A3A3A3F08A828B83A3A3A3A342
:10506300A3A3A3A3A3E0F9E98E828F83A3A3A3A39E
:10507300A3A3A3A3F08A828B83A3A3A3A3A3A3A322
:10508300A3A3A3E08E828F83A3A3A3A3A3A3A3A31A
:10509300A3F08A828B83A3A3A3A3A3A3A3A3A3A302
:1050A300A3E0F9E98E828F83A3A3A3A3A3A3A3A35E
:1050B300A3A3F08E0E8F0F740B851082851183F0DE
:1050C300025DC27403121A38E0F8A3E0F988088974
:1050D3000974088E828F83F074068E828F83A3F007
:1050E300850882850983A3E08E828F83A3A3F0853D
:1050F3000882850983A3A3A3E08E828F83A3A3A33E
:10510300F0750A06750B00780A121C33E5082404AF
:10511300FCE5093400FDEE2404FAEF3400FB120130
:10512300FC7402121A038E0E8F0F740A8510828587
:105133001183F0025DC27403121A38E0F8A3E0F998
:10514300880C890D74098E828F83F074068E828F8A
:1051530083A3F0850C82850D83A3E08E828F83A3C6
:10516300A3F0850C82850D83A3A3A3E08E828F8396
:10517300A3A3A3F07508067509007808121C33E58C
:105183000C2404FCE50D3400FDEE2404FAEF340096
:10519300FB1201FC7402121A03850C82850D83A392
:1051A300A3A3A3A3A3A3A3A3A378081218D58E82B2
:1051B3008F83A3A3A3A3A3A3A3A3A3A3E508F0851A
:1051C3000C82850D83A3A3A3A3A3A3A3A3A3A37863
:1051D300081218D5E509F508EE240BF582EF340023
:1051E300F583E508F0850C82850D83A3A3A3A3A310
:1051F300A3A3A3A3A378081218D5741078081217D1
:10520300F1EE240CF582EF3400F583E508F0850C0C
:1052130082850D83A3A3A3A3A3A3A3A3A3A3780816
:105223001218D5741878081217F1EE240DF582EFD1
:105233003400F583E508F08E0E8F0F740E8510820F
:10524300851183F0025DC27403121A38E0F8A3E0FB
:10525300F988088909740B8E828F83F074068E8215
:105263008F83A3F0850882850983A3E08E828F83D1
:10527300A3A3F0750A06750B00780A121C33E50820
:105283002403FCE5093400FDEE2403FAEF3400FBAC
:105293001201FC7402121A03850882850983A3A3F1
:1052A300A3A3A3A3A3A3A3E08E828F83A3A3A3A3F8
:1052B300A3A3A3A3A3F0850882850983A3A3A3A320
:1052C300A3A3A3A3A3A3E0F9E98E828F83A3A3A33C
:1052D300A3A3A3A3A3A3A3F0E508240BF582E509E5
:1052E3003400F583E0C0E0EE240BF582EF3400F5E3
:1052F30083D0E0F0E508240CF582E5093400F5835A
:10530300E0C0E0EE240CF582EF3400F583D0E0F04A
:105313008E0E8F0F740D851082851183F0025DC28E
:105323007403121A38E0F8A3E0F97401121A38E88A
:10533300F0A3E9F0746A851082851183F0851082E9
:10534300851183E0F508AA087B0012029E8A088B68
:105353000985080E85090FE50E64007004E50F64E6
:1053630000700302595B850E0C850F0D7401C0E0BC
:105373007418121A38E0F8A3E0F5838882D0E0F0BD
:10538300851082851183E0F508AC087D007900AAB9
:105393000CAB0D120214740A850C82850D83F08503
:1053A3000C82850D83A385820C85830D7406850C81
:1053B30082850D83F0850C82850D83A385820C8500
:1053C300830D7401121A38E0F8A3E0F5838882A3F1
:1053D300E0850C82850D83F0850C82850D83A38582
:1053E300820C85830D7401121A38E0F8A3E0F5836B
:1053F3008882A3A3A3E0850C82850D83F0850C82AC
:10540300850D83A385820C85830D7401121A38E000
:10541300F8A3E0F5838882A3A3A3A3E0F9E9850CAD
:1054230082850D83F0850C82850D83A385820C858F
:10543300830D7401121A38E0F8A3E0F5838882A380
:10544300A3A3A3A3E0850C82850D83F0850C82853D
:105453000D83A385820C85830D7401121A38E0F83D
:10546300A3E0F5838882A3A3A3A3A3A3E0640070AE
:1054730004A3E0640070030255B17401850C8285B6
:105483000D83F0850C82850D83A385820C85830DA6
:105493007401121A38E0F8A3E0F5838882A3A3A36A
:1054A300A3A3A3E0241AF8A3E03400F98882898334
:1054B300E0850C82850D83F0850C82850D83A385A1
:1054C300820C85830D7508107509007808121C334A
:1054D3007403121A38E0F8A3E0F5838882A3A3A328
:1054E300A3A3A3E0FCA3E0FDAA0CAB0D1201FC7483
:1054F30002121A03E50C2410F50CE50D3400F50D2A
:105503007401121A38E0F8A3E0F5838882A3A3A3F9
:10551300A3A3A3E02410F8A3E03400F988828983CD
:10552300E0850C82850D83F0850C82850D83A38530
:10553300820C85830D7401121A38E0F8A3E0F58319
:105543008882A3A3A3A3A3A3E02410F8A3E03400B9
:10555300F988828983A3E0F9E9850C82850D83F0BC
:10556300850C82850D83A385820C85830D750808C0
:105573007509007808121C337403121A38E0F8A373
:10558300E0F5838882A3A3A3A3A3A3E02412FCA32F
:10559300E03400FDAA0CAB0D1201FC7402121A03D5
:1055A300E50C2408F50CE50D3400F50D800CE50C35
:1055B300241CF50CE50D3400F50D7401121A38E0C6
:1055C300240CF8A3E03400F988828983E064007036
:1055D30004A3E06400700302570C7401850C8285F8
:1055E3000D83F0850C82850D83A385820C85830D45
:1055F3007401121A38E0240CF8A3E03400F988820D
:105603008983E0241AF8A3E03400F988828983E0CF
:10561300850C82850D83F0850C82850D83A385829D
:105623000C85830D7508107509007808121C3374F6
:1056330003121A38E0240CF8A3E03400F9888289B5
:1056430083E0FCA3E0FDAA0CAB0D1201FC74021273
:105653001A03E50C2410F50CE50D3400F50D740167
:10566300121A38E0240CF8A3E03400F98882898305
:10567300E02410F8A3E03400F988828983E0850CE4
:1056830082850D83F0850C82850D83A385820C852D
:10569300830D7401121A38E0240CF8A3E03400F9E6
:1056A30088828983E02410F8A3E03400F988828992
:1056B30083A3E0F9E9850C82850D83F0850C82854F
:1056C3000D83A385820C85830D7508087509007801
:1056D30008121C337403121A38E0240CF8A3E034C4
:1056E30000F988828983E02412FCA3E03400FDAA38
:1056F3000CAB0D1201FC7402121A03E50C2408F51D
:105703000CE50D3400F50D800CE50C241CF50CE5BF
:105713000D3400F50D7401121A38E0F8A3E0F58397
:105723008882A3A3A3A3A3A3A3A3E064007004A3F9
:10573300E0640070030257D17401850C82850D83E8
:10574300F0850C82850D83A385820C85830D7508F6
:10575300107509007808121C337403121A38E0F824
:10576300A3E0F5838882A3A3A3A3A3A3A3A3E0FC3D
:10577300A3E0FDAA0CAB0D1201FC7402121A03E59F
:105783000C2410F50CE50D3400F50D7508067509AC
:10579300007808121C337403121A38E0F8A3E0F5FA
:1057A300838882A3A3A3A3A3A3A3A3E02410FCA39E
:1057B300E03400FDAA0CAB0D1201FC7402121A03B3
:1057C300E50C2406F50CE50D3400F50D800CE50C15
:1057D3002417F50CE50D3400F50D7401121A38E0A9
:1057E300F8A3E0F5838882A3A3A3A3A3A3A3A3A3FE
:1057F300A3E064007004A3E064007003025DC2745C
:1058030001850C82850D83F0850C82850D83A3852C
:10581300820C85830D7508107509007808121C33F6
:105823007403121A38E0F8A3E0F5838882A3A3A3D4
:10583300A3A3A3A3A3A3A3E0FCA3E0FDAA0CAB0D26
:105843001201FC7402121A03E50C2410F50CE50D89
:105853003400F50D7401121A38E0F8A3E0F58388DB
:1058630082A3A3A3A3A3A3A3A3A3A3E02410F8A3A6
:10587300E03400F98882898378081218D5850C8270
:10588300850D83E508F0850C82850D83A385820C45
:1058930085830D7401121A38E0F8A3E0F58388823A
:1058A300A3A3A3A3A3A3A3A3A3A3E02410F8A3E008
:1058B3003400F98882898378081218D5E509F50838
:1058C300850C82850D83E508F0850C82850D83A305
:1058D30085820C85830D7401121A38E0F8A3E0F574
:1058E300838882A3A3A3A3A3A3A3A3A3A3E02410B6
:1058F300F8A3E03400F98882898378081218D574F4
:105903001078081217F1850C82850D83E508F08560
:105913000C82850D83A385820C85830D7401121A75
:1059230038E0F8A3E0F5838882A3A3A3A3A3A3A3EA
:10593300A3A3A3E02410F8A3E03400F988828983A9
:1059430078081218D5741878081217F1850C828517
:105953000D83E508F0025DC2740A8E828F83F074B2
:10596300068E828F83A3F074138E828F83A3A3F09A
:105973007401121A38E0F8A3E0F5838882A3A3A385
:10598300E08E828F83A3A3A3F07401121A38E0F888
:10599300A3E0F5838882A3A3A3A3E0F9E98E828F12
:1059A30083A3A3A3A3F08E0E8F0F740585108285A6
:1059B3001183F0025DC27403121A38E0F8A3E0F910
:1059C300E8FAE9FB740E8E828F83F074068E828F61
:1059D30083A3F08A828B83A3E08E828F83A3A3F0B9
:1059E3008A828B83A3A3A3E08E828F83A3A3A3F0D6
:1059F3008A828B83A3A3A3A3E0F9E98E828F83A377
:105A0300A3A3A3F08E0E8F0F7405851082851183D7
:105A1300F0025DC27403121A38E0F8A3E0F9E8FA61
:105A2300E9FB750800740F8E828F83F074068E82F3
:105A33008F83A3F08A828B83A3E08E828F83A3A3B9
:105A4300F08A828B83A3A3A3E08E828F83A3A3A375
:105A5300F08A828B83A3A3A3A3E0F9E98E828F83C9
:105A6300A3A3A3A3F08A828B83A3A3A3A3A3E08E00
:105A7300828F83A3A3A3A3A3F08A828B83A3A3A36D
:105A8300A3A3A3E08E828F83A3A3A3A3A3A3F08ADC
:105A9300828B83A3A3A3A3A3A3A3E08E828F83A359
:105AA300A3A3A3A3A3A3F08A828B83A3A3A3A3A3E8
:105AB300A3A3A3E08E828F83A3A3A3A3A3A3A3A3E0
:105AC300F08A828B83A3A3A3A3A3A3A3A3A3E054DA
:105AD30001A2E0E492E042088A828B83A3A3A3A3FA
:105AE300A3A3A3A3A3E05402600478028002780076
:105AF300E842088A828B83A3A3A3A3A3A3A3A3A39C
:105B0300E054046004780480027800E842088A8242
:105B13008B83A3A3A3A3A3A3A3A3A3E05408600419
:105B2300780880027800E842088A828B83A3A3A3C3
