:020000040000FA
:060000000200FC021D12CB
:03002B000221DED1
:03005300021D8803
:03006B000221BBB4
:10008300021C5474F855C74401F5C77901220000D6
:100093000080FB120086B900030200E6E4791278BF
:1000A30008B800028004F709D8FCE49003C178D4AF
:1000B30079078002F0A3D8FCD9FA900A94AA82ABFC
:1000C3008390012C780579048015E493A3AC82AD69
:1000D300838A828B83F0A3AA82AB838C828D83D89D
:1000E300E9D9E77582777583A1740312010E7582CE
:1000F30091758300740012010E75D00075813F75F0
:1001030010C1751103759F00020096C09FF59FE40F
:1001130073D09F22D083D082C09FE493C0E0740148
:1001230093C0E0740293F59F22FF0000007800283B
:10013300002800283075A000A000A000A00000083F
:100143000008E001F0001000100010001000100083
:10015300100050005000500010001000D0070000A5
:10016300000000000F00307507001000307500001C
:10017300FFFF02020A0A025000A0000000E8030287
:10018300EE8F010000D48F021690010000DD0A02F9
:10019300E08F010000ED03021690010000DE0A0269
:1001A300E28F0100000204021690010000DF0A0240
:1001B300E48F0300000404021690010000E00A0229
:1001C300E68F0300000504021690010000E10A0215
:1001D300E88F010000E20AFF01002002EE8F010018
:1001E30000D18F021690010000450B02EA8F000038
:1001F300000000100C100C100C100C100C100C1044
:100203000C100C100C100C100C100C100CFFFF0237
:100213000202020202020202EE8F010000DA8F02E2
:1002230016900100007A0B020290010000C8080238
:1002330016900100007B0B020090010000018F0269
:1002430016900100007C0B02FE8F010000F38E026A
:1002530016900100007D0B02FC8F0100006D8E02E1
:1002630016900100007E0B02FA8F010000A38E029C
:1002730016900100007F0B02F88F010000918E029F
:100283001690010000800B02F68F0100007F8E02A2
:100293001690010000810B02F48F010000E58E012E
:1002A300E803053310FF0001307503020106000067
:1002B300000000000000000000000000000000003B
:1002C30000000000000000000000FFFF0600800C9B
:1002D300E803140953696D706C65424C45506572AF
:1002E3006970686572616C051250002003020A0090
:1002F3000201050302F0FF53696D706C6520424CE7
:1003030045205065726970686572616C0013000066
:1003130006130A4368617261637465726973746971
:1003230063203100024368617261637465726973AB
:100333007469632032000843686172616374657293
:100343006973746963203300104368617261637475
:100353006572697374696320340002436861726172
:1003630063746572697374696320350002EE8F01EB
:100373000000D78F0216900100007D0C0208900345
:1003830000007E0A02168F0100007E0C0216900107
:1003930000008F0C020A900100007F0A02168F01F1
:1003A3000000900C021690010000A10C020C9002B8
:1003B3000000800A02168F010000A20C02169001B1
:1003C3000000B30C020E90000000810A02228F038A
:1003D3000000820A02168F010000B40C021690017D
:1003E3000000C50C021090040000880A02168F0159
:1003F3000000C60C104B657920507265737320534F
:10040300746174650002EE8F010000DD8F021690A7
:100413000100005F0D0212900000008D0A02228F7E
:100423000300008E0A02168F010000600D120117EF
:10043300A99603120117C09603120117EF96031230
:1004430001172897031201175097031201177E977C
:1004530003120117959703120117AC9703120117A3
:10046300C39703120117EA9703120117FE970312AA
:1004730001171498031201172898031201174D98B6
:100483000312011720A8021201171CA90212011757
:1004930053A90212011775A90212011777A90212B3
:1004A300011799A902120117A1AA0212011765AB3C
:1004B3000212011718AC021201179AAC02120117AB
:1004C3009DAC02120117D4AC0212011743AD021204
:1004D30001171AAE021201177BAE021201179AAE70
:1004E3000212011712AF0212011715AF0212011700
:1004F30018AF02120117C4AF02120117F6AF0212AE
:10050300011724B0021201174AB00212011726B1D3
:1005130002120117E1B1021201176CE20212011774
:1005230043E3021201176BE3021201179FE3021266
:100533000117EAE30212011741E4021201177FE4F3
:1005430002120117BEE402120117EEE402120117B0
:1005530075E5021201177FE50212011794E50212F5
:100563000117CBE502120117B7E602120117C3E622
:1005730002120117DBE602120117E5E60212011768
:1005830066E702120117158002120117EC800212AE
:1005930001179E8102120117E38102120117C7821C
:1005A300021201171C83021201173D830212011765
:1005B30021840212011755840212011700850212C9
:1005C3000117478502120117A48502120117BD8581
:1005D30002120117DA850212011717860212011798
:1005E3005B86021201173F8702120117EF8702127F
:1005F30001175A8B02120117ED8C021201173F8D5E
:10060300021201175D8E021201177B8E021201176F
:10061300316700120117B167001201173F6800121A
:100623000117D96900120117FC6900120117AA6AA0
:10063300001201172C6B00120117156C0012011721
:10064300566D00120117206E001201179E6E0012E4
:100653000117AC6E001201170D6F00120117EA6F3C
:10066300001201173A70001201175D700012011792
:100673005B7200120117A67200120117CB720012EF
:1006830001174673001201175674001201173C75C7
:1006930000120117B28903120117C289031201174D
:1006A300E88903120117998B0312011700800312C3
:1006B3000117B88003120117F88003120117B482DF
:1006C3000312011776EF01120117B1EF011201179F
:1006D30004F10112011710F10112011733F1011294
:1006E30001177EF10112011727F2011201173FF3DF
:1006F3000112011727F40112011783F501120117E3
:10070300C0F50112011761F601120117AEF60112CD
:100713000117D6F601120117C1F801120117C6F825
:1007230001120117B1FA01120117FAFA01120117A6
:100733006BFB0112011797FB011201172CFC01122D
:100743000117FCFC0112011731FD0112011734FDE1
:10075300011201178AFD01120117C8FD01120117C9
:100763003AFE011201172192031201173492031268
:1007730001174D92031201179A92031201177693F0
:10078300031201171794031201176494031201173C
:100793000E3F00120117403F00120117873F00125E
:1007A30001179A4000120117F04000120117774118
:1007B30000120117D041001201170642001201175F
:1007C3003A4200120117584400120117544600120E
:1007D30001170648001201173E49001201179B4BEF
:1007E30000120117074D00120117534E0012011793
:1007F300A44F00120117C14F00120117A154001298
:1008030001174D5500120117EED602120117F8D643
:1008130002120117BBD70212011702D802120117E5
:1008230026D80212011768D802120117A9D802129A
:100833000117D4D8021201171EDA0212011759DA6E
:100843000212011788DA02120117B8DA021201172D
:10085300F6DA021201171FDB0212011759DB02122B
:10086300011780DB02120117C8DB0212011724DC17
:10087300021201176DDC0212011797DC0212011735
:10088300798303120117B583031201171A84031224
:100893000117D98403120117BA8503120117CB85F7
:1008A300031201173786031201174BB20212011705
:1008B30067B2021201176AB20212011725B30212BC
:1008C300011744B302120117CCB30212011777B513
:1008D3000212011796B6021201179DB702120117F1
:1008E300CAB70212011786B8021201177EB90212A3
:1008F300011706BA0212011764BA02120117889F80
:1009030003120117B59F03120117F39F0312011777
:10091300FD9F0312011707A00312011719A0031269
:1009230001179A9E03120117039F03120117579F82
:1009330003120117F7F90212011761FA02120117E4
:10094300ABFA02120117A4FB02120117B7FC021241
:10095300011795BA02120117D8BA02120117C3BBC5
:1009630002120117A6BC02120117AFBD0212011732
:100973008ABE02120117F3BE0212011798BF0212B8
:1009830001171EC00212011749C002120117B4C099
:100993000212011760C102120117BEC10212011730
:1009A300D7C1021201171CC20212011736C202126A
:1009B300011798C2021201179BC202120117B986CE
:1009C30003120117E386031201171C870312011791
:1009D300CB87031201173F88031201175B880312A9
:1009E3000117858803120117B78803120117C688F8
:1009F300031201173E8903120117688903120117B5
:100A03001990011201171891011201177292011224
:100A130001175B9301120117879301120117BE930C
:100A230001120117D493011201171F940112011728
:100A3300A39401120117109501120117AC9501122D
:100A43000117189A01120117979B01120117E99BCD
:100A530001120117329D011201177A9D011201172C
:100A63003A9F01120117A69F01120117F09F01126D
:100A73000117CCA001120117F4A00112011798A5C8
:100A83000112011723A60112011707A7011201176B
:100A93009CA701120117B6A701120117EBA70112B8
:100AA300011722A80112011732A8011201173EA84B
:100AB3000112011752A80112011704A9011201170B
:100AC30045A901120117FCAA01120117B9AB0112C2
:100AD300011728AC01120117BEAC011201176EAD4C
:100AE30001120117E3AD0112011773AE01120117D1
:100AF300AAAF0112011786B001120117A3B00112A8
:100B03000117F6B00112011747B101120117E1B144
:100B13000112011706B2011201176FB20112011778
:100B2300AAB201120117CAB2011201177DB3011251
:100B330001173AB401120117C7B40112011780B5A6
:100B430001120117E6B5011201174AB60112011786
:100B53006FB60112011717B70112011769B8011215
:100B63000117ACB801120117FCB8011201174FB9F4
:100B73000112011776B901120117DDB9011201172C
:100B830026BA0112011777BB01120117D9BB011253
:100B93000117A5BC01120117D5BC01120117FCBC3A
:100BA3000112011749BD011201174CBE01120117B1
:100BB30075BE01120117A0BE01120117FBBE01127F
:100BC30001172CBF011201176FBF011201178EBF4E
:100BD30001120117E9BF0112011704C00112011725
:100BE30051C00112011764C00112011781C0011223
:100BF300011796C0011201179FC101120117CBC241
:100C030001120117FFC301120117C7C40112011713
:100C13006AC60112011788C601120117A4C6011280
:100C230001174CC70112011782C701120117A0C790
:100C330001120117BFC701120117B3C9011201172E
:100C4300E1CA011201170FCB0112011740CB0112A8
:100C5300011769D301120117BED401120117E8D598
:100C63000112011795D601120117C1D601120117FE
:100C7300DAD6011201171CD7011201175CD7011232
:100C8300011706D801120117D9D80112011721D96A
:100C93000112011785D901120117C4D901120117D5
:100CA300FFD90112011738DA011201179BDA011279
:100CB300011759E1011201175FE10112011719E749
:100CC300011201176CEA01120117B7EA01120117A9
:100CD30059EB0112011774EB01120117AFEB01126B
:100CE300011798EC011201170EED0112011722ED05
:100CF300011201174DED0112011780ED01120117C9
:100D0300BFED01120117F6ED011201173EEE0112BC
:100D130001179FEE01120117CAEE01120117DEEE51
:100D230001120117F1EE0112011708EF0112011769
:100D330031EF0112011746EF01120117D6CA021251
:100D43000117E9CA02120117FACA0212011723CBCB
:100D53000212011766CB02120117ACCB0212011764
:100D6300E9CB021201174FCC0212011768CC021211
:100D7300011773CC0212011780CC0212011797CC12
:100D830002120117A5CC02120117B7CC02120117E8
:100D9300CCCC02120117E1CC02120117ECCC0212E7
:100DA3000117F7CC0212011703CD0212011724CD4C
:100DB300021201172FCD0212011753CD0212011790
:100DC300FDCD021201170DCE0212011727CE02121A
:100DD300011742CE0212011760CE021201176BCE29
:100DE30002120117ECCE02120117A6CF021201174D
:100DF300B1CF02120117C6CF02120117D1CF0212CF
:100E0300011731D00212011737D0021201173DD05A
:100E13000212011743D00212011749D0021201171F
:100E230063D00212011790D002120117FA8E021238
:100E330001179A8F021201172F910212011788933B
:100E4300021201176494021201178D940212011702
:100E5300CB94021201173B9502120117F29602126C
:100E630001171B9702120117A79702120117D997AF
:100E730002120117E69702120117319802120117A5
:100E83005A9802120117389B02120117319C021261
:100E93000117899C02120117EA2100120117FA2295
:100EA30000120117952300120117BE230012011728
:100EB300CA2300120117042500120117502500123E
:100EC30001173C270012011723280012011751288C
:100ED30000120117642A00120117B12D0012011725
:100EE3007E2E00120117C82F00120117DC300012EA
:100EF3000117A43100120117793200120117E132F0
:100F0300001201179E3300120117DA330012011782
:100F13000C3400120117A43600120117883700128F
:100F23000117F23700120117423800120117C138B6
:100F330000120117273900120117BC3B00120117D9
:100F4300B33E001201175F9803120117849803122E
:100F53000117F99803120117FC77001201170C7897
:100F630000120117147800120117FC780012011700
:100F7300887A00120117BC7A00120117EF7A001267
:100F83000117237B00120117567B00120117867B82
:100F930000120117B87B00120117FF7B0012011723
:100FA300327C00120117797C00120117D37C0012E6
:100FB3000117067D001201175A7D001201178D7D5E
:100FC30000120117E07D00120117237E00120117A2
:100FD300567E001201178F7E00120117C97E001280
:100FE3000117C2DC02120117CCDC0212011712DD59
:100FF300021201175DDD0212011799DD02120117BA
:10100300F5DD021201171DDE0212011726DE0212A0
:1010130001177CDE02120117A7DE02120117B4DEEC
:101023000212011726DF02120117AFDF02120117A6
:1010330018E00212011751E002120117D2E0021266
:10104300011711E10212011745E10212011757E1DD
:101053000212011776E1021201177FE10212011752
:101063003CE20212011716FF0112011790940312BA
:101073000117C89403120117FC94031201176B960E
:1010830003120117E6A003120117FCA003120117B4
:1010930006A10312011750A1031201176A7F001260
:1010A300011719F60212011731F602120117D7F6CA
:1010B3000212011718F70212011735F7021201176E
:1010C30058F7021201179FF702120117D5F7021200
:1010D30001170CF8021201179BF902120117DFF92D
:1010E30002120117A09D03120117C39D03120117DA
:1010F300F29D031201170B9E03120117509E031258
:101103000117648F03120117998F03120117C58FFB
:1011130003120117C555001201176F57001201176B
:10112300A55800120117695900120117E559001259
:101133000117575A001201177D5A00120117C45F95
:1011430000120117336000120117706100120117BA
:10115300B36100120117E76100120117F362001275
:1011630001172263001201176C6300120117A063B9
:1011730000120117C26300120117AD6400120117B8
:10118300E164001201176465001201177F65001204
:101193000117DA6500120117AE660012011789A262
:1011A30003120117CEA10312011719A2031201178B
:1011B3009AA2031201174BA0031201175BA003129B
:1011C300011770A003120117E3A0031201178C9CEF
:1011D30003120117159D03120117879D03120117AF
:1011E3006A9B031201178C9B03120117ED9B0312D9
:1011F3000117FF9B031201174B9C03120117809CDD
:1012030003120117839C03120117D9E70212011776
:10121300E7E70212011767E80212011761E90212F8
:101223000117FBEB0212011760EC02120117CCEC61
:1012330002120117F87F00120117958C0312011790
:10124300EB8E03120117618F03120117EC9903123E
:1012530001173F9A031201179D9A03120117089B66
:1012630003120117B1FD02120117DCFD021201176F
:10127300B2FE021201178BFF02120117C0C2021243
:101283000117AAC302120117E8C3021201173EC4D1
:101293000212011793C402120117F0C402120117BC
:1012A30085C5021201178FC6021201176BC80212FD
:1012B3000117F1C80212011754C90212011762C9BA
:1012C300021201178BCA02120117E19C02120117C5
:1012D300D09F0212011739A1021201178BA102122A
:1012E30001170FA20212011731A40212011718A746
:1012F30002120117DEEC02120117A2EF021201170C
:10130300C4F0021201177EF10212011705D1021275
:1013130001176CD1021201178BD10212011718D2D7
:10132300021201176CD20212011794D30212011791
:10133300CCD302120117DFD40212011794D6021282
:101343000117B7F1021201171EF20212011755F22B
:101353000212011773F302120117A9F30212011704
:101363007EF402120117BFF50212011723A2031222
:101373000117C97F001201176BA203E06670100802
:10138300A3E066700A08A3E066700408A3E066227F
:10139300C3E7960809E7960809E7960809E796223E
:1013A300C3E09608A3E09608A3E09608A3E096227C
:1013B300080808EAC0E0EBC0E086F0E7A4FA1809E1
:1013C30086F0E7A42AFA180986F0E7A42AFA18098E
:1013D30086F0E7A42AFA1986F0E7A4FBE5F02AFAD7
:1013E300190886F0E7A42BFBE5F03AFA190886F012
:1013F300E7A42BFBE5F03AFA18180986F0E7A4C531
:10140300F02BFBE43AFA1908E7C5F0C6A426F6E583
:10141300F03BFBE43AFA1886F0E7A4F6E5F0082679
:10142300F6E43B08F6E43A08F6D0E0FBD0E0FA2213
:10143300E4CFC0E0E4CEC0E0E4CDC0E0E4CCC0E063
:1014430075F020C3E633F608E633F608E633F6080C
:10145300E633F6181818EC33FCED33FDEE33FEEFEC
:1014630033FFC3EC9709ED9709EE9709EF97191925
:1014730019400FFFEC97FC09ED97FD09EE97FE1954
:101483001906D5F0BEECF709EDF709EEF709EFF70A
:10149300191919D0E0FCD0E0FDD0E0FED0E0FF2226
:1014A3006016080808C6C313C618C613C618C613A1
:1014B300C618C613C6D5E0EA2270090808082260D8
:1014C30016181818C6C333C608C633C608C633C6AB
:1014D30008C633C6D5E0EA22E627F60809E637F65A
:1014E3000809E637F60809E637F622E026F608A3E8
:1014F300E036F608A3E036F608A3E036F622E02647
:10150300F008A3E036F008A3E036F008A3E036F0D5
:1015130022C3E697F60809E697F60809E697F60860
:1015230009E697F622C3E0C696F608A3E0C696F648
:1015330008A3E0C696F608A3E0C696F622C3E09693
:10154300F008A3E096F008A3E096F008A3E096F075
:1015530022E056F608A3E056F608A3E056F608A3E1
:10156300E056F622E056F008A3E056F008A3E05652
:10157300F008A3E056F022E046F608A3E046F6089A
:10158300A3E046F608A3E046F622E0F608A3E0F659
:1015930008A3E0F608A3E0F622E6F008A3E6F008C5
:1015A300A3E6F008A3E6F022CAC0E0E6F0A308DA57
:1015B300FAD0E0FA22CAC0E0E0A3C582CCC582C556
:1015C30083CDC583F0A3C582CCC582C583CDC58336
:1015D300DAE6D0E0CA22C3E498F8E499F912161ABD
:1015E3008026C3E49AFAE49BFBE920E7E912161A82
:1015F300E498F8E499F922C3E498F8E499F9121607
:101603001AE498F8E499F9C3E49AFAE49BFB22EB11
:1016130020E7CFE920E7E0B90010BB0008E88AF033
:1016230084F8AAF022E4FBC8FA22EB70227B10C8EC
:1016330033C8C933C9335007C39AC3DBF280069A50
:1016430050012ADBEAC833F4C8C933F4C9FA227556
:10165300F008E4C833C8C933C933C99AC99B5004D5
:10166300C92AC93BD5F0ECFBC833F4C8E4C9FA2254
:10167300600D08C6A2E713C618C613C6D5E0F32249
:10168300600C08C6C313C618C613C6D5E0F422708F
:101693000422600D18C6C333C608C633C6D5E0F4AA
:1016A3001822251010AF08F510400215118008F517
:1016B3001040021511D2AF22C0D0251010AF08F58B
:1016C30010500205118008F51050020511D2AFD059
:1016D300D0222510F58210AF08F5104002151180B5
:1016E30008F51040021511D2AF851183222510F59C
:1016F30082E43511F58322E4732510C582C0E0E549
:101703001134FFC583C0E0E510C3958224F8F8E4E3
:10171300C5A8858311858210C5A8E8CEF0A3E5206E
:10172300F0A37808E608F0A3DEFAEFF0A3E581243E
:10173300FAF8E608F0A3E608F0A3E608F0A3080821
:10174300E608F0A3E608F0A315811581D0E0FED0EA
:10175300E0F8158115811581E8C0E0EEC0E022258F
:1017630010C582C0E0E51134FFC583C0E0E510C3B6
:10177300958224F9F8E4C5A8858311858210C5A84C
:10178300E8CEF0A3E520F0A37808E608F0A3DEFA9C
:10179300EFF0A3E58124FBF8E608F0A3E608F0A345
:1017A3000808E608F0A3E608F0A315811581D0E048
:1017B300FED0E0F815811581E8C0E0EEC0E0228597
:1017C3001183851082E0A3FEE0A3F5207808E0A34F
:1017D300F608DFFAE0A3FFE0A3C0E0E0A3C0E0E087
:1017E300A3C0E0E0A3C0E0E0A3C0E0E4C5A8858215
:1017F30010858311C5A8D083D0820201148511837B
:10180300851082E0A3FEE0A3F5207808E0A3F608A4
:10181300DFFAE0A3FFE0A3C0E0E0A3C0E0E0A3C0E1
:10182300E0E0A3C0E0E4C5A8858210858311C5A8C4
:10183300D083D08222C0D02510C582C0E0E5113408
:10184300FFC583C0E0E510C3958224F310AF08857C
:1018530083118582108008858311858210D2AFC8D9
:10186300F0A3E9F0A3EAF0A3EBF0A37908E709F00A
:10187300A3D8FAECF0A3EDF0A3EEF0A3EFF0A3D01E
:10188300E0F0A3D0E0F0A3D0E0F0A3E520F0A3E5DF
:10189300F0F0A322851183851082E0C0E0A3E0F974
:1018A300A3E0FAA3E0FBA37808E0F608A3DFFAE0DD
:1018B300FCA3E0FDA3E0FEA3E0FFA3E0C0E0A3E000
:1018C300C0E0A3E0F5D0A3E0F520A3E0A3F5F0E4A6
:1018D300C5A8858311858210C5A8D082D083D0E0A6
:1018E300F8D0E03274048006740280027401C0E010
:1018F300F4041216D5D0E01215AB227404800474DC
:10190300028000CCC0E0EDC0E0E510C39CCCAD117B
:1019130050011D10AF068C108D1180068C108D1197
:10192300D2AF1215B8D0E0FDD0E0FC22D083D08234
:10193300C5F0E493A3C5F0C395F0F5F0E493A3C316
:1019430095F04005E5F0048001E475F002A42582DA
:10195300F582E5F03583F583E493A3C0E0E493C017
:10196300E022D083D082E9C0E0E493A3C386F0C52C
:10197300F095F0F908E493A386F0C5F095F0700BA9
:10198300E493A3C3994005E9048002A3E475F0023C
:10199300A42582F582E5F03583F583D0E0F9E4935D
:1019A300A3C0E0E493C0E022D083D082CCC0E0E4C3
:1019B30093A360061219D51470FAE493A360061278
:1019C30019F41470FAD0E0FCE493A3C0E0E493C0EC
:1019D300E022C0E0E493A3D39C5010E493A3C39C00
:1019E300400AD0E0D0E0D0E00219C8A3A3A3D0E01E
:1019F30022C0E0E493A36C7009D0E0D0E0D0E00211
:101A030019C8A3A3D0E022D083D082ECC0E0EDC0FC
:101A1300E0E493A3FCE493A3FDED4C600D121A568E
:101A2300EC24FFFCED34FFFD80EFE493A3FCE4938F
:101A3300A3FDED4C600D121A95EC24FFFCED34FF71
:101A4300FD80EFD0E0FDD0E0FCE493A3C0E0E4939D
:101A5300C0E022C0E0C3E493960874019396184053
:101A63000FE4936670080874019366187000701988
:101A7300A3A3C3E49396087401939618A3A3400DFC
:101A8300D0E0D0E0D0E0021A46A3A3A3A3A3A3D03F
:101A9300E022C0E0C0F088F0E493667008087401A7
:101AA3009366187000A8F0A3A3700BD0F0D0E0D019
:101AB300E0D0E0021A46A3A3D0F0D0E02274F512DE
:101AC3001762EAFEEBFFEE2434F8EF3400F98808DE
:101AD3008909EE2435121B61F8EE2437121B61F5D8
:101AE3000AEC850AF0A4FCAAF0850AF0EDA42AFD0D
:101AF300EC28F8ED3400F97A257B0012161AEA85F2
:101B03000882850983F05407F87401B80002800441
:101B1300C333D8FCC0E0E0131313541FF8EE28F8C6
:101B2300EF3400F9745D28F582E439F583D0E0FAE7
:101B3300E05A8508828509837020E0C0E0EE2436F0
:101B4300121B61F5F0D0E084A8F0EE28F8EF340022
:101B5300F9743828F582E439F583E0F9801AF582BF
:101B6300EF3400F583E022908FA9780812158D8A4F
:101B7300828B8378081215677F0402180074F412AD
:101B830017628A088B09EA2434F582EB121B64C0BE
:101B9300E0EA2435F582EB3400F583D0E0F08A8265
:101BA3008B83A3A3A3A3A3E0FAA3E0FB8508828509
:101BB3000983A3A3A3A3A3A3A3E0FCA3E0FDECC316
:101BC3009AFEED9BFFE5082480F50AE5093400F54C
:101BD3000B850A82F583E06401702DE5082481F505
:101BE30082E5093400F583121902121C1E740212D5
:101BF30016BBE960137C057D06AA08AB09120B50DE
:101C0300E4850A82850B83F0EEFCEFFDAA08AB099D
:101C1300121AC01221AD7F05021800C082C083854D
:101C23001082851183E0F8A3E0F9C3EA9CEB9D5091
:101C33000BC3EC98ED99401279018010C3EA98EB3D
:101C43009940F5C3EC98ED9950EE7900D083D0829A
:101C530022C0E074EF121838759B00906182E0A2F5
:101C6300E65059E591A2E650537591BF120D1875D0
:101C73001200120D96E99004F6F07900120D781215
:101C83000AB49004FBE0548164817024E0D2E6F04E
:101C9300120D248A088B098C0A8D0B908F557808B6
:101CA3001214EEAA08AB09AC0AAD0B120CFA800CA5
:101CB3007A017B009004F4E0F912103C906182E019
:101CC300A2E55024E591A2E5501E7591DF9004F53D
:101CD300E0640D701390068CE004F064287002E455
:101CE300F07A00E0F9120E20906181E0A2E350093E
:101CF300E5E9A2E3500375E9F7906182E0A2E750BA
:101D030009E591A2E7500375917F7F04021897C0FC
:101D1300E0C0D0C082C083906183E0A2E05009E5B7
:101D2300BFA2E0500375BFFEE0A2E15009E5BFA2E8
:101D3300E1500375BFFDE0A2E25009E5BFA2E25006
:101D43000375BFFBE0A2E35009E5BFA2E3500375AF
:101D5300BFF7E0A2E45009E5BFA2E4500375BFEF6B
:101D6300E0A2E55009E5BFA2E5500375BFDFE0A29D
:101D7300E65009E5BFA2E6500375BFBFD083D0820A
:101D8300D0D0D0E032C0E074F2121838E5A7A2E454
:101D9300500FE5A1A2E4500953A7EF75A1EF121D5F
:101DA300F3E5A7A2E55023E5A1A2E5501D53A7DF64
:101DB30075A1DF9004FBE0A2E6500FC2E6F07A01C2
:101DC3007B009004F4E0F912103CE5A7A2E150096E
:101DD300E5A1A2E1500375A1FDE5A7A2E2500CE540
:101DE300A1A2E2500653A7FB75A1FB7F010218973E
:101DF30074F81217627512017A007B00120D00A2AB
:101E0300AFE492E0FED2AF7A207B009004F4E0F9D5
:101E13001210C67A207B009004F4E0F9121042906D
:101E23006182E0D2E6F085C61380189004FAE0647C
:101E330001700874F855C64405F5C653BEFCE5BEEB
:101E43001221547401651260E253BEFCE5BEEEA29A
:101E5300E092AF7F0102180074F11217628A0C8BB3
:101E63000D8C0E8D0F740F1216F0780812158D90CD
:101E73008FA9780C121554908FA9780812155478ED
:101E83000C7908121393501C780C790812151490CE
:101E93008F5D780812158D7808790C121393501CF6
:101EA3007901801A7808790C121514908F5D780CDB
:101EB30012158D780C790812139350E47900021FE0
:101EC300A274F112176274FC1216A5851082851193
:101ED30083EAF0A3EBF0A3ECF0A3EDF07413121676
:101EE300F0780812158D908FA9780C12158D851036
:101EF30082851183780C121567908FA978081215C3
:101F03005485108285118378081213A34014851019
:101F130082851183780C12158D780C7908121514AB
:101F2300801E750C00750D00750E00750F01780C81
:101F33007908121514851082851183780C1214EE1A
:101F4300AA0CAB0DAC0EAD0F74041216BB8050740B
:101F5300F11217628A0C8B0D8C0E8D0F740F1216F3
:101F6300F0780812158D908FA9780C121554908F64
:101F7300A978081215547808790C12139340117834
:101F83000C7908121514AA0CAB0DAC0EAD0F800F13
:101F93007808790C121514AA08AB09AC0AAD0B7FAB
:101FA3000802180074F51217628C828D8378081268
:101FB300158D8A828B837808121540121FFCC3E0AB
:101FC30098F0A3E099121FEE401E908FA17808129B
:101FD300158D8A828B8378081215018E828F83E098
:101FE3002420F0A3E0344EF0021B6AF08E828F832C
:101FF300C3E09420A3E0944E22EA2404F8EB3400D7
:10200300F9E8FEE9FF8C828D83A3A3A3A3E0F8A3E1
:10201300E0F98E828F832274F5121762E9C333F8D5
:10202300E433F9E824D5F582E9348EF583E0F8A3A7
:10203300E0F9758306758226E028F508A3E039F5F3
:102043000978081218EB908FC9780812158DAA0821
:10205300AB09AC0AAD0B12215C74021216BB8A08E1
:102063008B098C0A8D0B741078081214A3AA08AB81
:1020730009021B7B74F11217628A0C8B0D8C0E8D77
:102083000F740F1216F0E0FAA3E0FB74111216F0AE
:10209300E0F508A3E0F50974131216F0E0FEA3E0DF
:1020A300FF78081218EB74012AF508E43BF509756B
:1020B3000A00750B00780C79081213B3908F6178BE
:1020C3000812158D780C79081213B3AA0CAB0DAC5A
:1020D3000EAD0F12215C74021216BB8A088B098C99
:1020E3000A8D0BEA7001EB60047A0180027A0074B6
:1020F3001078081214A3EA2508F8E43509F974D80E
:1021030028FCE439FDECF8EDF97A717B0212161A1A
:10211300880889098E828F83780812159CECF8ED64
:10212300F97A717B0212161A8A088B097401250841
:10213300F508E43509F509740578081216928E82BC
:102143008F83A3A3A3A3E508F0A3E509F0021FA2CD
:10215300008512878513C622008E148F1585821978
:10216300858318851082851183E0CEA3E0CF85197E
:1021730082851883EBC9EAC8EDCBECCA75F010C3AE
:10218300E833C8E933C9EA33CAEB33CBC3EA9EF574
:1021930017EB9FF516B35004AB16AA17EC33CCED2F
:1021A30033CDD5F0DAAE14AF1522C082C083E990E7
:1021B3006000F0D083D08222C0E074F2121838E5B8
:1021C30089A2E04006E589A2E150031211F875895E
:1021D30000758900C2C57F01021897C0E0C2C753CA
:1021E300BEFCE5BED0E03274F11216FC74FE12168A
:1021F300A5851082851183ECF0A3EDF0E9FF8A0E2B
:1022030074111216F0E0F50CA3E0F50D7E009008B2
:10221300A8E07002A3E0600579110222E4E50C70E6
:1022230002E50D60417A1F7B001205268A088B099F
:10223300A808A909E50C2415F508E50D3400F509EE
:10224300850882F583E0C398E499401A7A207B00DD
:102253001205268A0A850882850983E0FAC3E50AFE
:102263009AEB94005004790280777A637B00121012
:10227300789008A8EAF0A3EB122DAB7002A3E070EC
:10228300047913805C7C637D007900121000122FA7
:102293002FE4122DAB122F38EF1222F5E50EF08545
:1022A3001082851183123782122E71A3A3E8F0A343
:1022B300E91222F5A3A3A3E50CF0A3E50D122A323C
:1022C300E4F0A3122DAB1222EFE4F0EF6005120E3F
:1022D300FEE9FE122F2F7401F0EE6003120F28EEB9
:1022E300F974021216BB7F070217C2E0241A122ADE
:1022F3003D22122FB2A32274F61216FC7E00900820
:10230300A8E07002A3E070057912022392122F4015
:10231300FF74026F600A74036F600574046F70E8E2
:10232300122D6D6C7003A3E06D60047902806075FB
:1023330008108E0978081218EBEAFCEB12322D1202
:1023430016BB122F741218EB122D9C1216BB123BE4
:102353005788828983E0FA9008A8E0FBA3E0F5831D
:102363008B82E0600974036A70237402801574041D
:102373006A7009740288828983F0801174036A7019
:102383000C740588828983F0120F04E9FEEEF902CA
:10239300254B74F71216FCE9FE9008A8E07002A31F
:1023A300E06013122D6D6A7003A3E06B7008740173
:1023B3006E7003120F287F010217C2C082C0837997
:1023C30017120F2E0232C074F71216FC74ED121698
:1023D300A5EAF8EBF9E4851082851183F0888289F8
:1023E30083A3A3A31238B88A828B83E0F508E82479
:1023F30002FEE93400FFE50812192F010AF424183C
:10240300241824362480248E249C24AA24B824C788
:1024130024D624E52474011216F0AC82AD83120F86
:102423006AE9FA74126A7019740685108285118339
:10243300F0803A74011216F0AC82AD83120F76E984
:10244300FAEA701D74011216F0AC82AD83A9088EEE
:10245300828F831238BB120ED4E9851082851183D3
:10246300F0851082851183E070030224F9AC82ADFC
:10247300838E828F831238BB120EB6807C74011256
:1024830016F0AC82AD83120F8280B474011216F081
:10249300AC82AD83120F8E80A674011216F0AC824B
:1024A300AD83120F9A809874011216F0AC82AD833B
:1024B300120FA6808A74011216F0AC82AD83120F3C
:1024C300B802244274011216F0AC82AD83120FBE1F
:1024D30002244274011216F0AC82AD83120FCA02B9
:1024E300244274011216F0AC82AD83120FD602247B
:1024F30042740702242D120E4474131216BB0223D6
:10250300B974F61216FCECFEEDFF75088875090F19
:1025130078081218EB79021237E21216BBE9F508B4
:102523008E828F83E0F9120F2EA908801B78081280
:1025330018EB74021216F0AC82AD83123B8F740257
:102543001216BB74101216BB7F020217C274F2126A
:1025530016FC74E01216A5EAFEEBFF8C0A8D0B74D1
:102563002E1216F0122A147C107D00790085108239
:10257300851183AA82AB831210009003C1E0A2E20B
:1025830040030226FC9008A8E07002A3E070030257
:10259300263B12281E7003A3E06F600302263B1242
:1025A3003681600302263B123B2DFC74066C70449B
:1025B30074101216F085820C85830D780C1218EBBB
:1025C3009008A8E0244BF50CA3E03400F50D780C3B
:1025D3001218EB9008A8E0242B1230AF1216BBE9B7
:1025E300705612270F1218EB74121216F0AC82AD4C
:1025F300830226AA12272D7001EB603C12318F74DF
:10260300116C60030226C8E065087004A3E0650945
:102613007021750C08750D00780C1218EB12271B2E
:102623001216BBE96401700B12270F1218EB123E4E
:102633007880747932120F2EEEFAEFFB1209D68AE4
:102643000C8B0DA80CA90DE87001E970030226FCA0
:10265300E82420F50CE93400F50D850C82F583128E
:1026630038BBEA7001EB70030226FCEA2410F58202
:10267300EB123DC765087004A3E06509707B75081C
:102683000875090078081218EB12271B1216BBE90C
:1026930064017065850C82850D83123B27123DC151
:1026A300F50878081218EB74021216F01233D012E0
:1026B30016BBEEFAEFFB851082851183AC82AD83E6
:1026C300120862803BE065087004A3E065096003BB
:1026D30002263B750C08750D00780C1218EB1227B7
:1026E3001B1216BBE96401600302263B123E7812FB
:1026F3003DC1F50875090080A9EEFAEFFB120868E1
:10270300790174201216BB7F060217C2120F40E92B
:10271300F508750900780822EA2412FCEB3400FD61
:10272300AA0AAB0B120FFA7402229008A8E0245BEA
:10273300123228FAA3E0FBEA2274F41216FCEAFE32
:10274300EBFF89089008A8E07002A3E0700302275A
:10275300E612281E7003A3E06F60030227E6122D22
:102763007CFA74066A706C122812E0605C9008A907
:10277300123B7DA2E0501A122A1CF5838C82A3A37C
:10278300A3A3A3E0A2E05009740788828983F080A1
:10279300778A828B83E05402600912319E6004744D
:1027A3000980E78A828B83E05404600E123B6B60DE
:1027B30009740B88828983F0804E120F3A12284BDA
:1027C30070467900120F2E803F120F3412284B707F
:1027D3003780EF74116A700BE5086003750832A93E
:1027E3000880E1E5087018EEFA1209D68A828B8315
:1027F300E5827002E5836007A3A3A3E0D2E4F0EED1
:10280300FAEFFBA90812067C79017F040217C29034
:1028130008A8E0FAA3E0F5838A8222122D716E22C2
:10282300C082C0839008A8E07002A3E06017122F53
:10283300947005120F348003120F3A12284B70055F
:102843007900120F2E0232C012321364122274F076
:102853001216FC74E31216A5740D1216F0EAF0A317
:10286300EBF0740B1216F0ECF0A3ED122DAB70022B
:10287300A3E070057912022A0F1238B51209D68A1D
:10288300088B09AE08AF09EE7001EF7005791402E9
:102893002A0F9008A8E024051222F11238BB123245
:1028A3004D6076122A50C0E074011216F0D0E01287
:1028B30033871216F0123367C0E074041216F0D097
:1028C300E012337E1216F0AC82AD83898388827462
:1028D300021215B8851082851183A882A983740911
:1028E3001216F0E8F0A3E9122A32122A141205682C
:1028F300E9F50A790012056E74071216F0EAF0A3DF
:10290300EBF08E828F83A3A3A3A3E0F50BEE240544
:10291300F50EEF3400F50F8077122A1CFD740912AF
:1029230016F0ECF0A3EDF0122A50C0E07401121679
:10293300F0D0E01233871216F0123367C0E074044C
:102943001216F0D0E012337E1216F0AC82AD8389FA
:1029530083888274021215B885108285118385825B
:1029630008858309120568E9F50B790012056E8A5B
:102973000E8B0F8E828F83A3A3A3A3E0F50AEE240D
:1029830005F8EF3400F974071216F0E8F0A3E9F044
:1029930074161216F0AC82AD83AA08AB09120F5E4F
:1029A300740F1216F0AC82AD8374091216F012384C
:1029B300BB120F58742D1216F0121902780E12184A
:1029C300EBE50BF50878081218EF740C1216F012E9
:1029D300190274161216F085820885830978081285
:1029E30018EB741F1216F085820885830978081284
:1029F30018EBA90A74161216F0123B277418121654
:102A0300F01238BB120E56740B1216BB741D02372C
:102A13007AE0F508A3E0F50922122A20229008A8FB
:102A2300E024181230C38C828D83E0FCA3E022F0F3
:102A33009008A8E02418122A3D22122A4122F812F3
:102A43002A4622A3E03400F988828983228A828B72
:102A530083E0851082851183123397122816A3E031
:102A63002274F01216FC74FF1216A5E985108285F4
:102A73001183F08A0A8B0BECFEEDFF750800120937
:102A8300D68A0E8B0FEA7001EB70057908022B8151
:102A93009008A8E07002A3E06003022B4185108236
:102AA300851183E0640B70399003C1E0A2E3502CDD
:102AB300EEFAEFFB120E6E890878081218EFE50E96
:102AC3002405FCE50F3400FDAA0AAB0B850E8285B5
:102AD3000F83E0F912058074011216BB7900022BF3
:102AE30081E0640170F69003C1E0A2E250EEEE24AF
:102AF30002FAEF3400FB120E6EE9FA8E828F83A383
:102B0300A3A3A3A374021219068E828F83A3A3A384
:102B1300A3E0F50878081218EFEAF5087808121808
:102B2300EF8E828F83A3E0FD8E828F83E0FCAA0A5F
:102B3300AB0B790012068274041216BB809E122D11
:102B43006D650A7004A3E0650B6003022A8E85108D
:102B530082851183E012192F010A422D752B862BD2
:102B63008F2BF22B482DFB2B6B2C752CCB2CD52CC0
:102B7300422DEEFAEFFB120EDAE9F508A90874010B
:102B830002377AEEFAEFFB120EE080ED750900755D
:102B93000A10750B00780A1218EBEEFCEFFD900893
:102BA300A8E0243B1232341216BB122F9460141285
:102BB3000F0AE96003750908122F2F7405F08509C0
:102BC3000880B9122D7C64047004740380EF9008AC
:102BD300A8E0241BF50AA3E03400F50B780A1218C9
:102BE300EB122D9C1216BB120F04E970C880C9EEBC
:102BF300FAEFFB120EE68081122D5E74076A6008FD
:102C0300740C6A6003022D42122D927002A3E070CD
:102C13000A7A1B122D50245D122D879008A8E024F8
:102C23005D1227337001EB7003022D42750A107594
:102C33000B00780A1218EBEEFCEFFD1233D41216D8
:102C4300BB120F40E9C0E0122D921222EFD0E01226
:102C53002DAB123B5F122D66700A7408888289833C
:102C6300F0022B7F740D80F4EEFAEFFB120EEC02F0
:102C73002B7C122D5E74096A6008740E6A6003026D
:102C83002D4212321E7002A3E0700A7A16122D50E2
:102C9300245F122D879008A8E0245F122733700168
:102CA300EB6015750A10750B00780A1218EBEEFC31
:102CB300EFFD1233D41216BB123B57122D6670046C
:102CC300740A8098740F8094EEFAEFFB120EF202EE
:102CD3002B7C123B4D7002A3E070197A14123677E5
:102CE30024611222F11233937002A3E07006750877
:102CF30008022B7F9008A8E024611227337001EBB0
:102D0300602A750A10750B00780A1218EBEEFCEFB7
:102D1300FD1233D41216BB908FA1780C12158D12AD
:102D23003B4D24101222F1780C12159C122F946043
:102D330006120EF8022B7F7900120F2E022B7F75DD
:102D43000807022B7F8E828F83E0F980EC7B0012D1
:102D530010788A0A8B0B9008A8E0229008A91232F7
:102D630019FA22122812E0640122122D7122122D67
:102D73007522122FB7A3A3E0229008A8E02401082C
:102D830012322922123B3EE50AF0A3E50BF0229012
:102D930008A8E0245D123228229008A8E0242B1210
:102DA30030B8120ECE740222F09008A8E02274F616
:102DB3001216FC7E009008A8E07002A3E0600512E2
:102DC3002F9460057E07022E6C120F10E9FA600340
:102DD300022E60120EFE9008A8E02405123E71E850
:102DE300FCE9FD8C828D83E0122E765008122F6849
:102DF3006003122F53122F60601474036A6005740A
:102E0300046A700E7901122F997404F0805B7902C1
:102E130080F474016A600574056A704D122E717432
:102E230002122DAB122F2B88828983E06401700B71
:102E33007C107D007900121000801D7508108E092A
:102E430078081218EB8C828D83E024021230C312AF
:102E530033D41216BB122F4E122F88800C74186AAB
:102E630070050E0E0E80027E08EEF902254B122825
:102E730012A3222412123228A2E02274F61216FCA4
:102E83007E00122F9470057E07022F28120F10E97F
:102E9300FA6003022F20123E86122E765008122F5C
:102EA300686003122F53122F60600A74036A60096B
:102EB30074046A700E790180027902122F997403E7
:102EC300F0806274016A600574056A7058122F2FCE
:102ED3007402F07C107D0079009008A8E0122F2B7B
:102EE300121000122F406401601D7508108E0978BE
:102EF300081218EB123E862402FCA3E034001232BF
:102F03002D1216BB122F4E122F741218EB122D9C7A
:102F13001216BB120F04E9600C7E08800874186A4D
:102F230070F70E0E0E022E6C1230CA22122F34A32B
:102F3300229008A8E0F8A3E0F583888222122F44A8
:102F4300229008A8E0241A123DF522122FA6F0229F
:102F53009008A8E02417123228D2E0F022122F445E
:102F6300FA74026A22123DEB122F38A3A3E0540332
:102F730022122F889008A8E0241BF508A3E0340050
:102F8300F50978082279109008A8E0242B123EA9AD
:102F930022122F34E022123E03120688122FA612A9
:102FA3002FB2229008A8E02417123DF5D2E222F0B6
:102FB300122FB7229008A8E0F8A3122FC122E0F540
:102FC300838882A32274F61216FC74E01216A57E7F
:102FD300007508108E0978081218EBEAFCEBFD90D7
:102FE30008A8E0244B1232341216BB74101216F0E8
:102FF30085820885830978081218EB9008A8E024D5
:103003004B122DA21216BB7508108E0978081218E0
:10301300EB9008A8E0243B1230C374121216F0AAF6
:1030230082AB83120FFA74021216BBE96401706C4F
:10303300122F94605D8510828511838582088583B4
:103043000978081218EB9008A8E0242BF508A3E0F0
:103053001230A81218EB9008A8E0244B1230AF12DC
:1030630016BBE97023120F408E088E0978081218D8
:10307300EB78081218EB74041216F0AC82AD8312CD
:1030830030D31216BBE960027E08122F2F7406F0AC
:10309300800C120F0AE960F27E0880027E04EEF9CA
:1030A30074200225483400F5097808221230B8123A
:1030B3000E627404221230C39008A8E01230CA22B0
:1030C300FCA3E03400FD222407FAA3E03400FB2232
:1030D300123E03120F1674042274F61216FCEAFC55
:1030E300EBFD9008A8E0245D1227337001EB700319
:1030F30002318A12320FFE74086E6008740D6E601E
:103103000302318A8C828D8312378212318FE8F069
:10311300A3E91237E81218EBEC24020C0CED34008F
:10312300FDEA2412FAEB3400FB1233D41216BB125D
:103133003240702AE05402600E12319E6009740915
:103143008A828B83F0803C88828983E054046009FF
:1031530012325A6004740B80E7120EF88025E05493
:103163001060091232C76004740E80D48882898388
:10317300E0542060091232DB6004741080C27900CD
:10318300120F2E79008002790702254B1231932208
:10319300EA2410F582EB3400F583221232CD540277
:1031A3002274F61216FC12320FFC740A6C6005745A
:1031B3000F6C705375080675090078081218EB8AAE
:1031C300828B83A3AC82AD8312321E24101232345D
:1031D3001216BB1232407018E05404600E12325AB9
:1031E3006009740B8A828B83F08018120EF88013A7
:1031F300E0542060091232DB6004741080E6790029
:10320300120F2E79008002790702254B1232132206
:103213009008A8E0F8A3122FC1E0229008A8E024A8
:103223005F12322822F8123DF622FD9008A8E0240E
:1032330007FAA3E03400FB120FE8740222123BA347
:1032430012324D640188828983229008A8E0FCA38E
:10325300E0F5838C82E0221232605404229008A8A5
:10326300E02418122A41E0F8A312327022122FC16F
:10327300A3A3A3A3E022C082C083123B98600512DC
:103283003B71701C88828983E0541060051232C739
:10329300700E88828983E0542060111232DB600C47
:1032A30074068A828B83F0120F3A800774128A8223
:1032B3008B83F012284B70057900120F2ED083D028
:1032C300820201141232CD541022122A20F5838C6B
:1032D30082A3A3A3A3A3E02212326054202274F694
:1032E3001216FC74F91216A59008A8E07002A3E068
:1032F300606B9008A8E02405123B53122816122A8B
:1033030054C0E074011216F0D0E01233871216F0A5
:10331300123367C0E074041216F0D0E012337E1249
:1033230016F0AC82AD838983888274021215B812B9
:1033330038B5123681601E75085875090F78081262
:1033430018EB74021216F0AC82AD8379071237E2E0
:103353001216BB800A75085E75090F80E079017447
:1033630007022548AA82AB83120E749008A8E024B2
:10337300051232282415123B3EE022123397123EE7
:103383006F7405221233972412123228F974022221
:10339300EAF0A3EBF088828983E02274F61216FC2C
:1033A30074F01216A575081075090078081218EB49
:1033B3009008A8E0241B1230C374021216F01233D3
:1033C300D01216BB75087075090F022530AA82AB9F
:1033D30083120FE874022274F61216FC74F01216AC
:1033E300A575081075090078081218EB9008A8E075
:1033F300242B1230C374021216F01233D01216BBF0
:1034030075087C75090F02253074F01216FC8A0CBE
:103413008B0D7E007A071236772418123E8D7001C9
:10342300EB70030236707508078E0978081218EBE3
:10343300AC0CAD0D1233D41216BB123E86FAA3E0C8
:10344300FB12368160030235DB123DE5F50AA3E08A
:103453003400F50BEA2413FCEB3400FD850A828566
:103463000B83E0A2E092F08C828D83E0A2E020F057
:1034730001B35009A2E0E492E0F50880028E08E06F
:1034830054FEF8A3E0F974015508488C828D831229
:103493003692C313A2E092F08C828D83E0C313A211
:1034A300E020F001B35013E054026004D2F0800234
:1034B300C2F0A2F0E492E0F880027800E054FDF557
:1034C30008E8C333F8E433740258450812369E54AF
:1034D3003FA2E092F08C828D83E01313543FA2E06D
:1034E30020F001B35014E054046004D2F08002C20F
:1034F300F0A2F0E492E0F50880028E08E054FBF5B8
:103503000E7402780812169274045508450E12368A
:103513009E13541FA2E092F08C828D83E013131349
:10352300541FA2E020F001B35014E054086004D209
:10353300F08002C2F0A2F0E492E0F50880028E0867
:103543008E09E054F7F50E74037808121692740886
:10355300123689540FA2E092F08C828D83E0C4541A
:103563000FA2E020F001B35014E054106004D2F035
:103573008002C2F0A2F0E492E0F50880028E088E89
:1035830009E054EFF50E74047808121692741012C1
:103593003689135407A2E092F08C828D83E0C41322
:1035A3005407A2E020F001B35014E054206004D289
:1035B300F08002C2F0A2F0E492E0F50880028E08E7
:1035C3008E09E054DFF50A74057808121692742008
:1035D3005508450AF0A3E9F09008A8E0241A123E22
:1035E30071850C82850D83A3E060118A828B83A38E
:1035F300E06009740588828983F08073850C828575
:103603000D83A3A3E054047015EA2412F582EB1290
:103613003DC7A2E24004740180DBA2E2504B850C5B
:1036230082850D83E0FC9008A8E0FDA3E0F5838D7F
:1036330082E08A828B836006E0FFECFD8004E0FD7C
:10364300ECFFEFC394055021EDC39405501B8F0885
:10365300ED75F005A4243CFAE5F0348EFBE5082A69
:10366300F582E43BF583E0808C7E1880027E13EEC6
:10367300F902377D7B001210789008A8E0229008A9
:10368300A9122F3AE0225508450E123692C422F0B1
:10369300A3E9F0850A82850B83E022123692131385
:1036A3002274F01216FC74E61216A58A0E8B0F8C88
:1036B3000A8D0BE9FE742A1216F0123782742C124B
:1036C30016F0122A14EC7001ED70057902023778B6
:1036D300E8851082851183F074011216F0E9F07CFD
:1036E300107D007900740A1216F0AA82AB831210BF
:1036F300008E0C750D00780C1218EBAC0AAD0B7430
:103703000C1216F01233D01216BBE5087002E5094D
:10371300601C750A08750B00780A1218EBAC08AD2B
:103723000974041216F01233D01216BB80127C08EF
:103733007D00790074021216F0AA82AB8312100086
:10374300740A1216F085820885830978081218EB2B
:1037530074021216F085820885830978081218EB23
:1037630074061216F0AC82AD83AA0EAB0F12085C7E
:1037730074041216BB741A1216BB7F080217C2E038
:10378300F8A3E0F92274F61216FC74EE1216A5EAF9
:10379300FEEBFF741C1216F01238BB8510828511E4
:1037A30083ECF0A3ED1237E81218EBEAFCEBFD749F
:1037B300041216F01233D01216BB7508A075090F48
:1037C30078081218EB74021216F0AC82AD83790BF1
:1037D3001237DE1216BB7412022548EEFAEFFB1203
:1037E3000FDC740222F0750808750900780822744A
:1037F300F41216FC74F91216A5EAFEEBFF8510828B
:10380300851183E9F0750A06750B00780A1218EB27
:1038130074031216F01233D01216BB750AB2750B6D
:103823000F780A1218EB74021216F0AC82AD83798A
:10383300081237DE1216BB74071216BB02280DC01E
:1038430082C0839008A8E07002A3E0605F9008A89C
:10385300E024181227337001EB600312107E122745
:103863002D7001EB600312107E9008A8E0245D1216
:1038730027337001EB600312107E9008A8E0245FE9
:103883001227337001EB600312107E9008A8E02426
:10389300611227337001EB600312107E9008A812A7
:1038A30038BB12107E9008A8E4F0A3F0120E4A026F
:1038B30032C0122F34A3A3A3E0FAA3E0FB2274F7D0
:1038C3001216FCE9FE9008A8E07002A3E060529093
:1038D30008A8E024611222F11219029008A8E0243A
:1038E3005F1222F11219029008A8E0245D1222F15E
:1038F3001219029008A8E0245B1222F11219029017
:1039030008A8E02417123B53FB122D6DFCA3E0FD26
:10391300123681FAEEF912068E74081216BB120FD4
:10392300280223B974F61216FC122F946003023B8B
:1039330024123B2DFE74066E70729008A912326C2D
:103943002413122E78500B123E28A2E050047E0757
:10395300806C88828983E054026028123B6560236F
:103963007E091205748A088B09AC08AD097508AC89
:1039730075090F78081218EB123B8F74021216BBED
:10398300023A7988828983E054047003023AA512CB
:10399300325A7003023AA57E0B1205508A088B092E
:1039A300AC08AD097508C475090F80C7EE12192F4D
:1039B3000704793AC1393A3A6539543A9C3990083F
:1039C300A8E0245B123B537002A3E070157A1B7BC3
:1039D300001210788A088B09123B34E508F0A3E53E
:1039E30009F012272D7001EB7003023A797C107DE8
:1039F300007900121000120F40123B341238BB1230
:103A03000E681210068A088B09123E53E508F0A3CC
:103A1300E509123E9B120F40E9FC123E5D1222EEB5
:103A2300ECF075089475090F78081218EB8A828BED
:103A330083123B2702397B12272D7001EB6037EA93
:103A43002412F508EB1230A81218EB123E0B0239C0
:103A53007E750801120568E9FF74016F700575082A
:103A63000080027F00A90812056E8A088B09AC0842
:103A7300AD09EF123DFB123B5774076E700A7408D1
:103A830088828983F0023B0C74086E704F123B7777
:103A930054026056123B656051740980E3123DCDB8
:103AA3008073123B98600D123B716008740C8A821C
:103AB3008B83804888828983E0541060091232C75F
:103AC3006004740E80E888828983E05420600912C0
:103AD30032DB6004741080D6741280D274096E7065
:103AE30004740A8013740A6E70B8123B775404602E
:103AF300B1123B6B60AC740B88828983123E957460
:103B03000A6A6005740B6A7018123E187001E97036
:103B13008C7CF47D017A027B009008AAE0F91210F4
:103B2300BA02254BE0FCA3E0FD229008A91232194A
:103B3300229008A8E0245B123B3E22123B4222FA69
:103B4300A3E03400FB8A828B83229008A8E02461DF
:103B5300123228229008A8E0123B5F222401123E71
:103B63007122123E2C540222123E2C540422123291
:103B7300CD5408229008A8E0FAA3123B8122123EFA
:103B83003B2413123B8A22123B42E0227911123E5C
:103B930003120FDC22123BA388828983E05408229C
:103BA3009008A8E0F8A3123270123E6F9008A8E0C4
:103BB3002401FAA3E03400FB2274F41216FC122F42
:103BC3009464016003023DBE123B2DF50874066543
:103BD300087079123DE5123B535408600C123B7791
:103BE3005408600575080C807688828983E0541038
:103BF3006029123E47602475080E1205748A0A8BE9
:103C03000BAC0AAD0B750AAC750B0F780A1218EBE7
:103C1300123B8F74021216BB023D4188828983E0F6
:103C230054207003023D6E123E862413123B5354FC
:103C3300207003023D6E7508101205508A0A8B0B23
:103C4300AC0AAD0B750AC4750B0F80BFE5081219DA
:103C53002F0C04413D623C033DFD3B203D3C3C9029
:103C630008A8E0245B123B537002A3E070187A1B90
:103C7300123677245B123E8D7001EB60097C1B7D4D
:103C83000079001210009008A8E0245BFEA3E03442
:103C930000FF8E828F83123782E87001E97003027E
:103CA3003D41E8241AF582E9123DC77010120F4016
:103CB300E9C0E08E828F831222EED0E0F07C107D8B
:103CC3000079008E828F831238BB12100012272DC9
:103CD300241AF582EB123DC7F9120E681210068AF8
:103CE3000A8B0B123E53E50AF0A3E50B123E9B75BC
:103CF3000A94750B0F780A1218EB123E78023C13E4
:103D030012272D7001EB6036EA2412F50AEB34001A
:103D1300F50B780A1218EB123E0B023C167F0112C8
:103D23000568E9FEEF6E70031F80027E00EFF91253
:103D3300056E8A0A8B0BAC0AAD0BEE123DFB123BF0
:103D430057740C65087009740D88828983F0805359
:103D5300740D6508701C123E2854106025123E47EE
:103D63006020740E80E3123DCD8044122F2F741215
:103D73008024740E65087004740F8016740F650830
:103D830070E9123E28542060E2123B77542060DB36
:103D9300741088828983123E95740F6A60057410CB
:103DA3006A7018123E187001E970BB7CF47D017AC9
:103DB300027B009008AAE0F91210BA02280DEC2445
:103DC3001AF582ED3400F583E022E8240BF582E94D
:103DD3003400F583E0FA8A08C3132508FCE43400B1
:103DE300FD22123DEB2405229008A8E02418123D81
:103DF300F522F8122A46E022F9123E03120F22227C
:103E0300122D75FAA3E0FB22123193123B27123EC7
:103E130003120F1C22123E031209D68A088B09A82B
:103E230008A909E822123E2C229008A8E0241812BF
:103E33003B8AFAA3123E3B22E0F5838A82A3A3A323
:103E4300A3A3E0229008A8E0FAA3123B8154102216
:103E5300123E5DE02410122A3D229008A8E0245B64
:103E6300123E71E8FAE9FB8A828B83222413F8A3BA
:103E7300E03400F9229008A8E0245B123228FCA366
:103E8300E0FD229008A812326922122A3D123393D0
:103E9300FA22122FB2E0FA22F079088A828B83E0A9
:103EA3002412123EA922FAA3E03400FB120E682268
:103EB300C082C08379109008A8E07002A3E0604834
:103EC3009008A8E02418123B3A1238BBEA7001EBC1
:103ED3006036123E86FCA3E0FDEC7001ED6029EC38
:103EE3002415F8ED3400F9EA2404FAEB3400FB8AD4
:103EF300828B83E0C0E088828983E0FCD0E0C39CAE
:103F030050048A828B83E0F90232C074F71216FCE4
:103F1300E990041AF090041B74FFF0A3F090041DC1
:103F2300E4F0A3F079051207A890041AE0F9120649
:103F3300D07A027B081209C47F010217C274F412FB
:103F430016FCEAFEEBFF74805FF9E47001E9602D73
:103F530090041AE0F91210248A088B09EA7001EB25
:103F630060138A828B83E064B070031207C0AA08CF
:103F7300AB09121012EEFA74806FFB80047A007B97
:103F83000002420174F01216FC74FC1216A5EAFE3C
:103F9300EBFF74161216F0E0F50EA3E0F50F74189C
:103FA3001216F0125468EE7001EF700302408B7426
:103FB300021216F0EEF0A3EF124447124B7DAA82D1
:103FC300AB831206CAE9F50A600302408E74141229
:103FD30016F0E07002A3E07013E50E7002E50F70B7
:103FE3000BE5087002E509700302408E8E828F8311
:103FF300A3A3A3A3E0FEA3E0FFEE7001EF7003020F
:10400300408B7A0A7B001210788A0C8B0DA80CA9BE
:104013000DE87001E97005750A13806F8882898342
:10402300E4F0A3125477A3EEF0A3EFF07414121686
:10403300F0124643A3A3A3A3124B9588828983A3BB
:10404300A3A3A3A3A3E50EF0A3E50F125470A3A3A8
:10405300A3A3E508F0A3E509F0900420E07002A310
:10406300E0900420700512464E8020E0FCA3E0801F
:1040730003EAFCEBFD8C828D83124CBAEA7001EBF0
:1040830070EF8C828D8380DE750A02A90A024CFDD3
:10409300D083D08202011474F61216FC74FE121639
:1040A300A5740C1216F0124435E88510828511832D
:1040B300F074011216F0E9F075080075090078082C
:1040C3001218EB75080278081218EB74041216F034
:1040D30085820885830978081218EB1207FC740699
:1040E3001216BB74021216BB7F020217C274F212BD
:1040F30016FC890AE975F017A4FEAFF0E490041FDB
:10410300F090041D124CBAEA7001EB600A12107EA3
:1041130090041DE4F0A3F0EEFAEFFB1210788A0886
:104123008B09EA7001EB602FEEFCEFFD79001210B2
:104133000090041DE508F0A3E509F07B0080081258
:104143004161E4F0A3F00BEBC3950A40F2E50A905A
:10415300041FF07900800279137F060217C2EB7502
:10416300F017A4F8A9F090041DE028FAA3E0398A17
:1041730082F5832274F21216FCEAFEEBFF740E1230
:1041830016F012552C75080075090080031247F9C3
:10419300C3E5089CE5099D502E85080A85090B7423
:1041A30003780A121692EE250AFAEF350BFB8A8280
:1041B3008B83A3A3A3A3A3A3124435E50C687003C5
:1041C300E50D6970C880047A007B00808C74F4125A
:1041D30016FC7900EAA2E0502389088909780812BD
:1041E30018EB78081218EB78081218EB7C037D00A3
:1041F3007A467B0B12079C74061216BB80007F0461
:104203000217C274F71216FC90042080048C828D6E
:1042130083124F91EC7001ED6016EC2402F8ED125D
:1042230054016A7003A3E06B70E3E8FAE9FB8004CE
:104233007A007B00023F3B74F01216FC74FC1216EA
:10424300A58A088B09851082851183E4F0A3F0EA1F
:104253002402F50CEB3400F50D124E348A828B8365
:10426300A3A3A3A3E01219AB000A028D42069D4249
:1042730008E2420AF1420C66430EDF4310EF431299
:10428300FF43160F44181F44DF429004397417F09C
:10429300A3E412444F1204368042851082851183B1
:1042A300AC82AD831207C6E9FEEE603085088285D5
:1042B3000983A3E064146024850882850983A3A38A
:1042C300A3A3E090043912444712443590043A12F0
:1042D300464EEE90043C12444F120430024CFD85CE
:1042E3001082851183AC82AD831207CC80B974022E
:1042F3001216F0AC82AD83850A82850B83124CC6FD
:104303008A0E8B0FAC0EAD0FEC7001ED6043750E92
:1043130000750F00780E1218EB750E39750F0478BF
:104323000E1218EB750E3A750F04780E1218EB7413
:10433300081216F01219027916850C82850D831264
:1043430049351216BBE9FF700A124CB012044E80B5
:104353000E7F01850A82850B8312443B12464EEF82
:104363000242AB850A0E850B0F74021216F0AC8263
:10437300AD83850E82850F83124CC68A0A8B0BACE4
:104383000AAD0BEC7001ED6043850E82850F83A3AC
:10439300A3121902750A39750B04780A1218EB7502
:1043A3000A3A750B04780A1218EB74081216F01205
:1043B30019027916850C82850D831249351216BBB5
:1043C300E9FF700A124CB012045480937F01850EEA
:1043D30082850F8312443B12464E8083851082856B
:1043E3001183AC82AD831207D20242AA8510828563
:1043F3001183AC82AD831207D80242AA851082854D
:104403001183AC82AD831207DE0242AA8510828536
:104413001183AC82AD831207E40242AA8510828520
:104423001183AC82AD831207EA0242AA8508828512
:104433000983E0F8A3E0F922E0F8A3E0F98510820C
:1044430085118322F085108285118322F07C397DCA
:1044530004124CDA2274F01216FC74FA1216A574C4
:10446300041216F0124CEAF508EB3400F5097C153A
:104473007D0079007A397B04121000E508240212CA
:104483004F6785108285118385820C85830D780C97
:104493001218EB850882850983124F971218EBE5F2
:1044A300082405F50CE5093400F50D780C1218EB1A
:1044B300124F8B850882850983124CBA1206E87461
:1044C300061216BB8A0C8B0DAE0CAF0DE50A240247
:1044D300F50AE50B3400F50BEE7001EF70030246AD
:1044E30017801174021216F0124643124B95900472
:1044F30039E004F0900439E0C39405400302461701
:10450300750C00750D00780C1218EB750C22750DE7
:1045130004780C1218EB750C23750D04780C121823
:10452300EB74061216F01219027910EEFCEFFD85FA
:104533000A82850B831249351216BBE9705C850824
:1045430082850983A3A3A3A3A3A3A3E0FA900422D0
:10455300E06A7046124F9B1218EB7C237D04E5083A
:104563002408FAE5093400FB120FFA74021216BB91
:10457300E960278E828F83A3A3A3A3124CBA90046E
:1045830039E0F50C7402780C121692E50C243AF516
:1045930082E50D3404F583124B9574021216F085EF
:1045A300820C85830D780C1218EB74021216F0122C
:1045B3001902124F8BEEFAEFFB1206F47404121673
:1045C300BB8A0C8B0DAE0CAF0D900439E0F50C7566
:1045D3000D007402780C121692E50C2439F8E50DDF
:1045E3003404F988828983A3E07002A3E070030294
:1045F30044DBE82403080808E93400F9EE7001EF0E
:1046030060030244E68882898374FFF0A3F0900478
:1046130039E004F0900439E060147C397D04850AA4
:1046230082850B83124CBA1204427900800D124426
:104633002F74041216F012464B790A7406024CFFCB
:10464300124CE0888289832212540EE8F0A3E9F029
:104653002274F01216FC74F81216A574021216F0E6
:10466300124B9574061216F0124CF574021216F0E2
:10467300E02405F8A3E0124F7012464E85108285A0
:1046830011831254617E007F0074041216F0858238
:104693000A85830B780A1218EB74021216F012546F
:1046A30050F50A750B00780A1218EB74041216F011
:1046B300E02405F50AA3E03400F50B780A1218EBA1
:1046C30074061216F0125441FCA3E0FDAA08AB09CC
:1046D3001206E874061216BB8A0C8B0DEA7001EB06
:1046E30070030247C0EA2404124F5B1254688A82A3
:1046F3008B83A3A3A3E0F974021216F0124B696033
:10470300030247C0750A00750B00780A1218EB758F
:104713000A22750B04780A1218EB750A23750B0429
:10472300780A1218EB740A1216F01219027913ACF4
:104733000CAD0D740A1216F01249321216BBE9FFC2
:10474300707B900422E0F8EE7009E0240290043AB2
:10475300F0801490043AE0FC740228FAE43400FB7D
:10476300EA6C7001EB70598E82AA821247F094149E
:1047730012492A5048850E82850F83E0C0E0EA1271
:104783004B43D0E0124B72C0E0124B42D0E0124BCD
:10479300871218EB7C237D04EE124B351216BB9067
:1047A3000422E02EFE74FF6508700474FF6509603F
:1047B3000C1247F9EEC39414500302468CEE6012B8
:1047C300124B4D74021216F0124B5E12044879001C
:1047D3008016EF70027F0A74061216F0124F7AE504
:1047E30008F0A3E509F0EFF97408024CFFE82AF892
:1047F300E43400F9E822E5082401F508E50934006A
:10480300F5092274F01216FC74FC1216A574021238
:1048130016F0124CF5EA2405F50EEB124F6B7F00F0
:10482300E4900439F0FEEA2402F50AEB3400F50BB8
:104833008043900439E0FA900422E01247F1941780
:1048430012492A400D900439E0FC7416C39C90046D
:1048530022F01254871218EB7C237D04EA243AFADF
:10486300E434041253FA1216BB900422E0FA9004C3
:1048730039E02AF00EE50E2416F582E50F3400F533
:1048830083E0FAEEC39A4003024915900439E0C36A
:104893009416507EEEC333F8E433F9E50E28F50899
:1048A300E50F39F509851082851183AC82AD8385C7
:1048B3000882124E3FAC0CAD0DEC7001ED70137F0E
:1048C30001850882850983124CBE1216F012464BED
:1048D3008050750C00750D00780C1218EB750C22C6
:1048E300750D04780C1218EB750C23750D04780CF8
:1048F3001218EB74061216F01219027916850A8241
:10490300850B831249351216BBE9FF700302483544
:1049130080AF7C397D04850A82850B83124CBA12E1
:10492300045AEFF9024CFDE99400C365D033221217
:104933005446124CE01207F674082274F01216FC67
:1049430074F81216A5851082851183124B9574068F
:104953001216F0124B7DE02405F50CA3E03400F5AC
:104963000D7E007F0074041216F08582088583098A
:1049730078081218EB850C82850D83A3A3A3A3E00B
:10498300F5088E0978081218EBE50C2405F508E5FF
:104993000D3400F50978081218EB850C82850D8318
:1049A300A3A3124CD11206E874061216BB8A088B15
:1049B30009802774FF88828983F00E124B4274FFAB
:1049C300124B871218EB7C237D048E0AE50A124BE7
:1049D300351216BB900422E02EFEE5087002E509AD
:1049E3006029850882850983A3A312443D124B697C
:1049F300E5082404124F67EF602B850E82850F8331
:104A030012443574061216F012464BEE7003024B35
:104A13001A124B4D851082851183124B5E1204606E
:104A23007900024B32750A00750B00780A1218EBF5
:104A3300750A22750B04780A1218EB750A23750B95
:104A430004780A1218EB740A1216F012190279117B
:104A5300AC08AD0974081216F01249321216BBE9FC
:104A6300FF70978E82AA82EE9004227009E02404DC
:104A730090043AF08025E0F890043AE0F50A7404D3
:104A830028FCE43400FDEC650A7001ED70831247E5
:104A9300F0941212492A4003024A14850E82850FAC
:104AA30083E0C0E0EA124B43D0E0124B72C0E01245
:104AB3004B42D0E0F00E74021216F085820A858311
:104AC3000B780A1218EB74061216F0121902850CF1
:104AD30082850D83A3A3124F91AA08AB091206F492
:104AE30074041216BB8A088B09EE243BF8E43404E1
:104AF300F9EA7001EB70030249B674021216F0E092
:104B030088828983F00E74021216F0A3E0C0E012CB
:104B13004B42D0E00249C3EF70027F0A850C8285C5
:104B23000D8312443574061216F012464BEFF90248
:104B330047EB243BFAE43404FB120FE8740222EE41
:104B4300243BF582E43404F5832290043AE0F5F043
:104B5300EE84900439F07C397D0422124B622212D8
:104B6300544A124CE422124B621206D6E9FF22F099
:104B73000E850E82850F83A3E022124CF5851082E9
:104B830085118322F00E900422E0F50A750B00785C
:104B93000A22EAF0A3EBF02274F01216FC74FC1262
:104BA30016A574021216F0124CEAFEEB3400FF85D0
:104BB3001082851183AC82AD838E828F83124CC6A3
:104BC3008A088B09EE2418F50EEF124F6BEA700179
:104BD300EB7003024C89E50A2402F50CE50B340063
:104BE300F50D8A828B83A3A3A3E0A2E5504685102B
:104BF30082851183124CBA1207BA8A0A8B0BA80A50
:104C0300A90BE87001E9607988828983A3A3A3A330
:104C1300A3A3125430E50A7002E50B60647912AC69
:104C230008AD09124CB4850A82850B831216FAE982
:104C3300F508705775080075090078081218EB8E8F
:104C4300828F83A3A3E0F50878081218EBEE240300
:104C5300F508EF3400F50978081218EB8E828F837C
:104C6300124CD11207FC74061216BBE9F508701B2F
:104C7300850E82850F83E07023124CB41204668084
:104C83001B75080E80097508018004E508600D8E08
:104C9300828F83124CBE1216F012464B850E82850C
:104CA3000F83E0600479008002A908804D7C397D80
:104CB30004850C82850D83124CE022E0F8A3E0F911
:104CC300740222124CCA22124CE41206EE22E0FCB9
:104CD300A3E0FD124CDA22850C82850D83124CE48D
:104CE30022E0FAA3E0FB22124CF58A0A8B0BEA249A
:104CF3000522ECF0A3EDF022A90874041216BB7F81
:104D0300080217C274F01216FC74FC1216A5740282
:104D13001216F0124CF58A0E8B0F124E34750800E2
:104D2300851082851183AC82AD83850A82124E3F42
:104D3300AE0CAF0DEE7001EF7003024E12E50E24C0
:104D430002F50EE50F124F6B8E828F83A3A3A3E0B0
:104D5300A2E5502F1255367002E5836056A3A3A334
:104D630012541B7002E509604A7912EEFCEFFD85CF
:104D73000E82850F83124E491216FAE9F508600375
:104D8300024E15850E82850F83E0FEA3E0FFEEFA47
:104D9300EFFB124E277001E970157AFF7BFF124E6D
:104DA300277001E9606488828983EEF0A3EFF07DC8
:104DB30000800675080E805A0D90041FE0FAEDC3BB
:104DC3009A5047ED75F017A4FAABF088828983A354
:104DD300A3E02AFAA3E03BFB8A828B83E07002A361
:104DE300E070D5750C17750D00780C1218EBAC0A32
:104DF300AD0B1253FB1216BBAC0AAD0B850E8285AD
:104E03000F83124CBA12046C80177508098003755E
:104E13000801850A82850B83124CBE1216F01246D6
:104E23004B024CFB1207F08A0C8B0DA80CA90DE862
:104E330022EA2405F50AEB3400F50B22F583124C24
:104E4300CA8A0C8B0D22124CE085088285098322C5
:104E530074F01216FC74FC1216A574021216F012EA
:104E63004CF5EA2405F8EB124F7012464E75080014
:104E7300EA2402124F5B124CBA1207F08A0A8B0B18
:104E8300EA7001EB7003024F4C75090080798510BD
:104E93008285118312545C640170558E828F83A3C3
:104EA300A31219028E828F83124F971218EBEE24EE
:104EB30005F50CEF3400F50D780C1218EB850E8216
:104EC300850F83124CBA1207FC74061216BBE9F560
:104ED30008601D851082851183124F7AE4F08E825B
:104EE3008F83124CBA74021216F0124F7A124B953A
:104EF3007C177D007900EEFAEFFB1210008E828F93
:104F030083E4F0A3F0050990041FE0FAE509C39ACE
:104F13005028E50975F017A4F8A9F0850A82850BD6
:104F230083A3A3E028FEA3E039FF8E828F83124F71
:104F330091EC7001ED6003024E91850A82850B832B
:104F430074FFF0A3F0E508700C850E82850F8312C1
:104F53004CBA120472024CFBF50EEB124F6B850E2A
:104F630082F58322F50EE5093400F50F223400F9AA
:104F730085108285118322124F7E22124F8222E0F6
:104F8300F8A3E0F583888222850E82850F83E0FCF7
:104F9300A3E0FD22A3A3A3A3E0F50C750D00780CF9
:104FA30022C082C08390041BE06A7003A3E06B708D
:104FB300067A1B7B0480047A007B0002409374F022
:104FC3001216FC74F81216A574061216F0124B95FD
:104FD30074041216F0124CF574031216F0E9F0740F
:104FE3001A1216F0125430741E1216F0E0FEA3E0EB
:104FF300FF74011216F0E4F0A3124447F074041294
:1050030016F0125438E0A2E4505374181216F0123A
:1050130054241216F0124B9574011216F0E070022C
:10502300A3E0700302510D74011216F012543812EA
:10503300541B7002E509700302510D790A740412BE
:1050430016F0124F9174061216F0124E491216FA08
:10505300E9851082851183F06003025116740412EE
:1050630016F012545C6402600302537F7404121638
:10507300F0A3E0F5838882A3124435850A82850B69
:1050830083A385820E85830F74041216F0E0240631
:10509300F508A3E03400F50988828983E0FAA3E0E8
:1050A300F9EAF50CE9F50D780C121A0A010000284B
:1050B3000128D35006000228B651032825510029A0
:1050C30088520129B5520329885204291B537F535F
:1050D300EE7001EF704812442FE8FAE9FB8A828BE5
:1050E30083E0C0E0741C1216F0124F7AD0E0125421
:1050F3007E1218EB8A828B83A3E0FCA3E0FDAA0A4D
:10510300AB0B1253FB1216BB8009740E85108285FC
:105113001183F0851082851183E0F90247EB740B4C
:1051230080EAEE7001EF70F6741C1216F0124F7ADB
:105133007401F0125456850A82850B83F07C007D3E
:105143000074041216F01254502401FAA3E0340040
:10515300FB1206EEEA7001EB603E8A828B83E02449
:1051630002FC741C1216F012545C2CF0EA2404F8AE
:10517300EB125401850E82850F8312549012547ED4
:105183001218EB8A828B83A3124F91E50A2403FA48
:10519300E50B3400FB025105741C1216F012545C2B
:1051A3002404F07C047D007900AA0EAB0F121000DA
:1051B300025116EE7001EF600302512185088285CA
:1051C3000983125461741C1216F0124F7A7404F09E
:1051D300850A82850B83E508F0850E82850F83E5BA
:1051E30009F07C007D00AA08FB1206EE8A0C8B0DE9
:1051F300AE0CAF0DEE7001EF6070AA08AB0912069A
:10520300FA8A0C8B0DA80CA90DE87001E960558E84
:10521300828F83A3A3A3A3A3A3124CBAE82508F800
:10522300E93509F974FF28FE74FF39FF8A828B83FD
:10523300E06402703975080275090078081218EBEA
:105243008A828B83A3124F91E50A2404FAE50B3477
:10525300001253FA1216BB741C1216F012545C247B
:1052630002F0800AAE08AF0980047E007F00EE855D
:105273000A82850B83A3A3F0EF850A82850B83A3A0
:10528300A3A3025115EE7001EF60030251211254E2
:1052930056F8A3E0F9741C1216F012540A7402F0C3
:1052A300E8850A82850B83F0E9850E82850F8302E8
:1052B3005115850882850983124CBA120FE2EAFC64
:1052C3008C82A882C39EE49F4049E86E7001EF7010
:1052D300047C00801B74031216F0E02EFAE43FFBFB
:1052E300C3EA98EB94005003E08004EECCC39CFC2B
:1052F300741C1216F0124F7AECF08C0C750D0078BA
:105303000C1218EB850882850983E02EFCA3E03F8D
:10531300025100740702510FEE7001EF6003025156
:105323002112442F741C1216F012540A7407F088C9
:10533300828983E0850A82850B83125477E0850E88
:1053430082850F83F0E82402FAE93400FB8A828B1A
:1053530083125417F08A828B83A3125417A3125417
:105363007012542AF0E82405F8E93400F988828998
:105373008312542AA3125490A30252827401121668
:10538300F0E07002A3E0700E74181216F0125424A9
:105393001216F0124B9574011216F0E07002A3E09E
:1053A300700302510D74011216F0125441F8A3E078
:1053B300F988088909E87001E9700302510D8E0C20
:1053C3008F0D780C1218EB741E1216F01219027856
:1053D3000A1218EB74091216F0E0F9740A1216F0A7
:1053E300124F91740C1216F0124E491216FA7406EB
:1053F3001216BBE902510FFB120FE87402223400AC
:10540300F988828983E02212540E22E0FAA3E0F5A0
:10541300838A822212549722A3A3A3125468E50815
:1054230022125546740122125497A3A322E0F50ACF
:10543300A3E0F50B2212543C2212544AA322125425
:1054430046E02212544A22124F82A3A32212543C52
:10545300A3E022850882850983124F7EE022124F42
:105463007E12546822E0F508A3E0F509221254776E
:10547300A3A3A322F088828983A322F08A828B8349
:1054830012548722E0F50875090078082212547730
:1054930012549722E0850A82850B83A3A32274F218
:1054A3001216FC74FC1216A574021216F0124B9518
:1054B300ECFAEDFB74141216F0E0FE74161216F0FB
:1054C300125430851082851183AC82AD831206EEAF
:1054D3008A088B09EA7001EB60451255367002E5C4
:1054E300836038A3A3A3A312552CE87001E9602BB2
:1054F300780A1218EB74141216F0121902EEF9ACB2
:1055030008AD0974061216F0124CBA850C82850D8B
:10551300831216FA74041216BB8006790E80027980
:105523000174041216BB02415CE0F8A3E0F9880C95
:10553300890D228510828511831255468A828B83B9
:10554300E58222124CE41207BA2274F41216FC8A82
:10555300088B09E9FE74016E7015AA08AB091207DE
:10556300F08A088B09EA7001EB60547F008019749C
:10557300026E704B79011209E2E9704380DC7C17FB
:105583007D0079001210000F90041FE0FAEFC39A18
:105593005022EF75F017A4F8A9F0850882850983D6
:1055A300A3A3E028FAA3E039FB8A828B83E070028D
:1055B300A3E070CA85088285098374FFF0A3F00213
:1055C300420174F41216FC8A088B09E9FE7F007805
:1055D3000812196500040C4C57F655125627563C11
:1055E300565156665682569B56AD56E856F6561297
:1055F300572E5774016E70128C828D83E0C394030F
:105603005008E0900C0AF002576A7F1802576A7438
:10561300026E70F68C828D83125F88900C0BE8F01B
:10562300A3E980E274016E70E18C828D83E0C39400
:105633000250D7E09008D180CD74016E70CC8C827B
:105643008D83E0C3940550C2E09008D280B8740102
:105653006E70B78C828D83E0C3940250ADE09008E6
:10566300D380A374106E70A27508108F0978081286
:1056730018EB7AD47B081266A81216BB02576A7419
:10568300016E70868C828D83E0C3940240030256C0
:105693000DE09008E402560974016E600302560D92
:1056A3008C828D83E0900C0E808D74046E600302F7
:1056B300560D908FC9780812158D8D838C827808CA
:1056C3001213A3400302560D8C828D8378081215A2
:1056D3008D9008E6E508F0A3E509F0A3E50AF0A339
:1056E300E50B025609EE600302560D12116E1211FC
:1056F30068807474016E600302560D8C828D83E0A2
:10570300C39402400302560DE09008E50256097463
:10571300016E600302560D8C828D83E0C3940A40B0
:105723000302560DE0900C0D02560974016E6003DE
:1057330002560D8C828D83E024F9C3940A40030240
:10574300560DE0900C0F025609C3EA9422EB940025
:10575300501374026E700E8C828D83125F8E12054D
:1057630020E9FF80020F0FEFF902671074F412169D
:10577300FC74E61216A589098C0A8D0B7426121681
:10578300F0E0FE74141216F0AC82AD8375838F754E
:10579300821C74061215B874141216F0AC82AD8311
:1057A300121120E9FFC3940A400302584612115C08
:1057B300E9F50874046E6008900C0AE06402700D49
:1057C300EEFDAC08EFF9AA0AAB0B1211987C147D1D
:1057D300007900851082851183AA82AB83121000A1
:1057E30075F006EFA4FF851082851183AC82AD832B
:1057F3007A1074242F125F6170327C10126153701F
:105803002B74101216F0AC82AD837A0474252FF931
:105813001212C4851082851183AC82AD83E508A280
:10582300E0E492E0F9AA0AAB0B12061674046E7058
:105833006A900C0AE0640270629008E4E060447AC3
:1058430001804274086E70E4900C0AE06402704BAD
:105853007C007D00A909AA0AAB0B1211929008EAF9
:10586300E07002A3E06034125FA288828983E5823C
:105873007002E58360257C007900AA0AAB0B12163F
:10588300FA80187A009008D1E060047804800278E6
:1058930000E84AF9AA0AAB0B12062E7900741A0221
:1058A300670D74F11216FC74F21216A58A0C8B0D97
:1058B300ECFEEDFF75080AE912192F00035D59CAC2
:1058C30058CA58EC585D591262E9400302595DEE1B
:1058D3007001EF700302595D750A06750B00780AB3
:1058E3001218EBAC0CAD0D806B750900800905092E
:1058F300E509C3940A5063750A10750B00780A1200
:1059030018EBAC0CAD0DE50975F00EA424F2FAE525
:10591300F03408FB120FFA74021216BBE960CF854C
:105923000908E508C3940A5031EE7001EF602B8536
:105933001082851183AC82AD837A0E75F006E5087B
:1059430012631AE97014780A1218EB74021216F033
:10595300AC82AD831266A41216BBA908740E12168C
:10596300BB7F070217C274F41216FCE9FF7E15749D
:10597300FF6A700374FF6B7028750800EFFC7A02EE
:105983007B00A90812113EE960027E000508E508C4
:10599300C3940A40E7EF60457A867B111209F480CD
:1059A3003C1209D68A088B09EA7001EB602E7C0051
:1059B3007D00EA2405FAEB3400FB85088285098320
:1059C300125A49500BEFFC7A027B0012113E7E0003
:1059D300EF600AAA08AB0912118680011EEEF902D4
:1059E300671074F21216FC8C088D09740E1216F0EF
:1059F300E0F50AA3E0F50B7E1574FF6A700374FFEC
:105A03006B701D7F00AC0AAD0BAA08AB09EFF9124E
:105A13001144E960027E000FEFC3940A502380E52E
:105A2300125F677002E5836017125F52125A495082
:105A330010AC0AAD0BAA08AB091211447E00800119
:105A43001EEEF902614EA3A3A3A3E0F9121120E90C
:105A5300C3940A2274F71216FC9008EAEAF0A3EB47
:105A6300F09008D0E0FC7D007A217B001205200233
:105A730061AE1216BB7F080217C274F01216FC74D3
:105A8300E01216A5EAFEEBFFEE2409F508EF340059
:105A9300F509EE2403F50EEF3400F50F8E828F83A4
:105AA300A3A3E012192F06094D5F3F5F4D5F4D5FC2
:105AB300B75D4E5BC15AA05E4D5FF65CED5D90082D
:105AC300EAE07002A3E0604B125FB1E0F50AA3E0E5
:105AD300F50BE50A7002E50B6039EE240CF582EF55
:105AE30012616AF50C780C1218EFEE240BF582EFB5
:105AF30012616AF9850882850983125F8E0A0A0A90
:105B0300AB0F850A82850B831216FA74011216BB3A
:105B1300025F4D8508828509831219029008E67891
:105B23000C12158DAA0CAB0DAC0EAD0F120628741A
:105B3300021216BBE97003025F4D79018508828565
