:020000040000FA
:060000000200FC022231A7
:03002B00021F466B
:03003300021F4960
:030053000222A7DF
:03007B00021F0F52
:1000830002217374F855C74401F5C77901220000B2
:100093000080FB120086B900030200E6E4791278BF
:1000A30009B800028004F709D8FCE49002C1786D16
:1000B300790F8002F0A3D8FCD9FA90112DAA82AB54
:1000C3008390012C78FB79018015E493A3AC82AD76
:1000D300838A828B83F0A3AA82AB838C828D83D89D
:1000E300E9D9E775829D7583FF740112010E75824C
:1000F30091758300740012010E75D00075813F75F0
:1001030010C1751102759F00020096C09FF59FE410
:1001130073D09F22D083D082C09FE493C0E0740148
:1001230093C0E0740293F59F22FF544920424C454B
:10013300204D61737465720000000000000000111F
:1001430000FF00000330003100320033003400357B
:1001530000360037003800390030003100320033F8
:100163000034003500360037003800390038178D69
:10017300178D178D178D179517FF0000007800282E
:10018300002800283075A000A000A000A0000008EF
:100193000008E001F0001000100010001000100033
:1001A300100050005000500010001000D007000055
:1001B300000000000F0030750700100030750000CC
:1001C300FFFF020202DF900100003D9002EB90016D
:1001D3000000C61102E9900100005F0602EB9001E6
:1001E3000000C71102E1900100007406FFFF010047
:1001F3002002DF90010000D89002EB90010000F490
:100203001102DD9000000000003013301330133072
:1002130013301330133013301330133013301330C3
:10022300133013120117FBFF0112011766C60312E5
:10023300011770C603120117B6C60312011701C7CF
:10024300031201173DC70312011799C703120117C0
:10025300C1C703120117CAC70312011720C803122B
:1002630001174BC80312011758C80312011761C8BD
:1002730003120117D3C8031201175CC90312011734
:10028300C5C903120117FEC9031201177FCA03125E
:100293000117BECA03120117F2CA0312011711CBC9
:1002A300031201171ACB03120117D2CB0312011742
:1002B3001CCC031201171FFC031201179DFF03122D
:1002C300011731F20312011769F2031201179DF2AC
:1002D300031201170CF403120117E8FE03120117AE
:1002E300FEFE0312011795D903120117ADD90312AC
:1002F300011753DA0312011794DA03120117B1DA63
:1003030003120117D4DA031201171BDB03120117BF
:1003130054DB0312011788DB0312011717DD0312E5
:1003230001174B8004120117C7800412011748FFFD
:100333000312011793FF03120117E37F0012011742
:100343004EFE031201175EFE0312011776FE03121F
:100353000117DEFE03120117E6FE021201176FFFFB
:1003630002120117E1FF02120117AFFD0312011779
:10037300B2FD03120117EDFD031201173CFE031238
:100383000117DDD003120117EBD0031201176BD154
:100393000312011765D203120117FFD403120117C9
:1003A3001DED031201179FED03120117DCED03127C
:1003B300011717EE03120117EAEE0312011725EFD7
:1003C300031201174CEF031201175FEF031201171A
:1003D30074EF0312011782EF031201175C2400125A
:1003E3000117E12400120117AD250012011705279B
:1003F30000120117A828001201174429001201173F
:10040300613200120117E13300120117BD3B0012E4
:100413000117C43C00120117A746001201174047F9
:1004230000120117D548001201176BF903120117C7
:10043300BEF9031201171CFA0312011787FA0312FC
:10044300011759EA0312011784EA031201175AEB41
:100453000312011733EC03120117B1EC0312011756
:1004630016A10312011700A2031201173EA20312E1
:10047300011794A203120117E9A20312011746A35D
:1004830003120117DBA303120117E5A403120117DB
:10049300C1A60312011747A703120117AAA7031244
:1004A3000117B8A703120117E1A80312011709FDE9
:1004B300031201173BFD0312011773FD031201170A
:1004C30075FD0312011777FD0312011788FD03124F
:1004D30001178AFD03120117ACFD031201176C7D8E
:1004E30000120117E27D00120117047E00120117AA
:1004F300397E00120117717E00120117C1E0031249
:10050300011704E10312011724E10312011773E336
:1005130003120117ADE303120117D4E3031201170A
:1005230000800412011742B80312011732B90312F3
:1005330001171DBA031201172EBA031201173FBA8E
:10054300031201179ABA0312011718BC03120117F9
:1005530092BD03120117CDBD0312011797BE0312FB
:100563000117F9BE031201174AF40312011783F4AA
:100573000312011799F403120117C6F403120117AA
:10058300F6F4031201170DF50312011724F50312F4
:1005930001175FF50312011790F503120117E1F537
:1005A30003120117F8F5031201170FF603120117CF
:1005B30028F6031201173FF6031201176EF6031212
:1005C3000117A7F603120117CFF603120117FDF661
:1005D3000312011714F7031201172BF70312011764
:1005E30042F70312011769F7031201177DF703128C
:1005F300011793F703120117A7F703120117CCF79B
:100603000312011799E00112011795E10112011775
:10061300BFE1011201170AE20112011717E20112E9
:10062300011739E2011201173BE20112011763E2DC
:100633000112011766E20112011788E20112011784
:100643007FE301120117C7E40112011783E50112C9
:10065300011747E601120117A8E6011201178AE7FD
:10066300011201178DE7011201170FE8011201179B
:1006730012E80112011764E80112011767E8011279
:1006830001179EE8011201170DE90112011744E950
:1006930001120117D1E9011201171BEA0112011717
:1006A3002AEA011201172DEA011201178EEA01123B
:1006B300011791EA01120117BBEA0112011715EBA9
:1006C300011201178DEB0112011790EB01120117B3
:1006D300CBEB01120117CEEB0112011740EC011213
:1006E300011743EC01120117EFEC01120117F2ECB1
:1006F300011201177CED01120117B3ED011201176D
:10070300E1ED01120117F0ED01120117F3ED0112F2
:10071300011761EE0112011770EE011201174CEF80
:100723000112011707F00112011779BF0312011714
:1007330050C003120117D0C103120117F8C10312ED
:1007430001172CC20312011777C203120117CEC27D
:10075300031201170CC3031201174BC30312011732
:100763007BC30312011702C4031201170CC4031243
:10077300011721C40312011758C40312011744C5FA
:100783000312011750C50312011768C5031201179D
:1007930072C503120117F3C50312011777A70112DC
:1007A30001176BA801120117A5A8011201177CA953
:1007B300011201172EAA011201176EAA01120117C5
:1007C30078AA0112011734AB011201174FAB0112C2
:1007D300011765AB0112011749AC011201179EAC59
:1007E30001120117BFAC01120117A3AD01120117CA
:1007F300D7AD0112011782AE01120117C9AE011262
:10080300011726AF011201173FAF011201175CAFA9
:100813000112011772AF0112011788AF01120117FC
:10082300F7AF0112011768B0011201179FB001124F
:10083300011711B10112011729B101120117DBB21E
:1008430001120117BFB3011201176FB4011201178F
:10085300DAB7011201176DB901120117BFB90112FD
:100863000117DDBA01120117FBBA0112011758BBB8
:1008730001120117FBBC011201177BBD0112011705
:1008830009BE01120117A3BF01120117C6BF01124E
:1008930001177CC0011201172AC101120117ACC153
:1008A3000112011795C201120117D6C301120117D4
:1008B300A0C4011201171EC5011201172CC5011294
:1008C30001178DC5011201176AC601120117BAC6B5
:1008D30001120117DDC601120117DBC8011201174E
:1008E30026C9011201174BC901120117C6C901120A
:1008F3000117D6CA01120117BCCB0112011764D527
:100903000312011774D5031201179AD503120117A5
:1009130050D7031201174CD8031201173EE70312F5
:100923000117A6E703120117E6E703120117A2E96D
:1009330003120117336600120117B4660012011780
:10094300C466001201170A670012011792670012AA
:1009530001176B6800120117976800120117D4681A
:1009630000120117EB6800120117726900120117D8
:100973007C69001201178E6900120117C669001203
:100983000117316A00120117906A00120117D36A26
:1009930000120117DE6A00120117E96A001201173B
:1009A300956B001201176E6C00120117B56C0012E3
:1009B3000117056D001201178F6D00120117A56E47
:1009C30000120117707000120117F971001201175C
:1009D300767200120117577300120117EA7600129C
:1009E3000117917700120117CD78001201171F7AB2
:1009F30000120117C57A00120117127B00120117AA
:100A0300467B00120117E67B00120117747C00126B
:100A130001177EF001120117D4F00112011727F21A
:100A23000112011737F2011201175AF201120117CD
:100A3300AAF201120117C2F301120117AAF401125B
:100A4300011706F60112011743F601120117E4F626
:100A53000112011731F70112011759F7011201179A
:100A630044F90112011749F90112011734FB01126C
:100A730001177DFB01120117EEFB011201171AFC8E
:100A830001120117AFFC011201177FFD01120117BB
:100A9300B4FD01120117B7FD011201170DFE01127A
:100AA30001174FFE01120117C1FE01120117B9EF21
:100AB30003120117CCEF03120117D5EF031201172D
:100AC300EEEF031201173BF00312011717F10312A4
:100AD3000117B8F10312011705F203120117EE9083
:100AE300011201172C9101120117739101120117C1
:100AF3008792011201175993011201178F93011263
:100B03000117C59301120117E39501120117D89735
:100B1300011201178A9901120117C29A01120117D2
:100B2300249D01120117909E01120117DC9F0112EF
:100B330001172DA10112011773A10112011753A669
:100B430001120117FFA6011201177CCE0112011732
:100B530086CE0112011745CF0112011776CF01127C
:100B6300011782CF01120117C7CF01120117F4CF6A
:100B73000112011749D00112011783D00112011785
:100B8300AAD001120117E3D001120117A0D101125B
:100B93000117B2D101120117EAD1011201170ED2C6
:100BA3000112011750D2011201178FD2011201173E
:100BB300D0D201120117EFD2011201171AD3011279
:100BC300011757D4011201178AD401120117CAD48D
:100BD30001120117F9D40112011729D501120117C6
:100BE300AAD501120117E8D5011201177DD7011209
:100BF300011792D701120117B1D701120117D9D7E3
:100C0300011201170ED80112011743D8011201175F
:100C130011D9011201173CD9011201177ED9011212
:100C230001178DD901120117FBD90112011735DA0A
:100C3300011201177ADA01120117C2DA0112011740
:100C4300EDDA0112011721DB011201175DDB01123D
:100C53000117B9DB01120117EBDB0112011734DCB9
:100C630001120117A6DC01120117F2DC01120117B0
:100C730033DD0112011776DD01120117B9DD01120F
:100C8300011728DE011201176FDE01120117B0DE12
:100C930001120117FBDE0112011725DF01120117F3
:100CA30064DF011201178EDF01120117B8DF011291
:100CB3000117F9DF0112011742E0011201176DE07C
:100CC300011201172FDD031201176BDD0312011748
:100CD300D0DD031201178FDE0312011770DF031239
:100CE3000117C2DF03120117D3DF031201173FE01D
:100CF30003120117F897031201171498031201172F
:100D0300179803120117D29803120117F1980312CF
:100D13000117799903120117199B031201178B9B72
:100D230003120117AA9C03120117B19D03120117A5
:100D3300DE9D031201177B9E03120117489F0312C6
:100D4300011749A003120117A7A003120117D8A086
:100D530003120117F6F20212011724F3021201170C
:100D63008AF30212011795F302120117A0F302127C
:100D73000117ABF302120117B6F302120117E9F3DD
:100D8300021201175DF40212011735F7021201175F
:100D9300FDF70212011776F80212011702F9021287
:100DA300011710F9021201171EF90212011728F98F
:100DB3000212011732F90212011758F90212011730
:100DC30068F9021201179DF902120117D6F90212EE
:100DD3000117E0F902120117EAF902120117F4F9F7
:100DE3000212011702FA021201170CFA021201177A
:100DF30016FA0212011720FA021201172AFA021236
:100E0300011774FA021201177EFA021201179BFAF4
:100E130002120117B8FA02120117C8FA02120117D7
:100E23001DFB021201173CFB0212011700FC021208
:100E3300011709FC0212011712FC021201171BFC15
:100E4300021201173FFC021201175BFC0212011789
:100E530006FD0212011710FD021201171EFD0212F8
:100E630001173AFD0212011747FD0212011751FD46
:100E7300021201178EFD021201179CFD02120117C7
:100E8300AAFD02120117B4FD02120117C4FD0212DA
:100E93000117DDFD02120117E7FD02120117F7FD2D
:100EA3000212011707FE0212011717FE02120117A1
:100EB30027FE0212011737FE0212011747FE021224
:100EC300011779FE0212011783FE0212011793FE26
:100ED30002120117A1FE02120117ABFE0212011743
:100EE300B8FE02120117C2FE02120117D2FE02124D
:100EF3000117DCFE02120117E9FA0312011752FB74
:100F030003120117A6FB03120117CAFB03120117F1
:100F1300EEFB031201174CCC03120117B6CC0312DC
:100F2300011700CD03120117F9CD0312011714CFD6
:100F33000312011709D003120117AD8E0312011713
:100F4300F08E03120117DB8F03120117BE900312F9
:100F53000117C79103120117A292031201170B93F2
:100F6300031201179E9303120117A0930312011793
:100F7300D79303120117829403120117EB94031200
:100F83000117539503120117569503120117819503
:100F930003120117EC950312011798960312011718
:100FA300F696031201170F970312011754970312B2
:100FB30001176E9703120117D09703120117D397E6
:100FC3000312011713E40312011750E4031201176C
:100FD30089E40312011737E503120117AAE5031287
:100FE3000117E7E5031201170EE60312011740E6A6
:100FF3000312011765E603120117F4E60312011742
:10100300008002120117FC80021201175C82021297
:1010130001174383021201176F8302120117A4837E
:1010230002120117EF83021201175E8402120117E5
:10103300CE8402120117DD8402120117F384021217
:1010430001173E8502120117768502120117A48546
:1010530002120117C78502120117F8850212011740
:10106300868602120117B486021201173D87021207
:1010730001179E8702120117198802120117EA89C4
:1010830002120117088B021201176C8B021201174F
:10109300E88B02120117908D02120117DE8D0212E6
:1010A3000117318F02120117568F02120117F58FA4
:1010B300021201173D9002120117B6910212011795
:1010C300D59502120117F4950212011729960212FF
:1010D3000117039802120117E998021201175F9A88
:1010E30002120117A29A02120117539B021201174F
:1010F3005B9C021201177D9C02120117829C021253
:101103000117AA9C02120117C69C02120117E09C48
:1011130002120117669D02120117E79D02120117C1
:10112300769E02120117989E02120117AD9F0212BA
:1011330001174DA00212011772A002120117E2A0BB
:101143000212011737A10212011783A1021201171C
:10115300A3A102120117F0A10212011747A2021262
:10116300011791A202120117EAA202120117A2A308
:101173000212011790A40212011736A502120117D9
:101183006BA502120117A0A502120117D7A502121F
:101193000117E7A502120117F3A50212011707A60B
:1011A30002120117B9A602120117FAA602120117B9
:1011B30031A702120117F2A802120117B1A90212F4
:1011C300011706AA021201177EAA021201170EAB1B
:1011D300021201173BAC0212011777AC021201177E
:1011E300E2AD021201170FAF0212011736AF02125E
:1011F300011758AF0212011767AF021201176AAF46
:10120300021201172AB002120117E9B002120117E4
:101213009EB102120117FCB10212011744B202126D
:1012230001175AB20212011703B302120117C3B313
:101233000212011763B402120117E2B4021201177A
:1012430040B502120117A0B502120117BFB5021271
:10125300011760B602120117ACB60212011786B865
:1012630002120117C6B80212011747B90212011779
:10127300BFB9021201173ABA021201178CBA02124D
:101283000117DFBA0212011705BB021201173EBB99
:1012930002120117A3BB02120117F3BB02120117BB
:1012A30036BD02120117B2BD021201179EBE021211
:1012B3000117D4BE02120117FBBE0212011748BF69
:1012C300021201172AC0021201175DC00212011790
:1012D30086C002120117D1C002120117F0C0021218
:1012E30001171DC10212011760C1021201177FC14C
:1012F30002120117DAC102120117F5C10212011716
:1013030042C20212011755C20212011772C202121F
:10131300011787C2021201178EC302120117C0C43C
:1013230002120117EDC502120117BCC60212011702
:101333006EC8021201178CC8021201179FCB02124A
:10134300011716CC0212011746CC02120117A4D0C2
:1013530002120117AAD002120117CDD202120117ED
:1013630044D70212011760D7021201170AD80212DA
:10137300011759D80212011777D80212011796D80C
:10138300021201178CDA02120117BADB02120117DB
:10139300E8DB0212011719DC0212011747E80212F7
:1013A300011787E902120117C2EA0212011775EB4E
:1013B30002120117A3EB02120117BCEB0212011771
:1013C300FEEB021201173CEC02120117E6EC0212CB
:1013D3000117B9ED0212011701EE021201175FEEB8
:1013E300021201179EEE02120117D9EE0212011723
:1013F3001CEF0212011716F0021201178CF00212F1
:101403000117A0F002120117CBF002120117FEF030
:10141300021201173DF10212011774F102120117B2
:10142300BCF1021201171DF2021201175FF2021240
:10143300011773F20212011786F2021201179DF2CD
:1014430002120117C6F2021201172CA90312011787
:101453003FA90312011750A90312011779A9031217
:101463000117BCA90312011702AA031201173FAA0D
:1014730003120117A5AA03120117BEAA031201172B
:10148300C9AA03120117D6AA03120117EDAA031260
:101493000117FBAA031201170DAB0312011722ABAD
:1014A3000312011737AB0312011742AB03120117E3
:1014B3004EAB031201175BAB031201177CAB031294
:1014C300011787AB03120117AEAB03120117B3ABBE
:1014D3000312011753AC03120117B9AC031201171E
:1014E300C9AC03120117DEAC03120117F3AC0312EC
:1014F30001170DAD0312011728AD0312011746ADF5
:101503000312011751AD03120117D2AD03120117D4
:101513008CAE031201179AAE03120117A5AE031284
:101523000117BAAE03120117C5AE0312011725AF97
:10153300031201172BAF0312011731AF0312011767
:1015430037AF031201173DAF0312011755AF031253
:10155300011775AF03120117D0AF03120117E7AFDD
:101563000312011732B0031201175FB00312011700
:10157300228003120117A780031201176681031249
:101583000117FB82031201175485031201173086DA
:1015930003120117598603120117978603120117C5
:1015A300078703120117BE8803120117E788031286
:1015B3000117738903120117A58903120117B28951
:1015C30003120117FD8903120117268A031201175B
:1015D300048D03120117FD8D03120117558E03129B
:1015E30001170F49001201171F4A00120117BA4AC7
:1015F30000120117E34A00120117EF4A0012011704
:10160300294C00120117754C00120117614E00128C
:101613000117484F00120117764F00120117895125
:1016230000120117D65400120117A3550012011717
:10163300ED5600120117015800120117C958001284
:1016430001179E5900120117065A00120117C35AB7
:1016530000120117FF5A00120117315B0012011724
:10166300C95D00120117AD5E00120117175F00126A
:101673000117675F00120117E65F001201174C6044
:1016830000120117E16200120117D8650012011759
:10169300DEF70312011703F80312011778F8031298
:1016A3000117D4B003120117E4B003120117ECB011
:1016B30003120117D4B10312011760B30312011708
:1016C30094B303120117C7B303120117FBB3031239
:1016D30001172EB4031201175EB40312011790B45D
:1016E30003120117D7B4031201170AB50312011726
:1016F30051B503120117ABB503120117DEB503127F
:10170300011732B60312011765B603120117B8B6F3
:1017130003120117FBB6031201172EB703120117A9
:1017230067B703120117A1B7031201177A800412D6
:101733000117A9800412010002020000205104AA2B
:101743001609000102030109024300020100801986
:101753000904000001020201000524001001042411
:101763000202052406000105240100010705820386
:1017730040004009040100020A000000070584023A
:1017830040000107050402400001531700007617CB
:101793000000E066701008A3E066700A08A3E06624
:1017A300700408A3E06622C3E7960809E7960809D0
:1017B300E7960809E79622C3E09608A3E09608A3F4
:1017C300E09608A3E09622BB0102E722C082C08311
:1017D30089828A83BB0003E08002E493D083D082B2
:1017E30022BB000EC082C0838A838982F0D083D05B
:1017F3008222BB0101F722080808EAC0E0EBC0E03F
:1018030086F0E7A4FA180986F0E7A42AFA180986ED
:10181300F0E7A42AFA180986F0E7A42AFA1986F051
:10182300E7A4FBE5F02AFA190886F0E7A42BFBE509
:10183300F03AFA190886F0E7A42BFBE5F03AFA1818
:10184300180986F0E7A4C5F02BFBE43AFA1908E778
:10185300C5F0C6A426F6E5F03BFBE43AFA1886F099
:10186300E7A4F6E5F00826F6E43B08F6E43A08F6C2
:10187300D0E0FBD0E0FA22E4CFC0E0E4CEC0E0E465
:10188300CDC0E0E4CCC0E075F020C3E633F608E653
:1018930033F608E633F608E633F6181818EC33FC8B
:1018A300ED33FDEE33FEEF33FFC3EC9709ED9709FC
:1018B300EE9709EF97191919400FFFEC97FC09ED03
:1018C30097FD09EE97FE191906D5F0BEECF709ED61
:1018D300F709EEF709EFF7191919D0E0FCD0E0FD8D
:1018E300D0E0FED0E0FF226016080808C6C313C686
:1018F30018C613C618C613C618C613C6D5E0EA22FF
:101903007009080808226016181818C6C333C608D9
:10191300C633C608C633C608C633C6D5E0EA22E6D0
:1019230027F60809E637F60809E637F60809E63721
:10193300F622E026F608A3E036F608A3E036F6081A
:10194300A3E036F622E026F008A3E036F008A3E091
:1019530036F008A3E036F022C3E697F60809E697C7
:10196300F60809E697F60809E697F622E657F60819
:1019730009E657F60809E657F60809E657F622E09E
:1019830056F608A3E056F608A3E056F608A3E05679
:10199300F622E056F008A3E056F008A3E056F0085C
:1019A300A3E056F022E046F608A3E046F608A3E0DB
:1019B30046F608A3E046F622E066F608A3E066F6DC
:1019C30008A3E066F608A3E066F622E0F608A3E0C3
:1019D300F608A3E0F608A3E0F622E6F008A3E6F093
:1019E30008A3E6F008A3E6F022CAC0E0E6F0A308E5
:1019F300DAFAD0E0FA22CAC0E0E0A3C582CCC582FD
:101A0300C583CDC583F0A3C582CCC582C583CDC5AF
:101A130083DAE6D0E0CA22C3E498F8E499F9121A0B
:101A23005B8026C3E49AFAE49BFBE920E7E9121AF8
:101A33005BE498F8E499F922C3E498F8E499F9127D
:101A43001A5BE498F8E499F9C3E49AFAE49BFB225D
:101A5300EB20E7CFE920E7E0B90010BB0008E88AF4
:101A6300F084F8AAF022E4FBC8FA22EB70227B1080
:101A7300C833C8C933C9335007C39AC3DBF28006DE
:101A83009A50012ADBEAC833F4C8C933F4C9FA22ED
:101A930075F008E4C833C8C933C933C99AC99B5020
:101AA30004C92AC93BD5F0ECFBC833F4C8E4C9FA2E
:101AB30022600D08C6A2E713C618C613C6D5E0F305
:101AC30022600C08C6C313C618C613C6D5E0F42299
:101AD300700422600D18C6C333C608C633C6D5E0EA
:101AE300F41822251010AF08F510400215118008D4
:101AF300F51040021511D2AF22C0D0251010AF0847
:101B0300F510500205118008F51050020511D2AFEF
:101B1300D0D0222510F58210AF08F5104002151120
:101B23008008F51040021511D2AF851183222510CC
:101B3300F582E43511F58322E4732510C582C0E0F4
:101B4300E51134FFC583C0E0E510C3958224F8F89E
:101B5300E4C5A8858311858210C5A8E8CEF0A3E566
:101B630020F0A37808E608F0A3DEFAEFF0A3E581FE
:101B730024FAF8E608F0A3E608F0A3E608F0A308C1
:101B830008E608F0A3E608F0A315811581D0E0FE6E
:101B9300D0E0F8158115811581E8C0E0EEC0E022A0
:101BA3002510C582C0E0E51134FFC583C0E0E51010
:101BB300C3958224F9F8E4C5A8858311858210C5ED
:101BC300A8E8CEF0A3E520F0A37808E608F0A3DEAA
:101BD300FAEFF0A3E58124FBF8E608F0A3E608F0AA
:101BE300A30808E608F0A3E608F0A315811581D041
:101BF300E0FED0E0F815811581E8C0E0EEC0E022F8
:101C0300851183851082E0A3FEE0A3F5207808E028
:101C1300A3F608DFFAE0A3FFE0A3C0E0E0A3C0E07F
:101C2300E0A3C0E0E0A3C0E0E0A3C0E0E4C5A88572
:101C33008210858311C5A8D083D082020114851137
:101C430083851082E0A3FEE0A3F5207808E0A3F6E5
:101C530008DFFAE0A3FFE0A3C0E0E0A3C0E0E0A355
:101C6300C0E0E0A3C0E0E4C5A8858210858311C568
:101C7300A8D083D08222C0D02510C582C0E0E51150
:101C830034FFC583C0E0E510C3958224F310AF0889
:101C93008583118582108008858311858210D2AFD8
:101CA300C8F0A3E9F0A3EAF0A3EBF0A37908E709EE
:101CB300F0A3D8FAECF0A3EDF0A3EEF0A3EFF0A3BA
:101CC300D0E0F0A3D0E0F0A3D0E0F0A3E520F0A3B0
:101CD300E5F0F0A322851183851082E0C0E0A3E044
:101CE300F9A3E0FAA3E0FBA37808E0F608A3DFFA80
:101CF300E0FCA3E0FDA3E0FEA3E0FFA3E0C0E0A3BC
:101D0300E0C0E0A3E0F5D0A3E0F520A3E0A3F5F065
:101D1300E4C5A8858311858210C5A8D082D083D05D
:101D2300E0F8D0E0327404800A7403800674028001
:101D3300027401C0E0F404121B16D0E01219EC2265
:101D4300740480087403800474028000CCC0E0ED46
:101D5300C0E0E510C39CCCAD1150011D10AF068C43
:101D6300108D1180068C108D11D2AF1219F9D0E0AD
:101D7300FDD0E0FC22D083D082C5F0E493A3C5F06C
:101D8300C395F0F5F0E493A3C395F04005E5F004A3
:101D93008001E475F002A42582F582E5F03583F530
:101DA30083E493A3C0E0E493C0E022D083D082E92C
:101DB300C0E0E493A3C386F0C5F095F0F908E4937B
:101DC300A386F0C5F095F0700BE493A3C399400587
:101DD300E9048002A3E475F002A42582F582E5F00C
:101DE3003583F583D0E0F9E493A3C0E0E493C0E046
:101DF30022D083D082CCC0E0E493A36006121E1EDF
:101E03001470FAE493A36006121E3D1470FAD0E036
:101E1300FCE493A3C0E0E493C0E022C0E0E493A316
:101E2300D39C5010E493A3C39C400AD0E0D0E0D0ED
:101E3300E0021E11A3A3A3D0E022C0E0E493A36CAD
:101E43007009D0E0D0E0D0E0021E11A3A3D0E022BD
:101E5300D083D082ECC0E0EDC0E0E493A3FCE49334
:101E6300A3FDED4C600D121E9FEC24FFFCED34FF2F
:101E7300FD80EFE493A3FCE493A3FDED4C600D120E
:101E83001EDEEC24FFFCED34FFFD80EFD0E0FDD03F
:101E9300E0FCE493A3C0E0E493C0E022C0E0C3E429
:101EA3009396087401939618400FE493667008089C
:101EB300740193661870007019A3A3C3E493960882
:101EC3007401939618A3A3400DD0E0D0E0D0E002B4
:101ED3001E8FA3A3A3A3A3A3D0E022C0E0C0F088D6
:101EE300F0E4936670080874019366187000A8F014
:101EF300A3A3700BD0F0D0E0D0E0D0E0021E8FA3FC
:101F0300A3D0F0D0E022C2AF02000022C0E074F2FE
:101F1300121C79E58AA2E2500790030AE0D2E0F0AE
:101F2300E58AA2E3500790030AE0D2E1F0758A0044
:101F3300C2EB7A017B00900306E0F912028C7F0169
:101F4300021CD8C2C732C0E074F1121C79E59DA20D
:101F5300E650FA906206E0FAA2E25035A817E8903C
:101F6300620BF0F50885180974047808121AC4E5A1
:101F730008906207F0851708851809740978081214
:101F83001AC4E508543E906209F0906201E0D2E081
:101F9300F07814EA46F6906202E0F50875090074D9
:101FA300047808121AD37814E50846F608E50946BA
:101FB300F6906204E0F50875090074097808121AAE
:101FC300D3781408E50946F6EAA2E0500375160132
:101FD30074065A6003751600E58BA2E55006758BEF
:101FE300DF7516001204D8758B00C2E87F02021C4D
:101FF300D874F5121BA3EAFEEBFFEE2434F8EF349A
:1020030000F988088909EE2435122096F8EE243762
:10201300122096F50AEC850AF0A4FCAAF0850AF0D2
:10202300EDA42AFDEC28F8ED3400F97A257B0012A3
:102033001A5BEA850882850983F05407F87401B8AE
:1020430000028004C333D8FCC0E0E0131313541F11
:10205300F8EE28F8EF3400F9745D28F582E439F5D9
:1020630083D0E0FAE05A8508828509837020E0C0B6
:10207300E0EE2436122096F5F0D0E084A8F0EE28A6
:10208300F8EF3400F9743828F582E439F583E0F980
:10209300022449F582EF3400F583E02274F4121B25
:1020A300A38A088B09EA2434F582EB122099C0E055
:1020B300EA2435F582EB3400F583D0E0F08A828B95
:1020C30083A3A3A3A3A3E0FAA3E0FB850882850966
:1020D30083A3A3A3A3A3A3A3E0FCA3E0FDECC39A60
:1020E300FEED9BFFE5082480F50AE5093400F50BB6
:1020F300850A82F583E06401702DE5082481F58269
:10210300E5093400F583121D4B12213D7402121AA6
:10211300FCE960137C427D0BAA08AB0912124CE464
:10212300850A82850B83F0EEFCEFFDAA08AB09124A
:102133001FF412244E7F05021C41C082C083851008
:1021430082851183E0F8A3E0F9C3EA9CEB9D500B71
:10215300C3EC98ED99401279018010C3EA98EB998A
:1021630040F5C3EC98ED9950EE7900D083D08222EC
:10217300C0E074EF121C79759B00906182E0A2E6C7
:102183005059E591A2E650537591BF12142C75195D
:10219300001214A4E990083FF0790012148612117A
:1021A3009E900844E0548164817024E0D2E6F012EA
:1021B30014388A088B098C0A8D0B9090CC780812FE
:1021C3001935AA08AB09AC0AAD0B12140E800C7AB0
:1021D300017B0090083DE0F912028C906182E0A23D
:1021E300E55024E591A2E5501E7591DF90083EE08D
:1021F300640D7013900BC8E004F064287002E4F0DF
:102203007A00E0F9121564906181E0A2E35009E5D8
:10221300E9A2E3500375E9F7906182E0A2E7500970
:10222300E591A2E7500375917F7F04021CD8C0E0BB
:10223300C0D0C082C083906183E0A2E05009E5BFB3
:10224300A2E0500375BFFEE0A2E15009E5BFA2E1A1
:10225300500375BFFDE0A2E25009E5BFA2E25003BF
:1022630075BFFBE0A2E35009E5BFA2E3500375BFCE
:10227300F7E0A2E45009E5BFA2E4500375BFEFE025
:10228300A2E55009E5BFA2E5500375BFDFE0A2E672
:102293005009E5BFA2E6500375BFBFD083D082D0FB
:1022A300D0D0E032C0E074F2121C79E5A7A2E4506A
:1022B3000FE5A1A2E4500953A7EF75A1EF12231272
:1022C300E5A7A2E55023E5A1A2E5501D53A7DF75BD
:1022D300A1DF900844E0A2E6500FC2E6F07A017B4A
:1022E3000090083DE0F912028CE5A7A2E15009E550
:1022F300A1A2E1500375A1FDE5A7A2E2500CE5A15F
:10230300A2E2500653A7FB75A1FB7F01021CD87400
:10231300F8121BA37519017A007B00121414E5A8A7
:10232300FED2AF7A207B0090083DE0F912030A7ACF
:10233300207B0090083DE0F9120292906182E0D286
:10234300E6F0EEA2E792AF7F01021C4174F1121B8B
:10235300A38A0C8B0D8C0E8D0F740F121B31780812
:102363001219CE9090B4780C1219829090B4780818
:10237300121982780C79081217AA501C780C790864
:1023830012195B9090D478081219CE7808790C1240
:1023930017AA501C7901801A7808790C12195B90DE
:1023A30090D4780C1219CE780C79081217AA50E43D
:1023B30079007F08021C4174F1121BA374FC121AEA
:1023C300E6851082851183EAF0A3EBF0A3ECF0A37A
:1023D300EDF07413121B3178081219CE9090B47873
:1023E3000C1219CE851082851183780C12199590E1
:1023F30090B47808121982851082851183780812A7
:1024030017BA4014851082851183780C1219CE787F
:102413000C790812195B801E750C00750D00750E82
:1024230000750F01780C790812195B8510828511EC
:1024330083780C121935AA0CAB0DAC0EAD0F7404D6
:10244300121AFC0223B57F04021C41C082C083E937
:10245300906000F0D083D0822274F0121B3DE9908B
:10246300053BF0120D7290053BE0F91208FE1209CC
:102473003490053BE0F912093A909084780C1219D4
:10248300CEAA0CAB0DAC0EAD0F120922909084783E
:102493000C1219CEAA0CAB0DAC0EAD0F120AF67AC4
:1024A3002E7B1112022C7C2E7D11790012091C7CCB
:1024B300437D117A02790112091C7CA07D057A10F3
:1024C30079021204A87CB07D057A1079031204A85E
:1024D3007C3C7D057A0479041204A802439C74F4BD
:1024E300121B3DEAFEEBFF74805FF9E47001E960C3
:1024F3007890053BE0F91202748A088B09EA7001AF
:10250300EB605E8A828B83E0121D78910257251D52
:1025130025572518251203E8803D8A828B83A3E083
:10252300640E70368A828B83A3A3A3A3A3121D4BCD
:10253300EA24FDF582EB34FFF583E024F9FC8A827B
:102543008B83A3A3A3123B2B790E120D12740212D9
:102553001AFC800612040CE96007AA08AB091202F0
:102563005CEEFA74806FFB803E74405FF9E47001A7
:10257300E960117C3C7D057A0479041204A2EEFA29
:10258300744080E1EEA2E0500CC2AFC2AF75C9AB9C
:1025930075C95B80FE5402600A121F0974026EFA49
:1025A300EF80C37A007B00023CBF74F4121B3D74BE
:1025B300F9121AE6EAFEEBFFE41226F6122924C00A
:1025C300E07401121B31D0E01244AEA882A983E06B
:1025D300FCA3E0FBECFA7402121B31EAF0A3EBF06C
:1025E300E824020808E91243D9C0E07404121B313D
:1025F300D0E01244AE08A9837405121B3112289946
:102603007402121B31E0F508A3E085080AF50B7488
:1026130007780A121AC4780A121DAE010004A32611
:102623002D2643265626692686267401121B31AAB7
:1026330082AB83E508547FF91203F4E9F50880635C
:102643007401121B31AA82AB83E508547FF912038C
:10265300FA80E87401121B31AA82AB83E508547F28
:10266300F912040080D5851082851183AC82AD8375
:102673007401121B31AA82AB83E508547FF912045B
:102683000680B8851082851183AC82AD83740112F4
:102693001B31AA82AB83E508547FF91203EE809BBA
:1026A300750801EEFAEFFB12025C747F900568F087
:1026B3007406900569F0E50890056AF07402121B30
:1026C30031E090056BF07402121B31A3E044FC90DF
:1026D300056C12289F90056DF07C687D058510823E
:1026E300851183E02406FA79FF120D187900740727
:1026F300023CBC85108285118312270022123ADF27
:10270300A32274F0121B3D74FD121AE67402121B0D
:1027130031E9F08A828B838C0A8D0BA3A3A3122841
:102723004B8510828511831228997E00E48C828D5B
:102733008312289F2401F508A3E03400F5097402ED
:10274300121B31E0121D780002432854277027B76B
:10275300271228527C647D00700F7A017B0090055C
:102763003BE0F91202FE0228447A0280EF1228525B
:10277300F9850882850983E0FAC394325032E9125D
:102783001D780202B3278F278F27AE2774106A7034
:102793001F7C6E7D051204A8E9FE600302284485B0
:1027A300088285098312442A02284474046A60E17A
:1027B3000E022843122852FF850882850983E0FA16
:1027C300EF121D780202B327D127D12739287410BD
:1027D3006A70DD851082851183E02402F508A3E089
:1027E3003400F509AC08FDEFF91204A2E9FE740404
:1027F3006F704E850882850983123B3D122874123F
:1028030028871219037808790C12192212287412D6
:10281300287A1219037808790C12192212287412D3
:1028230028661219037808790C12192290053C784E
:10283300081219DD800B74046A60030227B38093C6
:102843000EEEF97403024399A3E0F8A3E0F9221210
:102853002857E022851082851183E0F8A3E0F583F1
:10286300888222A3A3A3E0F50C750E007418780CDC
:1028730022122857A3A322A3A3E0F50C750D00741D
:1028830010780C22A3E0F50C750D00750E00750F82
:10289300007408780C22E8F0A3E9F022F085108296
:1028A300851183E02274F4121B3D74F4121AE68935
:1028B300088A828B83A3A3A3122924FEA3E0FFE843
:1028C3002402FCE93400FDE508121DF400020AFBB2
:1028D3002812D9281D2912322F121D307402121BFF
:1028E30031AA82AB83120F7C7402121AFCE9702C9A
:1028F300122930120F0A802412322F121D30740253
:10290300121B31AA82AB83120F6A7402121AFCE9FA
:10291300700A122930120F0480027901740C023CF0
:10292300BCA3E0F8A3E0F988828983E02290053B09
:10293300E0F9851082851183AC82AD83EEFAEFFB5B
:102943002274F0121B3D74E6121AE67419121B313D
:10295300E9124622FCA3E0FD8C828D83E0FEA3E016
:10296300FFEC2403F50CED3400F50DEC2402F5081F
:10297300ED3400F5097419121B31E0121D78011DA5
:10298300D031C129052A392A6D2ABC2AF42A962B6B
:10299300CE2B992CD12C092D412D792DB12DE92D3B
:1029A300212EAB2EE32E642FD031D031922F27303E
:1029B3005F30DF30D0310D31D0314C31A231851051
:1029C3008285118385820A85830B780A121D301252
:1029D300324A1206107402121AFCE9F50A701485C1
:1029E3001082851183AC82AD83EEFAEFFB1205B042
:1029F300E9F50A7404650A60030231D5750A4002D9
:102A030031F485108285118385820A85830B780AC8
:102A1300121D3012322F121D300C0CAD097A0079C1
:102A23000012061C7404121AFCE9F50A70C5122977
:102A33003012094080BA85108285118385820A8508
:102A4300830B780A121D3012324A120628740212BE
:102A53001AFCE9F50A709C851082851183AC82AD5E
:102A630083EEFAEFFB1205B680868510828511830B
:102A730085820A85830B780A121D3012322F121DAC
:102A8300300C0CAD097A0079001206347404121A62
:102A9300FCE9F50A60030229F67402121B31121DC8
:102AA3004B90053BE0F97402121B311232211209DB
:102AB300647402121AFC0229F3851082851183853E
:102AC300820A85830B780A121D3012324A1206409D
:102AD3007402121AFCE9F50A60030229F6851082D2
:102AE300851183AC82AD83EEFAEFFB1205BC02299C
:102AF300F385108285118385820A85830B780A12F8
:102B03001D3012322F121D300C0CAD097A007900E2
:102B130012064C7404121AFCE9F50A60030229F642
:102B23007404121B31123218121D307407121B3138
:102B33008582088583097808121D301231FB121A29
:102B4300FCE96049851082851183E064017002A36A
:102B5300E0703A7402121B31E064FF7004A3E06476
:102B6300FF702A90053BE0F5087808121D347408BD
:102B7300121B31E0F97409121B31AC82AD83EEFAFA
:102B8300EFFB12094C7401121AFC0229F3750A02B5
:102B93000231F485108285118385820A85830B783F
:102BA3000A121D3012324A1206587402121AFCE934
:102BB300F50A60030229F6851082851183AC82AD84
:102BC30083EEFAEFFB1205C20229F3851082851109
:102BD3008385820A85830B780A121D3012322F12E5
:102BE3001D300C0CAD097A007900120664740412CE
:102BF3001AFCE9F50A60030229F67404121B311268
:102C03003218121D307407121B318582088583091F
:102C13007808121D307C027D007AE57B9012320326
:102C2300121AFCE9601B7402121B31121D4B900532
:102C33003BE0F97402121B31123221120952022AAB
:102C4300B47404121B31123218121D307407121B94
:102C5300318582088583097808121D307C027D0046
:102C63007AEB7B90123203121AFCE9602074021291
:102C73001B31121D4B90053BE0F97402121B3112FC
:102C830032211209587402121AFC0229F312293054
:102C93001209700229F385108285118385820A85C2
:102CA300830B780A121D3012324A12067074021214
:102CB3001AFCE9F50A60030229F68510828511835F
:102CC300AC82AD83EEFAEFFB1205C80229F385103F
:102CD3008285118385820A85830B780A121D30123F
:102CE300322F121D300C0CAD097A00790012067CCC
:102CF3007404121AFCE9F50A60030229F61229305A
:102D030012096A0229F385108285118385820A8557
:102D1300830B780A121D3012324A1206887402128B
:102D23001AFCE9F50A60030229F6851082851183EE
:102D3300AC82AD83EEFAEFFB1205CE0229F38510C8
:102D43008285118385820A85830B780A121D3012CE
:102D5300322F121D300C0CAD097A0079001206A631
:102D63007404121AFCE9F50A60030229F6122930E9
:102D73001209760229F385108285118385820A85DB
:102D8300830B780A121D3012324A1206B2740212F1
:102D93001AFCE9F50A60030229F68510828511837E
:102DA300AC82AD83EEFAEFFB1205D40229F3851052
:102DB3008285118385820A85830B780A121D30125E
:102DC300322F121D300C0CAD097A0079001206BEA9
:102DD3007404121AFCE9F50A60030229F612293079
:102DE30012097C0229F385108285118385820A8565
:102DF300830B780A121D3012324A1206CA74021269
:102E03001AFCE9F50A60030229F68510828511830D
:102E1300AC82AD83EEFAEFFB1205DA0229F38510DB
:102E23008285118385820A85830B780A121D3012ED
:102E3300322F121D300C0CAD097A00790012066492
:102E43007404121AFCE9F50A60030229F6740412E9
:102E53001B31123218121D307407121B3185820880
:102E63008583097808121D301231FB121AFCE970B0
:102E730003022B90851082851183E064017002A305
:102E8300E06003022B907402121B31E064FF7004B4
:102E9300A3E064FF6003022B9090053BE0F9EEFA98
:102EA300EFFB1209460229F385108285118385827F
:102EB3000A85830B780A121D3012324A1206D67421
:102EC30002121AFCE9F50A60030229F685108285CD
:102ED3001183AC82AD83EEFAEFFB1205E00229F316
:102EE30085108285118385820A85830B780A121DDA
:102EF300308A828B83A3A3A3E0F874FC12323E12C0
:102F03001D30EC2404FCED3400FD850C82850D831B
:102F1300E0FA850882850983E0F912068E740412AB
:102F23001AFCE9F50A60030229F67418121B31E052
:102F3300700912293012098E0229F37417121B31FA
:102F4300E0851082851183AC82AD83700AEEFAEFBF
:102F5300FB1209820229F3EEFAEFFB120988022918
:102F6300F385108285118385820A85830B780A1283
:102F73001D3012324A12069A7402121AFCE9F50A3B
:102F830060030229F6EEFAEFFB1205E60229F38548
:102F9300108285118385820A85830B780A121D307E
:102FA30012322F121D300C0CAD097A007900120673
:102FB300E27404121AFCE9F50A60030229F690058B
:102FC300C1E07002A3E0700F7A737B001202CE900F
:102FD30005C1EAF0A3EBF09005C1E07002A3E06045
:102FE3003D9005C0E0C394054003022B90851082F9
:102FF300851183C082C0839005C0E075F017A4F8E3
:10300300A9F09005C1E028FCA3E039FDD083D0826C
:1030130074171219F99005C0E004F00231F4750A2F
:10302300130231F485108285118385820A85830B0F
:10303300780A121D3012324A1206EE7402121AFC7A
:10304300E9F50A60030229F6851082851183AC82B3
:10305300AD83EEFAEFFB1205EC0229F385108285AE
:10306300118385820A85830B780A121D3012322F51
:10307300121D300C0CAD097A0179001206FA7404A2
:10308300121AFCE9F50A60030229F69005C1E07003
:1030930002A3E07003022B9090053BE0F50878084B
:1030A300121D347401121B31E0F5087808121D3427
:1030B3009005C0E0F99005C112322112099A7402F9
:1030C300121AFCE9F50A60069005C11233B990059E
:1030D300C1E4F0A3F09005C0F00229F685108285C3
:1030E300118385820A85830B780A121D3012324AB6
:1030F3001207007402121AFCE9F50A60030229F6AA
:10310300EEFAEFFB1205F20229F385108285118393
:1031130085820A85830B780A121D30123209121D2B
:10312300300C0C0CAD0D7A00790012070C740412EC
:103133001AFCE9F50A60030229F6850882850983EA
:10314300122933120A4E0229F385108285118385D1
:10315300820A85830B780A121D30123209121D3040
:103163000C0C0CAD0D7A00790012070C7404121AC2
:10317300FCE9F50A60030229F690053BE0F50A78BD
:103183000A121D34850882850983E0F97401121B34
:1031930031AC82AD83EEFAEFFB120A48022B88852D
:1031A300108285118385820A85830B780A121D306C
:1031B30012324A1207127402121AFCE9F50A60036A
:1031C3000229F6EEFAEFFB1205AA0229F3750A01AA
:1031D300801F7405650A7005750A418014740C65B7
:1031E3000A7005750A438009740F650A7003750A2E
:1031F30042A90A741A0243997C027D007ADF7B900C
:1032030012071E7404228A828B83A3A3A3E0F8749B
:10321300FD12323E22E0F5087509007808221232C9
:103223002522E0FCA3E0FDEEFAEFFB228A828B83EA
:10323300A3A3A3E0F874FE12323E2228F50A74FF1A
:103243003400F50B780A228A828B83A3A3A3E0F8C8
:1032530074FE28FC74FF3400FDAA08AB092274F243
:10326300121B3D74E0121AE68A828B83A3A3A3A3E5
:10327300E0F508A3E0F509E5082402F50AE50934B9
:1032830000F50B850882850983A3AE82AF83E9121B
:103293001DF40002089F32160D33B3331233CE747C
:1032A30007121B318582088583097808121D308A2D
:1032B300828B83A3A3A3E0F874FE28F50874FF347C
:1032C30000F5097808121D30AC0AAD0B7A007900BD
:1032D3001206647404121AFCE9F508701890053B91
:1032E300E0F97407121B31AC82AD83EEFAEFFB12E7
:1032F300095EE9F508740465087003750840A908B8
:103303007420121AFC7F06021C038A828B83A3A3F8
:10331300A3E0FAC3940740E374FA2AFA7404121B75
:1033230031EAF07B001202CE7405121B31EAF0A3DE
:10333300EBF07405121B31E0FA7001EB606C123391
:10334300CE850A82850B831233C2E0F9EC851082A5
:1033530085118312289A850882850983A3A3A3A3D1
:103363001233C2A3A3E0F9ECF87402121B31122842
:10337300997404121B31E0F50A750B00780A121DCB
:1033830030E5082406FCE5093400FD123B10121A4F
:10339300FC122930120994E9F50870030233017411
:1033A30005121B311233B90232F8750813023301C7
:1033B300750801023301E0FAA3E0FB1202D422E014
:1033C300FC850882850983A3A3A322850882850936
:1033D30083E0FC8E828F83E0F9ECFEE9FF2274F038
:1033E300121B3D74A2121AE6E9851082851183F03F
:1033F3008C088D098A828B83A3A3A3A3E0FEA3E099
:10340300FFEE2402F50AEF3400F50B8510828511D7
:1034130083E0121DF40018006434035E3504BE35E6
:10342300050036060A36076A360886360991360AD3
:10343300E7360BF9360C92390DA9390E03390F69AA
:103443003810603830B23931D63932243A33323A0F
:1034530034AC3A35C23A36C83A37CC3A38C83AD699
:103463003A8E828F83123B227C107900AA0AAB0B1F
:103473001202B0E970197508107509007808121D59
:1034830030AC0AAD0B7AA07B05123B10121AFCEE8E
:103493002412F508EF3400F5097C107900AA08FB23
:1034A3001202B0E97019750A10750B00780A121D23
:1034B30030AC08AD097AB07B05123B10121AFCEE52
:1034C30024221248AA123B3DEE24231248AA1228B2
:1034D300881219037808790C121922EE2424124851
:1034E300AA12287C1219037808790C121922EE24E7
:1034F300251248AA1228691219037808790C12199F
:10350300229090947808121795600890053C7808EB
:103513001219DD75083C7509057808121D30750808
:10352300B07509057808121D307CA07D058E828F49
:1035330083A3E0FB7404121B31E0FA90053BE0F92E
:1035430012072A7404121AFCE9FE90053BE0FC7D85
:10355300007A217B00120736023AD87508007509F4
:10356300007401121B31AC82AD8375839075824464
:1035730074061219F9750A06F50B780A121D3074D0
:1035830003121B31AC82AD838E828F83A3AA82ABDD
:10359300831202447402121AFCE96401600B8E82E6
:1035A3008F83A3858208858309AA08AB098E828F3E
:1035B30083E0F9120730E9FE023AD890053BE0C0F8
:1035C300E07407121B31D0E0123ADFE0C0E0740868
:1035D300121B31D0E0123BA7C0E07409121B31D09B
:1035E300E01226FCE0C0E0740A121B31D0E0F07454
:1035F30007121B31AA82AB8312079C80B990053B4B
:10360300E0F91207A280AF8E828F83E0C0E0740BD3
:10361300121B31D0E0123BA7C0E0740C121B31D057
:10362300E0123B9B121D30EEFCEFFD740F121B31B9
:10363300123B0C121AFCEE2406123B17C0E0741363
:10364300121B31D0E01226FCE0C0E07414121B31CF
:10365300D0E0F0740B121B31AA82AB8390053BE0E0
:10366300F91207A80235B9AC0AAD0B8E828F83A37A
:10367300E0FB8E828F83E0FA90053BE0F91207AE00
:103683000235B990053BE0F91207B40235B990054C
:103693003BE0C0E0740B121B31D0E0123ADFE0C014
:1036A300E0740C121B31D0E0123BA7C0E0740D1282
:1036B3001B31D0E0123BB0C0E0740E121B31D0E0DE
:1036C300123B9B121D30EEFCEFFD7411121B3112E5
:1036D3003B0C121AFC740B121B31AA82AB83120827
:1036E3006E0235B98E828F83123B2B90053BE0F936
:1036F3001208740235B97508007509007C187D003D
:1037030079007417121B31AA82AB8312024A123B4F
:10371300317417121B31123B8CC0E07419121B3128
:10372300D0E0123BA7C0E0741A121B31D0E012267E
:10373300FC0EAF83750A10750B00780A121D30EE6C
:10374300FCEFFD741D121B31123B0C121AFC123BD1
:1037530014C0E0742B121B31D0E0123BB0C0E074F4
:103763002E121B31D0E0123B86A30E0EAF83742CB6
:10377300121B31123B5EF50A7402780A121AD3E562
:103783000A123AFFF50A7403780A121AD3E50A12E9
:103793003AF2F50A7404780A121AD3E50A123AE5E2
:1037A300F50A7405780A121AD37420550A4AF87474
:1037B3002C121B311228998E828F83E0A30EAF83C4
:1037C300700302384DE0C0E07401121B31D0E012E7
:1037D3003BB0C0E07402121B31D0E0123BB0C0E03A
:1037E3007403121B31D0E0123BB0C0E07404121B0F
:1037F30031D0E0123B867405121B31123B5EF50893
:1038030074027808121AD3E508123AFFF508740314
:103813007808121AD3E508123AF2F5087404780806
:10382300121AD3E508123AE5F50874057808121A56
:10383300D3742055084AF87405121B311228997461
:1038430001121B31858208858309AC08AD09741701
:10385300121B31AA82AB831208800235B9123B4A8C
:103863001208860235B98E828F83E0FAA3E0F8E46A
:10387300C8F9EAF508E9F5090E0EAF0B8E828F83BE
:10388300E0F50AA3AE82AF83750C10880D780C1295
:103893001D30EEFCEFFD7445121B31123B0C121A66
:1038A300FCEE2410FEEF3400FF123B317453121B65
:1038B30031122899EE24020E0EEF3400FF750C0826
:1038C300780C121D30EEFCEFFD7457121B31123BC6
:1038D3000C121AFC8E828F83A3A3A3A3A3A3A3A377
:1038E300E0C0E0745D121B31D0E0F07443121B3171
:1038F300AC82AD83A90AAA08AB0912089E0235B9A6
:10390300123B317415121B31123B8C1226F6AE8218
:10391300AF837508107509007808121D30EEFCEFAF
:10392300FD7431121B31123B0C121AFC123B14F5BD
:1039330008750A00750B0012288712190378087995
:103943000C1219228E828F8312287A121903780897
:10395300790C1219228E828F83122866121903782A
:1039630008790C121922743F121B3178081219DDE1
:10397300742F121B31AC82AD83851082851183E0D5
:10398300F97415121B31123B2B12087A0235B98ECA
:10399300828F83E0FAA3E0F9EAFCE9FDAA0AAB0B04
:1039A30012088C0235B9123B4A1208980235B98EB7
:1039B300828F83E0FA7B00C39422E49400400302E5
:1039C3003AC8A3E0FC850A82850B83E0FD12073623
:1039D3000235B978FF79FF8E828F83E0FA7B00C3CB
:1039E30094FFE494005022C3EA9422E49400501913
:1039F30012073C8A0A8B0BA80AA90B74FF68700391
:103A030074FF6960047E0080027E0274028508826E
:103A1300850983F0E890056EF0E990056FF0023AAE
:103A2300D8EE2410FCEF1243A11207BA0235B98E67
:103A3300828F83A3123B22F50875090074042508BD
:103A4300FAE43400FB12451A7001EB60588E828F42
:103A530083E08A828B8312289F8A828B83A3F0EA76
:103A63002402F8EB34000A0AFBE50E24040808E5F7
:103A73000F3400F98A828B831228997808121D303B
:103A8300AC0AAD0B8A828B83123B2B123B10121AAA
:103A9300FCAA0EAB0F1207C0E9FE6039AA0EAB0FEA
:103AA3001202D480307E13802C8E828F83E0F91231
:103AB30007C6EA7001EB600D1202D47E0080161275
:103AC30007CC0235B97E02800C7E02E48C828D83A2
:103AD300023A207E01EEF9745E024399F08E828FE2
:103AE30083224AF8741F58FAECA2E5E492E0224AD2
:103AF300F874EF58FAECA2E4E492E0224AF874F77F
:103B030058FAECA2E3E492E022AA82AB83124424A3
:103B130022EE2410FEEF3400FF8E828F83E022E03A
:103B2300851082851183F022E0FAA3E0FB228E82C6
:103B33008F83E0FAA3E0F9EAF822E0F508750900BB
:103B4300750A00750B0022850A82850B83E0F98EC6
:103B5300828F83E0FCA3E0FBECFA22E054FEF8A39F
:103B6300E0F9ECA2E0E492E048F874FD58FAECA224
:103B7300E1E492E0C3334AF874FB58FAECA2E2E4BE
:103B830092E022122700E0FC22E8F0A3E9F00E0EF7
:103B9300AF0B8E828F83E022123BB5750806750941
:103BA30000780822122700AE82AF83E022123BB5D1
:103BB300E022123ADFA30EAF832274F4121B3D748A
:103BC300FE121AE68A088B09E4851082851183F0B8
:103BD300FEFF7401121B31E4F07C28FDF97A407B6F
:103BE3000512024A850882850983E0121DF4000349
:103BF300A22B3CB04E3CD0FE3B863C7401121B31E1
:103C030085820A85830B780A121D307402121B31D8
:103C130085820A85830B780A121D307C407D05AAB4
:103C230008AB09120412804E8510828511838582A8
:103C33000A85830B780A121D307C407D05AA08ABE8
:103C4300091204187402121AFC80307401121B3119
:103C530085820A85830B780A121D307402121B3188
:103C630085820A85830B780A121D307C407D05AA64
:103C730008AB0912041E7404121AFC8A0A8B0BAED9
:103C83000AAF0BAA08AB0912025C85108285118367
:103C9300E0600BEEFCEFFDE0FA79FF120D18EE7019
:103CA30001EF60117401121B31E064017007EEFA39
:103CB300EFFB1202D479007402121AFC7F04021C77
:103CC3000374F0121B3D74FC121AE68A0C8B0DEC84
:103CD300FEEDFFE4851082851183F0F50EF50FEEFE
:103CE3002406F8EF3400F9EE2404F50AEF3400F566
:103CF3000B8A828B83A3A3E0121D78000F7F4322DC
:103D03003D9B3DB23EC03ED43EE03E913FA43FE0EA
:103D13003FF73F8F406240C142FF4225422A42E4BF
:103D2300124560121D30124400121AFC1245BEC027
:103D3300E01248A7D0E0F07508107808121D307C17
:103D4300A07D05EE240C12440B121AFC7808121DF8
:103D5300307CB07D05EE241C12440B121AFC850C3A
:103D630082850D83A3E070217CA07D057A10790202
:103D73001204A27CB07D057A1079031204A27C3C64
:103D83007D057A0479041204A28E0E8F0F742C859C
:103D9300108285118302437E8A828B83A3E06003B2
:103DA300023E7E8A828B83A3A3A3E07003023E7E3E
:103DB30033333354F8240412450C7001EB700302BF
:103DC3003E7474018A828B83F0A374061244BD850A
:103DD3000C82850D83A31244EF1244EF12284B7417
:103DE30002121B311228997401121B31E4805E7494
:103DF30002121B3112473C1244BA7402121B3112D5
:103E0300473CA31244BA7508067509007808121DC9
:103E1300307404121B31E02402FCA3E01244191293
:103E23001AFCE50A2406F50AE50B3400F50B7401C8
:103E3300121B31E004F07402121B31E02408F8A3D2
:103E4300E03400F97402121B31E8F0A3E9F07401C5
:103E5300121B31E0C0E0850C82850D83A3A3A3E090
:103E6300FAD0E0C39A40887416121B31124445807D
:103E7300097413850C82850D83A3F0850C82850D4F
:103E830083A3E0700F850C82850D83A3A3A3E06059
:103E93000302437F74018E828F83F0740612448B76
:103EA300124585A3A3F0E41244FF7404023D927407
:103EB30002124542E01244FF7404023D927403125D
:103EC30045B6A3A3A3A31244C11245067405023D3C
:103ED30092740412456F124504740380DD74051255
:103EE300468C121D30124414121AFC850C82850D67
:103EF30083A3A3A3A3A3A3A3A3A312444BA31244E7
:103F030084A3A3A3A3A3A3A3A3E0C0E01248A7D0C1
:103F1300E01244D2C0E0EE240C1248AAD0E0F01222
:103F230043A91248ADA3E0C0E0EE240D1248AAD085
:103F3300E0F0E50C240EF81243D7C0E0EE240E1295
:103F430048AAD0E01244AEE0C0E0EE240F1248AA23
:103F5300D0E0F0E50C241008081243D7C0E0EE24AB
:103F6300101248AAD0E01244AEE0C0E0EE241112D1
:103F730048AAD0E0F0E50C24121248B2C0E0EE24C7
:103F8300121248AAD0E01245067413023D92740639
:103F93008E828F83F01246098E0E8F0F7406023DB8
:103FA30092740712454212442F1244991244C112CB
:103FB300449912442FA3A31244B5888289831245DE
:103FC300231244E48E828F831244D7124585A312B1
:103FD30044D712444B124503740B023D92740812EA
:103FE300468C121D30124414121AFC8E0E8F0F745D
:103FF3000A023D92740912468C121D3012441412A7
:104003001AFC850C82850D83A3A3A3A3A3A3A3A357
:10401300A3A378081219CE8E828F83A3A3A3A3A38D
:10402300A3A3A3A3A31245AE1219CEE509F508EE87
:10403300240B1245A71219CE741078081218EAEE51
:10404300240C1245A71219CE741878081218EAEE38
:10405300240D1248AAE508124506740E023D927417
:104063000B124560121D30124400121AFC1245BE99
:10407300C0E01248A7D0E01244D2C0E0EE240C12F4
:1040830048AAD0E0124506740D023D92746A1245A7
:104093000C7001EB70030242047416121B311244BC
:1040A30045F07C6A7D00790012024A740A850E820B
:1040B300850F83124635850C82850D83A3A3A3A3A5
:1040C300A312459D7002A3E0603D740112459E1248
:1040D300458B121D30850C82850D83124477121A8D
:1040E300FC1243C412445012459D1244A2121D30C7
:1040F300850C82850D83A3A3A3A3A3A312446812F3
:104103001AFCEE24088003EE241C1243E2E0700242
:10411300A3E0603A74011245F412458B121D30126C
:1041230043A91248AD12447D121AFCEE2410124327
:10413300E21244561245F31244A2121D301243A94F
:104143001248AD124468121AFCEE24088003EE24D0
:104153001C1243F4E07002A3E06040740112459125
:10416300121D30850C82850D83124475121AFCEEE4
:104173002410FEEF3400FF7508067808121D308501
:104183000C82850D83A3A3A3A3A3A3A3A3E024105D
:1041930012446B121AFCEE24068003EE241712431A
:1041A300F4A3A3E07002A3E0700302437F7401123F
:1041B3004591121D30850C82850D83A3A31244758E
:1041C300121AFC1243C4A3A3A3A3124450780812E7
:1041D30019CE1246721219CEE5098E828F831246CA
:1041E300781219CE741078081218EA12467212194E
:1041F300CE741878081218EA8E828F83E50802437A
:104203007E740A8E828F83F07406A3F074138E82F9
:104213008F83124484124430F0850C82850D83020F
:104223003EC5740E023EC2740F8E828F83F07406F5
:104233001246098A828B83A3A3A3A3A3A3E0888244
:1042430089831244B58E828F83A3A3A3A3A3A3A3BD
:10425300124523A31244E4A2E0E492E0F5088A8223
:104263008B83A3A3A3A3A3A3A3A3A3E054026004E8
:104273007802800278001243B25404600478048008
:104283000278001243B25408600478088002780070
:104293001243B2541060047810800278001243B2C3
:1042A30054206004782080027800E845088E828FCD
:1042B30083A3A3A3A3A3A3A3A3A3F0023FEE740C1E
:1042C3001245B6A3A3A3A312442A750806750900D1
:1042D3007808121D30EA2405FCEB3400FDEE2405BA
:1042E30012440B121AFCE50C240B1248B2C0E01264
:1042F30048A7D0E0124506740C023D92EA240CF55F
:1043030082EB1248B6240D12450C7001EB6063AECC
:104313000EAF0F740D8E828F8312463575080675A6
:1043230009007808121D30E50C2405FCE50D124345
:10433300A1123B10121AFCEE2406FEEF3400FFE537
:104343000C240BF582E50D1248AD1245F31245F42A
:10435300F5087808121D30E50C240DF582E50D12E1
:1043630048AD12447D121AFC7416121B31124445D7
:1043730080097413850C82850D83A3F085108285D3
:104383001183E0C0E07414121B3112473CD0E0F0FB
:10439300AA0EAB0F7404121AFC7F08021C0334002C
:1043A300FDEEFAEFFB22E50C240CF582E50D22E885
:1043B30042088A828B83A3A3A3A3A3A3A3A3A3E0FB
:1043C30022EE24101243CB22FEEF3400FF850C8231
:1043D300850D8322E50D3400F988828983E022FE6E
:1043E300EF3400FFE50C240CF582E50D3400F58372
:1043F300221243CBA3A3A3A3A3A3A3A322EA24032D
:10440300FCEB3400FDEE2403FAEF3400FB124424EA
:1044130022EA2404FCEB3400FDAA0AAB0B12442469
:10442300221202327402221244C1F022A312443433
:10443300221244382212443C22E08E828F83A3A3AB
:10444300A32212285D740122A312452B22A3A3A346
:10445300A3A3A312445A22E02410F8A3E03400F9E2
:104463008882898322E02412FCA3E01243A1124430
:104473002422A3A3A3A3A3A3A3A3123225124424F8
:1044830022A312448BA3A322A312449022F0850CEF
:1044930082850D83A32212449D22124627A3221252
:1044A300445B124650750808780822F08882898395
:1044B300A322124537E0221244C11244C922E085E7
:1044C3000A82850B8322F0A385820A85830B22F05F
:1044D3001245FB22A3A3A3A3A3A3A3A31244E9A36B
:1044E300221244E9E02212453BA3A3221244C11243
:1044F30044C9850C82850D83A3A3A3228E828F8357
:10450300A3A3A3F08E0E8F0F22851082851183F053
:10451300FA7B0012451A221202CE8A0E8B0FEA2270
:10452300124537A312452B2212452F2212443CA3D6
:10453300A3A3A32212453B2212462BA3A3A3228E9D
:10454300828F83F0740612454D2212455122124583
:104553007DE08E828F83A312457DA3A32212456F34
:10456300A3A3F07508067509007808228E828F834D
:10457300F0740612457D12458522A3F08A828B834F
:10458300A322E08E828F8322241A12445DE0124616
:1045930052750810750900780822E08E828F831205
:1045A3004685E022F582EF3400F583E5081245E6FF
:1045B3007808221246988A828B8322850C82850D85
:1045C30083A3A3A3A3A3A3A3A3A31245E01245E636
:1045D3001245E0A3F0E50C240B1245FF2212452FF0
:1045E300A3A322124490A3A3A3A3A3A3A3A3A3229D
:1045F300E01246521245FB22E50C240CF582E50D30
:104603003400F583E02212454D12443412462285CC
:104613000A82850B8312449D124434A3A3F0221211
:104623004627E02212462B22F08A828B83A3A3A380
:10463300A322F0A37406F0A3AE82AF83850C828518
:104643000D83A312465C12465C12465022A3E08EF1
:10465300828F83F0A30EAF83221245851246632215
:10466300F0A30EAF83850C82850D83A3A3A3228EB3
:10467300828F83E508124685A3A3A3A312445A7825
:104683000822124663A3A3A322124698750806754F
:1046930009007808228E828F83F074061245511226
:1046A3004438F02274F0121B3DEAFEEBFF8C088DB8
:1046B30009EE2405F50EEF3400F50F8E828F83A3E8
:1046C30085820C85830D8E828F83A3A3121D4B12CB
:1046D30048C5FA74804AFC7D04AA08AB0912042475
:1046E3007402121AFCE9F50A850C82850D83E070C9
:1046F30036890CE508250CFAE5093400FBEE24069F
:10470300FCEF1248BA121DF400030118470B1D47B2
:104713001322472A47120F588008120F7080031282
:104723000F82EA250AF50A7410121B3112473CE581
:104733000AF0AA08AB0902439C12285D2274F01206
:104743001B3D8A088B09ECFEEDFF7412121B31121C
:10475300284C88828983750A00E4F0EA2404F50E64
:10476300EB3400F50F8A828B83A385820C85830D3E
:10477300E06003024866EE2406FAEF3400FBE50826
:104783002405FCE5091248BA121D78011D6648CEBE
:1047930047D447DA47E047E547EA47EF47F447F9A5
:1047A30047FE47034808480D4812481748F4471C7A
:1047B300482148664866486648514856485B4866FB
:1047C300486648604866486048664812060A0248D8
:1047D3006312061602486312062202486312062E6B
:1047E300807E12063A807912064680741206528041
:1047F3006F12065E806A12066A8065120676806012
:10480300120682805B1206A080561206AC805112FB
:1048130006B8804C1206C480471206D08042E508D1
:10482300241CF582E5091248B68A828B83F0E508D9
:10483300241DF582E5091248AD12444CF0EE24081C
:104843000A0AEF3400FB120694EA240280131206CC
:10485300DC800D1206E880081206F48003120706B6
:10486300EAF50A850882850983A3A3121D4B124822
:10487300C5FC7D05EEFAEFFB1204247402121AFC48
:104883008E828F83A3A3A3A3A3E50AF07406250A4C
:10489300C0E07410121B3112473CD0E0F0EEFAEF87
:1048A300FB02439CEE240BF582EF3400F58322F5E3
:1048B30082E50D124603223400FD850E82850F83A7
:1048C300E022850C82850D83E0F9850E82850F83B6
:1048D300E02274F7121B3DE9FE7409121B31122802
:1048E3004CEC8A828B83F0EDA3F0EE8A828B83A358
:1048F300A3F0E88A828B83A3A3A3F0E98A828B8344
:10490300A3A3A3A3F079057F01021C0374F1121B77
:104913003D74FE121AE6851082851183ECF0A3ED37
:10492300F0E9FF8A0E7411121B31E0F50CA3E0F5D8
:104933000D7E0090112AE07002A3E0600579110258
:104943004A09E50C7002E50D60417A1F7B001207EE
:104953003C8A088B09A808A909E50C2415F508E584
:104963000D3400F509850882F583E0C398E4994086
:104973001A7A207B0012073C8A0A850882850983FC
:10498300E0FAC3E50A9AEB94005004790280777A3F
:10499300637B001202CE90112AEAF0A3EB1254D0EB
:1049A3007002A3E070047913805C7C637D0079005E
:1049B30012024A125654E41254D012565DEF124AB0
:1049C3001AE50EF0851082851183125EA7125596A3
:1049D300A3A3E8F0A3E9124A1AA3A3A3E50CF0A347
:1049E300E50D125157E4F0A31254D0124A14E4F027
:1049F300EF6005121648E9FE1256547401F0EE609A
:104A030003121672EEF97402121AFC7F07021C03DA
:104A1300E0241A125162221256D7A32274F6121BF3
:104A23003D7E0090112AE07002A3E0700579120226
:104A33004AB7125665FF74026F600A74036F60050C
:104A430074046F70E81254926C7003A3E06D6004F9
:104A5300790280607508108E097808121D30EAFC0F
:104A6300EB125952121AFC125699121D301254C1EC
:104A7300121AFC12627C88828983E0FA90112AE080
:104A8300FBA3E0F5838B82E0600974036A702374EF
:104A930002801574046A7009740288828983F08025
:104AA3001174036A700C740588828983F012164EA0
:104AB300E9FEEEF9024C7074F7121B3DE9FE90110A
:104AC3002AE07002A3E060131254926A7003A3E019
:104AD3006B700874016E70031216727F01021C035F
:104AE300C082C08379171216780259E574F7121B36
:104AF3003D74ED121AE6EAF8EBF9E48510828511AC
:104B030083F088828983A3A3A3125FDD8A828B83C8
:104B1300E0F508E82402FEE93400FFE508121D78F9
:104B2300010A194C3D4B3D4B5B4BA54BB34BC14B62
:104B3300CF4BDD4BEC4BFB4B0A4C7401121B31ACDE
:104B430082AD831216B4E9FA74126A701974068579
:104B53001082851183F0803A7401121B31AC82AD4F
:104B6300831216C0E9FAEA701D7401121B31AC827C
:104B7300AD83A9088E828F83125FE012161EE9852A
:104B83001082851183F0851082851183E070030202
:104B93004C1EAC82AD838E828F83125FE0121600AF
:104BA300807C7401121B31AC82AD831216CC80B4AD
:104BB3007401121B31AC82AD831216D880A6740126
:104BC300121B31AC82AD831216E480987401121B60
:104BD30031AC82AD831216F0808A7401121B31ACA2
:104BE30082AD83121702024B677401121B31AC8230
:104BF300AD83121708024B677401121B31AC82ADEF
:104C030083121714024B677401121B31AC82AD83FC
:104C1300121720024B677407024B5212158E74133E
:104C2300121AFC024ADE74F6121B3DECFEEDFF7510
:104C330008D27509167808121D307902125F07121F
:104C43001AFCE9F5088E828F83E0F9121678A90819
:104C5300801B7808121D307402121B31AC82AD83A5
:104C63001262B47402121AFC7410121AFC7F02024C
:104C73001C0374F2121B3D74E0121AE6EAFEEBFF0A
:104C83008C0A8D0B742E121B311251397C107D004E
:104C93007900851082851183AA82AB8312024A9020
:104CA3000631E0A2E24003024E2190112AE0700295
:104CB300A3E07003024D60124F437003A3E06F60E3
:104CC30003024D60125DA66003024D60126252FC46
:104CD30074066C70447410121B3185820C85830D2D
:104CE300780C121D3090112AE0244BF50CA3E0340C
:104CF30000F50D780C121D3090112AE0242B125769
:104D0300D4121AFCE97056124E34121D307412126A
:104D13001B31AC82AD83024DCF124E527001EB605A
:104D23003C1258B474116C6003024DEDE0650870D9
:104D330004A3E065097021750C08750D00780C1249
:104D43001D30124E40121AFCE96401700B124E34EE
:104D5300121D3012659D80747932121678EEFAEFC7
:104D6300FB120FDC8A0C8B0DA80CA90DE87001E96E
:104D73007003024E21E82420F50CE93400F50D857B
:104D83000C82F583125FE0EA7001EB7003024E219F
:104D9300EA2410F582EB1264EC65087004A3E06565
:104DA30009707B7508087509007808121D30124ECA
:104DB30040121AFCE964017065850C82850D83122B
:104DC300624C1264E6F5087808121D307402121B57
:104DD30031125AF5121AFCEEFAEFFB851082851197
:104DE30083AC82AD83120C34803BE065087004A36E
:104DF300E065096003024D60750C08750D00780CC1
:104E0300121D30124E40121AFCE964016003024D78
:104E13006012659D1264E6F50875090080A9EEFA33
:104E2300EFFB120C3A79017420121AFC7F06021C64
:104E33000312168AE9F508750900780822EA241294
:104E4300FCEB3400FDAA0AAB0B120244740222905D
:104E5300112AE0245B12594DFAA3E0FBEA2274F411
:104E6300121B3DEAFEEBFF890890112AE07002A3B2
:104E7300E07003024F0B124F437003A3E06F600314
:104E8300024F0B1254A1FA74066A706C124F37E08A
:104E9300605C90112B1262A2A2E0501A125141F5EC
:104EA300838C82A3A3A3A3A3E0A2E0500974078881
:104EB300828983F080778A828B83E05402600912AF
:104EC30058C36004740980E78A828B83E0540460CA
:104ED3000E1262906009740B88828983F0804E12EF
:104EE3001684124F7070467900121678803F12169E
:104EF3007E124F70703780EF74116A700BE5086093
:104F030003750832A90880E1E5087018EEFA120F5C
:104F1300DC8A828B83E5827002E5836007A3A3A307
:104F2300E0D2E4F0EEFAEFFBA9081208E679017F7C
:104F330004021C0390112AE0FAA3E0F5838A82227B
:104F43001254966E22C082C08390112AE07002A38D
:104F5300E060171256B9700512167E80031216848C
:104F6300124F70700579001216780259E5125938FC
:104F730064122274F0121B3D74E3121AE6740D12CC
:104F83001B31EAF0A3EBF0740B121B31ECF0A3ED31
:104F93001254D07002A3E070057912025134125FEB
:104FA300DA120FDC8A088B09AE08AF09EE7001EF45
:104FB3007005791402513490112AE02405124A161F
:104FC300125FE01259726076125175C0E0740112DB
:104FD3001B31D0E0125AAC121B31125A8CC0E07450
:104FE30004121B31D0E0125AA3121B31AC82AD83E1
:104FF3008983888274021219F9851082851183A826
:1050030082A9837409121B31E8F0A3E912515712E4
:10501300513912077EE9F50A7900120784740712E1
:105023001B31EAF0A3EBF08E828F83A3A3A3A3E04B
:10503300F50BEE2405F50EEF3400F50F80771251D2
:1050430041FD7409121B31ECF0A3EDF0125175C050
:10505300E07401121B31D0E0125AAC121B31125A08
:105063008CC0E07404121B31D0E0125AA3121B311E
:10507300AC82AD838983888274021219F985108208
:1050830085118385820885830912077EE9F50B79EB
:10509300001207848A0E8B0F8E828F83A3A3A3A390
:1050A300E0F50AEE2405F8EF3400F97407121B311A
:1050B300E8F0A3E9F07416121B31AC82AD83AA08A1
:1050C300AB091216A8740F121B31AC82AD8374099D
:1050D300121B31125FE01216A2742D121B31121D26
:1050E3004B780E121D30E50BF5087808121D347449
:1050F3000C121B31121D4B7416121B31858208854D
:1051030083097808121D30741F121B3185820885AC
:1051130083097808121D30A90A7416121B31126212
:105123004C7418121B31125FE01215A0740B121A83
:10513300FC741D025E9FE0F508A3E0F509221251FD
:10514300452290112AE024181257E88C828D83E0BF
:10515300FCA3E022F090112AE024181251622212DB
:10516300516622F812516B22A3E03400F988828938
:1051730083228A828B83E0851082851183125ABC35
:10518300124F3BA3E02274F0121B3D74FF121AE688
:10519300E9851082851183F08A0A8B0BECFEEDFF03
:1051A300750800120FDC8A0E8B0FEA7001EB700595
:1051B30079080252A690112AE07002A3E06003026C
:1051C3005266851082851183E0640B703990063135
:1051D300E0A2E3502CEEFAEFFB1215B88908780829
:1051E300121D34E50E2405FCE50F3400FDAA0AABBD
:1051F3000B850E82850F83E0F91207967401121A4C
:10520300FC79000252A6E0640170F6900631E0A238
:10521300E250EEEE2402FAEF3400FB1215B8E9FA7D
:105223008E828F83A3A3A3A3A37402121D4F8E8226
:105233008F83A3A3A3A3E0F5087808121D34EAF52E
:10524300087808121D348E828F83A3E0FD8E828F2F
:1052530083E0FCAA0AAB0B79001208EC7404121A5F
:10526300FC809E125492650A7004A3E0650B6003F0
:105273000251B3851082851183E0121D78010A67FC
:10528300549A52AB52B45217536D54205390539ABD
:1052930053F053FA536754EEFAEFFB121624E9F571
:1052A30008A9087401025E9FEEFAEFFB12162A802A
:1052B300ED750900750A10750B00780A121D30EEA2
:1052C300FCEFFD90112AE0243B125959121AFC12EB
:1052D30056B96014121654E960037509081256543E
:1052E3007405F085090880B91254A164047004742C
:1052F3000380EF90112AE0241BF50AA3E03400F5A4
:105303000B780A121D301254C1121AFC12164EE900
:1053130070C880C9EEFAEFFB1216308081125483F5
:1053230074076A6008740C6A60030254671254B706
:105333007002A3E0700A7A1B125475245D1254ACF8
:1053430090112AE0245D124E587001EB7003025451
:1053530067750A10750B00780A121D30EEFCEFFD1D
:10536300125AF9121AFC12168AE9C0E01254B71243
:105373004A14D0E01254D012628412548B700A740F
:105383000888828983F00252A4740D80F4EEFAEF48
:10539300FB1216360252A112548374096A60087410
:1053A3000E6A60030254671259437002A3E0700A45
:1053B3007A16125475245F1254AC90112AE0245FBC
:1053C300124E587001EB6015750A10750B00780AC0
:1053D300121D30EEFCEFFD125AF9121AFC12627C18
:1053E30012548B7004740A8098740F8094EEFAEF51
:1053F300FB12163C0252A11262727002A3E07019F2
:105403007A14125D9C2461124A16125AB87002A3D0
:10541300E070067508080252A490112AE024611274
:105423004E587001EB602A750A10750B00780A124A
:105433001D30EEFCEFFD125AF9121AFC909084789D
:105443000C1219CE1262722410124A16780C121919
:10545300DD1256B960061216420252A479001216E2
:10546300780252A47508070252A48E828F83E0F952
:1054730080EC7B001202CE8A0A8B0B90112AE02269
:1054830090112B12593EFA22124F37E06401221277
:1054930054962212549A221256DCA3A3E0229011AE
:1054A3002AE024010812594E22126263E50AF0A38E
:1054B300E50BF02290112AE0245D12594D22901140
:1054C3002AE0242B1257DD121618740222F09011D1
:1054D3002AE02274F6121B3D7E0090112AE070022E
:1054E300A3E060051256B960057E070255911216B6
:1054F3005AE9FA600302558512164890112AE024EE
:1055030005126596E8FCE9FD8C828D83E012559BBC
:10551300500812568D600312567812568560147423
:10552300036A600574046A700E79011256BE74042E
:10553300F0805B790280F474016A600574056A7017
:105543004D12559674021254D01256508882898394
:10555300E06401700B7C107D00790012024A801D0B
:105563007508108E097808121D308C828D83E02413
:10557300021257E8125AF9121AFC1256731256AD58
:10558300800C74186A70050E0E0E80027E08EEF908
:10559300024C70124F37A322241212594DA2E0225B
:1055A30074F6121B3D7E001256B970057E07025633
:1055B3004D12165AE9FA60030256451265AB1255AD
:1055C3009B500812568D6003125678125685600A56
:1055D30074036A600974046A700E790180027902A7
:1055E3001256BE7403F0806274016A600574056A22
:1055F30070581256547402F07C107D00790090119B
:105603002AE012565012024A1256656401601D7553
:1056130008108E097808121D301265AB2402FCA312
:10562300E03400125952121AFC1256731256991290
:105633001D301254C1121AFC12164EE9600C7E087A
:10564300800874186A70F70E0E0E0255911257EF08
:1056530022125659A32290112AE0F8A3E0F5838879
:1056630082221256692290112AE0241A12651A2204
:105673001256CBF02290112AE0241712594DD2E092
:10568300F022125669FA74026A2212651012565DEC
:10569300A3A3E05403221256AD90112AE0241BF574
:1056A30008A3E03400F509780822791090112AE064
:1056B300242B1265CE22125659E0221265281208B5
:1056C300F21256CB1256D72290112AE024171265F4
:1056D3001AD2E222F01256DC2290112AE0F8A31229
:1056E30056E622E0F5838882A32274F6121B3D74EA
:1056F300E0121AE67E007508108E097808121D3034
:10570300EAFCEBFD90112AE0244B125959121AFCC2
:105713007410121B318582088583097808121D30A5
:1057230090112AE0244B1254C7121AFC7508108EEC
:10573300097808121D3090112AE0243B1257E874AF
:1057430012121B31AA82AB831202447402121AFC96
:10575300E96401706C1256B9605D8510828511830E
:105763008582088583097808121D3090112AE02468
:105773002BF508A3E01257CD121D3090112AE02417
:105783004B1257D4121AFCE9702312168A8E088E14
:10579300097808121D307808121D307404121B3169
:1057A300AC82AD831257F8121AFCE960027E08122C
:1057B30056547406F0800C121654E960F27E088089
:1057C300027E04EEF97420024C6D3400F50978086A
:1057D300221257DD1215AC7404221257E890112AD5
:1057E300E01257EF22FCA3E03400FD222407FAA3C2
:1057F300E03400FB2212652812166074042274F64A
:10580300121B3DEAFCEBFD90112AE0245D124E5879
:105813007001EB70030258AF125934FE74086E60C6
:1058230008740D6E60030258AF8C828D83125EA7DD
:105833001258B4E8F0A3E9125F0D121D30EC2402F4
:105843000C0CED3400FDEA2412FAEB3400FB125A7F
:10585300F9121AFC125965702AE05402600E1258AC
:10586300C3600974098A828B83F0803C88828983B0
:10587300E05404600912597F6004740B80E7121628
:10588300428025E0541060091259EC6004740E80C4
:10589300D488828983E054206009125A006004741A
:1058A3001080C27900121678790080027907024CC1
:1058B300701258B822EA2410F582EB3400F58322E3
:1058C3001259F254022274F6121B3D125934FC741D
:1058D3000A6C6005740F6C705375080675090078BF
:1058E30008121D308A828B83A3AC82AD8312594385
:1058F3002410125959121AFC1259657018E05404F5
:10590300600E12597F6009740B8A828B83F08018B2
:105913001216428013E054206009125A0060047486
:105923001080E67900121678790080027907024C1C
:10593300701259382290112AE0F8A31256E6E02299
:1059430090112AE0245F12594D22F812651B22FDA3
:1059530090112AE02407FAA3E03400FB1202327408
:1059630002221262C81259726401888289832290CA
:10597300112AE0FCA3E0F5838C82E02212598554BE
:10598300042290112AE02418125166E0F8A3125958
:1059930095221256E6A3A3A3A3E022C082C08312DA
:1059A30062BD6005126296701C88828983E0541080
:1059B30060051259EC700E88828983E054206011CF
:1059C300125A00600C74068A828B83F0121684804C
:1059D3000774128A828B83F0124F7070057900125C
:1059E3001678D083D0820201141259F25410221275
:1059F3005145F5838C82A3A3A3A3A3E02212598567
:105A030054202274F6121B3D74F9121AE690112ADF
:105A1300E07002A3E0606B90112AE0240512627823
:105A2300124F3B125179C0E07401121B31D0E012C6
:105A33005AAC121B31125A8CC0E07404121B31D0C1
:105A4300E0125AA3121B31AC82AD8389838882741E
:105A5300021219F9125FDA125DA6601E7508A275AB
:105A630009167808121D307402121B31AC82AD8303
:105A73007907125F07121AFC800A7508A8750916C0
:105A830080E079017407024C6DAA82AB831215BEC4
:105A930090112AE0240512594D2415126263E02265
:105AA300125ABC126594740522125ABC241212595C
:105AB3004DF9740222EAF0A3EBF088828983E02295
:105AC30074F6121B3D74F0121AE67508107509007E
:105AD3007808121D3090112AE0241B1257E8740233
:105AE300121B31125AF5121AFC7508BA75091602FF
:105AF3004C55AA82AB8312023274022274F6121B33
:105B03003D74F0121AE67508107509007808121D25
:105B13003090112AE0242B1257E87402121B311221
:105B23005AF5121AFC7508C6750916024C5574F01D
:105B3300121B3D8A0C8B0D7E007A07125D9C241884
