:020000040000FA
:060000000200FC021C914D
:03002B00021F228F
:03003300021F0B9E
:03005300021D0784
:03006B00021EF181
:10008300021BD374F855C74401F5C7790122000058
:100093000080FB120086B900030200E6E4791278BF
:1000A30002B800028004F709D8FCE49003C178F792
:1000B300790D8002F0A3D8FCD9FA9010B7AA82ABCD
:1000C3008390012C78B779018015E493A3AC82ADBA
:1000D300838A828B83F0A3AA82AB838C828D83D89D
:1000E300E9D9E77582D67583BF740312010E758251
:1000F30091758300740012010E75D00075813F75F0
:1001030010C1751103759F00020096C09FF59FE40F
:1001130073D09F22D083D082C09FE493C0E0740148
:1001230093C0E0740293F59F22FF0000007800283B
:10013300002800283075A000A000A000A00000083F
:100143000008E001F0001000100010001000100083
:10015300100050005000500010001000D0070000A5
:10016300000000000F00307507001000307500001C
:10017300FFFF020202EE90010000D99002DC900121
:1001830000000011021A90010000ED0302DC90014F
:100193000000011102E8900100000204FFFF0100CA
:1001A3002002EE90010000D69002DC900100002EA8
:1001B3001102DE900000000000300B300B300B30DA
:1001C3000B300B300B300B300B300B300B300B3054
:1001D3000B300BFFFF01E803053310FF00FEFF1296
:1001E3000117E9B803120117FFB8031201172CB95D
:1001F300031201175CB90312011773B90312011734
:1002030094B903120117C5B90312011716BA0312E1
:1002130001172DBA031201170CB10312011723B1F1
:100223000312011752B1031201178BB10312011705
:10023300B3B103120117E1B103120117F8B10312AD
:1002430001170FB20312011726B2031201174DB2A1
:100253000312011761B20312011777B203120117D8
:10026300A0B20312011726BC0212011722BD02120B
:1002730001174CBD02120117A4BD02120117C6BD1E
:1002830002120117C8BD02120117CBBD02120117DA
:10029300EDBD02120117E4BE02120117A0BF021244
:1002A300011764C002120117C5C002120117A7C1CA
:1002B30002120117AAC1021201172CC2021201175E
:1002C3002FC20212011781C20212011784C2021245
:1002D3000117BBC2021201172AC30212011761C31D
:1002E30002120117EEC30212011738C402120117DA
:1002F30047C4021201174AC402120117ABC4021207
:100303000117CAC40212011742C50212011745C5DB
:100313000212011768C5021201176BC502120117F9
:1003230017C6021201172DC60212011764C6021264
:10033300011792C602120117A1C602120117A4C621
:100343000212011712C702120117EEC70212011798
:10035300A9C8021201171C8603120117F3860312A0
:1003630001171B87031201174F87031201179A877F
:1003730003120117F187031201172F8803120117C4
:100383006E88031201179E88031201172589031231
:1003930001172F89031201174489031201177B895F
:1003A30003120117678A03120117738A03120117D5
:1003B3008B8A03120117958A03120117168B0312F6
:1003C30001179A9F021201178EA002120117CDA0E6
:1003D3000212011712A102120117F6A1021201174C
:1003E3004BA2021201176CA20212011750A30212B0
:1003F300011784A3021201172FA40212011776A476
:1004030002120117D3A402120117ECA4021201175E
:1004130009A5021201171FA5021201175CA50212FA
:100423000117A0A50212011784A60212011734A70F
:10043300021201179FAA0212011732AC021201170E
:1004430084AC02120117A2AD02120117C0AD021251
:1004530001172F5300120117D254001201175255DE
:1004630000120117E055001201177A570012011705
:100473009D57001201174B5800120117CD58001257
:100483000117B65900120117F75A00120117C15B81
:10049300001201173F5C001201174D5C0012011797
:1004A300AE5C001201178B5D00120117DB5D0012B9
:1004B3000117FE5D00120117FC5F00120117476070
:1004C300001201176C6000120117E7600012011798
:1004D300F76100120117DD62001201171F95031265
:1004E30001172F95031201175595031201170B9747
:1004F30003120117079803120117CDA30312011763
:1005030035A40312011775A40312011731A60312B0
:1005130001179D65001201171E66001201172E6652
:10052300001201170F670012011719670012011754
:100533006267001201176D67001201174668001207
:100543000117956800120117466900120117116B14
:10055300001201179A6C00120117176D0012011790
:10056300F86D001201178B7100120117327200121D
:1005730001176E7300120117C0740012011766751C
:1005830000120117B37500120117E7750012011766
:1005930087760012011715770012011724900212B3
:1005A30001177A9002120117CD9102120117DD9102
:1005B300021201170092021201174B920212011745
:1005C300F492021201170C9402120117F49402120E
:1005D30001175096021201178D96021201172E97DA
:1005E30002120117569702120117419902120117BD
:1005F300469902120117319B021201177A9B0212CC
:100603000117EB9B02120117179C02120117AC9CF6
:10061300021201177C9D02120117B19D02120117EC
:10062300B49D021201170A9E021201174C9E021278
:100633000117BE9E021201177BAC031201178EAC89
:100643000312011797AC03120117B0AC0312011781
:10065300FDAC03120117D9AD031201177AAE0312D1
:100663000117C7AE03120117523C00120117903C49
:1006730000120117D73C00120117EB3D00120117BE
:100683003F3E00120117113F00120117473F0012AE
:1006930001177D3F001201179B4100120117904380
:1006A300001201174245001201177A460012011782
:1006B300DC4800120117484A00120117944B00123C
:1006C3000117E54C001201172B4D001201170B52B5
:1006D30000120117B7520012011703E502120117A6
:1006E3000DE502120117CCE50212011711E6021201
:1006F300011735E60212011777E602120117B8E671
:1007030002120117E3E60212011739E80212011778
:1007130069E802120117EAE80212011728E9021236
:100723000117BDEA02120117E0EA02120117B6EB44
:1007330002120117F0EB0212011735EC0212011736
:1007430078EC02120117C0EC0212011709ED021234
:10075300011734ED021201178DA003120117C9A06E
:10076300031201172EA103120117EDA103120117A2
:10077300CEA203120117DFA2031201174BA3031228
:1007830001178ADC02120117A6DC02120117A9DC89
:100793000212011764DD0212011783DD0212011731
:1007A3000BDE02120117B6DF02120117D5E00212A7
:1007B3000117DCE10212011709E202120117A6E296
:1007C3000212011773E30212011774E402120117F4
:1007D300D2E4021201172DBD031201175ABD0312F1
:1007E300011798BD03120117A2BD03120117ACBD77
:1007F30003120117BEBD0312011758BB03120117E1
:10080300C1BB0312011715BC031201178E9003120B
:100813000117F890031201174291031201173B923B
:10082300031201175693031201174B940312011776
:1008330075F502120117B8F5021201179BF60212A1
:100843000117A4F7021201177FF802120117E8F843
:1008530002120117F3F9021201175BFA02120117D0
:100863005EFA0212011789FA02120117F4FA021250
:100873000117A5FB02120117BEFB0212011703FCAD
:10088300021201171DFC0212011720FC02120117AC
:100893002E9D031201176B9D03120117A49D0312D2
:1008A3000117529E03120117C59E03120117029FDF
:1008B30003120117299F031201175B9F03120117EC
:1008C300809F03120117FA9F0312011743A003121B
:1008D3000117F29001120117EE91011201174E93C5
:1008E30001120117359401120117619401120117C6
:1008F300969401120117AC9401120117F794011297
:100903000117699501120117CA950112011745963E
:1009130001120117209801120117C899011201173A
:100923001B9B01120117B29B011201172B9D011290
:1009330001174AA10112011769A1011201179EA112
:10094300011201178CA301120117B8A50112011797
:1009530028A6011201177DA601120117C9A60112CB
:100963000117E9A60112011736A7011201178DA776
:1009730001120117D7A70112011730A8011201179D
:10098300E8A801120117D6A9011201177CAA0112C6
:100993000117B1AA01120117E6AA011201171DAB33
:1009A300011201172DAB0112011739AB0112011707
:1009B3004DAB01120117FFAB0112011740AC01123D
:1009C300011701AE01120117BEAE0112011713AFD9
:1009D300011201178BAF011201171BB0011201178E
:1009E30048B10112011784B101120117EFB20112CC
:1009F30001171CB40112011743B40112011765B4A6
:100A03000112011774B40112011777B4011201170F
:100A130037B501120117F6B501120117ABB6011272
:100A2300011709B70112011751B70112011767B76F
:100A33000112011710B801120117D0B801120117E2
:100A430070B901120117EFB9011201174DBA011262
:100A53000117ADBA01120117CCBA011201176DBB10
:100A63000112011747BD0112011787BD01120117BA
:100A730008BE0112011780BE01120117FBBE01124D
:100A830001174DBF01120117A0BF01120117C6BF05
:100A930001120117FFBF0112011764C001120117F0
:100AA300B4C001120117F7C10112011773C2011279
:100AB30001175FC30112011795C301120117BCC3CC
:100AC3000112011709C401120117EBC40112011726
:100AD3001EC50112011747C50112011792C5011264
:100AE3000117BFC50112011702C60112011721C662
:100AF300011201177CC60112011797C601120117D3
:100B0300E4C601120117F7C60112011714C7011237
:100B1300011729C70112011730C80112011762C951
:100B2300011201178FCA011201175ECB01120117BF
:100B330010CD011201172ECD0112011741D0011260
:100B43000117B8D001120117E8D00112011746D5D9
:100B5300011201174CD5011201176FD701120117AA
:100B6300E6DB0112011702DC01120117ACDC0112F2
:100B73000117FBDC0112011719DD0112011738DD22
:100B8300011201172EDF011201175CE00112011798
:100B93008AE001120117BBE001120117E9EC01120F
:100BA300011729EE0112011764EF0112011717F063
:100BB3000112011745F0011201175EF0011201172E
:100BC300A0F001120117DEF00112011788F10112E2
:100BD30001175BF201120117A3F20112011701F3CE
:100BE3000112011740F3011201177BF301120117E0
:100BF300BEF30112011787F40112011729F501123F
:100C0300011744F5011201177FF50112011768F668
:100C130001120117DEF601120117F2F60112011794
:100C23001DF70112011750F7011201178FF7011277
:100C33000117C6F7011201170EF8011201176FF819
:100C430001120117B1F801120117C5F801120117BA
:100C5300D8F801120117EFF80112011718F9011260
:100C630001172DF9011201175DF90112011770F92E
:100C73000112011781F901120117AAF901120117D3
:100C8300EDF90112011733FA0112011770FA01127B
:100C93000117D6FA01120117EFFA01120117FAFA36
:100CA3000112011707FB011201171EFB01120117A5
:100CB3002CFB011201173EFB0112011753FB01121A
:100CC300011768FB0112011773FB011201177FFB68
:100CD300011201178CFB01120117ADFB0112011761
:100CE300B8FB01120117DFFB0112011789FC011286
:100CF300011799FC01120117AEFC01120117C3FC85
:100D030001120117DDFC01120117F8FC0112011792
:100D130016FD0112011721FD01120117A2FD011297
:100D230001175CFE0112011767FE011201177CFE19
:100D33000112011787FE01120117E7FE01120117C5
:100D4300EDFE01120117F3FE01120117F9FE011264
:100D53000117FFFE0112011719FF0112011746FFC8
:100D6300011201173FAE02120117DFAE0212011783
:100D730074B002120117CDB202120117A9B3021205
:100D83000117D2B30212011710B40212011780B473
:100D93000212011737B60212011760B602120117C9
:100DA300ECB6021201171EB7021201172BB702127B
:100DB300011776B7021201179FB7021201177DBA06
:100DC3000212011776BB02120117CEBB02120117E2
:100DD3002E1F001201173E2000120117D920001206
:100DE30001170221001201170E21001201174822D8
:100DF3000012011794220012011780240012011718
:100E0300672500120117952500120117A827001264
:100E13000117F52A00120117C22B001201170C2D1E
:100E230000120117202E00120117E82E00120117DD
:100E3300BD2F00120117253000120117E2300012F6
:100E430001171E3100120117503100120117E83348
:100E530000120117CC3400120117363500120117A6
:100E63008635001201170536001201176B36001282
:100E73000117003900120117F73B00120117D3B510
:100E830003120117F8B5031201176DB60312011708
:100E93000678001201171678001201171E78001247
:100EA3000117067900120117927A00120117C67A08
:100EB30000120117F97A001201172D7B0012011796
:100EC300607B00120117907B00120117C27B001296
:100ED3000117097C001201173C7C00120117837C67
:100EE30000120117DD7C00120117107D001201179B
:100EF300647D00120117977D00120117EA7D00122D
:100F030001172D7E00120117607E00120117997ED2
:100F130000120117D37E00120117E5D30212011745
:100F2300EFD30212011735D40212011780D4021233
:100F33000117BCD40212011718D50212011740D5AC
:100F43000212011736D8021201173FD802120117F5
:100F530095D802120117C0D802120117CDD8021278
:100F630001173FD902120117C8D90212011731DA4A
:100F7300021201176ADA02120117EBDA02120117E1
:100F83002ADB021201175EDB0212011770DB021269
:100F930001178FDB0212011798DB021201175ADCCB
:100FA3000212011743BC03120117F3AE0312011718
:100FB3002BAF031201175FAF03120117CEB0031259
:100FC300011745BF031201175BBF0312011765BF6A
:100FD30003120117AFBF0312011750990312011730
:100FE3006899031201170E9A031201174F9A0312FD
:100FF30001176C9A031201178F9A03120117D69ADD
:10100300031201170C9B03120117439B03120117D1
:10101300D29C03120117169D03120117747F00124D
:101023000117B2B203120117D5B20312011704B3A9
:10103300031201179BB303120117B4B30312011771
:10104300F9B303120117008003120117448003123E
:101053000117CF8003120117E280031201173D81AC
:10106300031201179A8103120117DF81031201177B
:10107300EE81031201179A8203120117F2820312FF
:1010830001174183031201179C8303120117A584DF
:1010930003120117A88503120117E2850312011732
:1010A300008002120117AA8102120117E0820212C4
:1010B3000117A483021201172E84021201174C8414
:1010C30002120117BA8402120117018A02120117D0
:1010D300A68A02120117DA8A02120117E68B02129C
:1010E3000117158C021201175F8C02120117938CE2
:1010F30002120117B58C02120117A08D02120117FB
:10110300D48D02120117578E02120117728E02122A
:101113000117CD8E02120117A18F02120117F0BD24
:101123000312011701BE0312011733C00312011783
:101133007EC003120117B0C003120117A7BE03122A
:101143000117B7BE03120117CFBE0312011742BF27
:101153000312011744BA03120117CDBA0312011780
:101163003FBB0312011743B40312011769B40312FF
:101173000117CFB403120117EFB4031201173CB5E3
:101183000312011795B503120117C6B50312011710
:10119300C9B50312011745FC021201175AFC0212CA
:1011A3000117A2FD0212011738FE02120117ACFE4D
:1011B30002120117C8FE02120117DDFE0212011707
:1011C300EBFE0212011705FF021201171CFF0212A8
:1011D300011746FF0212011797FF02120117898BAD
:1011E30003120117978B03120117178C03120117B0
:1011F300118D03120117AB8F031201171090031205
:1012030001177C9003120117F87F00120117E8A65B
:10121300031201173EA903120117B4A90312011700
:1012230060B703120117B3B70312011711B8031202
:1012330001177CB803120117B7A903120117E2A91A
:1012430003120117B8AA0312011791AB0312011776
:101253000FAC031201175FED0212011749EE0212E0
:10126300011787EE02120117DDEE0212011732EFAA
:10127300021201178FEF0212011724F00212011755
:101283002EF1021201170AF30212011790F3021250
:101293000117F3F30212011701F4021201172AF5E1
:1012A3000212011720C90212011747CA02120117BD
:1012B3002DCB021201176CCD0212011734CE02128C
:1012C30001175BCE0212011777D002120117C7D0A4
:1012D3000212011776D102120117AFD202120117BF
:1012E30058D302120117CEFF02120117BBFF0112DE
:1012F300011788C003120117D37F00E0667010083E
:10130300A3E066700A08A3E066700408A3E06622FF
:10131300C3E7960809E7960809E7960809E79622BE
:10132300C3E09608A3E09608A3E09608A3E09622FC
:10133300080808EAC0E0EBC0E086F0E7A4FA180961
:1013430086F0E7A42AFA180986F0E7A42AFA18090E
:1013530086F0E7A42AFA1986F0E7A4FBE5F02AFA57
:10136300190886F0E7A42BFBE5F03AFA190886F092
:10137300E7A42BFBE5F03AFA18180986F0E7A4C5B1
:10138300F02BFBE43AFA1908E7C5F0C6A426F6E504
:10139300F03BFBE43AFA1886F0E7A4F6E5F00826FA
:1013A300F6E43B08F6E43A08F6D0E0FBD0E0FA2294
:1013B300E4CFC0E0E4CEC0E0E4CDC0E0E4CCC0E0E4
:1013C30075F020C3E633F608E633F608E633F6088D
:1013D300E633F6181818EC33FCED33FDEE33FEEF6D
:1013E30033FFC3EC9709ED9709EE9709EF971919A6
:1013F30019400FFFEC97FC09ED97FD09EE97FE19D5
:101403001906D5F0BEECF709EDF709EEF709EFF78A
:10141300191919D0E0FCD0E0FDD0E0FED0E0FF22A6
:101423006016080808C6C313C618C613C618C61321
:10143300C618C613C6D5E0EA227009080808226058
:1014430016181818C6C333C608C633C608C633C62B
:1014530008C633C6D5E0EA22E627F60809E637F6DA
:101463000809E637F60809E637F622E026F608A368
:10147300E036F608A3E036F608A3E036F622E026C7
:10148300F008A3E036F008A3E036F008A3E036F056
:1014930022C3E697F60809E697F60809E697F608E1
:1014A30009E697F622C3E0C696F608A3E0C696F6C9
:1014B30008A3E0C696F608A3E0C696F622E657F61A
:1014C3000809E657F60809E657F60809E657F6222B
:1014D300E056F608A3E056F608A3E056F608A3E0A4
:1014E30056F622E056F008A3E056F008A3E056F0C3
:1014F30008A3E056F022E046F608A3E046F608A368
:10150300E046F608A3E046F622E066F608A3E066A6
:10151300F608A3E066F608A3E066F622E0F608A361
:10152300E0F608A3E0F608A3E0F622E6F008A3E657
:10153300F008A3E6F008A3E6F022CAC0E0E6F0A3B1
:1015430008DAFAD0E0FA22CAC0E0E0A3C582CCC52B
:1015530082C583CDC583F0A3C582CCC582C583CDA7
:10156300C583DAE6D0E0CA22C3E498F8E499F91215
:1015730015AC8026C3E49AFAE49BFBE920E7E91261
:1015830015ACE498F8E499F922C3E498F8E499F9DE
:101593001215ACE498F8E499F9C3E49AFAE49BFBD6
:1015A30022EB20E7CFE920E7E0B90010BB0008E811
:1015B3008AF084F8AAF022E4FBC8FA22EB70227BBB
:1015C30010C833C8C933C9335007C39AC3DBF28089
:1015D300069A50012ADBEAC833F4C8C933F4C9FABE
:1015E3002275F008E4C833C8C933C933C99AC99B03
:1015F3005004C92AC93BD5F0ECFBC833F4C8E4C98D
:10160300FA22600D08C6A2E713C618C613C6D5E0B2
:10161300F322600C08C6C313C618C613C6D5E0F47C
:1016230022700422600D18C6C333C608C633C6D55C
:10163300E0F41822251010AF08F5104002151180B0
:1016430008F51040021511D2AF22C0D0251010AFFB
:1016530008F510500205118008F51050020511D24B
:10166300AFD0D0222510F58210AF08F51040021537
:10167300118008F51040021511D2AF851183222580
:1016830010F582E43511F58322E4732510C582C079
:10169300E0E51134FFC583C0E0E510C3958224F86B
:1016A300F8E4C5A8858311858210C5A8E8CEF0A308
:1016B300E520F0A37808E608F0A3DEFAEFF0A3E54F
:1016C3008124FAF8E608F0A3E608F0A3E608F0A3FD
:1016D3000808E608F0A3E608F0A315811581D0E019
:1016E300FED0E0F8158115811581E8C0E0EEC0E079
:1016F300222510C582C0E0E51134FFC583C0E0E5B3
:1017030010C3958224F9F8E4C5A885831185821056
:10171300C5A8E8CEF0A3E520F0A37808E608F0A377
:10172300DEFAEFF0A3E58124FBF8E608F0A3E60870
:10173300F0A30808E608F0A3E608F0A315811581D5
:10174300D0E0FED0E0F815811581E8C0E0EEC0E0FE
:1017530022851183851082E0A3FEE0A3F52078089B
:10176300E0A3F608DFFAE0A3FFE0A3C0E0E0A3C034
:10177300E0E0A3C0E0E0A3C0E0E0A3C0E0E4C5A8CC
:10178300858210858311C5A8D083D0820201148578
:101793001183851082E0A3FEE0A3F5207808E0A37F
:1017A300F608DFFAE0A3FFE0A3C0E0E0A3C0E0E0B7
:1017B300A3C0E0E0A3C0E0E4C5A88582108583113F
:1017C300C5A8D083D08222C0D02510C582C0E0E551
:1017D3001134FFC583C0E0E510C3958224F310AF35
:1017E300088583118582108008858311858210D234
:1017F300AFC8F0A3E9F0A3EAF0A3EBF0A37908E7FD
:1018030009F0A3D8FAECF0A3EDF0A3EEF0A3EFF008
:10181300A3D0E0F0A3D0E0F0A3D0E0F0A3E520F064
:10182300A3E5F0F0A322851183851082E0C0E0A335
:10183300E0F9A3E0FAA3E0FBA37808E0F608A3DF4E
:10184300FAE0FCA3E0FDA3E0FEA3E0FFA3E0C0E019
:10185300A3E0C0E0A3E0F5D0A3E0F520A3E0A3F567
:10186300F0E4C5A8858311858210C5A8D082D083F2
:10187300D0E0F8D0E0327404800674028002740170
:10188300C0E0F404121667D0E012153D2274048000
:101893000474028000CCC0E0EDC0E0E510C39CCC32
:1018A300AD1150011D10AF068C108D1180068C10E8
:1018B3008D11D2AF12154AD0E0FDD0E0FC22D083C7
:1018C300D082C5F0E493A3C5F0C395F0F5F0E4939B
:1018D300A3C395F04005E5F0048001E475F002A48C
:1018E3002582F582E5F03583F583E493A3C0E0E434
:1018F30093C0E022D083D082E9C0E0E493A3C386FF
:10190300F0C5F095F0F908E493A386F0C5F095F0DF
:10191300700BE493A3C3994005E9048002A3E47523
:10192300F002A42582F582E5F03583F583D0E0F952
:10193300E493A3C0E0E493C0E022D083D082CCC080
:10194300E0E493A360061219671470FAE493A360AA
:10195300061219861470FAD0E0FCE493A3C0E0E405
:1019630093C0E022C0E0E493A3D39C5010E493A37C
:10197300C39C400AD0E0D0E0D0E002195AA3A3A34D
:10198300D0E022C0E0E493A36C7009D0E0D0E0D0B3
:10199300E002195AA3A3D0E022D083D082ECC0E0A6
:1019A300EDC0E0E493A3FCE493A3FDED4C600D12C2
:1019B30019E8EC24FFFCED34FFFD80EFE493A3FC76
:1019C300E493A3FDED4C600D121A27EC24FFFCED0C
:1019D30034FFFD80EFD0E0FDD0E0FCE493A3C0E052
:1019E300E493C0E022C0E0C3E493960874019396A5
:1019F30018400FE49366700808740193661870002A
:101A03007019A3A3C3E49396087401939618A3A330
:101A1300400DD0E0D0E0D0E00219D8A3A3A3A3A344
:101A2300A3D0E022C0E0C0F088F0E4936670080819
:101A330074019366187000A8F0A3A3700BD0F0D0C4
:0F1A4300E0D0E0D0E00219D8A3A3D0F0D0E02289
:101A540074F51216F4EAFEEBFFEE2434F8EF3400CA
:101A6400F988088909EE2435121AF6F8EE2437129B
:101A74001AF6F50AEC850AF0A4FCAAF0850AF0ED42
:101A8400A42AFDEC28F8ED3400F97A257B00121520
:101A9400ACEA850882850983F05407F87401B8001C
:101AA400028004C333D8FCC0E0E0131313541FF8BE
:101AB400EE28F8EF3400F9745D28F582E439F583F3
:101AC400D0E0FAE05A8508828509837020E0C0E0FE
:101AD400EE2436121AF6F5F0D0E084A8F0EE28F8D9
:101AE400EF3400F9743828F582E439F583E0F9021B
:101AF4001ED4F582EF3400F583E02274F41216F458
:101B04008A088B09EA2434F582EB121AF9C0E0EA58
:101B14002435F582EB3400F583D0E0F08A828B83A0
:101B2400A3A3A3A3A3E0FAA3E0FB8508828509830A
:101B3400A3A3A3A3A3A3A3E0FCA3E0FDECC39AFE89
:101B4400ED9BFFE5082480F50AE5093400F50B85D3
:101B54000A82F583E06401702DE5082481F582E5AD
:101B6400093400F583121894121B9D740212164D49
:101B7400E960137CC97D08AA08AB09120A58E485F8
:101B84000A82850B83F0EEFCEFFDAA08AB09121A5A
:101B940054121EE37F05021792C082C0838510820F
:101BA400851183E0F8A3E0F9C3EA9CEB9D500BC3D5
:101BB400EC98ED99401279018010C3EA98EB9940B2
:101BC400F5C3EC98ED9950EE7900D083D08222C011
:101BD400E074EF1217CA759B00906182E0A2E65090
:101BE40059E591A2E650537591BF120C4475120049
:101BF400120CC2E99005C6F07900120CA41209B0C7
:101C04009005CBE0548164817024E0D2E6F0120C9C
:101C1400508A088B098C0A8D0B9090CE7808121488
:101C24006EAA08AB09AC0AAD0B120C26800C7A0123
:101C34007B009005C4E0F9120F7A906182E0A2E57E
:101C44005024E591A2E5501E7591DF9005C5E0642E
:101C54000D701390094FE004F064287002E4F07AE8
:101C640000E0F9120D58906181E0A2E35009E5E922
:101C7400A2E3500375E9F7906182E0A2E75009E519
:101C840091A2E7500375917F7F04021829C0E0C038
:101C9400D0C082C083906183E0A2E05009E5BFA276
:101CA400E0500375BFFEE0A2E15009E5BFA2E15098
:101CB4000375BFFDE0A2E25009E5BFA2E25003753F
:101CC400BFFBE0A2E35009E5BFA2E3500375BFF7F1
:101CD400E0A2E45009E5BFA2E4500375BFEFE0A21F
:101CE400E55009E5BFA2E5500375BFDFE0A2E65069
:101CF40009E5BFA2E6500375BFBFD083D082D0D020
:101D0400D0E032C0E074F21217CAE5A7A2E4500F83
:101D1400E5A1A2E4500953A7EF75A1EF121D72E5E6
:101D2400A7A2E55023E5A1A2E5501D53A7DF75A1A5
:101D3400DF9005CBE0A2E6500FC2E6F07A017B000B
:101D44009005C4E0F9120F7AE5A7A2E15009E5A1D4
:101D5400A2E1500375A1FDE5A7A2E2500CE5A1A202
:101D6400E2500653A7FB75A1FB7F0102182974F802
:101D74001216F47512017A007B00120C2CA2AFE447
:101D840092E0FED2AF7A207B009005C4E0F9120FF6
:101D9400FE7A207B009005C4E0F9120F80906182E6
:101DA400E0D2E6F085C61380189005CAE06401709D
:101DB4000874F855C64405F5C653BEFCE5BE121EAC
:101DC400DC7401651260E253BEFCE5BEEEA2E09253
:101DD400AF7F0102179274F11216F48A0C8B0D8CEA
:101DE4000E8D0F740F121682780812151F90903AF8
:101DF400780C1214D390903A78081214D3780C7992
:101E040008121313501C780C790812149490906ED5
:101E1400780812151F7808790C121313501C7901D5
:101E2400801A7808790C12149490906E780C12151C
:101E34001F780C790812131350E479007F080217F5
:101E44009274F11216F474FC1216378510828511FF
:101E540083EAF0A3EBF0A3ECF0A3EDF074131216F5
:101E640082780812151F90903A780C12151F85106D
:101E740082851183780C1214E690903A7808121433
:101E8400D38510828511837808121323401485109A
:101E940082851183780C12151F780C79081214941A
:101EA400801E750C00750D00750E00750F01780C01
:101EB4007908121494851082851183780C12146E9B
:101EC400AA0CAB0DAC0EAD0F740412164D021E40DD
:101ED4007F040217920000008512878513C622C072
:101EE40082C083E9906000F0D083D08222C0E07485
:101EF400F21217CAE589A2E1500312118475890010
:101F0400C2C57F01021829C0E074F21217CAE58B1A
:101F1400A2E05003121184758B00C2E880E4C0E093
:101F2400C2C753BEFCE5BED0E03274F112168E7403
:101F3400FE121637851082851183ECF0A3EDF0E9CB
:101F4400FF8A0E7411121682E0F50CA3E0F50D7EE3
:101F540000900EB1E07002A3E06005791102202820
:101F6400E50C7002E50D60417A1F7B001203628A62
:101F7400088B09A808A909E50C2415F508E50D3412
:101F840000F509850882F583E0C398E499401A7A3C
:101F9400207B001203628A0A850882850983E0FA9D
:101FA400C3E50A9AEB94005004790280777A637B44
:101FB40000120FB6900EB1EAF0A3EB122AEF7002F2
:101FC400A3E070047913805C7C637D007900120FB8
:101FD40038122C73E4122AEF122C7CEF122039E50C
:101FE4000EF08510828511831234C6122BB5A3A37B
:101FF400E8F0A3E9122039A3A3A3E50CF0A3E50DAF
:10200400122776E4F0A3122AEF122033E4F0EF60F3
:1020140005120E36E9FE122C737401F0EE60031201
:102024000E60EEF9740212164D7F07021754E02475
:102034001A12278122122CF6A32274F612168E7E0F
:1020440000900EB1E07002A3E0700579120220D670
:10205400122C84FF74026F600A74036F60057404A9
:102064006F70E8122AB16C7003A3E06D600479020A
:1020740080607508108E09780812187DEAFCEB124E
:102084002F7112164D122CB812187D122AE0121656
:102094004D12389B88828983E0FA900EB1E0FBA34D
:1020A400E0F5838B82E0600974036A702374028014
:1020B4001574046A7009740288828983F08011742B
:1020C400036A700C740588828983F0120E3CE9FE61
:1020D400EEF902228F74F712168EE9FE900EB1E02B
:1020E4007002A3E06013122AB16A7003A3E06B705C
:1020F4000874016E7003120E607F01021754C082CF
:10210400C0837917120E6602300474F712168E74A7
:10211400ED121637EAF8EBF9E4851082851183F0A5
:1021240088828983A3A3A31235FC8A828B83E0F57A
:1021340008E82402FEE93400FFE5081218C1010A88
:1021440038225C215C217A21C421D221E021EE21B4
:10215400FC210B221A2229227401121682AC82ADB0
:1021640083120EA2E9FA74126A7019740685108239
:10217400851183F0803A7401121682AC82AD831209
:102184000EAEE9FAEA701D7401121682AC82AD83B8
:10219400A9088E828F831235FF120E0CE9851082F6
:1021A400851183F0851082851183E0700302223D3E
:1021B400AC82AD838E828F831235FF120DEE807C4C
:1021C4007401121682AC82AD83120EBA80B474010B
:1021D400121682AC82AD83120EC680A6740112164A
:1021E40082AC82AD83120ED280987401121682AC36
:1021F40082AD83120EDE808A7401121682AC82AD27
:1022040083120EF00221867401121682AC82AD8311
:10221400120EF60221867401121682AC82AD83126C
:102224000F020221867401121682AC82AD83120F52
:102234000E0221867407022171120D7C741312168A
:102244004D0220FD74F612168EECFEEDFF7508C0EB
:1022540075090E780812187D790212352612164D6A
:10226400E9F5088E828F83E0F9120E66A908801BB7
:10227400780812187D7402121682AC82AD8312386B
:10228400D3740212164D741012164D7F02021754A5
:1022940074F212168E74E0121637EAFEEBFF8C0A03
:1022A4008D0B742E1216821227587C107D00790033
:1022B400851082851183AA82AB83120F389003C1E3
:1022C400E0A2E24003022440900EB1E07002A3E0D9
:1022D400700302237F1225627003A3E06F60030280
:1022E400237F1233C5600302237F123871FC740606
:1022F4006C7044741012168285820C85830D780CE0
:1023040012187D900EB1E0244BF50CA3E03400F5D7
:102314000D780C12187D900EB1E0242B122DF312BF
:10232400164DE9705612245312187D741212168237
:10233400AC82AD830223EE1224717001EB603C1277
:102344002ED374116C600302240CE065087004A39E
:10235400E065097021750C08750D00780C12187D64
:1023640012245F12164DE96401700B1224531218E3
:102374007D123BBC80747932120E66EEFAEFFB12CA
:1023840008A88A0C8B0DA80CA90DE87001E970034C
:10239400022440E82420F50CE93400F50D850C8274
:1023A400F5831235FFEA7001EB7003022440EA243E
:1023B40010F582EB123B0B65087004A3E06509700D
:1023C4007B750808750900780812187D12245F12BD
:1023D400164DE964017065850C82850D8312386B96
:1023E400123B05F508780812187D74021216821241
:1023F400311412164DEEFAEFFB851082851183AC71
:1024040082AD8312073A803BE065087004A3E0655F
:1024140009600302237F750C08750D00780C1218EF
:102424007D12245F12164DE96401600302237F12BA
:102434003BBC123B05F50875090080A9EEFAEFFBD9
:102444001207407901742012164D7F0602175412A8
:102454000E78E9F508750900780822EA2412FCEBE5
:102464003400FDAA0AAB0B120F32740222900EB193
:10247400E0245B122F6CFAA3E0FBEA2274F4121638
:102484008EEAFEEBFF8908900EB1E07002A3E070C3
:102494000302252A1225627003A3E06F600302255C
:1024A4002A122AC0FA74066A706C122556E0605C1F
:1024B400900EB21238C1A2E0501A122760F5838C34
:1024C40082A3A3A3A3A3E0A2E0500974078882898E
:1024D40083F080778A828B83E054026009122EE2B3
:1024E4006004740980E78A828B83E05404600E12CE
:1024F40038AF6009740B88828983F0804E120E72A3
:1025040012258F70467900120E66803F120E6C12EF
:10251400258F703780EF74116A700BE508600375BE
:102524000832A90880E1E5087018EEFA1208A88AB2
:10253400828B83E5827002E5836007A3A3A3E0D2C4
:10254400E4F0EEFAEFFBA9081204C479017F040257
:102554001754900EB1E0FAA3E0F5838A8222122A7E
:10256400B56E22C082C083900EB1E07002A3E06019
:1025740017122CD87005120E6C8003120E721225DD
:102584008F70057900120E66023004122F57641200
:102594002274F012168E74E3121637740D1216821A
:1025A400EAF0A3EBF0740B121682ECF0A3ED122AFE
:1025B400EF7002A3E0700579120227531235F91265
:1025C40008A88A088B09AE08AF09EE7001EF700500
:1025D4007914022753900EB1E024051220351235E8
:1025E400FF122F916076122794C0E07401121682B4
:1025F400D0E01230CB1216821230ABC0E074041259
:102604001682D0E01230C2121682AC82AD83898366
:102614008882740212154A851082851183A882A9C2
:10262400837409121682E8F0A3E912277612275858
:102634001203A4E9F50A79001203AA740712168298
:10264400EAF0A3EBF08E828F83A3A3A3A3E0F50BA0
:10265400EE2405F50EEF3400F50F8077122760FDA8
:102664007409121682ECF0A3EDF0122794C0E07402
:1026740001121682D0E01230CB1216821230ABC097
:10268400E07404121682D0E01230C2121682AC82B8
:10269400AD8389838882740212154A85108285115C
:1026A400838582088583091203A4E9F50B79001256
:1026B40003AA8A0E8B0F8E828F83A3A3A3A3E0F5B4
:1026C4000AEE2405F8EF3400F97407121682E8F0D4
:1026D400A3E9F07416121682AC82AD83AA08AB0982
:1026E400120E96740F121682AC82AD837409121600
:1026F400821235FF120E90742D12168212189478DD
:102704000E12187DE50BF5087808121881740C1266
:10271400168212189474161216828582088583090B
:10272400780812187D741F12168285820885830921
:10273400780812187DA90A741612168212386B745E
:10274400181216821235FF120D8E740B12164D7468
:102754001D0234BEE0F508A3E0F509221227642225
:10276400900EB1E02418122E078C828D83E0FCA316
:10277400E022F0900EB1E02418122781221227855E
:1027840022F812278A22A3E03400F988828983225E
:102794008A828B83E08510828511831230DB1225B7
:1027A4005AA3E02274F012168E74FF121637E985CC
:1027B4001082851183F08A0A8B0BECFEEDFF7508FD
:1027C400001208A88A0E8B0FEA7001EB70057908D5
:1027D4000228C5900EB1E07002A3E06003022885D0
:1027E400851082851183E0640B70399003C1E0A2E7
:1027F400E3502CEEFAEFFB120DA6890878081218A4
:1028040081E50E2405FCE50F3400FDAA0AAB0B8517
:102814000E82850F83E0F91203BC740112164D7900
:10282400000228C5E0640170F69003C1E0A2E25002
:10283400EEEE2402FAEF3400FB120DA6E9FA8E82C2
:102844008F83A3A3A3A3A374021218988E828F83E9
:10285400A3A3A3A3E0F5087808121881EAF5087881
:10286400081218818E828F83A3E0FD8E828F83E00D
:10287400FCAA0AAB0B79001204CA740412164D8028
:102884009E122AB1650A7004A3E0650B6003022757
:10289400D2851082851183E01218C1010A862AB9F3
:1028A40028CA28D32836298C2A3F29AF29B9290FC9
:1028B4002A192A862AEEFAEFFB120E12E9F508A964
:1028C4000874010234BEEEFAEFFB120E1880ED75A7
:1028D4000900750A10750B00780A12187DEEFCEFDA
:1028E400FD900EB1E0243B122F7812164D122CD815
:1028F4006014120E42E96003750908122C73740502
:10290400F085090880B9122AC06404700474038035
:10291400EF900EB1E0241BF50AA3E03400F50B7828
:102924000A12187D122AE012164D120E3CE970C8E4
:1029340080C9EEFAEFFB120E1E8081122AA27407E0
:102944006A6008740C6A6003022A86122AD670022E
:10295400A3E0700A7A1B122A94245D122ACB900EEB
:10296400B1E0245D1224777001EB7003022A8675AE
:102974000A10750B00780A12187DEEFCEFFD123177
:102984001812164D120E78E9C0E0122AD61220331E
:10299400D0E0122AEF1238A3122AAA700A74088807
:1029A400828983F00228C3740D80F4EEFAEFFB12DF
:1029B4000E240228C0122AA274096A6008740E6ADE
:1029C4006003022A86122F627002A3E0700A7A164C
:1029D400122A94245F122ACB900EB1E0245F1224B1
:1029E400777001EB6015750A10750B00780A1218E0
:1029F4007DEEFCEFFD12311812164D12389B122A8F
:102A0400AA7004740A8098740F8094EEFAEFFB1293
:102A14000E2A0228C01238917002A3E070197A14A9
:102A24001233BB24611220351230D77002A3E07038
:102A3400067508080228C3900EB1E02461122477B9
:102A44007001EB602A750A10750B00780A12187D64
:102A5400EEFCEFFD12311812164D909046780C12D0
:102A6400151F1238912410122035780C12152E12CD
:102A74002CD86006120E300228C37900120E6602AA
:102A840028C37508070228C38E828F83E0F980EC7F
:102A94007B00120FB68A0A8B0B900EB1E022900EC7
:102AA400B2122F5DFA22122556E0640122122AB5D1
:102AB40022122AB922122CFBA3A3E022900EB1E029
:102AC400240108122F6D22123882E50AF0A3E50BC7
:102AD400F022900EB1E0245D122F6C22900EB1E032
:102AE400242B122DFC120E06740222F0900EB1E07B
:102AF4002274F612168E7E00900EB1E07002A3E0EE
:102B04006005122CD860057E07022BB0120E48E92E
:102B1400FA6003022BA4120E36900EB1E0240512C3
:102B24003BB5E8FCE9FD8C828D83E0122BBA50089A
:102B3400122CAC6003122C97122CA4601474036A38
:102B4400600574046A700E7901122CDD7404F0803F
:102B54005B790280F474016A600574056A704D1231
:102B64002BB57402122AEF122C6F88828983E064D9
:102B740001700B7C107D007900120F38801D7508E0
:102B8400108E09780812187D8C828D83E02402123D
:102B94002E0712311812164D122C92122CCC800CC6
:102BA40074186A70050E0E0E80027E08EEF9022279
:102BB4008F122556A3222412122F6CA2E02274F63F
:102BC40012168E7E00122CD870057E07022C6C1211
:102BD4000E48E9FA6003022C64123BCA122BBA5065
:102BE40008122CAC6003122C97122CA4600A7403F4
:102BF4006A600974046A700E790180027902122CE9
:102C0400DD7403F0806274016A600574056A7058AB
:102C1400122C737402F07C107D007900900EB1E0E8
:102C2400122C6F120F38122C846401601D75081069
:102C34008E09780812187D123BCA2402FCA3E034E2
:102C440000122F7112164D122C92122CB812187DEC
:102C5400122AE012164D120E3CE9600C7E08800820
:102C640074186A70F70E0E0E022BB0122E0E22127A
:102C74002C78A322900EB1E0F8A3E0F58388822299
:102C8400122C8822900EB1E0241A123B3922122C05
:102C9400EAF022900EB1E02417122F6CD2E0F02259
:102CA400122C88FA74026A22123B2F122C7CA3A3E2
:102CB400E0540322122CCC900EB1E0241BF508A39F
:102CC400E03400F5097808227910900EB1E0242B45
:102CD400123BED22122C78E022123B471204D01250
:102CE4002CEA122CF622900EB1E02417123B39D2B2
:102CF400E222F0122CFB22900EB1E0F8A3122D0573
:102D040022E0F5838882A32274F612168E74E012F0
:102D140016377E007508108E09780812187DEAFCB3
:102D2400EBFD900EB1E0244B122F7812164D741067
:102D3400121682858208858309780812187D900E00
:102D4400B1E0244B122AE612164D7508108E09784C
:102D54000812187D900EB1E0243B122E0774121253
:102D64001682AA82AB83120F32740212164DE964E2
:102D740001706C122CD8605D851082851183858268
:102D840008858309780812187D900EB1E0242BF58C
:102D940008A3E0122DEC12187D900EB1E0244B1222
:102DA4002DF312164DE97023120E788E088E0978D1
:102DB4000812187D780812187D7404121682AC82E9
:102DC400AD83122E1712164DE960027E08122C7381
:102DD4007406F0800C120E42E960F27E0880027ED6
:102DE40004EEF9742002228C3400F50978082212CA
:102DF4002DFC120D9A740422122E07900EB1E012CB
:102E04002E0E22FCA3E03400FD222407FAA3E034B2
:102E140000FB22123B47120E4E74042274F6121663
:102E24008EEAFCEBFD900EB1E0245D122477700174
:102E3400EB7003022ECE122F53FE74086E600874DA
:102E44000D6E6003022ECE8C828D831234C6122E38
:102E5400D3E8F0A3E912352C12187DEC24020C0CF3
:102E6400ED3400FDEA2412FAEB3400FB123118129F
:102E7400164D122F84702AE05402600E122EE26066
:102E84000974098A828B83F0803C88828983E054A8
:102E9400046009122F9E6004740B80E7120E3080C8
:102EA40025E05410600912300B6004740E80D4883D
:102EB400828983E05420600912301F6004741080FA
:102EC400C27900120E6679008002790702228F12FD
:102ED4002ED722EA2410F582EB3400F58322123037
:102EE4001154022274F612168E122F53FC740A6CBB
:102EF4006005740F6C705375080675090078081224
:102F0400187D8A828B83A3AC82AD83122F62241036
:102F1400122F7812164D122F847018E05404600E8C
:102F2400122F9E6009740B8A828B83F08018120E14
:102F3400308013E05420600912301F600474108044
:102F4400E67900120E6679008002790702228F1258
:102F54002F5722900EB1E0F8A3122D05E022900E17
:102F6400B1E0245F122F6C22F8123B3A22FD900E3E
:102F7400B1E02407FAA3E03400FB120F207402220C
:102F84001238E7122F9164018882898322900EB14E
:102F9400E0FCA3E0F5838C82E022122FA4540422E7
:102FA400900EB1E02418122785E0F8A3122FB42262
:102FB400122D05A3A3A3A3E022C082C0831238DC90
:102FC40060051238B5701C88828983E0541060054E
:102FD40012300B700E88828983E054206011123005
:102FE4001F600C74068A828B83F0120E7280077441
:102FF400128A828B83F012258F70057900120E6677
:10300400D083D0820201141230115410221227648A
:10301400F5838C82A3A3A3A3A3E022122FA454209C
:103024002274F612168E74F9121637900EB1E070EF
:1030340002A3E0606B900EB1E024051238971225CC
:103044005A122798C0E07401121682D0E01230CBD5
:103054001216821230ABC0E07404121682D0E01251
:1030640030C2121682AC82AD8389838882740212C4
:10307400154A1235F91233C5601E75089075090E8C
:10308400780812187D7402121682AC82AD83790717
:1030940012352612164D800A75089675090E80E0C1
:1030A4007901740702228CAA82AB83120DAC900EB4
:1030B400B1E02405122F6C2415123882E02212305C
:1030C400DB123BB37405221230DB2412122F6CF98D
:1030D400740222EAF0A3EBF088828983E02274F67A
:1030E40012168E74F01216377508107509007808D8
:1030F40012187D900EB1E0241B122E0774021216D2
:103104008212311412164D7508A875090E02227424
:10311400AA82AB83120F2074022274F612168E74E4
:10312400F0121637750810750900780812187D908A
:103134000EB1E0242B122E077402121682123114DF
:1031440012164D7508B475090E02227474F0121625
:103154008E8A0C8B0D7E007A071233BB2418123B27
:10316400D17001EB70030233B47508078E09780837
:1031740012187DAC0CAD0D12311812164D123BCA4B
:10318400FAA3E0FB1233C5600302331F123B29F597
:103194000AA3E03400F50BEA2413FCEB3400FD85AC
:1031A4000A82850B83E0A2E092F08C828D83E0A2F8
:1031B400E020F001B35009A2E0E492E0F5088002B7
:1031C4008E08E054FEF8A3E0F974015508488C8297
:1031D4008D831233D6C313A2E092F08C828D83E0E8
:1031E400C313A2E020F001B35013E054026004D2F0
:1031F400F08002C2F0A2F0E492E0F880027800E0ED
:1032040054FDF508E8C333F8E43374025845081252
:1032140033E2543FA2E092F08C828D83E013135486
:103224003FA2E020F001B35014E054046004D2F053
:103234008002C2F0A2F0E492E0F50880028E08E079
:1032440054FBF50E740278081216247404550845CC
:103254000E1233E213541FA2E092F08C828D83E0AD
:10326400131313541FA2E020F001B35014E05408C8
:103274006004D2F08002C2F0A2F0E492E0F508808B
:10328400028E088E09E054F7F50E740378081216BE
:103294002474081233CD540FA2E092F08C828D83F3
:1032A400E0C4540FA2E020F001B35014E0541060C5
:1032B40004D2F08002C2F0A2F0E492E0F5088002A9
:1032C4008E088E09E054EFF50E7404780812162463
:1032D40074101233CD135407A2E092F08C828D83C4
:1032E400E0C4135407A2E020F001B35014E05420CA
:1032F4006004D2F08002C2F0A2F0E492E0F508800B
:10330400028E088E09E054DFF50A74057808121657
:103314002474205508450AF0A3E9F0900EB1E02486
:103324001A123BB5850C82850D83A3E060118A8255
:103334008B83A3E06009740588828983F080738598
:103344000C82850D83A3A3E054047015EA2412F5BE
:1033540082EB123B0BA2E24004740180DBA2E25038
:103364004B850C82850D83E0FC900EB1E0FDA3E05B
:10337400F5838D82E08A828B836006E0FFECFD801A
:1033840004E0FDECFFEFC394055021EDC394055018
:103394001B8F08ED75F005A4243CFAE5F0348EFB90
:1033A400E5082AF582E43BF583E0808C7E188002F0
:1033B4007E13EEF90234C17B00120FB6900EB1E019
:1033C40022900EB2122C7EE0225508450E1233D6FE
:1033D400C422F0A3E9F0850A82850B83E02212332C
:1033E400D613132274F012168E74E61216378A0E50
:1033F4008B0F8C0A8D0BE9FE742A1216821234C6C6
:10340400742C121682122758EC7001ED70057902A3
:103414000234BCE8851082851183F074011216828F
:10342400E9F07C107D007900740A121682AA82AB3E
:1034340083120F388E0C750D00780C12187DAC0AAF
:10344400AD0B740C12168212311412164DE508706D
:1034540002E509601C750A08750B00780A12187DCC
:10346400AC08AD09740412168212311412164D8080
:10347400127C087D0079007402121682AA82AB8342
:10348400120F38740A121682858208858309780817
:1034940012187D74021216828582088583097808C1
:1034A40012187D7406121682AC82AD83AA0EAB0F7D
:1034B400120734740412164D741A12164D7F080242
:1034C4001754E0F8A3E0F92274F612168E74EE1283
:1034D4001637EAFEEBFF741C1216821235FF8510B4
:1034E40082851183ECF0A3ED12352C12187DEAFCD1
:1034F400EBFD740412168212311412164D7508D89D
:1035040075090E780812187D7402121682AC82AD09
:1035140083790B12352212164D741202228CEEFAA4
:10352400EFFB120F14740222F07508087509007875
:10353400082274F412168E74F9121637EAFEEBFFA1
:10354400851082851183E9F0750A06750B00780AE7
:1035540012187D740312168212311412164D750A54
:10356400EA750B0E780A12187D7402121682AC8268
:10357400AD83790812352212164D740712164D02C6
:103584002551C082C083900EB1E07002A3E0605F59
:10359400900EB1E024181224777001EB6003120F2F
:1035A400BC1224717001EB6003120FBC900EB1E0E9
:1035B400245D1224777001EB6003120FBC900EB1EE
:1035C400E0245F1224777001EB6003120FBC900EAD
:1035D400B1E024611224777001EB6003120FBC90F8
:1035E4000EB11235FF120FBC900EB1E4F0A3F0122D
:1035F4000D82023004122C78A3A3A3E0FAA3E0FB0B
:103604002274F712168EE9FE900EB1E07002A3E068
:103614006052900EB1E02461122035121894900E7D
:10362400B1E0245F122035121894900EB1E0245DAD
:10363400122035121894900EB1E0245B122035123A
:103644001894900EB1E02417123897FB122AB1FC9B
:10365400A3E0FD1233C5FAEEF91204D6740812166B
:103664004D120E600220FD74F612168E122CD860D4
:1036740003023868123871FE74066E7072900EB2CE
:10368400122FB02413122BBC500B123B6CA2E0502F
:10369400047E07806C88828983E054026028123893
:1036A400A960237E091203B08A088B09AC08AD090E
:1036B4007508E475090E780812187D1238D374025F
:1036C40012164D0237BD88828983E05404700302C8
:1036D40037E9122F9E70030237E97E0B12038C8A9E
:1036E400088B09AC08AD097508FC75090E80C7EE96
:1036F4001218C10704BD3705377E37A9369837E05D
:1037040036900EB1E0245B1238977002A3E0701576
:103714007A1B7B00120FB68A088B09123878E508E9
:10372400F0A3E509F01224717001EB70030237BDB8
:103734007C107D007900120F38120E78123878123E
:1037440035FF120DA0120F448A088B09123B97E52E
:1037540008F0A3E509123BDF120E78E9FC123BA145
:10376400122032ECF07508CC75090E780812187D19
:103774008A828B8312386B0236BF1224717001EB7C
:103784006037EA2412F508EB122DEC12187D123B77
:103794004F0236C27508011203A4E9FF74016F7069
:1037A4000575080080027F00A9081203AA8A088B05
:1037B40009AC08AD09EF123B3F12389B74076E70D9
:1037C4000A740888828983F002385074086E704F36
:1037D4001238BB540260561238A96051740980E350
:1037E400123B1180731238DC600D1238B560087416
:1037F4000C8A828B83804888828983E05410600914
:1038040012300B6004740E80E888828983E05420AF
:10381400600912301F6004741080D6741280D27450
:10382400096E7004740A8013740A6E70B81238BB7F
:10383400540460B11238AF60AC740B88828983126F
:103844003BD9740A6A6005740B6A7018123B5C7089
:1038540001E9708C7CF47D017A027B00900EB3E068
:10386400F9120FF202228FE0FCA3E0FD22900EB2C7
:10387400122F5D22900EB1E0245B1238822212389E
:103884008622FAA3E03400FB8A828B8322900EB155
:10389400E02461122F6C22900EB1E01238A322248E
:1038A40001123BB522123B70540222123B705404A5
:1038B40022123011540822900EB1E0FAA31238C536
:1038C40022123B7F24131238CE22123886E022794A
:1038D40011123B47120F14221238E788828983E0C1
:1038E400540822900EB1E0F8A3122FB4123BB39007
:1038F4000EB1E02401FAA3E03400FB2274F41216A2
:103904008E122CD864016003023B02123871F50850
:10391400740665087079123B291238975408600CB4
:103924001238BB5408600575080C80768882898338
:10393400E054106029123B8B602475080E1203B00A
:103944008A0A8B0BAC0AAD0B750AE4750B0E780A68
:1039540012187D1238D3740212164D023A858882E9
:103964008983E054207003023AB2123BCA24131232
:10397400389754207003023AB275081012038C8AE7
:103984000A8B0BAC0AAD0B750AFC750B0E80BFE5F8
:10399400081218C10C04853AA639473A4139643AE9
:1039A4008039900EB1E0245B1238977002A3E07066
:1039B400187A1B1233BB245B123BD17001EB6009F4
:1039C4007C1B7D007900120F38900EB1E0245BFE61
:1039D400A3E03400FF8E828F831234C6E87001E9BD
:1039E4007003023A85E8241AF582E9123B0B701041
:1039F400120E78E9C0E08E828F83122032D0E0F07C
:103A04007C107D0079008E828F831235FF120F386F
:103A1400122471241AF582EB123B0BF9120DA01239
:103A24000F448A0A8B0B123B97E50AF0A3E50B12AD
:103A34003BDF750ACC750B0E780A12187D123BBC5D
:103A44000239571224717001EB6036EA2412F50A28
:103A5400EB3400F50B780A12187D123B4F02395AE9
:103A64007F011203A4E9FEEF6E70031F80027E0043
:103A7400EFF91203AA8A0A8B0BAC0AAD0BEE123BC8
:103A84003F12389B740C65087009740D8882898311
:103A9400F08053740D6508701C123B6C5410602543
:103AA400123B8B6020740E80E3123B118044122C75
:103AB4007374128024740E65087004740F80167475
:103AC4000F650870E9123B6C542060E21238BB5455
:103AD4002060DB741088828983123BD9740F6A607A
:103AE4000574106A7018123B5C7001E970BB7CF4B9
:103AF4007D017A027B00900EB3E0F9120FF20225E9
:103B040051EC241AF582ED3400F583E022E8240B0D
:103B1400F582E93400F583E0FA8A08C3132508FC2A
:103B2400E43400FD22123B2F240522900EB1E02440
:103B340018123B3922F812278AE022F9123B471265
:103B44000E5A22122AB9FAA3E0FB22122ED71238F7
:103B54006B123B47120E5422123B471208A88A08E4
:103B64008B09A808A909E822123B7022900EB1E043
:103B740024181238CEFAA3123B7F22E0F5838A82FE
:103B8400A3A3A3A3A3E022900EB1E0FAA31238C525
:103B9400541022123BA1E0241012278122900EB16E
:103BA400E0245B123BB5E8FAE9FB8A828B8322248A
:103BB40013F8A3E03400F922900EB1E0245B122F35
:103BC4006CFCA3E0FD22900EB1122FAD22122781CE
:103BD4001230D7FA22122CF6E0FA22F079088A82FF
:103BE4008B83E02412123BED22FAA3E03400FB1293
:103BF4000DA022C082C0837910900EB1E07002A3A0
:103C0400E06048900EB1E0241812387E1235FFEAC5
:103C14007001EB6036123BCAFCA3E0FDEC7001EDD1
:103C24006029EC2415F8ED3400F9EA2404FAEB34A5
:103C340000FB8A828B83E0C0E088828983E0FCD029
:103C4400E0C39C50048A828B83E0F902300474F64A
:103C540012168EE990049FF07A008A0875090074A0
:103C6400027808121624124D1C74FF123DE4123F10
:103C74000740E7790512068090049FE0F91205A831
:103C84007AD47B061208967F0202175474F4121633
:103C94008EEAFEEBFF74805FF9E47001E9602D9019
:103CA400049FE0F9120F628A088B09EA7001EB6045
:103CB400138A828B83E064B07003120692AA08AB65
:103CC40009120F50EEFA74806FFB80047A007B00B7
:103CD400023F4274F012168E74FC121637EAFEEBA1
:103CE400FF7416121682E0F50EA3E0F50F74181295
:103CF40016821251D2EE7001EF7003023DDC7402A1
:103D0400121682EEF0A3EF12418A1248B9AA82ABCE
:103D1400831205A2E9F50A6003023DDF741412164A
:103D240082E07002A3E07013E50E7002E50F700BE1
:103D3400E5087002E5097003023DDF8E828F83A3DC
:103D4400A3A3A3E0FEA3E0FFEE7001EF7003023D26
:103D5400DC7A0A7B00120FB68A0C8B0DA80CA90D15
:103D6400E87001E97005750A13807088828983E41C
:103D7400123DE4EEF0A3EFF074141216821249FB24
:103D840088828983A3A3A3A31248D688828983A3A4
:103D9400A3A3A3A3A3E50EF0A3E50F1251DAA3A3F3
:103DA400A3A3E508F0A3E509F09004ADE07002A335
:103DB400E09004AD700512438A8020E0FCA3E0800B
:103DC40003EAFCEBFD8C828D831249FBEA7001EB64
:103DD40070EF8C828D8380DE750A02A90A024A3E46
:103DE400F0A31251E1A32274F612168E74FE121679
:103DF40037740C121682124178E88510828511837B
:103E0400F07401121682E9F075080075090078084B
:103E140012187D750802780812187D74041216822F
:103E2400858208858309780812187D1206CE7406E7
:103E340012164D740212164D023C8B74F212168E39
:103E4400890AE975F045A4FEAFF0E49004ACF09063
:103E540004A21249FBEA7001EB6022120FBC7A0043
:103E64008A0875090074027808121624E50824A249
:103E7400F582E5093404F583123F0740E3EEFAEFD7
:103E8400FB120FB68A088B09EA7001EB606EEEFC38
:103E9400EFFD7900120F387C008C0C750D00740254
:103EA400780C121624E50C24A2F8E50D3404F9EC80
:103EB400F5F0E50AA475F017A4FAABF0E5082AFAC0
:103EC400E5093B1248D17E00801BEE75F017A4FA79
:103ED400ABF088828983E02AFDA3E03B8D82F583E1
:103EE400E4F0A3F00EEEC3950A40DF0CECC3940398
:103EF40040A7E50A9004ACF07900800279137F06AC
:103F0400021754E4F0A3F00AEAC394032274F412EF
:103F1400168E7900EAA2E0502389088909780812EC
:103F2400187D780812187D780812187D7C037D00AE
:103F34007A2F7B11120674740612164D80007F04CA
:103F440002175474F712168E9004AD80048C828D7F
:103F540083124CD2EC7001ED6016EC2402F8ED12E1
:103F6400516B6A7003A3E06B70E3E8FAE9FB800429
:103F74007A007B007F0102175474F012168E74FCD1
:103F84001216378A088B09851082851183E4F0A301
:103F9400F0EA2402F50CEB3400F50D124B758A821D
:103FA4008B83A3A3A3A3E012193D000A02D03F060A
:103FB400E03F0825400A34400CA9400E224110324B
:103FC4004112424116524118624122409004C67483
:103FD40017F0A3E412419212021E804285108285DA
:103FE4001183AC82AD83120698E9FEEE6030850839
:103FF40082850983A3E0641460248508828509838B
:10400400A3A3A3A3E09004C612418A1241789004AA
:10401400C712438AEE9004C9124192120218024A4E
:104024003E851082851183AC82AD8312069E80B9D1
:104034007402121682AC82AD83850A82850B8312C8
:104044004A078A0E8B0FAC0EAD0FEC7001ED604386
:10405400750E00750F00780E12187D750EC6750F5B
:1040640004780E12187D750EC7750F04780E121899
:104074007D74081216821218947916850C82850DA7
:104084008312467112164DE9FF700A1249F11202A9
:1040940036800E7F01850A82850B8312417E12438E
:1040A4008AEF023FEE850A0E850B0F740212168208
:1040B400AC82AD83850E82850F83124A078A0A8BF0
:1040C4000BAC0AAD0BEC7001ED6043850E82850FDD
:1040D40083A3A3121894750AC6750B04780A1218E0
:1040E4007D750AC7750B04780A12187D74081216B8
:1040F400821218947916850C82850D8312467112EA
:10410400164DE9FF700A1249F112023C80937F01B7
:10411400850E82850F8312417E12438A8083851027
:1041240082851183AC82AD831206A4023FED851013
:1041340082851183AC82AD831206AA023FED8510FD
:1041440082851183AC82AD831206B0023FED8510E7
:1041540082851183AC82AD831206B6023FED8510D1
:1041640082851183AC82AD831206BC023FED8508C3
:1041740082850983E0F8A3E0F922E0F8A3E0F98559
:10418400108285118322F085108285118322F07CB0
:10419400C67D04124A1B2274F012168E74FA12168B
:1041A400377404121682124A2BF508EB3400F50911
:1041B4007C157D0079007AC67B04120F38E508244B
:1041C40002124CA885108285118385820C85830D8B
:1041D400780C12187D850882850983124CD8121830
:1041E4007DE5082405F50CE5093400F50D780C127D
:1041F400187D124CCC8508828509831249FB12056F
:10420400C0740612164D8A0C8B0DAE0CAF0DE50A68
:104214002402F50AE50B3400F50BEE7001EF700390
:1042240002435B80127402121682E0FAA3E0124881
:10423400D19004C6E004F09004C6E0C394054003A2
:1042440002435B750C00750D00780C12187D750C1B
:10425400AF750D04780C12187D750CB0750D0478CB
:104264000C12187D74061216821218947910EEFC42
:10427400EFFD850A82850B8312467112164DE97093
:104284005C850882850983A3A3A3A3A3A3A3E0FA5F
:104294009004AFE06A7046124CDC12187D7CB07D4D
:1042A40004E5082408FAE5093400FB120F3274020D
:1042B40012164DE960278E828F83A3A3A3A312490C
:1042C400FB9004C6E0F50C7402780C121624E50C7D
:1042D40024C7F582E50D3404F5831248D67402121E
:1042E400168285820C85830D780C12187D74021257
:1042F4001682121894124CCCEEFAEFFB1205CC7411
:104304000412164D8A0C8B0DAE0CAF0D9004C6E052
:10431400F50C750D007402780C121624E50C24C6F5
:10432400F8E50D3404F988828983A3E07002A3E0E0
:10433400700302421EE82403080808E93400F9EE79
:104344007001EF60030242298882898374FFF0A31D
:10435400F09004C6E004F09004C6E060147CC67DCE
:1043640004850A82850B831249FB12022A79008094
:104374000D1241727404121682124387790A74066C
:10438400024A40125178E8F0A3E9F02274F01216C0
:104394008E74F812163774021216821248D67406F6
:1043A400121682124A367402121682E02405F8A309
:1043B400E0124CB112438A8510828511831251CBCD
:1043C4007E007F00740412168285820A85830B782E
:1043D4000A12187D74021216821251BAF50A750B6C
:1043E40000780A12187D7404121682E02405F50A76
:1043F400A3E03400F50B780A12187D7406121682B5
:104404001251ABFCA3E0FDAA08AB091205C0740667
:1044140012164D8A0C8B0DEA7001EB70030244FCFA
:10442400EA2404124C9C1251D28A828B83A3A3A344
:10443400E0F974021216821248A560030244FC7566
:104444000A00750B00780A12187D750AAF750B0403
:10445400780A12187D750AB0750B04780A12187D53
:10446400740A1216821218947913AC0CAD0D740AE6
:1044740012168212466E12164DE9FF707B9004AF3D
:10448400E0F8EE7009E024029004C7F08014900470
:10449400C7E0FC740228FAE43400FBEA6C7001EB18
:1044A40070598E82AA821245399414124666504875
:1044B400850E82850F83E0C0E0EA12487FD0E012C7
:1044C40048AEC0E012487ED0E01248C312187D7C8A
:1044D400B07D04EE12487112164D9004AFE02EFE2A
:1044E40074FF6508700474FF6509600C12452CEEB6
:1044F400C3941450030243C8EE6012124889740234
:1045040012168212489A12023079008016EF700255
:104514007F0A7406121682124CBBE508F0A3E50963
:10452400F0EFF97408024A40E5082401F508E509AA
:104534003400F50922E82AF8E43400F9E82274F09A
:1045440012168E74FC1216377402121682124A3630
:10455400EA2405F50EEB124CAC7F00E49004C6F09F
:10456400FEEA2402F50AEB3400F50B80439004C6FE
:10457400E0FA9004AFE012453A9417124666400DF3
:104584009004C6E0FC7416C39C9004AFF01251F181
:1045940012187D7CB07D04EA24C7FAE43404125175
:1045A4006412164D9004AFE0FA9004C6E02AF00EAF
:1045B400E50E2416F582E50F3400F583E0FAEEC328
:1045C4009A40030246519004C6E0C39416507EEE0E
:1045D400C333F8E433F9E50E28F508E50F39F50996
:1045E400851082851183AC82AD83850882124B804D
:1045F400AC0CAD0DEC7001ED70137F018508828564
:1046040009831249FF1216821243878050750C00E9
:10461400750D00780C12187D750CAF750D04780CAF
:1046240012187D750CB0750D04780C12187D740683
:104634001216821218947916850A82850B83124603
:104644007112164DE9FF700302457180AF7CC67D7F
:1046540004850A82850B831249FB120242EFF90298
:104664004A3EE99400C365D033221251B0124A2164
:104674001206C874082274F012168E74F8121637D3
:104684008510828511831248D67406121682124848
:10469400B9E02405F50CA3E03400F50D7E007F009D
:1046A4007404121682858208858309780812187D9D
:1046B400850C82850D83A3A3A3A3E0F5088E097856
:1046C4000812187DE50C2405F508E50D3400F509FC
:1046D400780812187D850C82850D83A3A3124A12D3
:1046E4001205C0740612164D8A088B09802774FFC0
:1046F40088828983F00E12487E74FF1248C3121810
:104704007D7CB07D048E0AE50A12487112164D9024
:1047140004AFE02EFEE5087002E5096029850882F1
:10472400850983A3A31241801248A5E50824041235
:104734004CA8EF602B850E82850F83124178740696
:10474400121682124387EE70030248561248898576
:10475400108285118312489A120248790002486E29
:10476400750A00750B00780A12187D750AAF750B6F
:1047740004780A12187D750AB0750B04780A1218A9
:104784007D740A1216821218947911AC08AD09745A
:104794000812168212466E12164DE9FF70978E8229
:1047A400AA82EE9004AF7009E024049004C7F0805C
:1047B40025E0F89004C7E0F50A740428FCE434000A
:1047C400FDEC650A7001ED708312453994121246AE
:1047D400664003024750850E82850F83E0C0E0EAFD
:1047E40012487FD0E01248AEC0E012487ED0E0F01C
:1047F4000E740212168285820A85830B780A1218B7
:104804007D7406121682121894850C82850D83A37A
:10481400A3124CD2AA08AB091205CC740412164D8B
:104824008A088B09EE24C8F8E43404F9EA7001EB31
:1048340070030246F27402121682E088828983F0C1
:104844000E7402121682A3E0C0E012487ED0E00289
:1048540046FFEF70027F0A850C82850D8312417832
:104864007406121682124387EFF902452724C8FA08
:10487400E43404FB120F20740222EE24C8F582E40F
:104884003404F583229004C7E0F5F0EE849004C666
:10489400F07CC67D042212489E221251B4124A258D
:1048A4002212489E1205AEE9FF22F00E850E828583
:1048B4000F83A3E022124A3685108285118322F0E9
:1048C4000E9004AFE0F50A750B00780A22FB88828B
:1048D4008983EAF0A3EBF02274F012168E74FC12B2
:1048E40016377402121682124A2BFEEB3400FF852F
:1048F4001082851183AC82AD838E828F83124A0726
:104904008A088B09EE2418F50EEF124CACEA7001FC
:10491400EB70030249CAE50A2402F50CE50B3400E6
:10492400F50D8A828B83A3A3A3E0A2E550468510EC
:10493400828511831249FB12068C8A0A8B0BA80A02
:10494400A90BE87001E9607988828983A3A3A3A3F2
:10495400A3A312519AE50A7002E50B60647912ACC4
:1049640008AD091249F5850A82850B8312168CE974
:10497400F5087057750800750900780812187D8EBF
:10498400828F83A3A3E0F508780812187DEE240330
:10499400F508EF3400F509780812187D8E828F83AC
:1049A400124A121206CE740612164DE9F508701B4F
:1049B400850E82850F83E070231249F512024E8022
:1049C4001B75080E80097508018004E508600D8ECA
:1049D400828F831249FF121682124387850E8285C5
:1049E4000F83E0600479008002A908804D7CC67DB5
:1049F40004850C82850D83124A2122E0F8A3E0F994
:104A0400740222124A0B22124A251205C622E0FC25
:104A1400A3E0FD124A1B22850C82850D83124A25D0
:104A240022E0FAA3E0FB22124A368A0A8B0BEA241C
:104A34000522ECF0A3EDF022A908740412164D7FB0
:104A44000802175474F012168E74FC12163774028E
:104A5400121682124A368A0E8B0F124B7575080095
:104A6400851082851183AC82AD83850A82124B80C6
:104A7400AE0CAF0DEE7001EF7003024B53E50E2444
:104A840002F50EE50F124CAC8E828F83A3A3A3E034
:104A9400A2E5502F1252A07002E5836056A3A3A38F
:104AA4001251857002E509604A7912EEFCEFFD852A
:104AB4000E82850F83124B8A12168CE9F508600367
:104AC400024B56850E82850F83E0FEA3E0FFEEFACB
:104AD400EFFB124B687001E970157AFF7BFF124BF4
:104AE400687001E9606488828983EEF0A3EFF07D49
:104AF40000800675080E805A0D9004ACE0FAEDC3F0
:104B04009A5047ED75F017A4FAABF088828983A315
:104B1400A3E02AFAA3E03BFB8A828B83E07002A322
:104B2400E070D5750C17750D00780C12187DAC0A61
:104B3400AD0B12516512164DAC0AAD0B850E828574
:104B44000F831249FB1202548017750809800375FC
:104B54000801850A82850B831249FF1216821243CB
:104B640087024A3C1206C28A0C8B0DA80CA90DE8D8
:104B740022EA2405F50AEB3400F50B22F583124AE8
:104B84000B8A0C8B0D22124A218508828509832207
:104B940074F012168E74FC121637740212168212F6
:104BA4004A36EA2405F8EB124CB112438A75080020
:104BB400EA2402124C9C1249FB1206C28A0A8B0B8D
:104BC400EA7001EB7003024C8D7509008079851041
:104BD400828511831251C6640170558E828F83A31E
:104BE400A31218948E828F83124CD812187DEE244F
:104BF40005F50CEF3400F50D780C12187D850E8246
:104C0400850F831249FB1206CE740612164DE9F580
:104C140008601D851082851183124CBBE4F08E82DE
:104C24008F831249FB7402121682124CBB1248D6AF
:104C34007C177D007900EEFAEFFB120F388E828F1D
:104C440083E4F0A3F005099004ACE0FAE509C39A03
:104C54005028E50975F017A4F8A9F0850A82850B98
:104C640083A3A3E028FEA3E039FF8E828F83124C36
:104C7400D2EC7001ED6003024BD2850A82850B836E
:104C840074FFF0A3F0E508700C850E82850F831283
:104C940049FB12025A024A3CF50EEB124CAC850E4B
:104CA40082F58322F50EE5093400F50F223400F96C
:104CB40085108285118322124CBF22124CC322E03C
:104CC400F8A3E0F583888222850E82850F83E0FCB9
:104CD400A3E0FD22A3A3A3A3E0F50C750D00780CBB
:104CE4002274F612168E7C008C0875090074027802
:104CF40008121624124D176A7003A3E06B7006E8BD
:104D0400FAE9FB800B0CECC3940340DC7A007B00D3
:104D1400023C8B124D1CE022E50824A0F8E509347E
:104D240004F9888289832274F012168E74F812169C
:104D34003774061216821248D67404121682124A66
:104D4400367403121682E9F0741A12168212519AFA
:104D5400741E121682E0FEA3E0FF7401121682E4B0
:104D6400F0A312418AF074041216821251A2E0A236
:104D7400E45053741812168212518E12168212487D
:104D8400D67401121682E07002A3E07003024E771B
:104D940074011216821251A21251857002E5097033
:104DA40003024E77790A7404121682124CD27406E6
:104DB400121682124B8A12168CE985108285118391
:104DC400F06003024E8074041216821251C664020B
:104DD40060030250E97404121682A3E0F58388820A
:104DE400A3124178850A82850B83A385820E85836D
:104DF4000F7404121682E02406F508A3E03400F5CB
:104E04000988828983E0FAA3E0F9EAF50CE9F50D53
:104E1400780C12199C0100002801283D4E0600025E
:104E240028204F03288F4E0029F24F01291F5003D9
:104E340029F24F04298550E950EE7001EF704812B1
:104E44004172E8FAE9FB8A828B83E0C0E0741C12A9
:104E54001682124CBBD0E01251E812187D8A828B64
:104E640083A3E0FCA3E0FDAA0AAB0B125165121662
:104E74004D8009740E851082851183F0851082851A
:104E84001183E0F9024527740B80EAEE7001EF709C
:104E9400F6741C121682124CBB7401F01251C085B8
:104EA4000A82850B83F07C007D0074041216821242
:104EB40051BA2401FAA3E03400FB1205C6EA7001DA
:104EC400EB603E8A828B83E02402FC741C121682FF
:104ED4001251C62CF0EA2404F8EB12516B850E82B1
:104EE400850F831251FA1251E812187D8A828B833E
:104EF400A3124CD2E50A2403FAE50B3400FB024E5C
:104F04006F741C1216821251C62404F07C047D00B6
:104F14007900AA0EAB0F120F38024E80EE7001EF2B
:104F24006003024E8B8508828509831251CB741C61
:104F3400121682124CBB7404F0850A82850B83E539
:104F440008F0850E82850F83E509F07C007D00AAB8
:104F540008FB1205C68A0C8B0DAE0CAF0DEE70016A
:104F6400EF6070AA08AB091205D28A0C8B0DA80C4D
:104F7400A90DE87001E960558E828F83A3A3A3A3D2
:104F8400A3A31249FBE82508F8E93509F974FF28B9
:104F9400FE74FF39FF8A828B83E0640270397508DE
:104FA40002750900780812187D8A828B83A3124C3B
:104FB400D2E50A2404FAE50B340012516412164DAA
:104FC400741C1216821251C62402F0800AAE08AF75
:104FD4000980047E007F00EE850A82850B83A3A3EB
:104FE400F0EF850A82850B83A3A3A3024E7FEE70A4
:104FF40001EF6003024E8B1251C0F8A3E0F9741C58
:105004001216821251747402F0E8850A82850B83A9
:10501400F0E9850E82850F83024E7F85088285091B
:10502400831249FB120F1AEAFC8C82A882C39EE405
:105034009F4049E86E7001EF70047C00801B74038C
:10504400121682E02EFAE43FFBC3EA98EB94005078
:1050540003E08004EECCC39CFC741C121682124C38
:10506400BBECF08C0C750D00780C12187D85088251
:10507400850983E02EFCA3E03F024E6A7407024ECA
:1050840079EE7001EF6003024E8B124172741C12B0
:1050940016821251747407F088828983E0850A822B
:1050A400850B831251E1E0850E82850F83F0E8249D
:1050B40002FAE93400FB8A828B83125181F08A82DE
:1050C4008B83A3125181A31251DA125194F0E82474
:1050D40005F8E93400F988828983125194A31251A6
:1050E400FAA3024FEC7401121682E07002A3E0707E
:1050F4000E741812168212518E1216821248D67429
:1051040001121682E07002A3E07003024E7774016C
:105114001216821251ABF8A3E0F988088909E870E5
:1051240001E97003024E778E0C8F0D780C12187DF6
:10513400741E121682121894780A12187D740912B9
:105144001682E0F9740A121682124CD2740C1216EA
:1051540082124B8A12168C740612164DE9024E798D
:10516400FB120F207402223400F988828983E02222
:1051740012517822E0FAA3E0F5838A8222125201C6
:1051840022A3A3A31251D2E508221252B074012221
:10519400125201A3A322E0F50AA3E0F50B22125157
:1051A400A6221251B4A3221251B0E0221251B42209
:1051B400124CC3A3A3221251A6A3E0228508828520
:1051C4000983124CBFE022124CBF1251D222E0F5E7
:1051D40008A3E0F509221251E1A3A3A322F08882D7
:1051E4008983A322F08A828B831251F122E0F5088D
:1051F4007509007808221251E112520122E0850A51
:1052040082850B83A3A32274F212168E74FC1216E9
:105214003774021216821248D6ECFAEDFB7414129B
:105224001682E0FE741612168212519A8510828537
:105234001183AC82AD831205C68A088B09EA70011A
:10524400EB60451252A07002E5836038A3A3A3A3C8
:10525400125296E87001E9602B780A12187D7414D2
:10526400121682121894EEF9AC08AD0974061216DF
:10527400821249FB850C82850D8312168C740412EC
:10528400164D8006790E80027901740412164D02BF
:105294003F02E0F8A3E0F9880C890D22851082858D
:1052A40011831252B08A828B83E58222124A25121C
:1052B400068C2274F412168E8A088B09E9FE740196
:1052C4006E7015AA08AB091206C28A088B09EA7027
:1052D40001EB60547F00801974026E704B790112E7
:1052E40008B4E9704380DC7C177D007900120F3824
:1052F4000F9004ACE0FAEFC39A5022EF75F017A4B4
:10530400F8A9F0850882850983A3A3E028FAA3E01D
:1053140039FB8A828B83E07002A3E070CA8508821D
:1053240085098374FFF0A3F0023F4274F012168ED5
:1053340074F7121637EAFEEBFF9003C1E0A2E340D4
:105344000579120254C8120416E960057910025452
:10535400C81208BAE9C39403400579150254C890E9
:1053640003E7E07002A3E0600579110254C87A0AE9
:105374007B00120FB69003E71259A69003E7E07082
:1053840002A3E070030254C475080A750900780882
:1053940012187DEEFCEFFD9003E712654E1255DA0C
:1053A40012164D1254CDE060137A0E7B0012036284
:1053B40074011216821259A67A0F80117A0C7B009E
:1053C40012036274011216821259A67A0D7B00121E
:1053D40003628A088B09AE08AF099003C3E0700327
:1053E400E480027401851082851183F07A1C7B00AD
:1053F4001203628A0E8B0F7A1B7B001203627407FE
:105404001216821259A67A197B00120362740512CD
:1054140016821259A67A1A7B0012036274031216BA
:10542400821259A67A167B001203628A0A8B0B7ABF
:10543400157B001203628A088B099003E7E02404B9
:10544400FAA3E03400FB125CA6F912037AE9FA78B5
:105454000E12187D74091216821218947409121609
:10546400821218947409121682121894780A121867
:105474007D780812187D740C121682E0F5087808FD
:105484001218819003E7E02404F508A3E0125FC337
:10549400780812187DEAF50878081218811254CD9C
:1054A400A3E0F9EEFCEFFD741112168212654E12A0
:1054B400071C741012164DE9FE60071204BE800228
:1054C4007E13EEF974090258431261EBA32274F4BB
:1054D40012168E8908EAFEEBFF74FE6E700374FFE9
:1054E4006F70219003E7E07002A3E060139003E77C
:1054F4001261E665087005120722804F7903804B1C
:105504007912804774FF6E700374FF6F70209003EC
:10551400E7E07002A3E0600E120722E9702DE508AF
:105524009003EBF080251204ACE9701F80F01208A0
:10553400A88A828B83E5827002E58360C3E06508F4
:1055440070BA7913EEFAEFFB1206E602577574F39C
:1055540012168E890C8C088D099003C1E0640260D8
:1055640005E06401700479128064EC7001ED70044C
:105574007902805A1208A88A0A8B0BAE0AAF0BEE86
:105584007001EF700479148045E50C600B8E828FF6
:1055940083A3A3A3E0D2E1F0750A10750B00780A87
:1055A40012187DAC08AD09EE240CFAEF1255D7128F
:1055B400164DE5082410F582E50912653812151F09
:1055C400EE241CF582EF12653812152E79007F0542
:1055D4000217543400FB120F2074022274F41216C2
:1055E4008E74F81216378A088B09ECFEEDFF9003CF
:1055F400C1E064026010E06401600BE06408700BB9
:10560400EE7001EF60057912025770EA7001EB70D9
:105614000579020257709003E9E07002A3E0600587
:1056240079110257708A828B83125BAAEA7001EBAC
:10563400700579140257707A1F7B00120FB690031D
:10564400E91259A69003E9E07002A3E0700579130A
:105654000257707C1F7D007900120F3885088285FF
:105664000983125D809003E9E0FAA3E0F5838A825E
:10567400A3125B88750A16750B00780A12187DE56B
:10568400082402FCE5093400FD9003E9E02403FA50
:10569400A3E01255D712164D9003E9125AF374027F
:1056A400F09003C1E0A2E35004D2F08002C2F09073
:1056B40003E9E02403F50AA3E03400F50B780A12A9
:1056C400187D8508828509831259B09003ECE0FAAD
:1056D400A2F0E492E0F9120DD0740212164DE9F52D
:1056E4000AEE7001EF607C8E828F83E0C0E074016B
:1056F400121682D0E0125B93E0C0E07402121682AC
:10570400D0E0125B8EE0F97403121682AA82AB8396
:10571400120DAC8E828F83A3A3A3E0C0E0740512A4
:105724001682D0E01261B1C082C083740612168260
:10573400AC82AD83D083D082740212154A740112F4
:105744001682AA82AB83120E12E960178510828535
:105754001183F0AC82AD8385088285098312654E7E
:10576400120DEEE50A60031204B8A90A74081216B1
:105774004D7F0402175474F712168E74FF121637F5
:10578400E9851082851183F0AC82AD83120DEE742D
:105794000112164D7F0102175474F012168E74F024
:1057A4001216378A088B098C0A8D0B742012168204
:1057B400E0FEA3E0FFEEFAEFFB1208A8EA7001EBAB
:1057C400700479128073909042780C12151F780C33
:1057D400790812131340047902805E7C107D0079ED
:1057E40000851082851183AA82AB83120F3885103D
:1057F40082851183E508F07401121682E509F085AB
:10580400080CF50D850A0E850B0F7410780C121414
:10581400237402121682E50CF0741878081214230B
:105824007403121682E508F0EEFCEFFD8510828504
:105834001183AA82AB83120DD674108002740112F4
:10584400164D7F0802175474F412168E74FE121645
:10585400378A088B09E9FF9003C1E0A2E24004798A
:105864001280551208A8EA7001EB604A9003E9E03F
:105874007002A3E0600B9003E9E024151258C7807E
:1058840001EFFEEEF9851082851183AA82AB8312A3
:105894000DAC750A08750B0F780A12187D74021284
:1058A4001682AC82AD837902AA08AB09120F147474
:1058B4000212164D8002791474020257729003E9A1
:1058C400E02419F8126593E02274F012168E74FF26
:1058D400121637E9851082851183F08A0A8B0B8CA6
:1058E4000C8D0D9003C1E064026005E06401700555
:1058F40079120259A3EC7001ED700579020259A3E3
:105904001260D17001EB700579140259A3EA2420C6
:10591400FEEB3400FF8E828F8312655E7001EB60B4
:1059240003120FBC7C1B7D00AA0CAB0D120F2C8E36
:10593400828F831259A61259ACEC7001ED70047970
:1059440013805C9003C1E0A2E35034EC2412F50C04
:10595400ED3400F50D780C12187DEC2410F582ED71
:10596400125AEE121894EC241AF582ED125AEEE053
:10597400F9AA0AAB0B120E4E740412164D8002796A
:1059840000E5082403FAE5093400FB8A828B83E0EE
:10599400D2E21261DD60088A828B83E0D2E1F002F8
:1059A4005841EAF0A3EBF0228E828F83E0FCA3E05F
:1059B400FD2274F012168EEAFEEBFFEE7001EF701A
:1059C40003025AE59003E7E07002A3E06008900345
:1059D400E7125AF380039010B7E0F50812040AEEB8
:1059E4002408F50AEF3400F50BAA0AFB8E828F8394
:1059F400A3A3A3A3A3A3A3E0F9120380E9FB8E82CC
:105A04008F83A3A3A3A3A3A3A3F0EE2403F50EEF14
:105A14003400F50FEE2414125AEBE0F50C750D006A
:105A2400780C12187D125AE8121894EE2410125AA7
:105A3400EB121894EE240E125AEB1218948E828FE5
:105A440083A3A3A3A3121894AC0AAD0BAA08850ED2
:105A540082850F83E0F91204A0740A12164D850E94
:105A640082850F83E0703EEE240E125AEBE0F509B6
:105A74007809121881780A12187D8E828F83A3A365
:105A8400A3A3A3A3A3E0FD7C018E828F83A3A3A37E
:105A940012654DA90812089C740312164DE9850E6F
:105AA40082850F83F09003E7E07002A3E060321276
:105AB40004BE9003EBE06029F91204ACE96022858E
:105AC4000E82850F83E0FB8E828F83A3A3A3A31290
:105AD40059B09003EBE0FAEBF91204A6E49003EB5F
:105AE400F0025846EE2412F582EF3400F5832212B8
:105AF40061EE2274F212168EEAFEEBFFEE2404F538
:105B04000AEF3400F50B850A82F583125BAA8A0832
:105B14008B09EA7001EB60607A0C7B00120F4AEA91
:105B24007001EB605374D08A828B83125B8EA3E086
:105B34008A828B83A3F074078A828B83A3A3F08564
