:020000040000FA
:060000000200FC021CFEE0
:03002B000221D8D7
:030033000221C1E6
:03005300021D7417
:03006B000221A7C8
:10008300021C4074F855C74401F5C77901220000EA
:100093000080FB120086B900030200E6E4791278BF
:1000A30008B800028004F709D8FCE49003C178B7CC
:1000B30079078002F0A3D8FCD9FA900A77AA82AB19
:1000C3008390012C78CC79038015E493A3AC82ADA3
:1000D300838A828B83F0A3AA82AB838C828D83D89D
:1000E300E9D9E775822B7583A1740312010E75821A
:1000F30091758300740012010E75D00075813F75F0
:1001030010C1751103759F00020096C09FF59FE40F
:1001130073D09F22D083D082C09FE493C0E0740148
:1001230093C0E0740293F59F22FF0000007800283B
:10013300002800283075A000A000A000A00000083F
:100143000008E001F0001000100010001000100083
:10015300100050005000500010001000D0070000A5
:10016300000000000F00307507001000307500001C
:10017300FFFF02020A0A025000A0000000E8030287
:1001830089900100007490028590010000C00A026A
:100193007F90010000ED03028590010000C10A0277
:1001A3007D900100000204028590010000C20A0252
:1001B300B5900300000404028590010000C30A0205
:1001C3009F900300000504028590010000C40A0209
:1001D3009790010000C50AFF0100200289900100E9
:1001E300007190028590010000280B028F9000009F
:1001F300000000D70BD70BD70BD70BD70BD70BD7D9
:100203000BD70BD70BD70BD70BD70BD70BFFFF0294
:10021300020202020202020289900100007A9002A5
:1002230085900100005D0B02A390010000C8080245
:1002330085900100005E0B02A190010000338F0244
:1002430085900100005F0B029D90010000258F0245
:100253008590010000600B029B90010000918E02CB
:100263008590010000610B0299900100006D8E02E0
:100273008590010000620B029590010000A38E029D
:100283008590010000630B029390010000B58E027C
:100293008590010000640B029190010000178F010B
:1002A300E803053310FF0001307503020106000067
:1002B300000000000000000000000000000000003B
:1002C30000000000000000000000FFFF0600800C9B
:1002D300E803140953696D706C65424C45506572AF
:1002E3006970686572616C051250002003020A0090
:1002F3000201060302F0FF53696D706C6520424CE6
:1003030045205065726970686572616C0313000063
:1003130009130A436861726163746572697374696E
:1003230063203100024368617261637465726973AB
:100333007469632032000843686172616374657293
:100343006973746963203300104368617261637475
:100353006572697374696320340002436861726172
:10036300637465726973746963203500028990014F
:1003730000007790028590010000600C02AF9003AB
:100383000000680A028390010000610C028590015D
:100393000000720C02B190010000690A028390010F
:1003A3000000730C028590010000840C02B39002DC
:1003B30000006A0A028390010000850C0285900107
:1003C3000000960C02A9900000006B0A02819003C2
:1003D30000006C0A028390010000970C02859001D3
:1003E3000000A80C02A590040000720A0283900189
:1003F3000000A90C1201177695031201178D9503BE
:10040300120117BC9503120117F595031201171D6D
:1004130096031201174B96031201176296031201FA
:1004230017799603120117909603120117B79603D3
:10043300120117CB9603120117E19603120117F568
:1004430096031201171A970312011720A80212012B
:10045300171CA90212011753A90212011775A90249
:1004630012011777A90212011799A902120117A104
:10047300AA0212011765AB0212011718AC0212018E
:10048300179AAC021201179DAC02120117D4AC02E9
:1004930012011743AD021201171AAE021201177BA4
:1004A300AE021201179AAE0212011712AF02120125
:1004B3001715AF0212011718AF02120117C4AF02CA
:1004C300120117F6AF0212011724B0021201174AE4
:1004D300B00212011726B102120117E1B102120193
:1004E3001767E5021201173EE60212011766E602DC
:1004F3001201179AE602120117E5E6021201173CF0
:10050300E7021201177AE702120117B9E702120193
:1005130017E9E70212011770E8021201177AE802DD
:100523001201178FE802120117C6E802120117B26F
:10053300E902120117BEE902120117D6E9021201FC
:1005430017E0E90212011761EA021201171580028E
:10055300120117EC80021201179E8102120117E3A8
:100563008102120117C782021201171C83021201B2
:10057300173D8302120117218402120117558402C9
:10058300120117008502120117478502120117A4F1
:100593008502120117BD8502120117DA85021201C5
:1005A300171786021201175B86021201173F870293
:1005B300120117EF87021201175A8B02120117ED6E
:1005C3008C021201173F8D021201175D8E02120178
:1005D300177B8E021201172B6700120117AB6700FE
:1005E300120117396800120117D36900120117F6B7
:1005F3006900120117A46A00120117266B00120189
:10060300170F6C00120117506D001201171A6E00BC
:10061300120117986E00120117A66E001201170738
:100623006F00120117E46F001201173470001201FA
:1006330017577000120117557200120117A07200AC
:10064300120117C5720012011740730012011750EF
:10065300740012011736750012011739860312014F
:10066300174986031201176F8603120117208803A7
:1006730012011714FB02120117CCFB021201170C13
:10068300FC02120117C8FD0212011715F001120135
:100693001750F001120117A3F101120117AFF10175
:1006A300120117D2F1011201171DF201120117C62F
:1006B300F201120117DEF301120117C6F401120150
:1006C3001722F6011201175FF60112011700F70155
:1006D3001201174DF70112011775F7011201176087
:1006E300F90112011765F90112011750FB011201FB
:1006F3001799FB011201170AFC0112011736FC01BD
:10070300120117CBFC011201179BFD01120117D037
:10071300FD01120117D3FD0112011729FE01120178
:100723001767FE01120117D9FE01120117A88E03E4
:10073300120117BB8E03120117D48E031201172166
:100743008F03120117FD8F031201179E90031201ED
:1007530017EB9003120117083F001201173A3F00ED
:10076300120117813F00120117944000120117EA8A
:100773004000120117714100120117CA4100120112
:1007830017004200120117344200120117524400AD
:100793001201174E460012011700480012011738C4
:1007A3004900120117954B00120117014D00120168
:1007B300174D4E001201179E4F00120117BB4F0039
:1007C3001201179B5400120117475500120117938A
:1007D300DF021201179DDF0212011760E00212010E
:1007E30017A7E002120117CBE0021201170DE10275
:1007F3001201174EE10212011779E102120117C328
:10080300E202120117FEE2021201172DE3021201A6
:10081300175DE3021201179BE302120117C4E302FF
:10082300120117FEE30212011725E4021201176DEC
:10083300E402120117C9E40212011712E5021201C0
:10084300173CE5021201170080031201173C8003D5
:10085300120117A1800312011760810312011741CE
:100863008203120117528203120117BE820312017F
:1008730017F0BA021201170CBB021201170FBB02C9
:10088300120117CABB02120117E9BB021201177149
:10089300BC021201171CBE021201173BBF02120158
:1008A3001742C0021201176FC0021201172BC102B7
:1008B30012011723C202120117ABC2021201170958
:1008C300C302120117179F03120117449F0312015A
:1008D30017829F031201178C9F03120117969F0320
:1008E300120117A89F031201173F9D03120117A8B6
:1008F3009D03120117FC9D03120117D1F30212018C
:10090300173BF40212011785F4021201177EF50258
:1009130012011791F6021201173AC3021201177D51
:10092300C30212011768C4021201174BC502120158
:100933001754C6021201172FC70212011798C702D4
:100943001201173DC802120117C3C802120117EEA4
:10095300C80212011759C90212011705CA0212016E
:100963001763CA021201177CCA02120117C1CA0215
:10097300120117DBCA021201173DCB021201174005
:10098300CB021201174083031201176A830312017A
:1009930017A38303120117528403120117C684039A
:1009A300120117E284031201170C85031201173E8B
:1009B30085031201174D8503120117C58503120123
:1009C30017EF8503120117B89001120117B79101B0
:1009D300120117119301120117FA9301120117263D
:1009E30094011201175D940112011773940112010E
:1009F30017BE9401120117429501120117AF950119
:100A03001201174B9601120117B79A0112011736FB
:100A13009C01120117889C01120117D19D0112013B
:100A230017199E01120117D99F0112011745A00141
:100A33001201178FA0011201176BA1011201179365
:100A4300A10112011737A601120117C2A601120153
:100A530017A6A7011201173BA80112011755A801F8
:100A63001201178AA801120117C1A801120117D197
:100A7300A801120117DDA801120117F1A801120143
:100A830017A3A901120117E4A9011201179BAB01D6
:100A930012011758AC01120117C7AC011201175DFF
:100AA300AD011201170DAE0112011782AE01120141
:100AB3001712AF0112011749B00112011725B10135
:100AC30012011742B10112011795B101120117E684
:100AD300B10112011780B201120117A5B20112016F
:100AE300170EB30112011749B30112011769B301BC
:100AF3001201171CB401120117D9B40112011766B0
:100B0300B5011201171FB60112011785B6011201B3
:100B130017E9B6011201170EB701120117B6B70193
:100B230012011708B9011201174BB9011201179BE2
:100B3300B901120117EEB90112011715BA01120119
:100B4300177CBA01120117C5BA0112011716BC01AD
:100B530012011778BC0112011744BD011201177469
:100B6300BD011201179BBD01120117E8BD0112015E
:100B730017EBBE0112011714BF011201173FBF018A
:100B83001201179ABF01120117CBBF011201170EF1
:100B9300C0011201172DC00112011788C0011201F3
:100BA30017A3C001120117F0C00112011703C101FD
:100BB30012011720C10112011735C1011201173E9D
:100BC300C2011201176AC3011201179EC401120167
:100BD3001766C50112011709C70112011727C701BB
:100BE30012011743C701120117EBC70112011721A5
:100BF300C8011201173FC8011201175EC801120193
:100C03001752CA0112011780CB01120117AECB0193
:100C1300120117DFCB0112011708D4011201175D6E
:100C2300D50112011787D60112011734D70112011A
:100C33001760D70112011779D701120117BBD7012A
:100C4300120117FBD701120117A5D801120117785A
:100C5300D901120117C0D90112011724DA011201B7
:100C63001763DA011201179EDA01120117D7DA01AD
:100C73001201173ADB01120117F8E101120117FE05
:100C8300E101120117B8E7011201170BEB01120181
:100C93001756EB01120117F8EB0112011713EC01C0
:100CA3001201174EEC0112011737ED01120117ADB6
:100CB300ED01120117C1ED01120117ECED01120153
:100CC300171FEE011201175EEE0112011795EE01D7
:100CD300120117DDEE011201173EEF011201176930
:100CE300EF011201177DEF0112011790EF011201BD
:100CF30017A7EF01120117D0EF01120117E5EF015A
:100D03001201177BD3021201178ED3021201179F10
:100D1300D302120117C8D3021201170BD402120116
:100D23001751D4021201178ED402120117F4D40200
:100D33001201170DD50212011718D502120117253A
:100D4300D5021201173CD5021201174AD50212012E
:100D5300175CD50212011771D50212011786D5024D
:100D630012011791D5021201179CD502120117A87F
:100D7300D502120117C9D502120117D4D5021201E7
:100D830017F8D502120117A2D602120117B2D60222
:100D9300120117CCD602120117E7D602120117056A
:100DA300D70212011710D70212011791D7021201AD
:100DB300174BD80212011756D8021201176BD8022B
:100DC30012011776D802120117D6D802120117DCC6
:100DD300D802120117E2D802120117E8D802120151
:100DE30017EED80212011708D90212011735D902DA
:100DF300120117FA8E021201179A8F021201172F8E
:100E030091021201178893021201176494021201CE
:100E1300178D9402120117CB94021201173B95020E
:100E2300120117F296021201171B9702120117A75C
:100E33009702120117D99702120117E697021201BE
:100E4300173198021201175A9802120117389B02A0
:100E5300120117319C02120117899C02120117E437
:100E63002100120117F422001201178F230012012F
:100E730017B82300120117C42300120117FE240020
:100E83001201174A25001201173627001201171DF8
:100E930028001201174B28001201175E2A001201C5
:100EA30017AB2D00120117782E00120117C22F0065
:100EB300120117D630001201179E31001201177369
:100EC3003200120117DB32001201179833001201AE
:100ED30017D433001201170634001201179E36008F
:100EE300120117823700120117EC37001201173C69
:100EF3003800120117BB3800120117213900120103
:100F030017B63B00120117AD3E00120117BC980340
:100F1300120117E19803120117569903120117F6EC
:100F230077001201170678001201170E78001201DC
:100F330017F67800120117827A00120117B67A00A9
:100F4300120117E97A001201171D7B0012011750D5
:100F53007B00120117807B00120117B27B00120184
:100F630017F97B001201172C7C00120117737C0008
:100F7300120117CD7C00120117007D0012011754D6
:100F83007D00120117877D00120117DA7D0012011F
:100F9300171D7E00120117507E00120117897E0073
:100FA300120117C37E001201174BB202120117552B
:100FB300B2021201179BB202120117E6B20212012A
:100FC3001722B3021201177EB302120117A6B3024E
:100FD3001201179CB602120117A5B602120117FBE4
:100FE300B60212011726B70212011733B702120114
:100FF30017A5B7021201172EB80212011797B802EC
:10100300120117D0B80212011751B9021201179039
:10101300B902120117C4B902120117D6B90212019B
:1010230017F5B902120117FEB902120117C0BA026D
:101033001201172D9E031201175D930312011795D9
:101043009303120117C99303120117389503120171
:1010530017647F001201177A7F00120117847F0043
:10106300120117CE7F00120117A1FF021201170B05
:10107300F00212011723F002120117C9F002120144
:10108300170AF10212011727F1021201174AF1029E
:1010930012011791F102120117C7F102120117FE93
:1010A300F1021201178DF302120117C79B031201FC
:1010B30017EA9B03120117199C03120117B09C0333
:1010C300120117F59C03120117EB8B031201172072
:1010D3008C031201174C8C03120117BF5500120128
:1010E300176957001201179F58001201176359001F
:1010F300120117DF5900120117515A001201177715
:101103005A00120117BE5F001201172D6000120171
:10111300176A6100120117AD6100120117E1610046
:10112300120117ED62001201171C6300120117660A
:1011330063001201179A6300120117BC63001201C6
:1011430017A76400120117DB64001201175E650024
:10115300120117796500120117D46500120117A84F
:101163006600120117DA9F03120117EB9F031201A6
:101173001788A103120117D3A1031201179EA2031B
:1011830012011791A003120117A1A003120117B6B0
:10119300A00312011728A1031201178DFE021201E9
:1011A3001716FF0212011788FF021201172C97036B
:1011B300120117529703120117B89703120117D898
:1011C30097031201172598031201177E9803120142
:1011D30017AF9803120117B298031201178BF70286
:1011E300120117A0F702120117E8F8021201177E85
:1011F300F902120117F2F9021201170EFA02120193
:101203001723FA0212011731FA021201174BFA02DD
:1012130012011762FA021201178CFA02120117DD8A
:10122300FA0212011788A20312011798A2031201EE
:10123300179BA203120117F87F001201171C8903E1
:10124300120117728B03120117E88B03120117495E
:101253009A031201179C9A03120117FA9A031201B7
:1012630017659B031201171791031201174291038C
:10127300120117189203120117F192031201176555
:10128300CB021201174FCC021201178DCC021201AF
:1012930017E3CC0212011738CD0212011795CD02C4
:1012A3001201172ACE0212011734CF0212011710AE
:1012B300D10212011796D102120117F9D1021201BC
:1012C3001707D20212011730D302120117E19C0251
:1012D300120117D09F0212011739A1021201178BB5
:1012E300A1021201170FA20212011731A402120167
:1012F3001718A702120117D4EA0212011761ED02AF
:1013030012011709EE0212011712EF0212011783DD
:10131300EF02120117AAD90212011711DA02120100
:101323001730DA02120117BDDA0212011711DB02BC
:1013330012011739DC0212011771DC021201178442
:10134300DD0212011739DF02120117B5FF01120185
:101353001713A203120117DDA10312011742A203FF
:101363001201176AA203E066701008A3E066700A10
:1013730008A3E066700408A3E06622C3E7960809A1
:10138300E7960809E7960809E79622C3E09608A3BB
:10139300E09608A3E09608A3E09622080808EAC0AE
:1013A300E0EBC0E086F0E7A4FA180986F0E7A42A88
:1013B300FA180986F0E7A42AFA180986F0E7A42A9E
:1013C300FA1986F0E7A4FBE5F02AFA190886F0E794
:1013D300A42BFBE5F03AFA190886F0E7A42BFBE50A
:1013E300F03AFA18180986F0E7A4C5F02BFBE43AA3
:1013F300FA1908E7C5F0C6A426F6E5F03BFBE43A84
:10140300FA1886F0E7A4F6E5F00826F6E43B08F6BA
:10141300E43A08F6D0E0FBD0E0FA22E4CFC0E0E4FF
:10142300CEC0E0E4CDC0E0E4CCC0E075F020C3E67C
:1014330033F608E633F608E633F608E633F618180B
:1014430018EC33FCED33FDEE33FEEF33FFC3EC97C3
:1014530009ED9709EE9709EF97191919400FFFEC5A
:1014630097FC09ED97FD09EE97FE191906D5F0BE15
:10147300ECF709EDF709EEF709EFF7191919D0E0C1
:10148300FCD0E0FDD0E0FED0E0FF226016080808A3
:10149300C6C313C618C613C618C613C618C613C6C2
:1014A300D5E0EA227009080808226016181818C641
:1014B300C333C608C633C608C633C608C633C6D543
:1014C300E0EA22E627F60809E637F60809E637F6E2
:1014D3000809E637F622E026F608A3E036F608A365
:1014E300E036F608A3E036F622E026F008A3E0365D
:1014F300F008A3E036F008A3E036F022C3E697F63F
:101503000809E697F60809E697F60809E697F6222A
:10151300C3E0C696F608A3E0C696F608A3E0C6960F
:10152300F608A3E0C696F622C3E096F008A3E09679
:10153300F008A3E096F008A3E096F022E056F60840
:10154300A3E056F608A3E056F608A3E056F622E019
:1015530056F008A3E056F008A3E056F008A3E056BF
:10156300F022E046F608A3E046F608A3E046F608B4
:10157300A3E046F622E0F608A3E0F608A3E0F608A7
:10158300A3E0F622E6F008A3E6F008A3E6F008A33A
:10159300E6F022CAC0E0E6F0A308DAFAD0E0FA22C5
:1015A300CAC0E0E0A3C582CCC582C583CDC583F0A4
:1015B300A3C582CCC582C583CDC583DAE6D0E0CA94
:1015C30022C3E498F8E499F91216058026C3E49A35
:1015D300FAE49BFBE920E7E9121605E498F8E4999D
:1015E300F922C3E498F8E499F9121605E498F8E4AB
:1015F30099F9C3E49AFAE49BFB22EB20E7CFE920B5
:10160300E7E0B90010BB0008E88AF084F8AAF022EA
:10161300E4FBC8FA22EB70227B10C833C8C933C974
:10162300335007C39AC3DBF280069A50012ADBEAE0
:10163300C833F4C8C933F4C9FA2275F008E4C833CF
:10164300C8C933C933C99AC99B5004C92AC93BD5F0
:10165300F0ECFBC833F4C8E4C9FA22600D08C6A253
:10166300E713C618C613C6D5E0F322600C08C6C339
:1016730013C618C613C6D5E0F422700422600D18F1
:10168300C6C333C608C633C6D5E0F41822251010E6
:10169300AF08F510400215118008F510400215112E
:1016A300D2AF22C0D0251010AF08F510500205119B
:1016B3008008F51050020511D2AFD0D0222510F5C5
:1016C3008210AF08F510400215118008F510400292
:1016D3001511D2AF851183222510F582E43511F55A
:1016E3008322E4732510C582C0E0E51134FFC5836E
:1016F300C0E0E510C3958224F8F8E4C5A8858311FA
:10170300858210C5A8E8CEF0A3E520F0A37808E60B
:1017130008F0A3DEFAEFF0A3E58124FAF8E608F077
:10172300A3E608F0A3E608F0A30808E608F0A3E69A
:1017330008F0A315811581D0E0FED0E0F8158115DE
:10174300811581E8C0E0EEC0E0222510C582C0E02B
:10175300E51134FFC583C0E0E510C3958224F9F891
:10176300E4C5A8858311858210C5A8E8CEF0A3E55A
:1017730020F0A37808E608F0A3DEFAEFF0A3E581F2
:1017830024FBF8E608F0A3E608F0A30808E608F04F
:10179300A3E608F0A315811581D0E0FED0E0F8158B
:1017A300811581E8C0E0EEC0E022851183851082B7
:1017B300E0A3FEE0A3F5207808E0A3F608DFFAE053
:1017C300A3FFE0A3C0E0E0A3C0E0E0A3C0E0E0A388
:1017D300C0E0E0A3C0E0E4C5A8858210858311C5FD
:1017E300A8D083D082020114851183851082E0A3DF
:1017F300FEE0A3F5207808E0A3F608DFFAE0A3FFF4
:10180300E0A3C0E0E0A3C0E0E0A3C0E0E0A3C0E049
:10181300E4C5A8858210858311C5A8D083D0822210
:10182300C0D02510C582C0E0E51134FFC583C0E0F8
:10183300E510C3958224F310AF08858311858210C8
:101843008008858311858210D2AFC8F0A3E9F0A385
:10185300EAF0A3EBF0A37908E709F0A3D8FAECF0D8
:10186300A3EDF0A3EEF0A3EFF0A3D0E0F0A3D0E05C
:10187300F0A3D0E0F0A3E520F0A3E5F0F0A32285E8
:101883001183851082E0C0E0A3E0F9A3E0FAA3E0AE
:10189300FBA37808E0F608A3DFFAE0FCA3E0FDA3CE
:1018A300E0FEA3E0FFA3E0C0E0A3E0C0E0A3E0F517
:1018B300D0A3E0F520A3E0A3F5F0E4C5A885831148
:1018C300858210C5A8D082D083D0E0F8D0E03274EE
:1018D300048006740280027401C0E0F4041216C08E
:1018E300D0E0121596227404800474028000CCC0E8
:1018F300E0EDC0E0E510C39CCCAD1150011D10AF6D
:10190300068C108D1180068C108D11D2AF1215A389
:10191300D0E0FDD0E0FC22D083D082C5F0E493A3D5
:10192300C5F0C395F0F5F0E493A3C395F04005E546
:10193300F0048001E475F002A42582F582E5F03518
:1019430083F583E493A3C0E0E493C0E022D083D083
:1019530082E9C0E0E493A3C386F0C5F095F0F908EB
:10196300E493A386F0C5F095F0700BE493A3C399B9
:101973004005E9048002A3E475F002A42582F58200
:10198300E5F03583F583D0E0F9E493A3C0E0E49375
:10199300C0E022D083D082CCC0E0E493A3600612DF
:1019A30019C01470FAE493A360061219DF1470FAD5
:1019B300D0E0FCE493A3C0E0E493C0E022C0E0E401
:1019C30093A3D39C5010E493A3C39C400AD0E0D0CC
:1019D300E0D0E00219B3A3A3A3D0E022C0E0E493D4
:1019E300A36C7009D0E0D0E0D0E00219B3A3A3D078
:1019F300E022D083D082ECC0E0EDC0E0E493A3FC0E
:101A0300E493A3FDED4C600D121A41EC24FFFCEDB1
:101A130034FFFD80EFE493A3FCE493A3FDED4C605E
:101A23000D121A80EC24FFFCED34FFFD80EFD0E0B3
:101A3300FDD0E0FCE493A3C0E0E493C0E022C0E067
:101A4300C3E49396087401939618400FE493667069
:101A53000808740193661870007019A3A3C3E49374
:101A630096087401939618A3A3400DD0E0D0E0D05C
:101A7300E0021A31A3A3A3A3A3A3D0E022C0E0C032
:101A8300F088F0E493667008087401936618700098
:101A9300A8F0A3A3700BD0F0D0E0D0E0D0E0021AFE
:081AA30031A3A3D0F0D0E02232
:101AAC0074F512174DEAFEEBFFEE2434F8EF340018
:101ABC00F988088909EE2435121B4DF8EE243712EB
:101ACC001B4DF50AEC850AF0A4FCAAF0850AF0ED92
:101ADC00A42AFDEC28F8ED3400F97A257B001216C7
:101AEC0005EA850882850983F05407F87401B8006B
:101AFC00028004C333D8FCC0E0E0131313541FF866
:101B0C00EE28F8EF3400F9745D28F582E439F5839A
:101B1C00D0E0FAE05A8508828509837020E0C0E0A5
:101B2C00EE2436121B4DF5F0D0E084A8F0EE28F828
:101B3C00EF3400F9743828F582E439F583E0F98044
:101B4C001AF582EF3400F583E02290902178081288
:101B5C0015788A828B8378081215527F040217EB52
:101B6C0074F412174D8A088B09EA2434F582EB12AF
:101B7C001B50C0E0EA2435F582EB3400F583D0E04D
:101B8C00F08A828B83A3A3A3A3A3E0FAA3E0FB8533
:101B9C000882850983A3A3A3A3A3A3A3E0FCA3E0CA
:101BAC00FDECC39AFEED9BFFE5082480F50AE509E0
:101BBC003400F50B850A82F583E06401702DE5088D
:101BCC002481F582E5093400F5831218ED121C0A04
:101BDC0074021216A6E960137C057D06AA08AB09EF
:101BEC00120B17E4850A82850B83F0EEFCEFFDAA3D
:101BFC0008AB09121AAC1221997F050217EBC082AF
:101C0C00C083851082851183E0F8A3E0F9C3EA9CB8
:101C1C00EB9D500BC3EC98ED99401279018010C3E9
:101C2C00EA98EB9940F5C3EC98ED9950EE7900D019
:101C3C0083D08222C0E074EF121823759B00906150
:101C4C0082E0A2E65059E591A2E650537591BF127D
:101C5C000CDF751200120D5DE99004F6F07900129C
:101C6C000D3F120A7B9004FBE0548164817024E0E8
:101C7C00D2E6F0120CEB8A088B098C0A8D0B909033
:101C8C004178081214D9AA08AB09AC0AAD0B120C96
:101C9C00C1800C7A017B009004F4E0F912100990D9
:101CAC006182E0A2E55024E591A2E5501E7591DF1A
:101CBC009004F5E0640D701390068CE004F0642839
:101CCC007002E4F07A00E0F9120DE7906181E0A275
:101CDC00E35009E5E9A2E3500375E9F7906182E06E
:101CEC00A2E75009E591A2E7500375917F7F0402AA
:101CFC001882C0E0C0D0C082C083906183E0A2E0B3
:101D0C005009E5BFA2E0500375BFFEE0A2E1500907
:101D1C00E5BFA2E1500375BFFDE0A2E25009E5BFAB
:101D2C00A2E2500375BFFBE0A2E35009E5BFA2E3BA
:101D3C00500375BFF7E0A2E45009E5BFA2E45003DD
:101D4C0075BFEFE0A2E55009E5BFA2E5500375BFF2
:101D5C00DFE0A2E65009E5BFA2E6500375BFBFD095
:101D6C0083D082D0D0D0E032C0E074F2121823E5D8
:101D7C00A7A2E4500FE5A1A2E4500953A7EF75A167
:101D8C00EF121DDFE5A7A2E55023E5A1A2E5501D4A
:101D9C0053A7DF75A1DF9004FBE0A2E6500FC2E66B
:101DAC00F07A017B009004F4E0F9121009E5A7A287
:101DBC00E15009E5A1A2E1500375A1FDE5A7A2E25E
:101DCC00500CE5A1A2E2500653A7FB75A1FB7F01C5
:101DDC0002188274F812174D7512017A007B0012EA
:101DEC000CC7A2AFE492E0FED2AF7A207B00900445
:101DFC00F4E0F91210937A207B009004F4E0F912CD
:101E0C00100F906182E0D2E6F085C6138018900422
:101E1C00FAE06401700874F855C64405F5C653BE63
:101E2C00FCE5BE1221407401651260E253BEFCE574
:101E3C00BEEEA2E092AF7F010217EB74F112174DC8
:101E4C008A0C8B0D8C0E8D0F740F1216DB7808120A
:101E5C001578909021780C12153F909021780812EB
:101E6C00153F780C790812137E501C780C790812E7
:101E7C0014FF908FF178081215787808790C1213EA
:101E8C007E501C7901801A7808790C1214FF908FFF
:101E9C00F1780C121578780C790812137E50E479CD
:101EAC0000021F8E74F112174D74FC1216908510DF
:101EBC0082851183EAF0A3EBF0A3ECF0A3EDF074B0
:101ECC00131216DB7808121578909021780C1215E5
:101EDC0078851082851183780C1215529090217898
:101EEC000812153F851082851183780812138E40D5
:101EFC0014851082851183780C121578780C79086A
:101F0C001214FF801E750C00750D00750E00750FF8
:101F1C0001780C79081214FF851082851183780CD6
:101F2C001214D9AA0CAB0DAC0EAD0F74041216A67C
:101F3C00805074F112174D8A0C8B0D8C0E8D0F7412
:101F4C000F1216DB7808121578909021780C121568
:101F5C003F909021780812153F7808790C12137E67
:101F6C004011780C79081214FFAA0CAB0DAC0EAD15
:101F7C000F800F7808790C1214FFAA08AB09AC0A71
:101F8C00AD0B7F080217EB74F512174D8C828D8305
:101F9C0078081215788A828B83780812152B121FF9
:101FAC00E8C3E098F0A3E099121FDA401E90904924
:101FBC0078081215788A828B8378081214EC8E823A
:101FCC008F83E02420F0A3E0344EF0021B56F08EF9
:101FDC00828F83C3E09420A3E0944E22EA2404F879
:101FEC00EB3400F9E8FEE9FF8C828D83A3A3A3A355
:101FFC00E0F8A3E0F98E828F832274F512174DE975
:10200C00C333F8E433F9E824E8F582E9348EF58338
:10201C00E0F8A3E0F9758306758226E028F508A39D
:10202C00E039F50978081218D69090457808121501
:10203C0078AA08AB09AC0AAD0B122148740212162F
:10204C00A68A088B098C0A8D0B7410780812148ED2
:10205C00AA08AB09021B6774F112174D8A0C8B0D81
:10206C008C0E8D0F740F1216DBE0FAA3E0FB7411CB
:10207C001216DBE0F508A3E0F50974131216DBE089
:10208C00FEA3E0FF78081218D674012AF508E43B89
:10209C00F509750A00750B00780C790812139E90DF
:1020AC008FDD7808121578780C790812139EAA0C1B
:1020BC00AB0DAC0EAD0F12214874021216A68A0895
:1020CC008B098C0A8D0BEA7001EB60047A0180029B
:1020DC007A007410780812148EEA2508F8E4350991
:1020EC00F974D828FCE439FDECF8EDF97A717B022F
:1020FC00121605880889098E828F83780812158735
:10210C00ECF8EDF97A717B021216058A088B0974CA
:10211C00012508F508E43509F50974057808121647
:10212C007D8E828F83A3A3A3A3E508F0A3E509F01A
:10213C00021F8E008512878513C622008E148F1500
:10214C00858219858318851082851183E0CEA3E0E2
:10215C00CF851982851883EBC9EAC8EDCBECCA751B
:10216C00F010C3E833C8E933C9EA33CAEB33CBC345
:10217C00EA9EF517EB9FF516B35004AB16AA17ECB5
:10218C0033CCED33CDD5F0DAAE14AF1522C082C00E
:10219C0083E9906000F0D083D08222C0E074F21208
:1021AC001823E589A2E150031211CB758900C2C531
:1021BC007F01021882C0E074F2121823E58BA2E0B2
:1021CC0050031211CB758B00C2E880E4C0E0C2C78B
:1021DC0053BEFCE5BED0E03274F11216E774FE1269
:1021EC001690851082851183ECF0A3EDF0E9FF8A3F
:1021FC000E74111216DBE0F50CA3E0F50D7E0090C9
:10220C0008A8E07002A3E0600579110222DEE50C5B
:10221C007002E50D60417A1F7B001204ED8A088B79
:10222C0009A808A909E50C2415F508E50D3400F5F5
:10223C0009850882F583E0C398E499401A7A207BDB
:10224C00001204ED8A0A850882850983E0FAC3E549
:10225C000A9AEB94005004790280777A637B00121F
:10226C0010459008A8EAF0A3EB122DA57002A3E08C
:10227C0070047913805C7C637D007900120FC712A7
:10228C002F29E4122DA5122F32EF1222EFE50EF0BA
:10229C0085108285118312377C122E6BA3A3E8F074
:1022AC00A3E91222EFA3A3A3E50CF0A3E50D122AD8
:1022BC002CE4F0A3122DA51222E9E4F0EF60051234
:1022CC000EC5E9FE122F297401F0EE6003120EEF19
:1022DC00EEF974021216A67F070217ADE0241A124B
:1022EC002A3722122FACA32274F61216E77E009026
:1022FC0008A8E07002A3E07005791202238C122F5B
:10230C003AFF74026F600A74036F600574046F7097
:10231C00E8122D676C7003A3E06D60047902806095
:10232C007508108E0978081218D6EAFCEB123227C1
:10233C001216A6122F6E1218D6122D961216A6125F
:10234C003B5188828983E0FA9008A8E0FBA3E0F572
:10235C00838B82E0600974036A70237402801574A5
:10236C00046A7009740288828983F0801174036A8C
:10237C00700C740588828983F0120ECBE9FEEEF99D
:10238C0002254574F71216E7E9FE9008A8E07002E2
:10239C00A3E06013122D676A7003A3E06B700874DE
:1023AC00016E7003120EEF7F010217ADC082C08365
:1023BC007917120EF50232BA74F71216E774ED1291
:1023CC001690EAF8EBF9E4851082851183F0888287
:1023DC008983A3A3A31238B28A828B83E0F508E821
:1023EC002402FEE93400FFE50812191A010AEE2452
:1023FC001224122430247A2488249624A424B2246F
:10240C00C124D024DF2474011216DBAC82AD8312FC
:10241C000F31E9FA74126A701974068510828511ED
:10242C0083F0803A74011216DBAC82AD83120F3D3F
:10243C00E9FAEA701D74011216DBAC82AD83A908AF
:10244C008E828F831238B5120E9BE985108285110E
:10245C0083F0851082851183E070030224F3AC8233
:10246C00AD838E828F831238B5120E7D807C740101
:10247C001216DBAC82AD83120F4980B474011216B4
:10248C00DBAC82AD83120F5580A674011216DBAC47
:10249C0082AD83120F61809874011216DBAC82AD91
:1024AC0083120F6D808A74011216DBAC82AD83121D
:1024BC000F7F02243C74011216DBAC82AD83120F29
:1024CC008502243C74011216DBAC82AD83120F9191
:1024DC0002243C74011216DBAC82AD83120F9D02F8
:1024EC00243C7407022427120E0B74131216A60236
:1024FC0023B374F61216E7ECFEEDFF75084F750961
:10250C000F78081218D679021237DC1216A6E9F5E4
:10251C00088E828F83E0F9120EF5A908801B7808CB
:10252C001218D674021216DBAC82AD83123B89747E
:10253C00021216A674101216A67F020217AD74F2C0
:10254C001216E774E0121690EAFEEBFF8C0A8D0B64
:10255C00742E1216DB122A0E7C107D007900851069
:10256C0082851183AA82AB83120FC79003C1E0A2AC
:10257C00E240030226F69008A8E07002A3E0700384
:10258C000226351228187003A3E06F60030226356B
:10259C0012367B6003022635123B27FC74066C70E6
:1025AC004474101216DB85820C85830D780C12187E
:1025BC00D69008A8E0244BF50CA3E03400F50D7878
:1025CC000C1218D69008A8E0242B1230A91216A6CB
:1025DC00E970561227091218D674121216DBAC8247
:1025EC00AD830226A41227277001EB603C123189BF
:1025FC0074116C60030226C2E065087004A3E065E8
:10260C00097021750C08750D00780C1218D612275C
:10261C00151216A6E96401700B1227091218D612AE
:10262C003E7280747932120EF5EEFAEFFB12099DB0
:10263C008A0C8B0DA80CA90DE87001E97003022619
:10264C00F6E82420F50CE93400F50D850C82F583B1
:10265C001238B5EA7001EB70030226F6EA2410F585
:10266C0082EB123DC165087004A3E06509707B75AF
:10267C00080875090078081218D61227151216A624
:10268C00E964017065850C82850D83123B21123D36
:10269C00BBF50878081218D674021216DB1233CA6E
:1026AC001216A6EEFAEFFB851082851183AC82AD73
:1026BC0083120829803BE065087004A3E06509607B
:1026CC0003022635750C08750D00780C1218D612FD
:1026DC0027151216A6E964016003022635123E7214
:1026EC00123DBBF50875090080A9EEFAEFFB120844
:1026FC002F790174201216A67F060217AD120F0750
:10270C00E9F508750900780822EA2412FCEB34007C
:10271C00FDAA0AAB0B120FC17402229008A8E02488
:10272C005B123222FAA3E0FBEA2274F41216E7EAF7
:10273C00FEEBFF89089008A8E07002A3E07003028A
:10274C0027E01228187003A3E06F60030227E01241
:10275C002D76FA74066A706C12280CE0605C900896
:10276C00A9123B77A2E0501A122A16F5838C82A389
:10277C00A3A3A3A3E0A2E05009740788828983F085
:10278C0080778A828B83E05402600912319860044E
:10279C00740980E78A828B83E05404600E123B65D7
:1027AC006009740B88828983F0804E120F01122805
:1027BC004570467900120EF5803F120EFB1228452B
:1027CC00703780EF74116A700BE50860037508327E
:1027DC00A90880E1E5087018EEFA12099D8A828B2F
:1027EC0083E5827002E5836007A3A3A3E0D2E4F043
:1027FC00EEFAEFFBA90812064379017F040217AD2C
:10280C009008A8E0FAA3E0F5838A8222122D6B6E61
:10281C0022C082C0839008A8E07002A3E060171267
:10282C002F8E7005120EFB8003120F0112284570BB
:10283C00057900120EF50232BA12320D64122274AE
:10284C00F01216E774E3121690740D1216DBEAF010
:10285C00A3EBF0740B1216DBECF0A3ED122DA570AC
:10286C0002A3E070057912022A091238AF12099DF1
:10287C008A088B09AE08AF09EE7001EF7005791468
:10288C00022A099008A8E024051222EB1238B5128E
:10289C0032476076122A4AC0E074011216DBD0E08F
:1028AC001233811216DB123361C0E074041216DB92
:1028BC00D0E01233781216DBAC82AD838983888228
:1028CC0074021215A3851082851183A882A98374C2
:1028DC00091216DBE8F0A3E9122A2C122A0E1205B3
:1028EC002FE9F50A790012053574071216DBEAF0A8
:1028FC00A3EBF08E828F83A3A3A3A3E0F50BEE24AE
:10290C0005F50EEF3400F50F8077122A16FD7409C9
:10291C001216DBECF0A3EDF0122A4AC0E07401129F
:10292C0016DBD0E01233811216DB123361C0E07477
:10293C00041216DBD0E01233781216DBAC82AD83B6
:10294C008983888274021215A38510828511838570
:10295C00820885830912052FE9F50B7900120535DC
:10296C008A0E8B0F8E828F83A3A3A3A3E0F50AEEAE
:10297C002405F8EF3400F974071216DBE8F0A3E92C
:10298C00F074161216DBAC82AD83AA08AB09120FD9
:10299C0025740F1216DBAC82AD8374091216DB1290
:1029AC0038B5120F1F742D1216DB1218ED780E129B
:1029BC0018D6E50BF50878081218DA740C1216DB29
:1029CC001218ED74161216DB8582088583097808B7
:1029DC001218D6741F1216DB8582088583097808B5
:1029EC001218D6A90A74161216DB123B217418128F
:1029FC0016DB1238B5120E1D740B1216A6741D02BE
:102A0C003774E0F508A3E0F50922122A1A2290087F
:102A1C00A8E024181230BD8C828D83E0FCA3E02248
:102A2C00F09008A8E02418122A3722122A3B22F828
:102A3C00122A4022A3E03400F988828983228A82F8
:102A4C008B83E0851082851183123391122810A399
:102A5C00E02274F01216E774FF121690E9851082CA
:102A6C00851183F08A0A8B0BECFEEDFF75080012C2
:102A7C00099D8A0E8B0FEA7001EB70057908022B09
:102A8C007B9008A8E07002A3E06003022B3B85104A
:102A9C0082851183E0640B70399003C1E0A2E3508E
:102AAC002CEEFAEFFB120E35890878081218DAE5CD
:102ABC000E2405FCE50F3400FDAA0AAB0B850E8233
:102ACC00850F83E0F912054774011216A6790002EE
:102ADC002B7BE0640170F69003C1E0A2E250EEEEB5
:102AEC002402FAEF3400FB120E35E9FA8E828F8342
:102AFC00A3A3A3A3A374021218F18E828F83A3A3A2
:102B0C00A3A3E0F50878081218DAEAF50878081299
:102B1C0018DA8E828F83A3E0FD8E828F83E0FCAA6D
:102B2C000AAB0B790012064974041216A6809E1289
:102B3C002D67650A7004A3E0650B6003022A888583
:102B4C001082851183E012191A010A3C2D6F2B801B
:102B5C002B892BEC2B422DF52B652C6F2CC52CCFF8
:102B6C002C3C2DEEFAEFFB120EA1E9F508A9087426
:102B7C0001023774EEFAEFFB120EA780ED75090017
:102B8C00750A10750B00780A1218D6EEFCEFFD9042
:102B9C0008A8E0243B12322E1216A6122F8E6014B7
:102BAC00120ED1E96003750908122F297405F085FE
:102BBC00090880B9122D7664047004740380EF90B8
:102BCC0008A8E0241BF50AA3E03400F50B780A12E0
:102BDC0018D6122D961216A6120ECBE970C880C903
:102BEC00EEFAEFFB120EAD8081122D5874076A605D
:102BFC0008740C6A6003022D3C122D8C7002A3E049
:102C0C00700A7A1B122D4A245D122D819008A8E0BF
:102C1C00245D12272D7001EB7003022D3C750A10F8
:102C2C00750B00780A1218D6EEFCEFFD1233CE129B
:102C3C0016A6120F07E9C0E0122D8C1222E9D0E083
:102C4C00122DA5123B59122D60700A7408888289C6
:102C5C0083F0022B79740D80F4EEFAEFFB120EB3B5
:102C6C00022B76122D5874096A6008740E6A600380
:102C7C00022D3C1232187002A3E0700A7A16122D43
:102C8C004A245F122D819008A8E0245F12272D7032
:102C9C0001EB6015750A10750B00780A1218D6EE48
:102CAC00FCEFFD1233CE1216A6123B51122D6070A2
:102CBC0004740A8098740F8094EEFAEFFB120EB92C
:102CCC00022B76123B477002A3E070197A1412366D
:102CDC007124611222EB12338D7002A3E070067521
:102CEC000808022B799008A8E0246112272D7001A6
:102CFC00EB602A750A10750B00780A1218D6EEFCD8
:102D0C00EFFD1233CE1216A6909049780C1215785E
:102D1C00123B4724101222EB780C121587122F8EBF
:102D2C006006120EBF022B797900120EF5022B7978
:102D3C00750807022B798E828F83E0F980EC7B007B
:102D4C001210458A0A8B0B9008A8E0229008A91251
:102D5C003213FA2212280CE0640122122D6B22127B
:102D6C002D6F22122FB1A3A3E0229008A8E024011A
:102D7C000812322322123B38E50AF0A3E50BF022AD
:102D8C009008A8E0245D123222229008A8E0242B9F
:102D9C001230B2120E95740222F09008A8E0227440
:102DAC00F61216E77E009008A8E07002A3E060051A
:102DBC00122F8E60057E07022E66120ED7E9FA607E
:102DCC0003022E5A120EC59008A8E02405123E6B81
:102DDC00E8FCE9FD8C828D83E0122E705008122FD6
:102DEC00626003122F4D122F5A601474036A60052F
:102DFC0074046A700E7901122F937404F0805B795D
:102E0C000280F474016A600574056A704D122E6BB1
:102E1C007402122DA5122F2588828983E06401701B
:102E2C000B7C107D007900120FC7801D7508108E69
:102E3C000978081218D68C828D83E024021230BDDA
:102E4C001233CE1216A6122F48122F82800C741831
:102E5C006A70050E0E0E80027E08EEF902254512F0
:102E6C00280CA3222412123222A2E02274F612168B
:102E7C00E77E00122F8E70057E07022F22120ED7CE
:102E8C00E9FA6003022F1A123E80122E70500812BB
:102E9C002F626003122F4D122F5A600A74036A605E
:102EAC000974046A700E790180027902122F9374EE
:102EBC0003F0806274016A600574056A7058122F01
:102ECC00297402F07C107D0079009008A8E0122F84
:102EDC0025120FC7122F3A6401601D7508108E0958
:102EEC0078081218D6123E802402FCA3E03400129B
:102EFC0032271216A6122F48122F6E1218D6122D28
:102F0C00961216A6120ECBE9600C7E088008741877
:102F1C006A70F70E0E0E022E661230C422122F2E7D
:102F2C00A3229008A8E0F8A3E0F583888222122F50
:102F3C003E229008A8E0241A123DEF22122FA0F096
:102F4C00229008A8E02417123222D2E0F022122F8D
:102F5C003EFA74026A22123DE5122F32A3A3E0540A
:102F6C000322122F829008A8E0241BF508A3E0345A
:102F7C0000F50978082279109008A8E0242B123E5D
:102F8C00A322122F2EE022123DFD12064F122FA06B
:102F9C00122FAC229008A8E02417123DEFD2E222A7
:102FAC00F0122FB1229008A8E0F8A3122FBB22E058
:102FBC00F5838882A32274F61216E774E012169039
:102FCC007E007508108E0978081218D6EAFCEBFD05
:102FDC009008A8E0244B12322E1216A6741012166A
:102FEC00DB85820885830978081218D69008A8E03A
:102FFC00244B122D9C1216A67508108E09780812F7
:10300C0018D69008A8E0243B1230BD74121216DBBF
:10301C00AA82AB83120FC174021216A6E964017066
:10302C006C122F8E605D85108285118385820885D8
:10303C00830978081218D69008A8E0242BF508A369
:10304C00E01230A21218D69008A8E0244B1230A936
:10305C001216A6E97023120F078E088E0978081233
:10306C0018D678081218D674041216DBAC82AD830D
:10307C001230CD1216A6E960027E08122F297406B2
:10308C00F0800C120ED1E960F27E0880027E04EE14
:10309C00F974200225423400F5097808221230B266
:1030AC00120E297404221230BD9008A8E01230C40C
:1030BC0022FCA3E03400FD222407FAA3E03400FB39
:1030CC0022123DFD120EDD74042274F61216E7EA8C
:1030DC00FCEBFD9008A8E0245D12272D7001EB702D
:1030EC0003023184123209FE74086E6008740D6E8E
:1030FC0060030231848C828D8312377C123189E813
:10310C00F0A3E91237E21218D6EC24020C0CED34C1
:10311C0000FDEA2412FAEB3400FB1233CE1216A691
:10312C0012323A702AE05402600E1231986009741F
:10313C00098A828B83F0803C88828983E054046006
:10314C00091232546004740B80E7120EBF8025E024
:10315C00541060091232C16004740E80D4888289C4
:10316C0083E0542060091232D56004741080C27957
:10317C0000120EF579008002790702254512318D77
:10318C0022EA2410F582EB3400F583221232C75464
:10319C00022274F61216E7123209FC740A6C6005EE
:1031AC00740F6C705375080675090078081218D6E0
:1031BC008A828B83A3AC82AD831232182410123214
:1031CC002E1216A612323A7018E05404600E123207
:1031DC00546009740B8A828B83F08018120EBF80A6
:1031EC0013E0542060091232D56004741080E67923
:1031FC0000120EF579008002790702254512320D76
:10320C00229008A8E0F8A3122FBBE0229008A8E0B7
:10321C00245F12322222F8123DF022FD9008A8E021
:10322C002407FAA3E03400FB120FAF740222123B06
:10323C009D123247640188828983229008A8E0FCA1
:10324C00A3E0F5838C82E02212325A5404229008B7
:10325C00A8E02418122A3BE0F8A312326A22122F9B
:10326C00BBA3A3A3A3E022C082C083123B92600540
:10327C00123B6B701C88828983E0541060051232FB
:10328C00C1700E88828983E0542060111232D5609F
:10329C000C74068A828B83F0120F01800774128AD9
:1032AC00828B83F012284570057900120EF5D083BD
:1032BC00D0820201141232C7541022122A1AF5833A
:1032CC008C82A3A3A3A3A3E02212325A542022740B
:1032DC00F61216E774F91216909008A8E07002A383
:1032EC00E0606B9008A8E02405123B4D12281012E8
:1032FC002A4EC0E074011216DBD0E0123381121694
:10330C00DB123361C0E074041216DBD0E0123378A8
:10331C001216DBAC82AD838983888274021215A3EA
:10332C001238AF12367B601E75081F75090F7808AE
:10333C001218D674021216DBAC82AD8379071237E1
:10334C00DC1216A6800A75082575090F80E0790134
:10335C007407022542AA82AB83120E3B9008A8E0A8
:10336C0024051232222415123B38E022123391121A
:10337C003E697405221233912412123222F974021E
:10338C0022EAF0A3EBF088828983E02274F612160D
:10339C00E774F01216907508107509007808121869
:1033AC00D69008A8E0241B1230BD74021216DB1252
:1033BC0033CA1216A675083775090F02252AAA8278
:1033CC00AB83120FAF74022274F61216E774F0126C
:1033DC00169075081075090078081218D69008A870
:1033EC00E0242B1230BD74021216DB1233CA1216F3
:1033FC00A675084375090F02252A74F01216E78A80
:10340C000C8B0D7E007A071236712418123E8770D1
:10341C0001EB700302366A7508078E0978081218DA
:10342C00D6AC0CAD0D1233CE1216A6123E80FAA3FA
:10343C00E0FB12367B60030235D5123DDFF50AA3A3
:10344C00E03400F50BEA2413FCEB3400FD850A8212
:10345C00850B83E0A2E092F08C828D83E0A2E020C9
:10346C00F001B35009A2E0E492E0F50880028E0866
:10347C00E054FEF8A3E0F974015508488C828D8362
:10348C0012368CC313A2E092F08C828D83E0C313AE
:10349C00A2E020F001B35013E054026004D2F0809B
:1034AC0002C2F0A2F0E492E0F880027800E054FD51
:1034BC00F508E8C333F8E43374025845081236981B
:1034CC00543FA2E092F08C828D83E01313543FA200
:1034DC00E020F001B35014E054046004D2F08002F8
:1034EC00C2F0A2F0E492E0F50880028E08E054FBF2
:1034FC00F50E7402780812167D74045508450E12E8
:10350C00369813541FA2E092F08C828D83E0131333
:10351C0013541FA2E020F001B35014E054086004CF
:10352C00D2F08002C2F0A2F0E492E0F50880028EA4
:10353C00088E09E054F7F50E7403780812167D74A2
:10354C0008123683540FA2E092F08C828D83E0C473
:10355C00540FA2E020F001B35014E054106004D2D8
:10356C00F08002C2F0A2F0E492E0F50880028E082E
:10357C008E09E054EFF50E7404780812167D741061
:10358C00123683135407A2E092F08C828D83E0C430
:10359C00135407A2E020F001B35014E0542060044F
:1035AC00D2F08002C2F0A2F0E492E0F50880028E24
:1035BC00088E09E054DFF50A7405780812167D743C
:1035CC00205508450AF0A3E9F09008A8E0241A1247
:1035DC003E6B850C82850D83A3E060118A828B8300
:1035EC00A3E06009740588828983F08073850C825E
:1035FC00850D83A3A3E054047015EA2412F582EB25
:10360C00123DC1A2E24004740180DBA2E2504B8562
:10361C000C82850D83E0FC9008A8E0FDA3E0F58307
:10362C008D82E08A828B836006E0FFECFD8004E0F3
:10363C00FDECFFEFC394055021EDC39405501B8F97
:10364C0008ED75F005A4243CFAE5F0348EFBE50892
:10365C002AF582E43BF583E0808C7E1880027E1391
:10366C00EEF90237777B001210459008A8E0229003
:10367C0008A9122F34E0225508450E12368CC422AC
:10368C00F0A3E9F0850A82850B83E02212368C13B5
:10369C00132274F01216E774E61216908A0E8B0F32
:1036AC008C0A8D0BE9FE742A1216DB12377C742CF3
:1036BC001216DB122A0EEC7001ED7005790202373E
:1036CC0072E8851082851183F074011216DBE9F023
:1036DC007C107D007900740A1216DBAA82AB83126F
:1036EC000FC78E0C750D00780C1218D6AC0AAD0BEA
:1036FC00740C1216DB1233CA1216A6E5087002E51A
:10370C0009601C750A08750B00780A1218D6AC08EB
:10371C00AD0974041216DB1233CA1216A680127C81
:10372C00087D00790074021216DBAA82AB83120F9B
:10373C00C7740A1216DB858208858309780812186B
:10374C00D674021216DB8582088583097808121854
:10375C00D674061216DBAC82AD83AA0EAB0F120820
:10376C002374041216A6741A1216A67F080217AD3B
:10377C00E0F8A3E0F92274F61216E774EE12169034
:10378C00EAFEEBFF741C1216DB1238B5851082852D
:10379C001183ECF0A3ED1237E21218D6EAFCEBFD24
:1037AC0074041216DB1233CA1216A6750867750953
:1037BC000F78081218D674021216DBAC82AD83791E
:1037CC000B1237D81216A67412022542EEFAEFFB32
:1037DC00120FA3740222F0750808750900780822EC
:1037EC0074F41216E774F9121690EAFEEBFF8510CA
:1037FC0082851183E9F0750A06750B00780A121898
:10380C00D674031216DB1233CA1216A6750A797512
:10381C000B0F780A1218D674021216DBAC82AD8329
:10382C0079081237D81216A674071216A6022807A2
:10383C00C082C0839008A8E07002A3E0605F90088B
:10384C00A8E0241812272D7001EB600312104B1204
:10385C0027277001EB600312104B9008A8E0245D41
:10386C0012272D7001EB600312104B9008A8E02476
:10387C005F12272D7001EB600312104B9008A8E02B
:10388C00246112272D7001EB600312104B9008A8D5
:10389C001238B512104B9008A8E4F0A3F0120E11D8
:1038AC000232BA122F2EA3A3A3E0FAA3E0FB2274D8
:1038BC00F71216E7E9FE9008A8E07002A3E0605248
:1038CC009008A8E024611222EB1218ED9008A8E0F1
:1038DC00245F1222EB1218ED9008A8E0245D12224E
:1038EC00EB1218ED9008A8E0245B1222EB1218EDF5
:1038FC009008A8E02417123B4DFB122D67FCA3E0A7
:10390C00FD12367BFAEEF912065574081216A61241
:10391C000EEF0223B374F61216E7122F8E60030219
:10392C003B1E123B27FE74066E70729008A9123271
:10393C00662413122E72500B123E22A2E050047E0B
:10394C0007806C88828983E054026028123B5F6098
:10395C00237E0912053B8A088B09AC08AD09750852
:10396C007375090F78081218D6123B897402121657
:10397C00A6023A7388828983E054047003023A9F4A
:10398C001232547003023A9F7E0B1205178A088B71
:10399C0009AC08AD0975088B75090F80C7EE1219B3
:1039AC001A0704733ABB39343A5F394E3A96399058
:1039BC0008A8E0245B123B4D7002A3E070157A1B43
:1039CC007B001210458A088B09123B2EE508F0A3E8
:1039DC00E509F01227277001EB7003023A737C1093
:1039EC007D007900120FC7120F07123B2E1238B54B
:1039FC00120E2F120FD38A088B09123E4DE508F0D8
:103A0C00A3E509123E95120F07E9FC123E5712224C
:103A1C00E8ECF075085B75090F78081218D68A82E5
:103A2C008B83123B210239751227277001EB60370B
:103A3C00EA2412F508EB1230A21218D6123E050237
:103A4C00397875080112052FE9FF74016F7005753F
:103A5C00080080027F00A9081205358A088B09AC82
:103A6C0008AD09EF123DF5123B5174076E700A74E4
:103A7C000888828983F0023B0674086E704F123BF3
:103A8C007154026056123B5F6051740980E3123D21
:103A9C00C78073123B92600D123B6B6008740C8AEA
:103AAC00828B83804888828983E0541060091232AB
:103ABC00C16004740E80E888828983E05420600918
:103ACC001232D56004741080D6741280D274096ED0
:103ADC007004740A8013740A6E70B8123B7154042B
:103AEC0060B1123B6560AC740B88828983123E8F87
:103AFC00740A6A6005740B6A7018123E127001E940
:103B0C00708C7CF47D017A027B009008AAE0F9129B
:103B1C001087022545E0FCA3E0FD229008A9123293
:103B2C0013229008A8E0245B123B3822123B3C2263
:103B3C00FAA3E03400FB8A828B83229008A8E0244D
:103B4C0061123222229008A8E0123B592224011261
:103B5C003E6B22123E26540222123E26540422129E
:103B6C0032C75408229008A8E0FAA3123B7B221219
:103B7C003E352413123B8422123B3CE02279111275
:103B8C003DFD120FA322123B9D88828983E05408CD
:103B9C00229008A8E0F8A312326A123E699008A895
:103BAC00E02401FAA3E03400FB2274F41216E712AD
:103BBC002F8E64016003023DB8123B27F508740692
:103BCC0065087079123DDF123B4D5408600C123BB6
:103BDC00715408600575080C807688828983E054DE
:103BEC00106029123E41602475080E12053B8A0AAA
:103BFC008B0BAC0AAD0B750A73750B0F780A121888
:103C0C00D6123B8974021216A6023D3B8882898328
:103C1C00E054207003023D68123E802413123B4D89
:103C2C0054207003023D687508101205178A0A8B20
:103C3C000BAC0AAD0B750A8B750B0F80BFE5081228
:103C4C00191A0C043B3D5C3CFD3CF73B1A3D363CE1
:103C5C009008A8E0245B123B4D7002A3E070187A28
:103C6C001B123671245B123E877001EB60097C1BC2
:103C7C007D007900120FC79008A8E0245BFEA3E03A
:103C8C003400FF8E828F8312377CE87001E9700359
:103C9C00023D3BE8241AF582E9123DC17010120F67
:103CAC0007E9C0E08E828F831222E8D0E0F07C100E
:103CBC007D0079008E828F831238B5120FC71227C0
:103CCC0027241AF582EB123DC1F9120E2F120FD3D5
:103CDC008A0A8B0B123E4DE50AF0A3E50B123E95BA
:103CEC00750A5B750B0F780A1218D6123E72023CDD
:103CFC000D1227277001EB6036EA2412F50AEB341B
:103D0C0000F50B780A1218D6123E05023C107F0102
:103D1C0012052FE9FEEF6E70031F80027E00EFF993
:103D2C001205358A0A8B0BAC0AAD0BEE123DF5125F
:103D3C003B51740C65087009740D88828983F0807E
:103D4C0053740D6508701C123E2254106025123EEF
:103D5C00416020740E80E3123DC78044122F2974F9
:103D6C00128024740E65087004740F8016740F652D
:103D7C000870E9123E22542060E2123B715420601C
:103D8C00DB741088828983123E8F740F6A6005740D
:103D9C00106A7018123E127001E970BB7CF47D0140
:103DAC007A027B009008AAE0F9121087022807EC2F
:103DBC00241AF582ED3400F583E022E8240BF58219
:103DCC00E93400F583E0FA8A08C3132508FCE434CF
:103DDC0000FD22123DE52405229008A8E0241812CB
:103DEC003DEF22F8122A40E022F9123DFD120EE9B5
:103DFC0022122D6FFAA3E0FB2212318D123B2112FD
:103E0C003DFD120EE322123DFD12099D8A088B091D
:103E1C00A808A909E822123E26229008A8E0241836
:103E2C00123B84FAA3123E3522E0F5838A82A3A3C7
:103E3C00A3A3A3E0229008A8E0FAA3123B7B5410A2
:103E4C0022123E57E02410122A37229008A8E024B0
:103E5C005B123E6BE8FAE9FB8A828B83222413F80F
:103E6C00A3E03400F9229008A8E0245B123222FC73
:103E7C00A3E0FD229008A812326322122A371233D3
:103E8C008DFA22122FACE0FA22F079088A828B8309
:103E9C00E02412123EA322FAA3E03400FB120E2FF0
:103EAC0022C082C08379109008A8E07002A3E06061
:103EBC00489008A8E02418123B341238B5EA700177
:103ECC00EB6036123E80FCA3E0FDEC7001ED602946
:103EDC00EC2415F8ED3400F9EA2404FAEB3400FB79
:103EEC008A828B83E0C0E088828983E0FCD0E0C3C7
:103EFC009C50048A828B83E0F90232BA74F7121652
:103F0C00E7E990041AF090041B74FFF0A3F09004FE
:103F1C001DE4F0A3F0790512076F90041AE0F91272
:103F2C0006977AC97B0712098B7F010217AD74F4CF
:103F3C001216E7EAFEEBFF74805FF9E47001E960AA
:103F4C002D90041AE0F9120FF18A088B09EA70011E
:103F5C00EB60138A828B83E064B07003120787AA2C
:103F6C0008AB09120FDFEEFA74806FFB80047A0045
:103F7C007B000241FB74F01216E774FC121690EAF7
:103F8C00FEEBFF74161216DBE0F50EA3E0F50F74D2
:103F9C00181216DB125462EE7001EF7003024085AA
:103FAC0074021216DBEEF0A3EF124441124B77AA07
:103FBC0082AB83120691E9F50A60030240887414FF
:103FCC001216DBE07002A3E07013E50E7002E50F31
:103FDC00700BE5087002E50970030240888E828F31
:103FEC0083A3A3A3A3E0FEA3E0FFEE7001EF700395
:103FFC000240857A0A7B001210458A0C8B0DA80CA6
:10400C00A90DE87001E97005750A13806F88828923
:10401C0083E4F0A3125471A3EEF0A3EFF074141226
:10402C0016DB12463DA3A3A3A3124B8F8882898370
:10403C00A3A3A3A3A3A3E50EF0A3E50F12546AA3B5
:10404C00A3A3A3E508F0A3E509F0900420E0700217
:10405C00A3E090042070051246488020E0FCA3E009
:10406C008003EAFCEBFD8C828D83124CB4EA700168
:10407C00EB70EF8C828D8380DE750A02A90A024CEC
:10408C00F7D083D08202011474F61216E774FE1274
:10409C001690740C1216DB12442FE88510828511D1
:1040AC0083F074011216DBE9F075080075090078CD
:1040BC00081218D675080278081218D6740412164D
:1040CC00DB85820885830978081218D61207C37419
:1040DC00061216A674021216A67F020217AD74F20F
:1040EC001216E7890AE975F017A4FEAFF0E4900404
:1040FC001FF090041D124CB4EA7001EB600A121010
:10410C004B90041DE4F0A3F0EEFAEFFB1210458A7D
:10411C00088B09EA7001EB602FEEFCEFFD790012C1
:10412C000FC790041DE508F0A3E509F07B0080089B
:10413C0012415BE4F0A3F00BEBC3950A40F2E50AE5
:10414C0090041FF07900800279137F060217ADEB03
:10415C0075F017A4F8A9F090041DE028FAA3E03933
:10416C008A82F5832274F21216E7EAFEEBFF740ED4
:10417C001216DB12552675080075090080031247CC
:10418C00F3C3E5089CE5099D502E85080A85090BAB
:10419C007403780A12167DEE250AFAEF350BFB8AAA
:1041AC00828B83A3A3A3A3A3A312442FE50C687053
:1041BC0003E50D6970C880047A007B00808C74F470
:1041CC001216E77900EAA2E05023890889097808D9
:1041DC001218D678081218D678081218D67C037DD7
:1041EC00007A297B0B12076374061216A680007FD7
:1041FC00040217AD74F71216E790042080048C8229
:10420C008D83124F8BEC7001ED6016EC2402F8EDEF
:10421C001253FB6A7003A3E06B70E3E8FAE9FB80CE
:10422C00047A007B00023F3574F01216E774FC121E
:10423C0016908A088B09851082851183E4F0A3F00F
:10424C00EA2402F50CEB3400F50D124E2E8A828B0B
:10425C0083A3A3A3A3E0121996000A028742069730
:10426C004208DC420AEB420C60430ED94310E9438E
:10427C0012F943160944181944D942900439741799
:10428C00F0A3E41244491203FD804285108285118B
:10429C0083AC82AD8312078DE9FEEE603085088217
:1042AC00850983A3E064146024850882850983A3AF
:1042BC00A3A3A3E090043912444112442F90043A72
:1042CC00124648EE90043C1244491203F7024CF794
:1042DC00851082851183AC82AD8312079380B974EB
:1042EC00021216DBAC82AD83850A82850B83124CDD
:1042FC00C08A0E8B0FAC0EAD0FEC7001ED604375E8
:10430C000E00750F00780E1218D6750E39750F0445
:10431C00780E1218D6750E3A750F04780E1218D640
:10432C0074081216DB1218ED7916850C82850D8334
:10433C0012492F1216A6E9FF700A124CAA12041584
:10434C00800E7F01850A82850B8312443512464804
:10435C00EF0242A5850A0E850B0F74021216DBAC18
:10436C0082AD83850E82850F83124CC08A0A8B0B1B
:10437C00AC0AAD0BEC7001ED6043850E82850F83AA
:10438C00A3A31218ED750A39750B04780A1218D606
:10439C00750A3A750B04780A1218D674081216DBD3
:1043AC001218ED7916850C82850D8312492F121681
:1043BC00A6E9FF700A124CAA12041B80937F018598
:1043CC000E82850F831244351246488083851082F5
:1043DC00851183AC82AD831207990242A4851082A9
:1043EC00851183AC82AD8312079F0242A485108293
:1043FC00851183AC82AD831207A50242A48510827D
:10440C00851183AC82AD831207AB0242A485108266
:10441C00851183AC82AD831207B10242A485088258
:10442C00850983E0F8A3E0F922E0F8A3E0F9851010
:10443C008285118322F085108285118322F07C39CC
:10444C007D04124CD42274F01216E774FA121690F2
:10445C0074041216DB124CE4F508EB3400F5097CFD
:10446C00157D0079007A397B04120FC7E508240208
:10447C00124F6185108285118385820C85830D789E
:10448C000C1218D6850882850983124F911218D602
:10449C00E5082405F50CE5093400F50D780C121827
:1044AC00D6124F85850882850983124CB41206AF4B
:1044BC0074061216A68A0C8B0DAE0CAF0DE50A24F1
:1044CC0002F50AE50B3400F50BEE7001EF700302F8
:1044DC004611801174021216DB12463D124B8F905E
:1044EC000439E004F0900439E0C39405400302461B
:1044FC0011750C00750D00780C1218D6750C227500
:10450C000D04780C1218D6750C23750D04780C124A
:10451C0018D674061216DB1218ED7910EEFCEFFDAE
:10452C00850A82850B8312492F1216A6E9705C85C9
:10453C000882850983A3A3A3A3A3A3A3E0FA9004F1
:10454C0022E06A7046124F951218D67C237D04E542
:10455C00082408FAE5093400FB120FC17402121684
:10456C00A6E960278E828F83A3A3A3A3124CB490D9
:10457C000439E0F50C7402780C12167DE50C243A23
:10458C00F582E50D3404F583124B8F74021216DBA1
:10459C0085820C85830D780C1218D674021216DBEA
:1045AC001218ED124F85EEFAEFFB1206BB740412D3
:1045BC0016A68A0C8B0DAE0CAF0D900439E0F50CE1
:1045CC00750D007402780C12167DE50C2439F8E593
:1045DC000D3404F988828983A3E07002A3E0700390
:1045EC000244D5E82403080808E93400F9EE700108
:1045FC00EF60030244E08882898374FFF0A3F0909B
:10460C000439E004F0900439E060147C397D0485B1
:10461C000A82850B83124CB41204097900800D12A6
:10462C00442974041216DB124645790A7406024CAE
:10463C00F9124CDA8882898322125408E8F0A3E933
:10464C00F02274F01216E774F81216907402121617
:10465C00DB124B8F74061216DB124CEF740212161F
:10466C00DBE02405F8A3E0124F6A1246488510825D
:10467C0085118312545B7E007F0074041216DB8557
:10468C00820A85830B780A1218D674021216DB1272
:10469C00544AF50A750B00780A1218D674041216CF
:1046AC00DBE02405F50AA3E03400F50B780A1218B8
:1046BC00D674061216DB12543BFCA3E0FDAA08AB21
:1046CC00091206AF74061216A68A0C8B0DEA70013D
:1046DC00EB70030247BAEA2404124F551254628A53
:1046EC00828B83A3A3A3E0F974021216DB124B6333
:1046FC0060030247BA750A00750B00780A1218D6C7
:10470C00750A22750B04780A1218D6750A23750BD4
:10471C0004780A1218D6740A1216DB1218ED7913E3
:10472C00AC0CAD0D740A1216DB12492C1216A6E94C
:10473C00FF707B900422E0F8EE7009E024029004F4
:10474C003AF0801490043AE0FC740228FAE4340045
:10475C00FBEA6C7001EB70598E82AA821247EA94C4
:10476C00141249245048850E82850F83E0C0E0EA7C
:10477C00124B3DD0E0124B6CC0E0124B3CD0E0121F
:10478C004B811218D67C237D04EE124B2F1216A6E9
:10479C00900422E02EFE74FF6508700474FF650916
:1047AC00600C1247F3EEC394145003024686EE607D
:1047BC0012124B4774021216DB124B5812040F796B
:1047CC00008016EF70027F0A74061216DB124F740B
:1047DC00E508F0A3E509F0EFF97408024CF9E82AB2
:1047EC00F8E43400F9E822E5082401F508E5093479
:1047FC0000F5092274F01216E774FC12169074027C
:10480C001216DB124CEFEA2405F50EEB124F657F06
:10481C0000E4900439F0FEEA2402F50AEB3400F5CA
:10482C000B8043900439E0FA900422E01247EB9499
:10483C0017124924400D900439E0FC7416C39C9067
:10484C000422F01254811218D67C237D04EA243AF7
:10485C00FAE434041253F41216A6900422E0FA90EF
:10486C000439E02AF00EE50E2416F582E50F34002B
:10487C00F583E0FAEEC39A400302490F900439E045
:10488C00C39416507EEEC333F8E433F9E50E28F5E5
:10489C0008E50F39F509851082851183AC82AD834B
:1048AC00850882124E39AC0CAD0DEC7001ED701315
:1048BC007F01850882850983124CB81216DB1246DB
:1048CC00458050750C00750D00780C1218D6750CBF
:1048DC0022750D04780C1218D6750C23750D0478FE
:1048EC000C1218D674061216DB1218ED7916850AFE
:1048FC0082850B8312492F1216A6E9FF700302481A
:10490C002F80AF7C397D04850A82850B83124CB4D1
:10491C00120421EFF9024CF7E99400C365D033225D
:10492C00125440124CDA1207BD74082274F012169D
:10493C00E774F8121690851082851183124B8F74D0
:10494C00061216DB124B77E02405F50CA3E03400BD
:10495C00F50D7E007F0074041216DB8582088583BA
:10496C000978081218D6850C82850D83A3A3A3A3FE
:10497C00E0F5088E0978081218D6E50C2405F50820
:10498C00E50D3400F50978081218D6850C82850DD2
:10499C0083A3A3124CCB1206AF74061216A68A0878
:1049AC008B09802774FF88828983F00E124B3C742C
:1049BC00FF124B811218D67C237D048E0AE50A1255
:1049CC004B2F1216A6900422E02EFEE5087002E58D
:1049DC00096029850882850983A3A3124437124BE9
:1049EC0063E5082404124F61EF602B850E82850F5E
:1049FC008312442F74061216DB124645EE70030226
:104A0C004B14124B47851082851183124B5812049C
:104A1C00277900024B2C750A00750B00780A1218C6
:104A2C00D6750A22750B04780A1218D6750A2375E6
:104A3C000B04780A1218D6740A1216DB1218ED79C8
:104A4C0011AC08AD0974081216DB12492C1216A60B
:104A5C00E9FF70978E82AA82EE9004227009E024FE
:104A6C000490043AF08025E0F890043AE0F50A74DA
:104A7C000428FCE43400FDEC650A7001ED7083122F
:104A8C0047EA94121249244003024A0E850E82858D
:104A9C000F83E0C0E0EA124B3DD0E0124B6CC0E05B
:104AAC00124B3CD0E0F00E74021216DB85820A85A4
:104ABC00830B780A1218D674061216DB1218ED85C1
:104ACC000C82850D83A3A3124F8BAA08AB09120687
:104ADC00BB74041216A68A088B09EE243BF8E43446
:104AEC0004F9EA7001EB70030249B074021216DB90
:104AFC00E088828983F00E74021216DBA3E0C0E01A
:104B0C00124B3CD0E00249BDEF70027F0A850C824B
:104B1C00850D8312442F74061216DB124645EFF9ED
:104B2C000247E5243BFAE43404FB120FAF74022273
:104B3C00EE243BF582E43404F5832290043AE0F54C
:104B4C00F0EE84900439F07C397D0422124B5C2207
:104B5C00125444124CDE22124B5C12069DE9FF22C9
:104B6C00F00E850E82850F83A3E022124CEF851088
:104B7C008285118322F00E900422E0F50A750B0059
:104B8C00780A22EAF0A3EBF02274F01216E774FC18
:104B9C0012169074021216DB124CE4FEEB3400FF7A
:104BAC00851082851183AC82AD838E828F83124CEB
:104BBC00C08A088B09EE2418F50EEF124F65EA70C7
:104BCC0001EB7003024C83E50A2402F50CE50B346F
:104BDC0000F50D8A828B83A3A3A3E0A2E550468542
:104BEC001082851183124CB41207818A0A8B0BA890
:104BFC000AA90BE87001E9607988828983A3A3A3D1
:104C0C00A3A3A312542AE50A7002E50B606479127F
:104C1C00AC08AD09124CAE850A82850B831216E5E1
:104C2C00E9F508705775080075090078081218D650
:104C3C008E828F83A3A3E0F50878081218D6EE2491
:104C4C0003F508EF3400F50978081218D68E828F18
:104C5C0083124CCB1207C374061216A6E9F5087022
:104C6C001B850E82850F83E07023124CAE12042D2F
:104C7C00801B75080E80097508018004E508600D1D
:104C8C008E828F83124CB81216DB124645850E822B
:104C9C00850F83E0600479008002A908804D7C397F
:104CAC007D04850C82850D83124CDA22E0F8A3E09A
:104CBC00F9740222124CC422124CDE1206B522E008
:104CCC00FCA3E0FD124CD422850C82850D83124C82
:104CDC00DE22E0FAA3E0FB22124CEF8A0A8B0BEAED
:104CEC00240522ECF0A3EDF022A90874041216A6F8
:104CFC007F080217AD74F01216E774FC121690744C
:104D0C00021216DB124CEF8A0E8B0F124E2E750808
:104D1C0000851082851183AC82AD83850A82124E88
:104D2C0039AE0CAF0DEE7001EF7003024E0CE50EB8
:104D3C002402F50EE50F124F658E828F83A3A3A379
:104D4C00E0A2E5502F1255307002E5836056A3A304
:104D5C00A31254157002E509604A7912EEFCEFFDBE
:104D6C00850E82850F83124E431216E5E9F5086015
:104D7C0003024E0F850E82850F83E0FEA3E0FFEE4B
:104D8C00FAEFFB124E217001E970157AFF7BFF12CE
:104D9C004E217001E9606488828983EEF0A3EFF004
:104DAC007D00800675080E805A0D90041FE0FAED08
:104DBC00C39A5047ED75F017A4FAABF0888289833B
:104DCC00A3A3E02AFAA3E03BFB8A828B83E0700268
:104DDC00A3E070D5750C17750D00780C1218D6ACB5
:104DEC000AAD0B1253F51216A6AC0AAD0B850E824A
:104DFC00850F83124CB41204338017750809800395
:104E0C00750801850A82850B83124CB81216DB12C9
:104E1C004645024CF51207B78A0C8B0DA80CA90D50
:104E2C00E822EA2405F50AEB3400F50B22F583128F
:104E3C004CC48A0C8B0D22124CDA850882850983AE
:104E4C002274F01216E774FC12169074021216DB20
:104E5C00124CEFEA2405F8EB124F6A12464875081B
:104E6C0000EA2402124F55124CB41207B78A0A8B6F
:104E7C000BEA7001EB7003024F46750900807985CF
:104E8C001082851183125456640170558E828F8363
:104E9C00A3A31218ED8E828F83124F911218D6EEA7
:104EAC002405F50CEF3400F50D780C1218D6850E90
:104EBC0082850F83124CB41207C374061216A6E92E
:104ECC00F508601D851082851183124F74E4F08EF5
:104EDC00828F83124CB474021216DB124F74124B75
:104EEC008F7C177D007900EEFAEFFB120FC78E82D4
:104EFC008F83E4F0A3F0050990041FE0FAE509C3E1
:104F0C009A5028E50975F017A4F8A9F0850A82854E
:104F1C000B83A3A3E028FEA3E039FF8E828F8312BC
:104F2C004F8BEC7001ED6003024E8B850A82850B72
:104F3C008374FFF0A3F0E508700C850E82850F8357
:104F4C00124CB4120439024CF5F50EEB124F658578
:104F5C000E82F58322F50EE5093400F50F2234009C
:104F6C00F985108285118322124F7822124F7C22F0
:104F7C00E0F8A3E0F583888222850E82850F83E01A
:104F8C00FCA3E0FD22A3A3A3A3E0F50C750D007810
:104F9C000C22C082C08390041BE06A7003A3E06BF8
:104FAC0070067A1B7B0480047A007B0002408D74AF
:104FBC00F01216E774F812169074061216DB124BE8
:104FCC008F74041216DB124CEF74031216DBE9F02B
:104FDC00741A1216DB12542A741E1216DBE0FEA38E
:104FEC00E0FF74011216DBE4F0A3124441F07404E8
:104FFC001216DB125432E0A2E4505374181216DB72
:10500C0012541E1216DB124B8F74011216DBE07059
:10501C0002A3E0700302510774011216DB12543222
:10502C001254157002E5097003025107790A7404D1
:10503C001216DB124F8B74061216DB124E4312162D
:10504C00E5E9851082851183F06003025110740428
:10505C001216DB1254566402600302537974041264
:10506C0016DBA3E0F5838882A312442F850A828580
:10507C000B83A385820E85830F74041216DBE02448
:10508C0006F508A3E03400F50988828983E0FAA3C9
:10509C00E0F9EAF50CE9F50D780C1219F5010000B0
:1050AC00280128CD5006000228B05103281F5100BA
:1050BC002982520129AF52032982520429155379AE
:1050CC0053EE7001EF7048124429E8FAE9FB8A822A
:1050DC008B83E0C0E0741C1216DB124F74D0E0120C
:1050EC0054781218D68A828B83A3E0FCA3E0FDAA25
:1050FC000AAB0B1253F51216A68009740E8510829A
:10510C00851183F0851082851183E0F90247E574DF
:10511C000B80EAEE7001EF70F6741C1216DB124F66
:10512C00747401F0125450850A82850B83F07C0054
:10513C007D0074041216DB12544A2401FAA3E034E5
:10514C0000FB1206B5EA7001EB603E8A828B83E0AD
:10515C002402FC741C1216DB1254562CF0EA2404A4
:10516C00F8EB1253FB850E82850F8312548A12546E
:10517C00781218D68A828B83A3124F8BE50A2403EC
:10518C00FAE50B3400FB0250FF741C1216DB1254B0
:10519C00562404F07C047D007900AA0EAB0F120F8C
:1051AC00C7025110EE7001EF600302511B8508829B
:1051BC0085098312545B741C1216DB124F74740431
:1051CC00F0850A82850B83E508F0850E82850F83B6
:1051DC00E509F07C007D00AA08FB1206B58A0C8B51
:1051EC000DAE0CAF0DEE7001EF6070AA08AB09129A
:1051FC0006C18A0C8B0DA80CA90DE87001E960554D
:10520C008E828F83A3A3A3A3A3A3124CB4E8250877
:10521C00F8E93509F974FF28FE74FF39FF8A828B8F
:10522C0083E0640270397508027509007808121859
:10523C00D68A828B83A3124F8BE50A2404FAE50BE2
:10524C0034001253F41216A6741C1216DB125456A8
:10525C002402F0800AAE08AF0980047E007F00EEC5
:10526C00850A82850B83A3A3F0EF850A82850B83C5
:10527C00A3A3A302510FEE7001EF600302511B12A6
:10528C005450F8A3E0F9741C1216DB125404740287
:10529C00F0E8850A82850B83F0E9850E82850F8301
:1052AC0002510F850882850983124CB4120FA9EAAA
:1052BC00FC8C82A882C39EE49F4049E86E7001EF8B
:1052CC0070047C00801B74031216DBE02EFAE43FA2
:1052DC00FBC3EA98EB94005003E08004EECCC39C33
:1052EC00FC741C1216DB124F74ECF08C0C750D0058
:1052FC00780C1218D6850882850983E02EFCA3E071
:10530C003F0250FA7407025109EE7001EF6003027C
:10531C00511B124429741C1216DB1254047407F02E
:10532C0088828983E0850A82850B83125471E0851B
:10533C000E82850F83F0E82402FAE93400FB8A829E
:10534C008B83125411F08A828B83A3125411A312F3
:10535C00546A125424F0E82405F8E93400F98882E0
:10536C008983125424A312548AA302527C7401120E
:10537C0016DBE07002A3E0700E74181216DB1254E8
:10538C001E1216DB124B8F74011216DBE07002A397
:10539C00E0700302510774011216DB12543BF8A3A0
:1053AC00E0F988088909E87001E970030251078E59
:1053BC000C8F0D780C1218D6741E1216DB1218ED09
:1053CC00780A1218D674091216DBE0F9740A121650
:1053DC00DB124F8B740C1216DB124E431216E57453
:1053EC00061216A6E9025109FB120FAF7402223401
:1053FC0000F988828983E02212540822E0FAA3E0A3
:10540C00F5838A822212549122A3A3A3125462E53B
:10541C000822125540740122125491A3A322E0F5E4
:10542C000AA3E0F50B2212543622125444A3221282
:10543C005440E02212544422124F7CA3A322125453
:10544C0036A3E022850882850983124F78E0221268
:10545C004F7812546222E0F508A3E0F509221254A9
:10546C0071A3A3A322F088828983A322F08A828B62
:10547C008312548122E0F508750900780822125431
:10548C007112549122E0850A82850B83A3A32274A6
:10549C00F21216E774FC12169074021216DB124B01
:1054AC008FECFAEDFB74141216DBE0FE7416121678
:1054BC00DB12542A851082851183AC82AD831206CF
:1054CC00B58A088B09EA7001EB6045125530700201
:1054DC00E5836038A3A3A3A3125526E87001E96005
:1054EC002B780A1218D674141216DB1218EDEEF97A
:1054FC00AC08AD0974061216DB124CB4850C82850F
:10550C000D831216E574041216A68006790E80021D
:10551C00790174041216A6024156E0F8A3E0F9884A
:10552C000C890D228510828511831255408A828B3D
:10553C0083E58222124CDE1207812274F41216E7E4
:10554C008A088B09E9FE74016E7015AA08AB091262
:10555C0007B78A088B09EA7001EB60547F00801949
:10556C0074026E704B79011209A9E9704380DC7CDE
:10557C00177D007900120FC70F90041FE0FAEFC3DC
:10558C009A5022EF75F017A4F8A9F08508828509C6
:10559C0083A3A3E028FAA3E039FB8A828B83E07013
:1055AC0002A3E070CA85088285098374FFF0A3F01A
:1055BC000241FB74F41216E78A088B09E9FE7F009E
:1055CC00780812195000040C4657F0550C56215609
:1055DC0036564B5660567C569556A756E256F056A4
:1055EC000C57285774016E70128C828D83E0C39413
:1055FC00035008E0900BEDF00257647F18025764DB
:10560C0074026E70F68C828D83125F82900BEEE8C2
:10561C00F0A3E980E274016E70E18C828D83E0C3AB
:10562C00940250D7E09008D180CD74016E70CC8C70
:10563C00828D83E0C3940550C2E09008D280B87488
:10564C00016E70B78C828D83E0C3940250ADE090F4
:10565C0008D380A374106E70A27508108F09780897
:10566C001218D67AD47B081266A21216A6025764B8
:10567C0074016E70868C828D83E0C39402400302A9
:10568C005607E09008E402560374016E600302565C
:10569C00078C828D83E0900BF1808D74046E600317
:1056AC0002560790904578081215788D838C827875
:1056BC000812138E40030256078C828D83780812D1
:1056CC0015789008E6E508F0A3E509F0A3E50AF0E3
:1056DC00A3E50B025603EE600302560712113512B6
:1056EC00112F807474016E60030256078C828D83B7
:1056FC00E0C394024003025607E09008E50256030B
:10570C0074016E60030256078C828D83E0C3940A89
:10571C004003025607E0900BF002560374016E60D2
:10572C00030256078C828D83E024F9C3940A40034C
:10573C00025607E0900BF2025603C3EA9422EB9454
:10574C0000501374026E700E8C828D83125F88125F
:10575C0004E7E9FF80020F0FEFF902670A74F412F5
:10576C0016E774E612169089098C0A8D0B742612B2
:10577C0016DBE0FE74141216DBAC82AD8375838FDE
:10578C007582B874061215A374141216DBAC82ADB4
:10579C00831210E7E9FFC3940A4003025840121128
:1057AC0023E9F50874046E6008900BEDE064027058
:1057BC000DEEFDAC08EFF9AA0AAB0B12115F7C14CD
:1057CC007D007900851082851183AA82AB83120F2C
:1057DC00C775F006EFA4FF851082851183AC82ADEE
:1057EC00837A1074242F125F5B70327C1012614D1F
:1057FC00702B74101216DBAC82AD837A0474252FD7
:10580C00F91212C7851082851183AC82AD83E5082D
:10581C00A2E0E492E0F9AA0AAB0B1205DD74046E67
:10582C00706A900BEDE0640270629008E4E06044F2
:10583C007A01804274086E70E4900BEDE0640270A3
:10584C004B7C007D00A909AA0AAB0B1211599008D8
:10585C00EAE07002A3E06034125F9C88828983E5E1
:10586C00827002E58360257C007900AA0AAB0B12DA
:10587C0016E580187A009008D1E060047804800264
:10588C007800E84AF9AA0AAB0B1205F57900741AEC
:10589C0002670774F11216E774F21216908A0C8BD9
:1058AC000DECFEEDFF75080AE912191A00035759A1
:1058BC00C458C458E65857591262E340030259576A
:1058CC00EE7001EF7003025957750A06750B0078DC
:1058DC000A1218D6AC0CAD0D806B75090080090549
:1058EC0009E509C3940A5063750A10750B00780A10
:1058FC001218D6AC0CAD0DE50975F00EA424F2FA15
:10590C00E5F03408FB120FC174021216A6E960CF41
:10591C00850908E508C3940A5031EE7001EF602B3D
:10592C00851082851183AC82AD837A0E75F006E505
:10593C0008126314E97014780A1218D6740212163D
:10594C00DBAC82AD8312669E1216A6A908740E12E9
:10595C0016A67F070217AD74F41216E7E9FF7E1541
:10596C0074FF6A700374FF6B7028750800EFFC7A83
:10597C00027B00A908121105E960027E000508E50A
:10598C0008C3940A40E7EF60457A4D7B111209BBBE
:10599C00803C12099D8A088B09EA7001EB602E7C11
:1059AC00007D00EA2405FAEB3400FB8508828509AA
:1059BC0083125A43500BEFFC7A027B001211057EC6
:1059CC0000EF600AAA08AB0912114D80011EEEF916
:1059DC0002670A74F21216E78C088D09740E1216FF
:1059EC00DBE0F50AA3E0F50B7E1574FF6A70037417
:1059FC00FF6B701D7F00AC0AAD0BAA08AB09EFF969
:105A0C0012110BE960027E000FEFC3940A50238041
:105A1C00E5125F617002E5836017125F4C125A4306
:105A2C005010AC0AAD0BAA08AB0912110B7E00800A
:105A3C00011EEEF9026148A3A3A3A3E0F91210E73B
:105A4C00E9C3940A2274F71216E79008EAEAF0A365
:105A5C00EBF09008D0E0FC7D007A217B001204E78B
:105A6C000261A81216A67F080217AD74F01216E791
:105A7C0074E0121690EAFEEBFFEE2409F508EF3401
:105A8C0000F509EE2403F50EEF3400F50F8E828F2E
:105A9C0083A3A3E012191A0609475F395F475F47D2
:105AAC005FB15D485BBB5A9A5E475FF05CE75D9007
:105ABC0008EAE07002A3E0604B125FABE0F50AA3CA
:105ACC00E0F50BE50A7002E50B6039EE240CF5826B
:105ADC00EF126164F50C780C1218DAEE240BF582D7
:105AEC00EF126164F9850882850983125F880A0ABE
:105AFC000AAB0F850A82850B831216E57401121608
:105B0C00A6025F478508828509831218ED9008E686
:105B1C00780C121578AA0CAB0DAC0EAD0F1205EF6C
:105B2C0074021216A6E97003025F47790185088298
