:020000040000FA
:060000000200FC021F7B60
:03002B00021D2390
:03005300021FF198
:03006B00021D0073
:10008300021EBDE5C754F84401F5C77901220000FB
:100093000080FB120086B900030200E6E4791278BF
:1000A30008B800028004F709D8FCE490034178E61D
:1000B30079078002F0A3D8FCD9FA900A26AA82AB6A
:1000C3008390012C78BB79048015E493A3AC82ADB3
:1000D300838A828B83F0A3AA82AB838C828D83D89D
:1000E300E9D9E775826F7583AC740312010E7582CB
:1000F30091758300740012010E75D00075813F75F0
:100103001041751103759F00020096C09FF59FE48F
:1001130073D09F22D083D082C09FE493C0E0740148
:1001230093C0E0740293F59F22FFFFFFFF0A416330
:1001330063656C20456E61626C65000002140041CA
:100143006363656C2052616E676500001010104197
:100153006363656C20582D436F6F7264696E6174BD
:10016300650000416363656C20592D436F6F7264B2
:10017300696E6174650000416363656C205A2D43A9
:100183006F6F7264696E6174650000021390010001
:1001930000D88F020F900100002A0A02F78F030094
:1001A300006003020D900100002B0A020F90010072
:1001B30000390A023D900100003A0A020D90010045
:1001C300003C0A020F90010000490A023B90000024
:1001D300006103020B900300006403020D90010011
:1001E300004C0A020F900100004A0A0239900000F5
:1001F300006203020B900300006603020D900100EE
:1002030000600A020F900100004B0A0237900000C1
:10021300006303020B900300006803020D900100CA
:1002230000740A026442617474657279204C6576C5
:10023300656C000242617474657279205374617451
:100243006500021390010000DE8F020F9001000091
:10025300200B023190010000210B020D90010000E0
:10026300220B020F90010000300B022F90010000BF
:100273006A03020D90010000310B02020202020226
:100283000202021390010000DB8F020F90010000B5
:10029300770B0229900100006B03020F900100000D
:1002A300780B022790010000018F020F90010000DC
:1002B300790B022590010000F38E020F90010000DC
:1002C3007A0B0223900100006D8E020F9001000053
:1002D3007B0B0221900100007F8E020F9001000032
:1002E3007C0B021F90010000918E020F9001000011
:1002F3007D0B021D90010000A38E020F90010000F0
:100303007E0B021B90010000E58E01E8030533100C
:100313000B094B6579666F6264656D6F02010507B2
:1003230002031802180418434332353430444B2D6A
:100333006D696E69204B6579666F62006404E0073E
:100343000000E607EC07FF00013075030201060019
:10035300000000000000000000000000000000009A
:100363000000000000000000000000FFFF06008006
:100373000CE8030A0412021390010000E78F020F36
:1003830090010000700C02FF8F0300002C05021384
:1003930090010000EA8F020F90010000710C02FF30
:1003A3008F0200002D05021390010000ED8F020F54
:1003B30090010000720C02FB8F0100002E05020B5E
:1003C300900300002F05104B6579205072657373FD
:1003D30020537461746500021390010000F08F02D2
:1003E3000F90010000C30C02F38F000000350502DB
:1003F3000B900300003605020D90010000C40CFFB2
:10040300000000780028002800283075A000A00014
:10041300A000A00000080008E001F0001000100098
:100423001000100010001000500050005000100089
:100433001000D0070000000000000F003075070017
:10044300100030750000FFFF02020A0A025000A0EC
:10045300000000E803021390010000E48F020F90F4
:10046300010000450D0209900100006805020F908C
:10047300010000460D022D900100007D05020F9042
:10048300010000470D0205900300007F05020F9055
:10049300010000480D0203900300008005020F9045
:1004A300010000490D0201900100004A0DFF010007
:1004B30020021390010000E18F020F90010000ADB4
:1004C3000D02F98F0000000000EC10EC10EC10ECB2
:1004D30010EC10EC10EC10EC10EC10EC10EC10EC39
:1004E30010EC10120117D2E502120117DCE502121B
:1004F300011712E6021201175BE60212011795E6D5
:1005030002120117F3E60212011714E70212011790
:100513001DE70212011771E7021201179AE702128F
:100523000117A4E70212011712E8021201179AE851
:100533000212011707E90212011735E90212011726
:10054300C6E90212011705EA021201173AEA02127A
:1005530001174CEA021201176BEA0212011774EA3F
:10056300021201172AEB021201172CA8031201171A
:100573007BFF011201174A9B03120117809B031291
:100583000117B49B03120117119D03120117DCAB72
:1005930003120117F2AB03120117FCAB031201178D
:1005A30046AC03120117BA8303120117CD8303125A
:1005B3000117668403120117A28403120117B98479
:1005C30003120117DE84031201172085031201179A
:1005D3005185031201178C8503120117FB86031241
:1005E30001173F870312011749A6031201176CA6CF
:1005F300031201179BA603120117B3A603120117D7
:10060300F5A603120117BDF902120117FEF9021232
:1006130001171BFA021201175DFB02120117B2FB4D
:100623000212011774FC021201172EA30312011701
:1006330069A303120117B0A30312011792AA0312AD
:100643000117B3AA0312011741AB0312011751A5F6
:1006530003120117AAA503120117C8A50312011754
:10066300E7A50312011722A60312011730A60312EE
:100673000117E19303120117159403120117419413
:1006830003120117FE5700120117A2590012011796
:10069300CD5A00120117865B00120117015C00128C
:1006A30001176F5C00120117985C001201178C612F
:1006B30000120117FB6100120117226300120117D8
:1006C3005B6300120117A56300120117BF640012D8
:1006D3000117EE64001201173765001201176E65EA
:1006E30000120117906500120117796600120117B5
:1006F300AD66001201172167001201173867001257
:1007030001179C67001201176B6800120117D6A925
:1007130003120117E7A90312011787AA031201178E
:10072300F37F00120117ECFF0212011747AB03120C
:10073300011757AB031201176CAB03120117D9ABA7
:10074300031201174FA403120117D4A403120117B4
:1007530038A50312011706A20312011728A20312D8
:10076300011789A2031201179BA203120117EBA21F
:100773000312011722A30312011725A30312011762
:10078300C5F002120117D3F0021201174DF1021244
:10079300011713F2021201179EF40212011703F557
:1007A300021201175AF502120117F87F00120117FE
:1007B3009A96031201178B980312011701990312DA
:1007C30001179AD2021201178FD4021201173BD6D6
:1007D3000212011710D70212011791D70212011743
:1007E300B4D702120117A0D802120117E7D80212D8
:1007F30001171ED9021201178EA003120117E0A0E0
:10080300031201173AA103120117A3A1031201173F
:100813000499031201172E9903120117009A031268
:100823000117DC9A0312011746C30212011725C4EC
:100833000212011766C402120117C4C4021201177F
:1008430018C5021201176EC50212011702C6021261
:10085300011705C702120117C3C8021201174EC9B7
:1008630002120117B7C902120117C5C902120117F3
:10087300E3CA02120117A99D021201178EA00212E8
:100883000117F3A10212011743A202120117C3A217
:1008930002120117CFA402120117B0A70212011707
:1008A3002FE0021201170EE1021201172BE10212CF
:1008B300011791E102120117C2E102120117D8E2F6
:1008C300021201170EE302120117D1E302120117FC
:1008D30078E5021201176CF502120117D7F502121F
:1008E30001170EF60212011727F7021201175DF71F
:1008F300021201172FF80212011765F902120117EC
:100903004B9D03120117629D03120117919D031260
:100913000117CA9D03120117F29D03120117209EAE
:1009230003120117379E031201174E9E031201177C
:10093300659E031201178C9E03120117A09E0312DA
:100943000117B69E03120117CA9E03120117EF9EE9
:1009530003120117A6A802120117A2A90212011776
:10096300D9A902120117FBA902120117FDA902124C
:1009730001171FAA0212011727AB02120117EBABD3
:10098300021201179EAC0212011720AD02120117C9
:1009930023AD021201175AAD02120117C9AD02129B
:1009A3000117A0AE0212011701AF0212011720AF07
:1009B3000212011798AF021201179BAF021201171F
:1009C3009EAF021201174AB0021201177CB0021245
:1009D3000117AAB002120117D0B002120117ACB16D
:1009E3000212011767B20212011758EB0212011724
:1009F3002FEC0212011757EC021201178BEC0212B3
:100A03000117D6EC021201172DED021201176BED3F
:100A130002120117AAED02120117DAED02120117F1
:100A230061EE021201176BEE0212011780EE021241
:100A33000117B7EE02120117A3EF02120117AFEF6E
:100A430002120117C7EF02120117D1EF02120117A9
:100A530052F002120117B8F0011201178FF10112BF
:100A6300011741F20112011786F2011201176AF30D
:100A730001120117BFF301120117E0F3011201176D
:100A8300C4F401120117F8F401120117A3F50112BE
:100A93000117EAF50112011747F60112011760F673
:100AA300011201177DF601120117BAF6011201179F
:100AB300FEF601120117E2F70112011792F8011273
:100AC3000117FDFB0112011790FD01120117E2FD51
:100AD3000112011700FF011201171EFF0112011776
:100AE300E86800120117686900120117F66900121D
:100AF3000117906B00120117B36B00120117616CA1
:100B030000120117E36C00120117CC6D00120117DC
:100B13000D6F00120117D76F0012011755700012E5
:100B23000117637000120117C47000120117A1713D
:100B330000120117F171001201171472001201174C
:100B43001274001201175D740012011782740012EF
:100B53000117FD74001201170D7600120117F376C9
:100B630000120117FE90031201170E9103120117D1
:100B7300349103120117E592031201174C870312F4
:100B83000117048803120117448803120117008A0E
:100B9300031201170080021201173B800212011792
:100BA3008E81021201179A8102120117BD8102126E
:100BB3000117088202120117B18202120117C983B9
:100BC30002120117B184021201170D8602120117D6
:100BD3004A8602120117EB860212011738870212A6
:100BE30001176087021201174B89021201175089FE
:100BF300021201173B8B02120117848B0212011799
:100C0300F58B02120117218C02120117B68C021206
:100C13000117868D02120117BB8D02120117BE8DBB
:100C230002120117148E02120117528E02120117BB
:100C3300C48E021201177DFD0212011790FD0212EC
:100C43000117A9FD02120117F6FD02120117D2FEC8
:100C53000212011773FF02120117C0FF02120117DC
:100C6300474100120117794100120117C0410012D8
:100C73000117D34200120117294300120117B04391
:100C8300001201170944001201173F440012011713
:100C93007344001201179146001201178D48001288
:100CA30001173F4A00120117774B00120117D44D69
:100CB30000120117404F001201178C500012011748
:100CC300DD5100120117FA5100120117DA56001212
:100CD3000117865700120117B37900120117BD7966
:100CE30000120117807A00120117C77A0012011748
:100CF300EB7A001201172D7B001201176E7B001295
:100D03000117997B00120117E37C001201171E7D66
:100D1300001201174D7D001201177D7D001201178E
:100D2300BB7D00120117E47D001201171E7E001225
:100D33000117457E001201178D7E00120117CF7E29
:100D430000120117557F001201179E7F0012011731
:100D5300C87F00120117C58A03120117018B031202
:100D63000117668B03120117258C03120117068DD9
:100D730003120117178D03120117838D0312011735
:100D8300D1B202120117EDB202120117F0B2021230
:100D93000117ABB302120117CAB30212011752B4FF
:100DA30002120117FDB5021201171CB70212011737
:100DB30023B80212011750B8021201170CB902121C
:100DC300011704BA021201178CBA02120117EABA08
:100DD3000212011713A90312011740A903120117E5
:100DE3007EA90312011788A90312011792A90312FE
:100DF3000117A4A9031201173EA703120117A7A7FE
:100E030003120117FBA70312011700800312011736
:100E13006A8003120117B48003120117AD81031214
:100E23000117C082031201171BBB021201175EBB1D
:100E33000212011749BC021201172CBD021201173D
:100E430035BE0212011710BF0212011779BF021239
:100E530001171EC002120117A4C002120117CFC04E
:100E6300021201173AC102120117E6C10212011759
:100E730044C2021201175DC202120117A2C202127A
:100E83000117BCC2021201171EC30212011721C3AC
:100E930002120117058E031201172F8E0312011779
:100EA300688E03120117178F031201178B8F03121A
:100EB3000117A78F03120117D18F03120117039094
:100EC300031201171290031201178A9003120117DC
:100ED300B490031201174090011201173F910112C0
:100EE3000117999201120117829301120117AE9310
:100EF30001120117E59301120117FB930112011768
:100F0300469401120117CA94011201173795011271
:100F13000117D395011201173F9A01120117BE9BC6
:100F230001120117109C01120117599D011201179B
:100F3300A19D01120117619F01120117CD9F01129B
:100F4300011717A0011201174CA001120117F9A1F3
:100F53000112011721A201120117C5A601120117DF
:100F630050A70112011734A801120117C9A80112D1
:100F73000117E3A80112011718A9011201174FA9BC
:100F8300011201175FA9011201176BA901120117C1
:100F93007FA90112011731AA0112011772AA0112C6
:100FA300011729AC01120117E6AC0112011755AD67
:100FB30001120117EBAD011201179BAE01120117CC
:100FC30010AF01120117A0AF01120117D7B0011220
:100FD3000117B3B101120117D0B10112011723B2E6
:100FE3000112011774B2011201170EB30112011796
:100FF30033B3011201179CB301120117D7B30112C6
:101003000117F7B301120117AAB40112011767B54B
:1010130001120117F4B501120117ADB60112011740
:1010230013B70112011777B7011201179CB7011209
:10103300011744B80112011796B901120117D9B962
:101043000112011729BA011201177CBA0112011703
:10105300A3BA011201170ABB0112011753BB0112F4
:101063000117A4BC0112011706BD01120117D2BD5D
:101073000112011702BE0112011729BE0112011745
:1010830076BE0112011779BF01120117A2BF011227
:101093000117CDBF0112011728C00112011759C052
:1010A300011201179CC001120117BBC001120117E5
:1010B30016C10112011731C1011201177EC10112BC
:1010C300011791C101120117AEC101120117C3C16A
:1010D30001120117CCC201120117F8C30112011743
:1010E3002CC501120117F4C50112011797C701128C
:1010F3000117B5C701120117D1C70112011779C82A
:1011030001120117AFC801120117CDC8011201174F
:10111300ECC801120117E0CA011201170ECC01122B
:1011230001173CCC011201176DCC0112011796D4A3
:1011330001120117EBD50112011715D7011201177F
:10114300C2D701120117EED70112011707D80112F6
:10115300011749D80112011789D80112011733D990
:101163000112011706DA011201174EDA01120117F3
:10117300B2DA01120117F1DA011201172CDB0112A5
:10118300011765DB01120117C8DB0112011786E2A3
:10119300011201178CE20112011746E8011201172F
:1011A30099EB01120117E4EB0112011786EC01120E
:1011B3000117A1EC01120117DCEC01120117C5EDB7
:1011C300011201173BEE011201174FEE0112011735
:1011D3007AEE01120117ADEE01120117ECEE0112C6
:1011E300011723EF011201176BEF01120117CCEF67
:1011F30001120117F7EF011201170BF0011201178A
:101203001EF00112011735F0011201175EF00112F1
:10121300011773F00112011700DA0212011713DA32
:101223000212011724DA021201174DDA0212011712
:1012330090DA02120117D6DA0212011713DB021237
:10124300011779DB0212011792DB021201179DDBF2
:1012530002120117AADB02120117C1DB02120117E6
:10126300CFDB02120117E1DB02120117F6DB0212D8
:1012730001170BDC0212011716DC0212011721DC25
:10128300021201172DDC021201174EDC02120117A4
:1012930059DC021201177DDC0212011727DD02124D
:1012A300011737DD0212011751DD021201176CDD40
:1012B300021201178ADD0212011795DD02120117CE
:1012C30016DE02120117D0DE02120117DBDE021254
:1012D3000117F0DE02120117FBDE021201175BDFBA
:1012E3000212011761DF0212011767DF02120117F1
:1012F3006DDF0212011773DF021201178DDF021275
:101303000117BADF02120117C28F0212011762908E
:1013130002120117F79102120117509402120117DA
:101323002C9502120117559502120117939502127B
:101333000117039602120117BA9702120117E397D6
:10134300021201176F9802120117A19802120117D6
:10135300AE9802120117F99802120117229902128C
:101363000117009C02120117F99C02120117519DEB
:10137300021201172324001201173325001201174B
:10138300CE2500120117F7250012011703260012BC
:1013930001173D270012011789270012011775292C
:1013A300001201175C2A001201178A2A0012011782
:1013B3009D2C00120117EA2F00120117B7300012FB
:1013C3000117013200120117153300120117DD3323
:1013D30000120117B234001201171A350012011757
:1013E300D7350012011713360012011745360012C4
:1013F3000117DD3800120117C139001201172B3A0A
:10140300001201177B3A00120117FA3A0012011772
:10141300603B00120117F53D00120117EC4000126A
:101423000117019F03120117269F031201179B9FA8
:10143300031201172CCB021201173CCB0212011726
:1014430044CB021201172CCC02120117B8CD0212A1
:101453000117ECCD021201171FCE0212011753CE52
:101463000212011786CE02120117B6CE021201171D
:10147300E8CE021201172FCF0212011762CF021218
:101483000117A9CF0212011703D00212011736D098
:10149300021201178AD002120117BDD002120117DE
:1014A30010D10212011753D10212011786D1021271
:1014B3000117BFD102120117F9D102120117C4ACEF
:1014C300031201170AAD03120117DAFF01E0667078
:1014D3001008A3E066700A08A3E066700408A3E09E
:1014E3006622C3E7960809E7960809E7960809E71D
:1014F3009622C3E09608A3E09608A3E09608A3E02B
:101503009622C008C3E096F50808A3E096420808AF
:10151300A3E096420808A3E09645087001D3D008DB
:1015230022080808EAC0E0EBC0E086F0E7A4FA1856
:101533000986F0E7A42AFA180986F0E7A42AFA181C
:101543000986F0E7A42AFA1986F0E7A4FBE5F02A56
:10155300FA190886F0E7A42BFBE5F03AFA19088696
:10156300F0E7A42BFBE5F03AFA18180986F0E7A494
:10157300C5F02BFBE43AFA1908E7C5F0C6A426F632
:10158300E5F03BFBE43AFA1886F0E7A4F6E5F00849
:1015930026F6E43B08F6E43A08F6D0E0FBD0E0FA9E
:1015A30022E4CFC0E0E4CEC0E0E4CDC0E0E4CCC0B0
:1015B300E075F020C3E633F608E633F608E633F6C3
:1015C30008E633F6181818EC33FCED33FDEE33FE62
:1015D300EF33FFC3EC9709ED9709EE9709EF9719DE
:1015E3001919400FFFEC97FC09ED97FD09EE97FEE3
:1015F300191906D5F0BEECF709EDF709EEF709EF77
:10160300F7191919D0E0FCD0E0FDD0E0FED0E0FFDF
:101613002212167C1818181215A412166B19191910
:101623002212166B191919080808E618181820E76A
:10163300E01215A412167C18181822090909E719D3
:10164300191920E7DC080808E618181820E7030230
:1016530015A412167C1818181215A412167C181843
:101663001812166B19191922E4C397F709E497F7AF
:1016730009E497F709E497F722E4C396F608E4969A
:10168300F608E496F608E496F6226017080808C6FA
:10169300A2E713C618C613C618C613C618C613C6C0
:1016A300D5E0E9226016080808C6C313C618C61396
:1016B300C618C613C618C613C6D5E0EA22700908B1
:1016C3000808226016181818C6C333C608C633C6DE
:1016D30008C633C608C633C6D5E0EA22E627F608AD
:1016E30009E637F60809E637F60809E637F622E091
:1016F30026F608A3E036F608A3E036F608A3E0369C
:10170300F622E026F008A3E036F008A3E036F0085E
:10171300A3E036F022C3E697F60809E697F6080930
:10172300E697F60809E697F622C3E0C696F608A3FD
:10173300E0C696F608A3E0C696F608A3E0C696F6BA
:1017430022C3E096F008A3E096F008A3E096F00821
:10175300A3E096F022E056F608A3E056F608A3E0CD
:1017630056F608A3E056F622E056F008A3E056F03A
:1017730008A3E056F008A3E056F022E046F608A3DB
:10178300E046F608A3E046F608A3E046F622E0F6B4
:1017930008A3E0F608A3E0F608A3E0F622E6F008C3
:1017A300A3E6F008A3E6F008A3E6F022E0FAA3E03C
:1017B300FBA3E0FCA3E0FD22EAF0A3EBF0A3ECF033
:1017C300A3EDF022CAC0E0E6F0A308DAFAD0E0FA0B
:1017D30022CAC0E0E0A3C582CCC582C583CDC58340
:1017E300F0A3C582CCC582C583CDC583DAE6D0E03C
:1017F300CA22C3E498F8E499F91218368026C3E4A0
:101803009AFAE49BFBE920E7E9121836E498F8E436
:1018130099F922C3E498F8E499F9121836E498F890
:10182300E499F9C3E49AFAE49BFB22EB20E7CFE9BE
:1018330020E7E0B90010BB0008E88AF084F8AAF0BA
:1018430022E4FBC8FA22EB70227B10C833C8C933E9
:10185300C9335007C39AC3DBF280069A50012ADBCF
:10186300EAC833F4C8C933F4C9FA2275F008E4C8E6
:1018730033C8C933C933C99AC99B5004C92AC93B60
:10188300D5F0ECFBC833F4C8E4C9FA22600D08C6EE
:10189300A2E713C618C613C6D5E0F322600C08C628
:1018A300C313C618C613C6D5E0F422700422600D14
:1018B30018C6C333C608C633C6D5E0F418222510AC
:1018C30010AF08F510400215118008F510400215FD
:1018D30011D2AF22C0D0251010AF08F51050020569
:1018E300118008F51050020511D2AFD0D022251077
:1018F300F58210AF08F510400215118008F510406D
:10190300021511D2AF851183222510F582E435111A
:10191300F58322E4732510C582C0E0E51134FFC5C9
:1019230083C0E0E510C3958224F810AF08858311C6
:101933008582108008858311858210D2AFCEF0A3F3
:10194300E520F0A37808E608F0A3DEFAEFF0A3E5BC
:101953008124FAF8E608F0A3E608F0A3E608F0A36A
:101963000808E608F0A3E608F0A315811581D0E086
:10197300FED0E0F8158115811581E8C0E0EEC0E0E6
:10198300222510C582C0E0E51134FFC583C0E0E520
:1019930010C3958224F910AF0885831185821080C6
:1019A30008858311858210D2AFCEF0A3E520F0A382
:1019B3007808E608F0A3DEFAEFF0A3E58124FBF84C
:1019C300E608F0A3E608F0A30808E608F0A3E60893
:1019D300F0A315811581D0E0FED0E0F815811581C3
:1019E300E8C0E0EEC0E022851183851082E0A3FE0B
:1019F300E0A3F5207808E0A3F608DFFAE0A3FFE010
:101A0300A3C0E0E0A3C0E0E0A3C0E0E0A3C0E0E047
:101A1300A3C0E010AF0885821085831180088582FA
:101A230010858311D2AFD083D08202011485118334
:101A3300851082E0A3FEE0A3F5207808E0A3F60872
:101A4300DFFAE0A3FFE0A3C0E0E0A3C0E0E0A3C0AF
:101A5300E0E0A3C0E010AF08858210858311800801
:101A6300858210858311D2AFD083D08222C0D02546
:101A730010C582C0E0E51134FFC583C0E0E510C3A3
:101A8300958224F310AF0885831185821080088521
:101A93008311858210D2AFC8F0A3E9F0A3EAF0A3C3
:101AA300EBF0A37908E709F0A3D8FAECF0A3EDF083
:101AB300A3EEF0A3EFF0A3D0E0F0A3D0E0F0A3D027
:101AC300E0F0A3E520F0A3E5F0F0A32285118385E0
:101AD3001082E0C0E0A3E0F9A3E0FAA3E0FBA3785F
:101AE30008E0F608A3DFFAE0FCA3E0FDA3E0FEA311
:101AF300E0FFA3E0C0E0A3E0C0E0A3E0F5D0A3E0F3
:101B0300F520A3E0A3F5F010AF08858311858210BB
:101B13008008858311858210D2AFD082D083D0E034
:101B2300F8D0E03274048006740280027401C0E0CD
:101B3300F4041218F1D0E01217C72274048004745D
:101B4300028000CCC0E0EDC0E0E510C39CCCAD1139
:101B530050011D10AF068C108D1180068C108D1155
:101B6300D2AF1217D4D0E0FDD0E0FC22D083D082D4
:101B7300C5F0E493A3C5F0C395F0F5F0E493A3C3D4
:101B830095F04005E5F0048001E475F002A4258298
:101B9300F582E5F03583F583E493A3C0E0E493C0D5
:101BA300E022D083D082E9C0E0E493A3C386F0C5EA
:101BB300F095F0F908E493A386F0C5F095F0700B67
:101BC300E493A3C3994005E9048002A3E475F002FA
:101BD300A42582F582E5F03583F583D0E0F9E4931B
:101BE300A3C0E0E493C0E022D083D082CCC0E0E481
:101BF30093A36006121C151470FAE493A3600612F3
:101C03001C341470FAD0E0FCE493A3C0E0E493C066
:101C1300E022C0E0E493A3D39C5010E493A3C39CBD
:101C2300400AD0E0D0E0D0E0021C08A3A3A3D0E098
:101C330022C0E0E493A36C7009D0E0D0E0D0E002CE
:101C43001C08A3A3D0E022D083D082ECC0E0EDC077
:101C5300E0E493A3FCE493A3FDED4C600D121C960A
:101C6300EC24FFFCED34FFFD80EFE493A3FCE4934D
:101C7300A3FDED4C600D121CD5EC24FFFCED34FFED
:101C8300FD80EFD0E0FDD0E0FCE493A3C0E0E4935B
:101C9300C0E022C0E0C3E493960874019396184011
:101CA3000FE4936670080874019366187000701946
:101CB300A3A3C3E49396087401939618A3A3400DBA
:101CC300D0E0D0E0D0E0021C86A3A3A3A3A3A3D0BB
:101CD300E022C0E0C0F088F0E49366700808740165
:101CE3009366187000A8F0A3A3700BD0F0D0E0D0D7
:101CF300E0D0E0021C86A3A3D0F0D0E022C0E074C1
:101D0300F2121A70E589A2E04006E589A2E15003C8
:101D130012076E758900758900C2C57F01021ACF4B
:101D2300C2C753BEFC3274F5121984EAFEEBFFEE10
:101D33002434F8EF3400F988088909EE2435121D9C
:101D4300CAF8EE2437121DCAF50AEC850AF0A4FC82
:101D5300AAF0850AF0EDA42AFDEC28F8ED3400F989
:101D63007A257B00121836EA850882850983F054A8
:101D730007F87401B800028004C333D8FCC0E0E064
:101D8300131313541FF8EE28F8EF3400F9745D2889
:101D9300F582E439F583D0E0FAE05A8508828509B3
:101DA300837020E0C0E0EE2436121DCAF5F0D0E0C7
:101DB30084A8F0EE28F8EF3400F9743828F582E4AB
:101DC30039F583E0F9801AF582EF3400F583E022D8
:101DD300908F7478081217918A828B837808121770
:101DE3006B7F04021A3074F41219848A088B09EA8F
:101DF3002434F582EB121DCDC0E0EA2435F582EBE5
:101E03003400F583D0E0F08A828B83A3A3A3A3A33A
:101E1300E0FAA3E0FB850882850983A3A3A3A3A318
:101E2300A3A3E0FCA3E0FDECC39AFEED9BFFE50852
:101E33002480F50AE5093400F50B850A82F583E071
:101E43006401702DE5082481F582E5093400F583EA
:101E5300121B42121E8774021218D7E960137C808A
:101E63007D07AA08AB0912102CE4850A82850B832F
:101E7300F0EEFCEFFDAA08AB09121D291224157F11
:101E830005021A30C082C083851082851183E0F871
:101E9300A3E0F9C3EA9CEB9D500BC3EC98ED99408A
:101EA3001279018010C3EA98EB9940F5C3EC98EDE1
:101EB3009950EE7900D083D08222C0E074EF121AD9
:101EC30070759B00906182E0A2E65059E591A2E60D
:101ED30050537591BF1211F4751200121272E990EA
:101EE3000671F07900121254120F90900676E054A6
:101EF3008164817024E0D2E6F01212008A088B0913
:101F03008C0A8D0B908F4078081216F2AA08AB0941
:101F1300AC0AAD0B1211D6800C7A017B0090066FD0
:101F2300E0F9120540906182E0A2E55024E591A218
:101F3300E5501E7591DF900670E0640D70139008F4
:101F430007E004F064287002E4F07A00E0F912126A
:101F5300FC906181E0A2E35009E5E9A2E350037537
:101F6300E9F7906182E0A2E75009E591A2E7500307
:101F730075917F7F04021ACFC0E0C0D0C082C083B6
:101F8300906183E0A2E05009E5BFA2E0500375BF72
:101F9300FEE0A2E15009E5BFA2E1500375BFFDE0F9
:101FA300A2E25009E5BFA2E2500375BFFBE0A2E342
:101FB3005009E5BFA2E3500375BFF7E0A2E450095F
:101FC300E5BFA2E4500375BFEFE0A2E55009E5BF0A
:101FD300A2E5500375BFDFE0A2E65009E5BFA2E624
:101FE300500375BFBFD083D082D0D0D0E032C0E0E1
:101FF30074F2121A70E5A7A2E4500FE5A1A2E4500F
:102003000953A7EF75A1EF12205CE5A7A2E55023C2
:10201300E5A1A2E5501D53A7DF75A1DF900676E089
:10202300A2E6500FC2E6F07A017B0090066FE0F95A
:10203300120540E5A7A2E15009E5A1A2E15003750D
:10204300A1FDE5A7A2E2500CE5A1A2E2500653A729
:10205300FB75A1FB7F01021ACF74F8121984751264
:10206300017A007B001211DCA2AFE492E0FED2AF52
:102073007A207B0090066FE0F91205CA7A207B0074
:1020830090066FE0F9120546906182E0D2E6F08592
:10209300C6138018900675E06401700874F855C67D
:1020A3004405F5C653BEFCE5BE1223BC740165129C
:1020B30060E253BEFCE5BEEEA2E092AF7F01021ADE
:1020C3003074F11219848A0C8B0D8C0E8D0F740FE2
:1020D30012190C7808121791908F74780C121758F4
:1020E300908F747808121758780C79081214E550F9
:1020F3001C780C7908121718908F547808121791CE
:102103007808790C1214E5501C7901801A78087943
:102113000C121718908F54780C121791780C7908B9
:102123001214E550E4790002220B74F1121984743D
:10213300FC1218C1851082851183EAF0A3EBF0A38A
:10214300ECF0A3EDF0741312190C780812179190A8
:102153008F74780C121791851082851183780C1275
:10216300176B908F74780812175885108285118326
:1021730078081214F54014851082851183780C12A7
:102183001791780C7908121718801E750C00750DBD
:1021930000750E00750F01780C7908121718851059
:1021A30082851183780C1216F2AA0CAB0DAC0EAD1E
:1021B3000F74041218D7805074F11219848A0C8B8F
:1021C3000D8C0E8D0F740F12190C78081217919045
:1021D3008F74780C121758908F74780812175878E8
:1021E30008790C1214E54011780C7908121718AA13
:1021F3000CAB0DAC0EAD0F800F7808790C121718CD
:10220300AA08AB09AC0AAD0B7F08021A3074F512A9
:1022130019848C828D8378081217918A828B837834
:1022230008121744122265C3E098F0A3E099122222
:1022330057401E908F6878081217918A828B837893
:10224300081217058E828F83E02420F0A3E0344E1A
:10225300F0021DD3F08E828F83C3E09420A3E09419
:102263004E22EA2404F8EB3400F9E8FEE9FF8C82FD
:102273008D83A3A3A3A3E0F8A3E0F98E828F832227
:1022830074F5121984E9C333F8E433F9E824C5F586
:1022930082E9348EF583E0F8A3E0F975830775824C
:1022A300A1E028F508A3E039F5097808121B2B9063
:1022B3008F647808121791AA08AB09AC0AAD0B1208
:1022C30023C474021218D78A088B098C0A8D0B74E5
:1022D3001078081216A7AA08AB09021DE474F112BC
:1022E30019848A0C8B0D8C0E8D0F740F12190CE050
:1022F300FAA3E0FB741112190CE0F508A3E0F50949
:10230300741312190CE0FEA3E0FF7808121B2B7460
:10231300012AF508E43BF509750A00750B00780CF2
:102323007908121524908F8C7808121791780C79FC
:1023330008121524AA0CAB0DAC0EAD0F1223C474F6
:10234300021218D78A088B098C0A8D0BEA7001EBED
:1023530060047A0180027A00741078081216A7EAE2
:102363002508F8E43509F974D828FCE439FDECF8BC
:10237300EDF97A717B02121836880889098E828FEB
:102383008378081217A0ECF8EDF97A717B02121822
:10239300368A088B0974012508F508E43509F5091F
:1023A300740578081218AE8E828F83A3A3A3A3E5C6
:1023B30008F0A3E509F002220B8512878513C622D4
:1023C300008E148F158582198583188510828511D7
:1023D30083E0CEA3E0CF851982851883EBC9EAC8D1
:1023E300EDCBECCA75F010C3E833C8E933C9EA335F
:1023F300CAEB33CBC3EA9EF517EB9FF516B3500434
:10240300AB16AA17EC33CCED33CDD5F0DAAE14AF5F
:102413001522C082C083E9906000F0D083D082226D
:1024230074F112191874FE1218C185108285118374
:10243300ECF0A3EDF0E9FF8A0E741112190CE0F52C
:102443000CA3E0F50D7E00900A23E07002A3E06088
:1024530005791102251DE50C7002E50D60417A1F17
:102463007B001209F68A088B09A808A909E50C2440
:1024730015F508E50D3400F509850882F583E0C3F9
:1024830098E499401A7A207B001209F68A0A850893
:1024930082850983E0FAC3E50A9AEB940050047934
:1024A3000280777A637B00120582900A23EAF0A305
:1024B300EB122FE47002A3E070047913805C7C6359
:1024C3007D007900120504123168E4122FE4123101
:1024D30071EF12252EE50EF08510828511831239D6
:1024E300BB1230AAA3A3E8F0A3E912252EA3A3A34A
:1024F300E50CF0A3E50D122C6BE4F0A3122FE4120C
:102503002528E4F0EF60051213DAE9FE123168744E
:1025130001F0EE6003121404EEF974021218D77F6F
:10252300070219EAE0241A122C76221231EBA322B5
:1025330074F61219187E00900A23E07002A3E0706B
:102543000579120225CB123179FF74026F600A7488
:10255300036F600574046F70E8122FA66C7003A3F9
:10256300E06D6004790280607508108E09780812A6
:102573001B2BEAFCEB1234661218D71231AD121B77
:102583002B122FD51218D7123D9088828983E0FA37
:10259300900A23E0FBA3E0F5838B82E060097403D8
:1025A3006A70237402801574046A70097402888245
:1025B3008983F0801174036A700C7405888289839F
:1025C300F01213E0E9FEEEF902278474F7121918EA
:1025D300E9FE900A23E07002A3E06013122FA66ABB
:1025E3007003A3E06B700874016E70031214047F10
:1025F300010219EAC082C083791712140A0234F95E
:1026030074F712191874ED1218C1EAF8EBF9E4859E
:102613001082851183F088828983A3A3A3123AF1E0
:102623008A828B83E0F508E82402FEE93400FFE5A3
:1026330008121B6F010A2D27512651266F26B92632
:10264300C726D526E326F12600270F271E27740168
:1026530012190CAC82AD83121446E9FA74126A7033
:10266300197406851082851183F0803A740112195A
:102673000CAC82AD83121452E9FAEA701D74011294
:10268300190CAC82AD83A9088E828F83123AF4129F
:1026930013B0E9851082851183F08510828511833B
:1026A300E07003022732AC82AD838E828F83123AAD
:1026B300F4121392807C740112190CAC82AD831254
:1026C300145E80B4740112190CAC82AD8312146AC7
:1026D30080A6740112190CAC82AD83121476809813
:1026E300740112190CAC82AD83121482808A7401B6
:1026F30012190CAC82AD8312149402267B7401125E
:10270300190CAC82AD8312149A02267B7401121940
:102713000CAC82AD831214A602267B740112190C31
:10272300AC82AD831214B202267B740702266612B2
:10273300132074131218D70225F274F6121918EC29
:10274300FEEDFF7508647509147808121B2B7902D6
:10275300123A1B1218D7E9F5088E828F83E0F9121B
:10276300140AA908801B7808121B2B740212190C77
:10277300AC82AD83123DC874021218D774101218BC
:10278300D77F020219EA74F212191874E01218C101
:10279300EAFEEBFF8C0A8D0B742E12190C122C4DD2
:1027A3007C107D007900851082851183AA82AB831A
:1027B30012050490053CE0A2E24003022935900A89
:1027C30023E07002A3E07003022874122A577003F7
:1027D300A3E06F60030228741238BA6003022874FE
:1027E300123D66FC74066C7044741012190C8582D9
:1027F3000C85830D780C121B2B900A23E0244BF5D8
:102803000CA3E03400F50D780C121B2B900A23E087
:10281300242B1232E81218D7E97056122948121BDA
:102823002B741212190CAC82AD830228E3122966B1
:102833007001EB603C1233C874116C600302290110
:10284300E065087004A3E065097021750C08750D37
:1028530000780C121B2B1229541218D7E96401704B
:102863000B122948121B2B1240B1807479321214B7
:102873000AEEFAEFFB120EAC8A0C8B0DA80CA90D15
:10288300E87001E97003022935E82420F50CE934E6
:1028930000F50D850C82F583123AF4EA7001EB70B2
:1028A30003022935EA2410F582EB12400065087013
:1028B30004A3E06509707B750808750900780812A0
:1028C3001B2B1229541218D7E964017065850C82F9
:1028D300850D83123D60123FFAF5087808121B2B11
:1028E300740212190C1236091218D7EEFAEFFB858F
:1028F3001082851183AC82AD83120D32803BE0657B
:10290300087004A3E065096003022874750C087558
:102913000D00780C121B2B1229541218D7E96401ED
:1029230060030228741240B1123FFAF508750900DA
:1029330080A9EEFAEFFB120D38790174201218D733
:102943007F060219EA12141CE9F5087509007808D4
:1029530022EA2412FCEB3400FDAA0AAB0B1204FE9C
:10296300740222900A23E0245B123461FAA3E0FB91
:10297300EA2274F4121918EAFEEBFF8908900A237D
:10298300E07002A3E07003022A1F122A577003A308
:10299300E06F6003022A1F122FB5FA74066A706C87
:1029A300122A4BE0605C900A24123DB6A2E0501A52
:1029B300122C55F5838C82A3A3A3A3A3E0A2E0501A
:1029C30009740788828983F080778A828B83E05435
:1029D3000260091233D76004740980E78A828B830B
:1029E300E05404600E123DA46009740B888289834D
:1029F300F0804E121416122A847046790012140ABB
:102A0300803F121410122A84703780EF74116A7099
:102A13000BE5086003750832A90880E1E508701822
:102A2300EEFA120EAC8A828B83E5827002E5836034
:102A330007A3A3A3E0D2E4F0EEFAEFFBA908120B7D
:102A43004C79017F040219EA900A23E0FAA3E0F526
:102A5300838A8222122FAA6E22C082C083900A2305
:102A6300E07002A3E060171231CD700512141080DC
:102A730003121416122A847005790012140A023400
:102A8300F912344C64122274F012191874E31218F8
:102A9300C1740D12190CEAF0A3EBF0740B12190CAC
:102AA300ECF0A3ED122FE47002A3E070057912029B
:102AB3002C48123AEE120EAC8A088B09AE08AF0905
:102AC300EE7001EF70057914022C48900A23E0247C
:102AD3000512252A123AF41234866076122C89C024
:102AE300E0740112190CD0E01235C012190C123522
:102AF300A0C0E0740412190CD0E01235B712190CFF
:102B0300AC82AD838983888274021217D4851082C4
:102B1300851183A882A983740912190CE8F0A3E92B
:102B2300122C6B122C4D120A38E9F50A7900120A9D
:102B33003E740712190CEAF0A3EBF08E828F83A385
:102B4300A3A3A3E0F50BEE2405F50EEF3400F50F78
:102B53008077122C55FD740912190CECF0A3EDF0DB
:102B6300122C89C0E0740112190CD0E01235C01286
:102B7300190C1235A0C0E0740412190CD0E0123500
:102B8300B712190CAC82AD83898388827402121741
:102B9300D4851082851183858208858309120A38BA
:102BA300E9F50B7900120A3E8A0E8B0F8E828F8312
:102BB300A3A3A3A3E0F50AEE2405F8EF3400F97408
:102BC3000712190CE8F0A3E9F0741612190CAC8281
:102BD300AD83AA08AB0912143A740F12190CAC8214
:102BE300AD83740912190C123AF4121434742D12B1
:102BF300190C121B42780E121B2BE50BF5087808F3
:102C0300121B2F740C12190C121B42741612190C7E
:102C13008582088583097808121B2B741F12190CEF
:102C23008582088583097808121B2BA90A7416125A
:102C3300190C123D60741812190C123AF412133263
:102C4300740B1218D7741D0239B3E0F508A3E0F52D
:102C53000922122C5922900A23E024181232FC8CE8
:102C6300828D83E0FCA3E022F0900A23E024181273
:102C73002C7622122C7A22F8122C7F22A3E0340025
:102C8300F988828983228A828B83E0851082851169
:102C9300831235D0122A4FA3E02274F0121918744C
:102CA300FF1218C1E9851082851183F08A0A8B0B04
:102CB300ECFEEDFF750800120EAC8A0E8B0FEA7066
:102CC30001EB70057908022DBA900A23E07002A384
:102CD300E06003022D7A851082851183E0640B7016
:102CE3003990053CE0A2E3502CEEFAEFFB12134AB5
:102CF30089087808121B2FE50E2405FCE50F340024
:102D0300FDAA0AAB0B850E82850F83E0F9120A50E8
:102D130074011218D77900022DBAE0640170F6909D
:102D2300053CE0A2E250EEEE2402FAEF3400FB127F
:102D3300134AE9FA8E828F83A3A3A3A3A374021277
:102D43001B468E828F83A3A3A3A3E0F50878081202
:102D53001B2FEAF5087808121B2F8E828F83A3E0BE
:102D6300FD8E828F83E0FCAA0AAB0B7900120B5213
:102D730074041218D7809E122FA6650A7004A3E06C
:102D8300650B6003022CC7851082851183E0121B3B
:102D93006F010A7B2FAE2DBF2DC82D2B2E812F3413
:102DA3002EA42EAE2E042F0E2F7B2FEEFAEFFB1246
:102DB30013B6E9F508A90874010239B3EEFAEFFB7B
:102DC3001213BC80ED750900750A10750B00780AA3
:102DD300121B2BEEFCEFFD900A23E0243B12346D13
:102DE3001218D71231CD60141213E6E96003750986
:102DF300081231687405F085090880B9122FB5648B
:102E0300047004740380EF900A23E0241BF50AA3E3
:102E1300E03400F50B780A121B2B122FD51218D7AA
:102E23001213E0E970C880C9EEFAEFFB1213C280F7
:102E330081122F9774076A6008740C6A6003022F6B
:102E43007B122FCB7002A3E0700A7A1B122F892406
:102E53005D122FC0900A23E0245D12296C7001EBF0
:102E63007003022F7B750A10750B00780A121B2B57
:102E7300EEFCEFFD12360D1218D712141CE9C0E058
:102E8300122FCB122528D0E0122FE4123D98122FD7
:102E93009F700A740888828983F0022DB8740D80AC
:102EA300F4EEFAEFFB1213C8022DB5122F97740933
:102EB3006A6008740E6A6003022F7B123457700233
:102EC300A3E0700A7A16122F89245F122FC0900A8A
:102ED30023E0245F12296C7001EB6015750A1075ED
:102EE3000B00780A121B2BEEFCEFFD12360D1218A5
:102EF300D7123D90122F9F7004740A8098740F802C
:102F030094EEFAEFFB1213CE022DB5123D8670023A
:102F1300A3E070197A141238B0246112252A1235ED
:102F2300CC7002A3E07006750808022DB8900A233E
:102F3300E0246112296C7001EB602A750A10750B8D
:102F430000780A121B2BEEFCEFFD12360D1218D778
:102F5300908F68780C121791123D86241012252A3F
:102F6300780C1217A01231CD60061213D4022DB8BB
:102F7300790012140A022DB8750807022DB88E8243
:102F83008F83E0F980EC7B001205828A0A8B0B9019
:102F93000A23E022900A24123452FA22122A4BE026
:102FA300640122122FAA22122FAE221231F0A3A300
:102FB300E022900A23E024010812346222123D77B2
:102FC300E50AF0A3E50BF022900A23E0245D123416
:102FD3006122900A23E0242B1232F11213AA740205
:102FE30022F0900A23E02274F61219187E00900A48
:102FF30023E07002A3E060051231CD60057E070275
:1030030030A51213ECE9FA60030230991213DA9037
:103013000A23E024051240AAE8FCE9FD8C828D8393
:10302300E01230AF50081231A1600312318C12311B
:1030330099601474036A600574046A700E7901124E
:1030430031D27404F0805B790280F474016A600504
:1030530074056A704D1230AA7402122FE41231649F
:1030630088828983E06401700B7C107D00790012F3
:103073000504801D7508108E097808121B2B8C829D
:103083008D83E024021232FC12360D1218D712314E
:10309300871231C1800C74186A70050E0E0E8002FF
:1030A3007E08EEF9022784122A4BA322241212343B
:1030B30061A2E02274F61219187E001231CD700558
:1030C3007E070231611213ECE9FA600302315912EF
:1030D30040BF1230AF50081231A1600312318C127D
:1030E3003199600A74036A600974046A700E790185
:1030F300800279021231D27403F0806274016A6033
:103103000574056A70581231687402F07C107D00F2
:103113007900900A23E012316412050412317964B4
:1031230001601D7508108E097808121B2B1240BF11
:103133002402FCA3E034001234661218D71231873C
:103143001231AD121B2B122FD51218D71213E0E92F
:10315300600C7E08800874186A70F70E0E0E023039
:10316300A51233032212316DA322900A23E0F8A3A0
:10317300E0F58388822212317D22900A23E0241A0B
:1031830012402E221231DFF022900A23E02417127C
:103193003461D2E0F02212317DFA74026A221240C5
:1031A30024123171A3A3E05403221231C1900A23E4
:1031B300E0241BF508A3E03400F509780822791010
:1031C300900A23E0242B1240E22212316DE02212F6
:1031D300403C120B581231DF1231EB22900A23E0EC
:1031E300241712402ED2E222F01231F022900A2349
:1031F300E0F8A31231FA22E0F5838882A32274F661
:1032030012191874E01218C17E007508108E09781F
:1032130008121B2BEAFCEBFD900A23E0244B12342B
:103223006D1218D7741012190C85820885830978DA
:1032330008121B2B900A23E0244B122FDB1218D702
:103243007508108E097808121B2B900A23E0243B83
:103253001232FC741212190CAA82AB831204FE748C
:10326300021218D7E96401706C1231CD605D8510CC
:10327300828511838582088583097808121B2B9028
:103283000A23E0242BF508A3E01232E1121B2B9052
:103293000A23E0244B1232E81218D7E970231214E0
:1032A3001C8E088E097808121B2B7808121B2B74AE
:1032B3000412190CAC82AD8312330C1218D7E960D7
:1032C300027E081231687406F0800C1213E6E9607E
:1032D300F27E0880027E04EEF97420022781340016
:1032E300F5097808221232F112133E7404221232C5
:1032F300FC900A23E012330322FCA3E03400FD22F6
:103303002407FAA3E03400FB2212403C1213F274A8
:10331300042274F6121918EAFCEBFD900A23E02448
:103323005D12296C7001EB70030233C3123448FE43
:1033330074086E6008740D6E60030233C38C828D53
:10334300831239BB1233C8E8F0A3E9123A21121BE6
:103353002BEC24020C0CED3400FDEA2412FAEB34BE
:1033630000FB12360D1218D7123479702AE054027A
:10337300600E1233D7600974098A828B83F0803C14
:1033830088828983E0540460091234936004740BC7
:1033930080E71213D48025E05410600912350060D1
:1033A30004740E80D488828983E054206009123526
:1033B300146004741080C2790012140A7900800228
:1033C30079070227841233CC22EA2410F582EB34E6
:1033D30000F5832212350654022274F612191812CC
:1033E3003448FC740A6C6005740F6C7053750806DE
:1033F3007509007808121B2B8A828B83A3AC82ADDC
:1034030083123457241012346D1218D71234797082
:1034130018E05404600E1234936009740B8A828B93
:1034230083F080181213D48013E0542060091235FE
:10343300146004741080E6790012140A7900800283
:10344300790702278412344C22900A23E0F8A3124E
:1034530031FAE022900A23E0245F12346122F81249
:10346300402F22FD900A23E02407FAA3E03400FB57
:103473001204EC740222123DDC1234866401888249
:10348300898322900A23E0FCA3E0F5838C82E02267
:10349300123499540422900A23E02418122C7AE05F
:1034A300F8A31234A9221231FAA3A3A3A3E022C0E2
:1034B30082C083123DD16005123DAA701C888289A7
:1034C30083E054106005123500700E88828983E012
:1034D30054206011123514600C74068A828B83F0B9
:1034E300121416800774128A828B83F0122A847056
:1034F30005790012140AD083D08202011412350612
:10350300541022122C59F5838C82A3A3A3A3A3E006
:103513002212349954202274F612191874F91218CD
:10352300C1900A23E07002A3E0606B900A23E024B9
:1035330005123D8C122A4F122C8DC0E07401121912
:103543000CD0E01235C012190C1235A0C0E074047F
:1035530012190CD0E01235B712190CAC82AD838965
:1035630083888274021217D4123AEE1238BA601E9C
:103573007508347509147808121B2B740212190C80
:10358300AC82AD837907123A1B1218D7800A7508EB
:103593003A75091480E079017407022781AA82AB86
:1035A30083121350900A23E0240512346124151268
:1035B3003D77E0221235D01240A87405221235D08F
:1035C3002412123461F9740222EAF0A3EBF0888228
:1035D3008983E02274F612191874F01218C1750861
:1035E300107509007808121B2B900A23E0241B1284
:1035F30032FC740212190C1236091218D775084CD2
:10360300750914022769AA82AB831204EC7402229F
:1036130074F612191874F01218C1750810750900A0
:103623007808121B2B900A23E0242B1232FC74021D
:1036330012190C1236091218D77508587509140295
:10364300276974F01219188A0C8B0D7E007A071201
:1036530038B024181240C67001EB70030238A97504
:1036630008078E097808121B2BAC0CAD0D12360D12
:103673001218D71240BFFAA3E0FB1238BA60030254
:10368300381412401EF50AA3E03400F50BEA2413A4
:10369300FCEB3400FD850A82850B83E0A2E092F007
:1036A3008C828D83E0A2E020F001B35009A2E0E414
:1036B30092E0F50880028E08E054FEF8A3E0F97466
:1036C300015508488C828D831238CBC313A2E09234
:1036D300F08C828D83E0C313A2E020F001B350137A
:1036E300E054026004D2F08002C2F0A2F0E492E05F
:1036F300F880027800E054FDF508E8C333F8E433BA
:1037030074025845081238D7543FA2E092F08C82D5
:103713008D83E01313543FA2E020F001B35014E073
:1037230054046004D2F08002C2F0A2F0E492E0F507
:103733000880028E08E054FBF50E74027808121814
:10374300AE74045508450E1238D713541FA2E092E5
:10375300F08C828D83E0131313541FA2E020F00139
:10376300B35014E054086004D2F08002C2F0A2F017
:10377300E492E0F50880028E088E09E054F7F50E16
:10378300740378081218AE74081238C2540FA2E0FA
:1037930092F08C828D83E0C4540FA2E020F001B339
:1037A3005014E054106004D2F08002C2F0A2F0E49E
:1037B30092E0F50880028E088E09E054EFF50E744E
:1037C3000478081218AE74101238C2135407A2E01A
:1037D30092F08C828D83E0C4135407A2E020F001A1
:1037E300B35014E054206004D2F08002C2F0A2F07F
:1037F300E492E0F50880028E088E09E054DFF50AB2
:10380300740578081218AE74205508450AF0A3E928
:10381300F0900A23E0241A1240AA850C82850D83B6
:10382300A3E060118A828B83A3E060097405888218
:103833008983F08073850C82850D83A3A3E05404F0
:103843007015EA2412F582EB124000A2E2400474E0
:103853000180DBA2E2504B850C82850D83E0FC9056
:103863000A23E0FDA3E0F5838D82E08A828B8360E7
:1038730006E0FFECFD8004E0FDECFFEFC394055090
:1038830021EDC39405501B8F08ED75F005A4243C6E
:10389300FAE5F0348EFBE5082AF582E43BF583E094
:1038A300808C7E1880027E13EEF90239B67B0012FB
:1038B3000582900A23E022900A24123173E02255F4
:1038C30008450E1238CBC422F0A3E9F0850A82859D
:1038D3000B83E0221238CB13132274F012191874DD
:1038E300E61218C18A0E8B0F8C0A8D0BE9FE742A1F
:1038F30012190C1239BB742C12190C122C4DEC70CA
:1039030001ED700579020239B1E8851082851183D2
:10391300F0740112190CE9F07C107D007900740A2F
:1039230012190CAA82AB831205048E0C750D007854
:103933000C121B2BAC0AAD0B740C12190C123609AA
:103943001218D7E5087002E509601C750A08750BA3
:1039530000780A121B2BAC08AD09740412190C125F
:1039630036091218D780127C087D00790074021280
:10397300190CAA82AB83120504740A12190C8582EE
:10398300088583097808121B2B740212190C85828F
:10399300088583097808121B2B740612190CAC8254
:1039A300AD83AA0EAB0F120D2C74041218D7741A20
:1039B3001218D77F080219EAE0F8A3E0F92274F697
:1039C30012191874EE1218C1EAFEEBFF741C1219D7
:1039D3000C123AF4851082851183ECF0A3ED123AB0
:1039E30021121B2BEAFCEBFD740412190C1236098D
:1039F3001218D775087C7509147808121B2B7402EA
:103A030012190CAC82AD83790B123A171218D774C2
:103A130012022781EEFAEFFB1214B8740222F0753A
:103A2300080875090078082274F412191874F91239
:103A330018C1EAFEEBFF851082851183E9F0750A50
:103A430006750B00780A121B2B740312190C12361D
:103A5300091218D7750A8E750B14780A121B2B746A
:103A63000212190CAC82AD837908123A171218D7D7
:103A730074071218D7022A46C082C083900A23E033
:103A83007002A3E0605F900A23E0241812296C708F
:103A930001EB60031205881229667001EB600312C3
:103AA3000588900A23E0245D12296C7001EB600302
:103AB300120588900A23E0245F12296C7001EB60E1
:103AC30003120588900A23E0246112296C7001EB2C
:103AD3006003120588900A23123AF4120588900AAB
:103AE30023E4F0A3F01213260234F912316DA3A3D9
:103AF300A3E0FAA3E0FB2274F7121918E9FE900A77
:103B030023E07002A3E06052900A23E024611225AF
:103B13002A121B42900A23E0245F12252A121B4219
:103B2300900A23E0245D12252A121B42900A23E007
:103B3300245B12252A121B42900A23E02417123D0C
:103B43008CFB122FA6FCA3E0FD1238BAFAEEF91291
:103B53000B5E74081218D71214040225F274F612BD
:103B630019181231CD6003023D5D123D66FE7406E5
:103B73006E7072900A241234A524131230B1500BC4
:103B8300124061A2E050047E07806C88828983E042
:103B930054026028123D9E60237E09120A448A085B
:103BA3008B09AC08AD097508887509147808121BD0
:103BB3002B123DC874021218D7023CB28882898343
:103BC300E054047003023CDE1234937003023CDEC3
:103BD3007E0B120A208A088B09AC08AD097508A070
:103BE30075091480C7EE121B6F0704B23CFA3B73CE
:103BF3003C9E3B8D3CD53B900A23E0245B123D8CDD
:103C03007002A3E070157A1B7B001205828A088B71
:103C130009123D6DE508F0A3E509F012296670016C
:103C2300EB7003023CB27C107D0079001205041294
:103C3300141C123D6D123AF412134412050A8A0839
:103C43008B0912408CE508F0A3E5091240D4121445
:103C53001CE9FC124096122527ECF07508707509D3
:103C6300147808121B2B8A828B83123D60023BB4AB
:103C73001229667001EB6037EA2412F508EB123261
:103C8300E1121B2B124044023BB7750801120A389C
:103C9300E9FF74016F700575080080027F00A908B1
:103CA300120A3E8A088B09AC08AD09EF12403412A0
:103CB3003D9074076E700A740888828983F0023D10
:103CC3004574086E704F123DB054026056123D9E0B
:103CD3006051740980E31240068073123DD1600D78
:103CE300123DAA6008740C8A828B8380488882897B
:103CF30083E0541060091235006004740E80E88874
:103D0300828983E0542060091235146004741080A2
:103D1300D6741280D274096E7004740A8013740A04
:103D23006E70B8123DB0540460B1123DA460AC741F
:103D33000B888289831240CE740A6A6005740B6A09
:103D430070181240517001E9708C7CF47D017A0285
:103D53007B00900A25E0F91205BE022784E0FCA34C
:103D6300E0FD22900A2412345222900A23E0245BBD
:103D7300123D7722123D7B22FAA3E03400FB8A82B4
:103D83008B8322900A23E0246112346122900A2358
:103D9300E0123D982224011240AA221240655402E7
:103DA30022124065540422123506540822900A2335
:103DB300E0FAA3123DBA221240742413123DC32227
:103DC300123D7BE022791112403C1214B822123DBD
:103DD300DC88828983E0540822900A23E0F8A31246
:103DE30034A91240A8900A23E02401FAA3E0340086
:103DF300FB2274F41219181231CD64016003023FDF
:103E0300F7123D66F50874066508707912401E12B4
:103E13003D8C5408600C123DB05408600575080CC5
:103E2300807688828983E054106029124080602460
:103E330075080E120A448A0A8B0BAC0AAD0B750A7D
:103E430088750B14780A121B2B123DC874021218C2
:103E5300D7023F7A88828983E054207003023FA708
:103E63001240BF2413123D8C54207003023FA775E8
:103E73000810120A208A0A8B0BAC0AAD0B750AA034
:103E8300750B1480BFE508121B6F0C047A3F9B3E31
:103E93003C3F363E593F753E900A23E0245B123D7A
:103EA3008C7002A3E070187A1B1238B0245B1240A6
:103EB300C67001EB60097C1B7D007900120504903C
:103EC3000A23E0245BFEA3E03400FF8E828F83127B
:103ED30039BBE87001E97003023F7AE8241AF582DE
:103EE300E9124000701012141CE9C0E08E828F8327
:103EF300122527D0E0F07C107D0079008E828F831D
:103F0300123AF4120504122966241AF582EB1240C0
:103F130000F912134412050A8A0A8B0B12408CE52E
:103F23000AF0A3E50B1240D4750A70750B14780AD6
:103F3300121B2B1240B1023E4C1229667001EB603A
:103F430036EA2412F50AEB3400F50B780A121B2B20
:103F5300124044023E4F7F01120A38E9FEEF6E70B1
:103F6300031F80027E00EFF9120A3E8A0A8B0BAC14
:103F73000AAD0BEE124034123D90740C65087009C3
:103F8300740D88828983F08053740D6508701C1248
:103F93004061541060251240806020740E80E3124B
:103FA3004006804412316874128024740E650870D0
:103FB30004740F8016740F650870E9124061542071
:103FC30060E2123DB0542060DB7410888289831252
:103FD30040CE740F6A600574106A701812405170F5
:103FE30001E970BB7CF47D017A027B00900A25E035
:103FF300F91205BE022A46EC241AF582ED3400F5C7
:1040030083E022E8240BF582E93400F583E0FA8AA1
:1040130008C3132508FCE43400FD221240242405C0
:1040230022900A23E0241812402E22F8122C7FE05B
:1040330022F912403C1213FE22122FAEFAA3E0FB28
:10404300221233CC123D6012403C1213F82212406C
:104053003C120EAC8A088B09A808A909E822124071
:104063006522900A23E02418123DC3FAA312407478
:1040730022E0F5838A82A3A3A3A3A3E022900A23C9
:10408300E0FAA3123DBA541022124096E024101213
:104093002C7622900A23E0245B1240AAE8FAE9FB7B
:1040A3008A828B83222413F8A3E03400F922900A36
:1040B30023E0245B123461FCA3E0FD22900A231267
:1040C30034A222122C761235CCFA221231EBE0FA0A
:1040D30022F079088A828B83E024121240E222FACA
:1040E300A3E03400FB12134422C082C083791090F2
:1040F3000A23E07002A3E06048900A23E024181228
:104103003D73123AF4EA7001EB60361240BFFCA330
:10411300E0FDEC7001ED6029EC2415F8ED3400F9B5
:10412300EA2404FAEB3400FB8A828B83E0C0E08844
:10413300828983E0FCD0E0C39C50048A828B83E0B5
:10414300F90234F974F7121918E9900595F09005FE
:104153009674FFF0A3F0900598E4F0A3F0790512AC
:104163000C78900595E0F9120BA07AD27B0C120E15
:104173009A7F010219EA74F4121918EAFEEBFF742C
:10418300805FF9E47001E9602D900595E0F912056F
:10419300288A088B09EA7001EB60138A828B83E01B
:1041A30064B07003120C90AA08AB09120516EEFA5C
:1041B30074806FFB80047A007B0002443A74F0122F
:1041C300191874FC1218C1EAFEEBFF741612190CCD
:1041D300E0F50EA3E0F50F741812190C1256A1EEB8
:1041E3007001EF70030242C4740212190CEEF0A3C3
:1041F300EF124680124DB6AA82AB83120B9AE9F5F1
:104203000A60030242C7741412190CE07002A3E09F
:104213007013E50E7002E50F700BE5087002E509F7
:1042230070030242C78E828F83A3A3A3A3E0FEA3DE
:10423300E0FFEE7001EF70030242C47A0A7B0012C2
:1042430005828A0C8B0DA80CA90DE87001E9700595
:10425300750A13806F88828983E4F0A31256B0A392
:10426300EEF0A3EFF0741412190C12487CA3A3A36D
:10427300A3124DCE88828983A3A3A3A3A3A3E50E90
:10428300F0A3E50F1256A9A3A3A3A3E508F0A3E5A2
:1042930009F090059BE07002A3E090059B70051266
:1042A30048878020E0FCA3E08003EAFCEBFD8C82DE
:1042B3008D83124EF3EA7001EB70EF8C828D838055
:1042C300DE750A02A90A024F36D083D08202011496
:1042D30074F612191874FE1218C1740C12190C1208
:1042E300466EE8851082851183F0740112190CE97A
:1042F300F07508007509007808121B2B7508027801
:1043030008121B2B740412190C8582088583097803
:1043130008121B2B120CCC74061218D77402121835
:10432300D77F020219EA74F2121918890AE975F0A3
:1043330017A4FEAFF0E490059AF0900598124EF39F
:10434300EA7001EB600A120588900598E4F0A3F087
:10435300EEFAEFFB1205828A088B09EA7001EB6023
:104363002FEEFCEFFD7900120504900598E508F0A7
:10437300A3E509F07B00800812439AE4F0A3F00B55
:10438300EBC3950A40F2E50A90059AF079008002A2
:1043930079137F060219EAEB75F017A4F8A9F090D8
:1043A3000598E028FAA3E0398A82F5832274F21291
:1043B3001918EAFEEBFF740E12190C1257657508F3
:1043C300007509008003124A32C3E5089CE5099D84
:1043D300502E85080A85090B7403780A1218AEEE6D
:1043E300250AFAEF350BFB8A828B83A3A3A3A3A32E
:1043F300A312466EE50C687003E50D6970C880046E
:104403007A007B00808C74F41219187900EAA2E018
:104413005023890889097808121B2B7808121B2B53
:104423007808121B2B7C037D007AAE7B0D120C6C7B
:1044330074061218D780007F040219EA74F7121960
:104443001890059B80048C828D831251CAEC7001F5
:10445300ED6016EC2402F8ED12563A6A7003A3E0FD
:104463006B70E3E8FAE9FB80047A007B0002417495
:1044730074F012191874FC1218C18A088B0985107C
:1044830082851183E4F0A3F0EA2402F50CEB3400F7
:10449300F50D12506D8A828B83A3A3A3A3E0121B95
:1044A300EB000A02C64406D644081B450A2A450CFB
:1044B3009F450E1846102846123846164846185887
:1044C3004618459005B47417F0A3E4124688120900
:1044D300068042851082851183AC82AD83120C96CF
:1044E300E9FEEE6030850882850983A3E0641460E9
:1044F30024850882850983A3A3A3A3E09005B412AE
:10450300468012466E9005B5124887EE9005B712A5
:104513004688120900024F36851082851183AC82CA
:10452300AD83120C9C80B9740212190CAC82AD835A
:10453300850A82850B83124EFF8A0E8B0FAC0EAD5C
:104543000FEC7001ED6043750E00750F00780E12CD
:104553001B2B750EB4750F05780E121B2B750EB53C
:10456300750F05780E121B2B740812190C121B42BF
:104573007916850C82850D83124B6E1218D7E9FFCD
:10458300700A124EE912091E800E7F01850A828588
:104593000B83124674124887EF0244E4850A0E85A2
:1045A3000B0F740212190CAC82AD83850E82850F3A
:1045B30083124EFF8A0A8B0BAC0AAD0BEC7001ED34
:1045C3006043850E82850F83A3A3121B42750AB431
:1045D300750B05780A121B2B750AB5750B05780A3E
:1045E300121B2B740812190C121B427916850C82AC
:1045F300850D83124B6E1218D7E9FF700A124EE92C
:1046030012092480937F01850E82850F83124674DD
:104613001248878083851082851183AC82AD831213
:104623000CA20244E3851082851183AC82AD831210
:104633000CA80244E3851082851183AC82AD8312FA
:104643000CAE0244E3851082851183AC82AD8312E4
:104653000CB40244E3851082851183AC82AD8312CE
:104663000CBA0244E3850882850983E0F8A3E0F9E4
:1046730022E0F8A3E0F985108285118322F08510EA
:104683008285118322F07CB47D05124F132274F0CE
:1046930012191874FA1218C1740412190C124F2348
:1046A300F508EB3400F5097C157D0079007AB47BBD
:1046B30005120504E50824021251A0851082851114
:1046C3008385820C85830D780C121B2B85088285CC
:1046D30009831251D0121B2BE5082405F50CE509BB
:1046E3003400F50D780C121B2B1251C485088285FA
:1046F3000983124EF3120BB874061218D78A0C8B67
:104703000DAE0CAF0DE50A2402F50AE50B3400F5F6
:104713000BEE7001EF7003024850801174021219FE
:104723000C12487C124DCE9005B4E004F09005B411
:10473300E0C394054003024850750C00750D0078E2
:104743000C121B2B750C9D750D05780C121B2B750C
:104753000C9E750D05780C121B2B740612190C1286
:104763001B427910EEFCEFFD850A82850B83124B09
:104773006E1218D7E9705C850882850983A3A3A309
:10478300A3A3A3A3E0FA90059DE06A70461251D457
:10479300121B2B7C9E7D05E5082408FAE5093400ED
:1047A300FB1204FE74021218D7E960278E828F83EE
:1047B300A3A3A3A3124EF39005B4E0F50C740278FF
:1047C3000C1218AEE50C24B5F582E50D3405F5831E
:1047D300124DCE740212190C85820C85830D780C50
:1047E300121B2B740212190C121B421251C4EEFA43
:1047F300EFFB120BC474041218D78A0C8B0DAE0C8A
:10480300AF0D9005B4E0F50C750D007402780C1231
:1048130018AEE50C24B4F8E50D3405F988828983D4
:10482300A3E07002A3E07003024714E8240308081E
:1048330008E93400F9EE7001EF600302471F888234
:10484300898374FFF0A3F09005B4E004F09005B4FD
:10485300E060147CB47D05850A82850B83124EF3D8
:104863001209127900800D124668740412190C1291
:104873004884790A7406024F38124F198882898353
:1048830022125647E8F0A3E9F02274F012191874C3
:10489300F81218C1740212190C124DCE74061219B3
:1048A3000C124F2E740212190CE02405F8A3E01227
:1048B30051A912488785108285118312569A7E006A
:1048C3007F00740412190C85820A85830B780A12FF
:1048D3001B2B740212190C125689F50A750B0078FA
:1048E3000A121B2B740412190CE02405F50AA3E029
:1048F3003400F50B780A121B2B740612190C12568E
:104903007AFCA3E0FDAA08AB09120BB874061218CF
:10491300D78A0C8B0DEA7001EB70030249F9EA2484
:10492300041251941256A18A828B83A3A3A3E0F9A4
:10493300740212190C124DA260030249F9750A00A0
:10494300750B00780A121B2B750A9D750B05780AE7
:10495300121B2B750A9E750B05780A121B2B740A02
:1049630012190C121B427913AC0CAD0D740A1219F7
:104973000C124B6B1218D7E9FF707B90059DE0F882
:10498300EE7009E024029005B5F080149005B5E0BF
:10499300FC740228FAE43400FBEA6C7001EB7059F2
:1049A3008E82AA82124A299414124B635048850EB0
:1049B30082850F83E0C0E0EA124D7CD0E0124DAB5C
:1049C300C0E0124D7BD0E0124DC0121B2B7C9E7DAC
:1049D30005EE124D6E1218D790059DE02EFE74FF62
:1049E3006508700474FF6509600C124A32EEC394C3
:1049F3001450030248C5EE6012124D867402121958
:104A03000C124D9712091879008016EF70027F0A75
:104A1300740612190C1251B3E508F0A3E509F0EF7F
:104A2300F97408024F38E82AF8E43400F9E822E57B
:104A3300082401F508E5093400F5092274F0121978
:104A43001874FC1218C1740212190C124F2EEA24A6
:104A530005F50EEB1251A47F00E49005B4F0FEEAD5
:104A63002402F50AEB3400F50B80439005B4E0FA19
:104A730090059DE0124A2A9417124B63400D90054E
:104A8300B4E0FC7416C39C90059DF01256C0121B33
:104A93002B7C9E7D05EA24B5FAE4340512563312C5
:104AA30018D790059DE0FA9005B4E02AF00EE50EC4
:104AB3002416F582E50F3400F583E0FAEEC39A403D
:104AC30003024B4E9005B4E0C39416507EEEC333FD
:104AD300F8E433F9E50E28F508E50F39F5098510F3
:104AE30082851183AC82AD83850882125078AC0C29
:104AF300AD0DEC7001ED70137F018508828509838C
:104B0300124EF712190C1248848050750C00750D63
:104B130000780C121B2B750C9D750D05780C121B60
:104B23002B750C9E750D05780C121B2B7406121930
:104B33000C121B427916850A82850B83124B6E1267
:104B430018D7E9FF7003024A6E80AF7CB47D0585F8
:104B53000A82850B83124EF312092AEFF9024F36AC
:104B6300E99400C365D0332212567F124F19120CF9
:104B7300C674082274F012191874F81218C185103B
:104B830082851183124DCE740612190C124DB6E0B4
:104B93002405F50CA3E03400F50D7E007F007404BA
:104BA30012190C8582088583097808121B2B850C42
:104BB30082850D83A3A3A3A3E0F5088E09780812C9
:104BC3001B2BE50C2405F508E50D3400F5097808E1
:104BD300121B2B850C82850D83A3A3124F0A120B84
:104BE300B874061218D78A088B09802774FF888245
:104BF3008983F00E124D7B74FF124DC0121B2B7C68
:104C03009E7D058E0AE50A124D6E1218D790059DFA
:104C1300E02EFEE5087002E5096029850882850912
:104C230083A3A3124676124DA2E50824041251A0D1
:104C3300EF602B850E82850F8312466E7406121960
:104C43000C124884EE7003024D53124D8685108278
:104C5300851183124D971209307900024D6B750A45
:104C630000750B00780A121B2B750A9D750B0578CE
:104C73000A121B2B750A9E750B05780A121B2B74DF
:104C83000A12190C121B427911AC08AD09740812EF
:104C9300190C124B6B1218D7E9FF70978E82AA82F8
:104CA300EE90059D7009E024049005B5F08025E0A1
:104CB300F89005B5E0F50A740428FCE43400FDEC33
:104CC300650A7001ED7083124A299412124B6340F6
:104CD30003024C4D850E82850F83E0C0E0EA124D3E
:104CE3007CD0E0124DABC0E0124D7BD0E0F00E74EF
:104CF3000212190C85820A85830B780A121B2B7406
:104D03000612190C121B42850C82850D83A3A31274
:104D130051CAAA08AB09120BC474041218D78A0823
:104D23008B09EE24B6F8E43405F9EA7001EB70035D
:104D3300024BEF740212190CE088828983F00E741F
:104D43000212190CA3E0C0E0124D7BD0E0024BFC31
:104D5300EF70027F0A850C82850D8312466E7406FE
:104D630012190C124884EFF9024A2424B6FAE434E7
:104D730005FB1204EC740222EE24B6F582E434053A
:104D8300F583229005B5E0F5F0EE849005B4F07C50
:104D9300B47D0522124D9B22125683124F1D2212FF
:104DA3004D9B120BA6E9FF22F00E850E82850F8321
:104DB300A3E022124F2E85108285118322F00E90DC
:104DC300059DE0F50A750B00780A22EAF0A3EBF0E3
:104DD3002274F012191874FC1218C1740212190CFF
:104DE300124F23FEEB3400FF851082851183AC82C2
:104DF300AD838E828F83124EFF8A088B09EE2418AF
:104E0300F50EEF1251A4EA7001EB7003024EC2E5F6
:104E13000A2402F50CE50B3400F50D8A828B83A37B
:104E2300A3A3E0A2E55046851082851183124EF3B9
:104E3300120C8A8A0A8B0BA80AA90BE87001E96095
:104E43007988828983A3A3A3A3A3A3125669E50A3E
:104E53007002E50B60647912AC08AD09124EED8562
:104E63000A82850B83121916E9F508705775080035
:104E73007509007808121B2B8E828F83A3A3E0F59C
:104E8300087808121B2BEE2403F508EF3400F5090C
:104E93007808121B2B8E828F83124F0A120CCC744C
:104EA300061218D7E9F508701B850E82850F83E07B
:104EB3007023124EED120936801B75080E8009759A
:104EC30008018004E508600D8E828F83124EF7126D
:104ED300190C124884850E82850F83E060047900E3
:104EE3008002A908804D7CB47D05850C82850D83E5
:104EF300124F1922E0F8A3E0F9740222124F0322A1
:104F0300124F1D120BBE22E0FCA3E0FD124F132231
:104F1300850C82850D83124F1D22E0FAA3E0FB224C
:104F2300124F2E8A0A8B0BEA240522ECF0A3EDF034
:104F330022A90874041218D77F080219EA74F01220
:104F4300191874FC1218C1740212190C124F2E8A0C
:104F53000E8B0F12506D750800851082851183AC7E
:104F630082AD83850A82125078AE0CAF0DEE7001CC
:104F7300EF700302504BE50E2402F50EE50F1251BC
:104F8300A48E828F83A3A3A3E0A2E5502F12576FB1
:104F93007002E5836056A3A3A31256547002E50979
:104FA300604A7912EEFCEFFD850E82850F83125065
:104FB30082121916E9F508600302504E850E8285A8
:104FC3000F83E0FEA3E0FFEEFAEFFB1250607001E7
:104FD300E970157AFF7BFF1250607001E960648805
:104FE300828983EEF0A3EFF07D00800675080E80C2
:104FF3005A0D90059AE0FAEDC39A5047ED75F017F4
:10500300A4FAABF088828983A3A3E02AFAA3E03B46
:10501300FB8A828B83E07002A3E070D5750C177551
:105023000D00780C121B2BAC0AAD0B125634121860
:10503300D7AC0AAD0B850E82850F83124EF312098E
:105043003C80177508098003750801850A82850B62
:1050530083124EF712190C124884024F34120CC0FB
:105063008A0C8B0DA80CA90DE822EA2405F50AEB9E
:105073003400F50B22F583124F038A0C8B0D221299
:105083004F198508828509832274F012191874FC5C
:105093001218C1740212190C124F2EEA2405F8EBF0
:1050A3001251A9124887750800EA2402125194127A
:1050B3004EF3120CC08A0A8B0BEA7001EB700302E9
:1050C3005185750900807985108285118312569563
:1050D300640170558E828F83A3A3121B428E828F2D
:1050E300831251D0121B2BEE2405F50CEF3400F57F
:1050F3000D780C121B2B850E82850F83124EF31233
:105103000CCC74061218D7E9F508601D851082854A
:1051130011831251B3E4F08E828F83124EF3740223
:1051230012190C1251B3124DCE7C177D007900EE8B
:10513300FAEFFB1205048E828F83E4F0A3F00509D6
:1051430090059AE0FAE509C39A5028E50975F01726
:10515300A4F8A9F0850A82850B83A3A3E028FEA304
:10516300E039FF8E828F831251CAEC7001ED600328
:105173000250CA850A82850B8374FFF0A3F0E50809
:10518300700C850E82850F83124EF3120942024F73
:1051930034F50EEB1251A4850E82F58322F50EE54C
:1051A300093400F50F223400F9851082851183221A
:1051B3001251B7221251BB22E0F8A3E0F583888293
:1051C30022850E82850F83E0FCA3E0FD22A3A3A327
:1051D300A3E0F50C750D00780C22C082C083900506
:1051E30096E06A7003A3E06B70067A967B058004F1
:1051F3007A007B000242CC74F012191874F812186A
:10520300C1740612190C124DCE740412190C124FEC
:105213002E740312190CE9F0741A12190C12566940
:10522300741E12190CE0FEA3E0FF740112190CE4C2
:10523300F0A3124680F0740412190C125671E0A206
:10524300E45053741812190C12565D12190C124DB6
:10525300CE740112190CE07002A3E07003025346EE
:10526300740112190C1256711256547002E509702A
:1052730003025346790A740412190C1251CA7406B4
:1052830012190C125082121916E9851082851183A6
:10529300F0600302534F740412190C125695640202
:1052A30060030255B8740412190CA3E0F5838882D5
:1052B300A312466E850A82850B83A385820E85839E
:1052C3000F740412190CE02406F508A3E03400F56A
:1052D3000988828983E0FAA3E0F9EAF50CE9F50D80
:1052E300780C121C4A0100002801280C5306000206
:1052F30028EF5303285E530029C1540129EE5403B8
:1053030029C15404295455B855EE7001EF70481261
:105313004668E8FAE9FB8A828B83E0C0E0741C12DA
:10532300190C1251B3D0E01256B7121B2B8A828B81
:1053330083A3E0FCA3E0FDAA0AAB0B1256341218B8
:10534300D78009740E851082851183F085108285BC
:105353001183E0F9024A24740B80EAEE7001EF70C6
:10536300F6741C12190C1251B37401F012568F8586
:105373000A82850B83F07C007D00740412190C12E1
:1053830056892401FAA3E03400FB120BBEEA700134
:10539300EB603E8A828B83E02402FC741C12190C9E
:1053A3001256952CF0EA2404F8EB12563A850E8235
:1053B300850F831256C91256B7121B2B8A828B8311
:1053C300A31251CAE50A2403FAE50B3400FB025386
:1053D3003E741C12190C1256952404F07C047D00B3
:1053E3007900AA0EAB0F12050402534FEE7001EFC2
:1053F300600302535A85088285098312569A741CE6
:1054030012190C1251B37404F0850A82850B83E5DB
:1054130008F0850E82850F83E509F07C007D00AAE4
:1054230008FB120BBE8A0C8B0DAE0CAF0DEE700198
:10543300EF6070AA08AB09120BCA8A0C8B0DA80C7B
:10544300A90DE87001E960558E828F83A3A3A3A3FE
:10545300A3A3124EF3E82508F8E93509F974FF28E8
:10546300FE74FF39FF8A828B83E06402703975080A
:10547300027509007808121B2B8A828B83A31251B1
:10548300CAE50A2404FAE50B34001256331218D77E
:10549300741C12190C1256952402F0800AAE08AF40
:1054A3000980047E007F00EE850A82850B83A3A317
:1054B300F0EF850A82850B83A3A3A302534EEE70FC
:1054C30001EF600302535A12568FF8A3E0F9741CDC
:1054D30012190C1256437402F0E8850A82850B8375
:1054E300F0E9850E82850F8302534E850882850974
:1054F30083124EF31204E6EAFC8C82A882C39EE474
:105503009F4049E86E7001EF70047C00801B7403B8
:1055130012190CE02EFAE43FFBC3EA98EB94005017
:1055230003E08004EECCC39CFC741C12190C1251D2
:10553300B3ECF08C0C750D00780C121B2B850882D4
:10554300850983E02EFCA3E03F025339740702531D
:1055530048EE7001EF600302535A124668741C123E
:10556300190C1256437407F088828983E0850A82F6
:10557300850B831256B0E0850E82850F83F0E824F5
:1055830002FAE93400FB8A828B83125650F08A8236
:105593008B83A3125650A31256A9125663F0E82424
:1055A30005F8E93400F988828983125663A31256F9
:1055B300C9A30254BB740112190CE07002A3E0707A
:1055C3000E741812190C12565D12190C124DCE746A
:1055D3000112190CE07002A3E07003025346740138
:1055E30012190C12567AF8A3E0F988088909E870B1
:1055F30001E970030253468E0C8F0D780C121B2B9E
:10560300741E12190C121B42780A121B2B740912F6
:10561300190CE0F9740A12190C1251CA740C1219FC
:105623000C12508212191674061218D7E902534845
:10563300FB1204EC7402223400F988828983E0228D
:1056430012564722E0FAA3E0F5838A82221256D04B
:1056530022A3A3A31256A1E5082212577F740122A5
:105663001256D0A3A322E0F50AA3E0F50B221256AB
:105673007522125683A32212567FE02212568322EA
:105683001251BBA3A322125675A3E022850882857B
:1056930009831251B7E0221251B71256A122E0F545
:1056A30008A3E0F509221256B0A3A3A322F088822F
:1056B3008983A322F08A828B831256C022E0F508E5
:1056C3007509007808221256B01256D022E0850AD6
:1056D30082850B83A3A32274F212191874FC121887
:1056E300C1740212190C124DCEECFAEDFB741412B4
:1056F300190CE0FE741612190C1256698510828576
:105703001183AC82AD83120BBE8A088B09EA700148
:10571300EB604512576F7002E5836038A3A3A3A320
:10572300125765E87001E9602B780A121B2B741479
:1057330012190C121B42EEF9AC08AD0974061219CA
:105743000C124EF3850C82850D8312191674041204
:1057530018D78006790E8002790174041218D702D3
:105763004395E0F8A3E0F9880C890D228510828522
:10577300118312577F8A828B83E58222124F1D1277
:105783000C8A2274F41219188A088B09E9FE740131
:105793006E7015AA08AB09120CC08A088B09EA704F
:1057A30001EB60547F00801974026E704B79011213
:1057B3000EB8E9704380DC7C177D00790012050484
:1057C3000F90059AE0FAEFC39A5022EF75F017A4F1
:1057D300F8A9F0850882850983A3A3E028FAA3E04A
:1057E30039FB8A828B83E07002A3E070CA8508824A
:1057F30085098374FFF0A3F002443A74F412191874
:10580300E9FE7F008A088B097808121BA500040CA7
:1058130078592F584B58605875588A589F58BB5819
:10582300D458E658145922593E595A5974016E7086
:10583300128C828D83E0C394035008E0900C07F030
:105843000259967F1802599674026E70F68C828DF7
:1058530083126169900C08E8F0A3E980E274016E99
:1058630070E18C828D83E0C3940250D7E09003747F
:1058730080CD74016E70CC8C828D83E0C39405500F
:10588300C2E090037580B874016E70B78C828D830B
:10589300E0C3940250ADE090037680A374106E7061
:1058A300A27508108F097808121B2B7A777B0312D5
:1058B30068651218D702599674016E70868C828DB2
:1058C30083E0C394024003025846E09003870258E2
:1058D3004274016E60030258468C828D83E0900C03
:1058E3000B808D74046E6003025846908F647808B1
:1058F3001217918D838C8278081214F54003025895
:10590300468C828D831217AF9003891217BB0259FD
:1059130096EE60030258461206DE1206D8807474AF
:10592300016E60030258468C828D83E0C39402406B
:1059330003025846E090038802584274016E6003E4
:105943000258468C828D83E0C3940A400302584672
:10595300E0900C0A02584274016E60030258468CB0
:10596300828D83E024F9C3940A4003025846E090F1
:105973000C0C025842C3EA9422EB940050137402B5
:105983006E700E8C828D8312616F1209F0E9FF80B5
:10599300020F0FEFF980031218D77F040219EA747C
:1059A300F412191874E61218C189098C0A8D0B7444
:1059B3002612190CE0FE741412190CAC82AD837517
:1059C300838F75821674061217D4741412190CACD3
:1059D30082AD83120690E9FFC3940A4003025A780A
:1059E3001206CCE9F50874046E6008900C07E064B5
:1059F30002700DEEFDAC08EFF9AA0AAB0B12070813
:105A03007C147D007900851082851183AA82AB8383
:105A130012050475F006EFA4FF851082851183AC8F
:105A230082AD837A1074242F12613570317C101289
:105A33006311702A741012190CAC82AD837A04744A
:105A4300252FF9120870851082851183AC82AD83EE
:105A5300E508A2E0E433F9AA0AAB0B120AE67404E0
:105A63006E7060900C07E064027058900387E060EA
:105A73003A7A01803874086E70E4900C07E064028F
:105A830070417C007D00A909AA0AAB0B1264B360C4
:105A93003212615E88828983E582458360257C00BA
:105AA3007900AA0AAB0B12191680187A00900374B6
:105AB300E06004780480027800E84AF9AA0AAB0B94
:105AC300120AFE7900741A02599A74F112191874A1
:105AD300F21218C18A0C8B0DECFEEDFF75080AE972
:105AE300600914600614601D025B6F1264A9507C88
:105AF300EE4F6078750A06750B00780A121B2BAC03
:105B03000CAD0D8061750900750A10750B00780ADC
:105B1300121B2BAC0CAD0DE50975F00EA4F8A9F022
:105B2300749528FA740339FB1204FE74021218D711
:105B3300E96045850908E508C3940A502FEE4F60D4
